:100000000C943C010C94591C0C94801C0C946401BD
:100010000C9464010C9464010C9461060C946401CA
:100020000C9464010C9464010C9464010C946401BC
:100030000C9464010C9464010C9464010C946401AC
:100040000C94B71C0C9464010C94B3190C94E5192E
:100050000C9464010C9464010C9464010C9464018C
:100060000C9464010C94640100407A10F35A00A0CF
:10007000724E18090010A5D4E80000E87648170071
:1000800000E40B54020000CA9A3B000000E1F505B1
:10009000000080969800000040420F000000A086FB
:1000A00001000000102700000000E803000000002D
:1000B0006400000000000A000000000001000000D1
:1000C00000002C76D888DC674F0823DFC1DFAE59EB
:1000D000E1B1B796E5E3E453C63AE651997696E87E
:1000E000E6C28426EB898C9B62ED407C6FFCEFBC02
:1000F0009C9F40F2BAA56FA5F490055A2AF75C932D
:100100006B6CF9676DC11BFCE0E40D47FEF520E662
:10011000B500D0ED902E0300943577050080841E45
:10012000080000204E0A000000C80C333333330FA0
:10013000986E12831141EF8D2114893BE65516CF3D
:10014000FEE6DB18D1844B381BF77C1D901DA4BB49
:10015000E424203284725E228100C9F124ECA1E5FE
:100160003D272E005245424F4F54494E4700464CC2
:10017000583F4F4B00494D47203E2033316B2C20D8
:10018000746F6F2062696700464C583F4F4B207276
:100190006573656E64005D203E2000726164696F66
:1001A000205B00554E5368696674696E672063680A
:1001B000616E6E656C20746F2000536869667469A7
:1001C0006E67206368616E6E656C20746F200046F8
:1001D0004C583F4F4B202841434B2073656E742988
:1001E000004641494C3A4E4F20464C415348204D21
:1001F000454D00444F4E4500464C41534820494D23
:1002000047205452414E534D495353494F4E20536A
:10021000554343455353210A0000000008000201E2
:1002200000000304070000000000000000010204B9
:100230000810204080010204081020010204081068
:10024000200404040404040404020202020202035F
:10025000030303030300000000230026002900001D
:10026000000000250028002B0000000000240027CB
:10027000002A0000B303151A11241FBECFEFD8E0E7
:10028000DEBFCDBF13E0A0E0B1E0E6E0FDE402C0D8
:1002900005900D92A030B107D9F725E0A0E0B3E0BA
:1002A00001C01D92A031B207E1F711E0CCE3D1E02B
:1002B00004C02197FE010E94EF20CA33D107C9F77D
:1002C0000E94A81C0C9481260C9400004091BF034E
:1002D0005091C0036091C1037091C20322E08EE18E
:1002E00093E00E94931481E008954091BB035091E4
:1002F000BC036091BD037091BE0322E08EE193E0E8
:100300000E94931481E0089561E085E00E94DD1D64
:1003100061E080E10E94DD1D60E08FE00E94DD1D54
:1003200026E040E052EC61E070E08AE694E00E9452
:100330004E1968E071E08AE694E00E94C41A80EBEE
:1003400093E00E94DE07882339F069E171E08AE6D4
:1003500094E00E94C41A06C06CE271E08AE694E060
:100360000E94C41A21E041E061E08EE193E00E9426
:10037000DE1341E451E065E471E08EE193E00E9418
:10038000191746E050E061E08EE193E00E944917C2
:1003900047E050E062E08EE193E00C9449178F92C1
:1003A0009F92AF92BF92CF92DF92EF92FF921F93F4
:1003B000CF93DF936B017C0185EA93E00E94A40850
:1003C00080EB93E00E94C5074601570183E0B69495
:1003D000A794979487948A95D1F7C701B6012AE02C
:1003E00030E040E050E00E94AE20162FC0E0D0E0A8
:1003F000CE01A0E0B0E088159905AA05BB0560F420
:1004000020E030E040E050E069E070E085ED93E00E
:100410000E9415062196ECCFC12F12FF0AC020E0E2
:1004200030E040E050E068E070E085ED93E00E944D
:100430001506C1FF0AC020E030E040E050E067E070
:1004400070E085ED93E00E94150610FF15C020E0D6
:1004500030E040E050E066E070E085ED93E0DF9151
:10046000CF911F91FF90EF90DF90CF90BF90AF9012
:100470009F908F900C941506DF91CF911F91FF9064
:10048000EF90DF90CF90BF90AF909F908F900895A6
:10049000CF92DF92EF92FF9261E085E00E94191EF9
:1004A00060E086E00E94DD1D83EC93E00E941B0467
:1004B00062E070E080E090E00E94CF0140E060E008
:1004C00083EC93E00E9474056B017C019B01AC01FD
:1004D0000E94A920882339F061E571E08AE694E062
:1004E0000E94C41A24C02091BF033091C0034091E0
:1004F000C1035091C203C701B6010E94DF1E8823C9
:10050000B1F0C092BF03D092C003E092C103F09259
:10051000C20365E771E08AE694E00E94A51A22E032
:1005200030E0B701A6018AE694E00E94261C60E054
:1005300083EC93E00E94D1056B017C019B01AC012F
:100540000E94A920882339F069E771E08AE694E0E7
:100550000E94C41A24C02091BB033091BC03409177
:10056000BD035091BE03C701B6010E94DF1E882360
:10057000B1F0C092BB03D092BC03E092BD03F092F5
:10058000BE036AE971E08AE694E00E94A51A22E0BF
:1005900030E0B701A6018AE694E00E94261C60E0E4
:1005A00085E00E94191E61E086E00E94DD1D60E08A
:1005B00086E0FF90EF90DF90CF900C94191E8EE4B0
:1005C00080937C0062E070E080E090E00E94321D49
:1005D00080917A00806480937A0080917A0086FD11
:1005E000FCCF809178002091790030E0322F2227D3
:1005F000A901330F660B770B9A01AB01282B64EB33
:100600007BE281E190E00E94D020CA01B901089507
:100610008F929F92AF92BF92CF92DF92EF92FF9212
:100620000F931F93CF93DF93CDB7DEB72B970FB602
:10063000F894DEBF0FBECDBF0E9448028EE193E06A
:100640000E944A134B015C0180912203882309F424
:1006500040C06EE971E08AE694E00E94C41A8CEB17
:1006600091E09A8389838091A7038B838091A8036B
:100670008C838091A9038D838091AA038E838091BE
:10068000AB038F838091AC0388878091AD0389870A
:100690008091AE038A878091AF038B8789E0C82E53
:1006A000E12C0091B0031091B1032091B20330917D
:1006B000B3034091B4035091B5036091B603CE01EA
:1006C00001960E94B0116AEA71E08AE694E00E9405
:1006D000C41A0E94DF026B017C012DE9C21A2CE0D2
:1006E000D20AE108F1088091B7039091B803A09174
:1006F000B903B091BA03C816D906EA06FB06E1F0C1
:10070000C701B6010E94871F8E010F5F1F4F20E0B7
:1007100041E00E94F520A80160E070E08EE193E0E6
:100720000E943B17882341F0C092B703D092B803D0
:10073000E092B903F092BA03C501B4010E94CF015F
:100740002B960FB6F894DEBF0FBECDBFDF91CF91D1
:100750001F910F91FF90EF90DF90CF90BF90AF90DF
:100760009F908F900895EF92FF920F931F9326E032
:1007700046E166E083EC93E00E94FA0340E35FEE1B
:1007800068E080EB93E00E947F06E5EAF3E08CEB03
:1007900091E0918380838AE0828382E08383148264
:1007A00081E08093E50316828FE18783108620E045
:1007B0004EE0BF018EE193E00E94F3121CE3E12EB4
:1007C000F12C00E010E026E631E040E050E061E08E
:1007D0008FE093E00E943C1225E731E041E050E0D9
:1007E00062E080E093E00E943C121F910F91FF9025
:1007F000EF900895DC0115966C93159716964C931F
:10080000169770E0FB01E35DFD4FE4911796EC93C2
:100810001797FB01EF5BFD4F649118966C93189747
:1008200040E85EE360E070E01D964D935D936D934C
:100830007C9350970895CF93DF93EC0162E08D8114
:100840000E94DD1D80E398EFAFEFBFEF89879A87A5
:10085000AB87BC87DF91CF9108958F929F92AF9223
:10086000BF92CF92DF92EF92FF92CF93DC01179667
:10087000CC911797662311F09C2F01C090E0189639
:100880002C91189730E0220F331F2B5A3D4F40E038
:1008900050E0BA01F901E590F490F70180818C23D2
:1008A00098131AC04A015B01FFEF8F1A9F0AAF0A23
:1008B000BF0A1D96CD90DD90ED90FC9050974C15A1
:1008C0005D056E057F0518F4B501A401E3CF30E0A6
:1008D00020E080E090E003C0342F252FCB01632F70
:1008E000722FCF91FF90EF90DF90CF90BF90AF909D
:1008F0009F908F9008958F929F92AF92BF92CF92C8
:10090000DF92EF92FF920F931F93CF93DF93CDB7B8
:10091000DEB7C054D1400FB6F894DEBF0FBECDBFD6
:100920008C01F62E0E94011DF11016C0F801C18441
:10093000D284E384F4849B01AC012C193D094E0957
:100940005F0969017A0130EDC31637E0D306E1048F
:10095000F10410F48189B4C0F8016187728783873C
:1009600094871482138212821182108261E0858141
:100970000E94191E6AEF70E080E090E00E94321D34
:1009800061E0F80185810E94DD1D60E0F80185814C
:100990000E94191E64E170E080E090E00E94321D28
:1009A000F89461E0F80185810E94191E88E290E0C8
:1009B0000E946E1D62E0F80185810E94DD1D8AE0C3
:1009C00090E00E946E1D60E0C8010E942D04672B1C
:1009D000682B692B21F4F801118A789442C061E0F8
:1009E000C8010E942D04672B682B692BA1F39E017F
:1009F0002F5F3F4F79015E013FEBA31A3EEFB30A31
:100A0000670160E0C8010E942D04F60160837183D4
:100A10008283938361E0C8010E942D04F601648300
:100A2000758386839783F8E0CF0ED11CCA14DB044C
:100A300041F7789420E030E0F70180809180A28037
:100A4000B380448155816681778181149104A1042A
:100A5000B10429F0411551056105710521F4F80132
:100A6000118A80E02DC0F90183E0F595E7958A951C
:100A7000E1F7E00FF11F8081880F84169506A60626
:100A8000B70608F4816080832F5F3F4FF8E0EF0ED8
:100A9000F11C2832310581F6F801248130E04081D3
:100AA000818190E0840F911D4281840F911D4381CB
:100AB000840F911D99272817390789F681E0818BCA
:100AC000C05CDE4F0FB6F894DEBF0FBECDBFDF9126
:100AD000CF911F910F91FF90EF90DF90CF90BF903B
:100AE000AF909F908F900895CF92DF92EF92FF92F8
:100AF0000F931F93CF93DF93EC01162F642F0E9467
:100B00007B04882309F440C08E818B3029F0E0F10A
:100B10008551823040F038C06A8170E080E090E01A
:100B20000E94851F22C00A81602F6F7770E080E0ED
:100B300090E00E94871F20E030E040E853E40E94EC
:100B40003C206B017C016B8170E080E090E00E94B2
:100B5000871FA70196010E94731E2DEC3CEC4CEC04
:100B60005DE30E943C2007FD9058112389F026E6A2
:100B700036E646EE5FE30E943C2020E030E040E0B5
:100B800052E40E94731E04C060E070E080EC9FE7B6
:100B9000DF91CF911F910F91FF90EF90DF90CF9059
:100BA0000895CF92DF92EF92FF92CF93DF93EC0103
:100BB00060E00E947B04882369F18E818B3019F1FB
:100BC00048F18551823030F5688170E080E090E036
:100BD0000E94851F20E030E040E853E40E943C2062
:100BE0006B017C01698170E080E090E00E94871FCA
:100BF000A70196010E94731E2DEC3CEC4CEC5DE3CA
:100C00000E943C200BC0688170E080E090E00E9470
:100C1000851F04C060E070E080EC9FE7DF91CF911A
:100C2000FF90EF90DF90CF9008954115510529F482
:100C3000EAE7F0E080818F7780836A307105A9F060
:100C400063FD02C088E001C088E26770682B88E11C
:100C50000FB6F894A895809360000FBE6093600073
:100C6000E0E6F0E0808180648083232BA1F483B7E9
:100C7000817F846083BFF89483B7816083BF85B729
:100C8000806685BF8F7D85BF7894889583B78E7F7A
:100C900083BF78940EC083B7817F846083BFF8944C
:100CA00083B7816083BF7894889583B78E7F83BF35
:100CB0007894452B29F4EAE7F0E08081806880830E
:100CC00008951F920F920FB60F9211248F930FB6B3
:100CD000F894A895809160008861809360001092DC
:100CE00060000FBE8F910F900FBE0F901F90189550
:100CF0008EBD00000DB407FEFDCF8EB50895FC013A
:100D000080E5858316826083528341830895FC01C8
:100D10008CB583838DB58483458136818091D803DA
:100D2000882399F02FB7F8948091D803813059F433
:100D30008DB38093D6039DB38091D703809589238B
:100D40008DBB2FBF02C02093D6034CBD3DBD60E0DC
:100D500080810C94191ECF93DF93EC0161E08881B0
:100D60000E94191E8091D803882361F09FB7F894E0
:100D70002091D8038091D603213019F48DBB9FBFF9
:100D800001C08FBF8B818CBD8C818DBDDF91CF91D8
:100D900008950F931F93CF93DF938C010E948706D2
:100DA0008FE90E94780680E00E947806C82FD0E084
:100DB000DC2FCC2780E00E947806C82BC8010E9457
:100DC000AB06CE01DF91CF911F910F9108951F9334
:100DD000CF93DF93EC010E94870685E00E9478069E
:100DE00080E00E947806182FCE010E94AB06812F6A
:100DF000DF91CF911F9108950E94E70681700895B9
:100E00001F93CF93DF93EC01162F442339F040E07A
:100E100066E00E940007CE010E94AB061B3A49F42F
:100E2000CE010E948706812FDF91CF911F910C94F4
:100E30007806CE010E94FC068111FBCFF1CFEF9224
:100E4000FF920F931F93CF93DF93EC01042FF52EA6
:100E5000E62E122F41E062E00E9400078E2D0E94D4
:100E600078068F2D0E947806802F0E947806812FA9
:100E70000E947806CE01DF91CF911F910F91FF90D4
:100E8000EF900C94AB062F923F924F925F926F922D
:100E90007F928F929F92AF92BF92CF92DF92EF920A
:100EA000FF920F931F93CF93DF936C012A013B01B5
:100EB00019019A01332780E091E0821B930B812C6A
:100EC000912C0115110581F1E8018017910708F4B3
:100ED000EC0141E062E0C6010E940007862D0E94FD
:100EE0007806852D0E947806842D0E94780651018F
:100EF000A80CB91C7501F70181917F010E94780649
:100F0000C7018A199B098C179D07A8F3C6010E9487
:100F1000AB064C0E5D1E611C711C8C0E9D1E0C1BC5
:100F20001D0B80E091E0CDCFDF91CF911F910F910C
:100F3000FF90EF90DF90CF90BF90AF909F908F90F9
:100F40007F906F905F904F903F902F900895FF9209
:100F50000F931F93CF93DF93EC01142F052FF62EE1
:100F600041E062E50E9400078F2D0E947806802FE5
:100F70000E947806812F0E947806CE01DF91CF91E2
:100F80001F910F91FF900C94AB06CF93DF93EC0170
:100F900040E069EB0E940007CE01DF91CF910C94F5
:100FA000AB06CF93DF93EC010E9487068BEA0E9489
:100FB0007806CE01DF91CF910C94AB06CF93DF93EF
:100FC000EC018CB58B838DB58C8361E088810E94A8
:100FD000DD1D0E94110880E58D831E82CE010E94D6
:100FE000AB06CE010E94D10789819A81892B51F0ED
:100FF000CE010E94C90629813A818217930711F018
:1010000080E00CC041E061E0CE010E94000780E07A
:101010000E947806CE010E94AB0681E0DF91CF915D
:101020000895CF93CFB7F8948091D903811127C049
:10103000EBE4F2E08491E7E3F2E09491E82FF0E052
:10104000EE0FFF1FE759FD4FA591B491EC91E923F5
:1010500021F461E08AE00E94191E61E08AE00E94AA
:10106000DD1D8CB580618CBD8CB580648CBD61E06C
:101070008DE00E94DD1D61E08BE00E94DD1D80910E
:10108000D9038F5F8093D903CFBFCF91089508957F
:1010900081E08093DC038091DA039091DB03DC0133
:1010A000ED91FC910484F585E02D09951092DC0307
:1010B0000895FC01F8948CB581878DB582878CB535
:1010C000837F8CBD8CB58F7D8CBD8CB58C7F8CBDAA
:1010D0008DB58E7F8DBD60E082810C94191ECF93FB
:1010E000DF93EC0161E08A810E94191E89858CBD25
:1010F0008A858DBD8091DC03811101C07894DF91D8
:10110000CF910895F8942091E503233021F42091A4
:10111000E10321110FC02091E503233011F47894ED
:1011200007C0DC01ED91FC910288F389E02D09955F
:1011300080E00895DC01ED91FC910488F589E02DB3
:1011400061E0099581E00895DC01ED91FC9104884E
:10115000F589E02D60E00994CF93C62FDC01ED9175
:10116000FC910480F581E02D0995882361F0809140
:10117000E303C81711F0CF3F29F49091DF0381E01A
:10118000911101C080E0CF9108953F924F925F92FC
:101190006F927F928F929F92AF92BF92CF92DF9287
:1011A000EF92FF920F931F93CF93DF93EC01162FD3
:1011B0005A01822E902E312CCE2CD12CE12CF12CE8
:1011C000E881F9810190F081E02D01E0282DA50151
:1011D000612FCE0109950E94011D2B013C010E9447
:1011E000011DDC01CB0184199509A609B7098C15ED
:1011F0009D05AE05BF0538F4612FCE010E94AC08F5
:10120000882369F304C033949314D0F680E0DF910F
:10121000CF911F910F91FF90EF90DF90CF90BF90F3
:10122000AF909F908F907F906F905F904F903F9086
:1012300008951F93CF93DF93EC01162FE881F98176
:10124000008CF18DE02D0995812F8F770E94780613
:1012500080E00E947806182FE881F981028CF38DD6
:10126000E02DCE010995812FDF91CF911F91089537
:101270000F931F93CF93DF938C0167E00E941909AE
:10128000C82F68E0C8010E941909D82F69E0C80179
:101290000E9419094C2F50E060E070E0BA01552718
:1012A0004427480F511D611D711D8D2F90E0982F0F
:1012B00088278A019B01080F191F211D311DC901B3
:1012C000B8010E94851F20E034E244E752E40E9406
:1012D0003C200E94561FDF91CF911F910F910895DE
:1012E0000F931F93CF93DF93EC01062F142FE88108
:1012F000F981008CF18DE02D0995802F80680E9486
:101300007806812F0E947806E881F981028CF38D9E
:10131000E02DCE01DF91CF911F910F910994CF92D3
:10132000DF92EF92FF921F93CF93DF93EC016A015C
:101330007B011091E503143039F4E881F9810488C8
:10134000F589E02D63E00995C701B6010E94851F6C
:1013500020E034E244E752E40E94E41E0E94561F5B
:101360006B017C01A7016627772767E0CE010E9409
:10137000700977276F2D5E2D4D2D68E0CE010E94FC
:1013800070094C2D69E0CE010E947009133041F4C0
:10139000E881F9810488F589E02D62E0CE010995A4
:1013A000E881F9810488F589E02D612FCE01DF9174
:1013B000CF911F91FF90EF90DF90CF9009941F93F2
:1013C000CF93DF932091E503261709F45DC0162F14
:1013D000EC016230E9F168F4662309F440C0613041
:1013E00009F052C061E00E941909837E482F4460D1
:1013F0003BC06330B9F0643009F046C061E00E9440
:101400001909837E482F4C6061E0CE010E9470096B
:101410008885882369F1E881F9810688F789E02DBC
:1014200061E013C061E00E941909837E482F40618A
:1014300061E0CE010E94700988858823C9F0E881A7
:10144000F9810688F789E02D60E0CE01099510C08A
:1014500061E00E941909837E482F486005C061E061
:101460000E941909482F437E61E0CE010E94700955
:101470008091E503811106C067E2CE010E9419093F
:1014800087FFF6CF1093E503DF91CF911F91089569
:10149000CF93DF93EC01603208F06FE16F838885B2
:1014A000882311F066956F8361E1CE010E941909CE
:1014B000807E9F81482F492B61E1CE01DF91CF9142
:1014C0000C947009CF92DF92EF92FF920F931F93CB
:1014D000CF93DF93EC01F62ED42EC52E122FE88188
:1014E000F9810488F589E02D61E0099567E2CE0174
:1014F0000E94190987FFFACF40E065E2CE010E9401
:1015000070091E3308F01DE3E11004C0002321F030
:1015100000E403C000E801C000E0E881F981008C2C
:10152000F18DE02DCE01099580E80E94780683E0D8
:10153000810F0E9478068F2D0E9478068D810E946F
:101540007806802F0E9478060D2DED2CFC2C8E2D18
:10155000801B811730F4F70181917F010E9478068A
:10156000F6CFE881F981028CF38DE02DCE0109954B
:10157000E881F9810488F589E02D64E0CE010995C0
:101580000E94011D6B017C018B810E94481E892BEA
:1015900081F0E881F9810488F589E02D61E0CE01D0
:1015A000DF91CF911F910F91FF90EF90DF90CF903F
:1015B00009940E94011DDC01CB018C199D09AE0923
:1015C000BF09883E9340A105B105F0F2E2CFCF9369
:1015D000DF93EC011092E4031092E3031092E20314
:1015E0001092E1031092E0031092DF031092DE03E9
:1015F0001092DD0368E20E94190982FF0AC06DE3C0
:10160000CE010E941909482F44606DE3CE010E946B
:10161000700940E465E2CE010E947009E881F98119
:101620000488F589E02D63E0CE01DF91CF91099424
:10163000CF92DF92EF92FF920F931F93CF93DF939E
:10164000EC018B01E881F9810488F589E02D61E0E6
:10165000099501151105F1F0E881F981008CF18DF2
:10166000E02DCE0109958EEB0E9478067801680185
:1016700080E1C80ED11CF70181917F010E9478069C
:10168000EC14FD04C1F7E881F981028CF38DE02DA3
:10169000CE0109956DE3CE010E9419098E7F41E0CC
:1016A000012B09F440E0482B6DE3CE01DF91CF918F
:1016B0001F910F91FF90EF90DF90CF900C947009E5
:1016C0008F929F92AF92BF92CF92DF92EF92FF9252
:1016D0000F931F93CF93DF93CDB7DEB7AE970FB6BF
:1016E000F894DEBF0FBECDBF8C01E42E8EE2AE01BA
:1016F0004F5F5F4F6A01DA01E82F1D92EA95E9F723
:1017000091E0998334E03A8342E04B8393E09D83F8
:101710004E833F8340E4488735E039879A8796E0D7
:101720009B8793E39C8737E03D8798E09F8799E00C
:10173000998B99E19B8B92E49C8B55E25D8B4E8B50
:1017400046E24F8B388F38E2398F30E13A8F39E2F9
:101750003B8F3CED3C8F8D8F88E88E8F8FE28F8F93
:101760008DE288A380E389A337E33BA330E93CA360
:1017700038E33DA39EA39CE39FA39FE898A79DE326
:1017800099A792E19AA79FE69BA78CA78FEF8DA7B9
:101790006F3131F06B3231F0663531F084EE05C0D7
:1017A0008EE403C08CE601C089ED8E876F3141F075
:1017B0006B3221F0663521F480E003C080E401C083
:1017C00080EC888B2AA361E0D80112968C910E944C
:1017D000191E61E0F80182810E94DD1D0E9411083E
:1017E0000E94011D4B015C014AEA6FE2C8010E94A0
:1017F00070096FE2C8010E9419098A3A61F00E94DB
:10180000011DDC01CB0188199909AA09BB09C297FE
:10181000A105B10548F30E94011D4B015C0145E59E
:101820006FE2C8010E9470096FE2C8010E941909A5
:10183000853561F00E94011DDC01CB0188199909F1
:10184000AA09BB09C297A105B10548F3F12CF6011D
:10185000EF0DF11DEF0DF11D60816F3F31F0418102
:10186000C8010E947009F394F2CF60E070E0C801F3
:101870000E94180BD801ED91FC9111970084F1851D
:10188000E02D18966C91C8010995D801ED91FC9155
:101890000488F589E02D61E0C80109950E94011DC9
:1018A0004B015C0167E2C8010E94190987FD0CC069
:1018B0000E94011DDC01CB0188199909AA09BB0905
:1018C000C297A105B10570F30E94011DDC01CB0197
:1018D00088199909AA09BB09C297A105B10598F40D
:1018E0001092DC0343E050E068E478E0F801848182
:1018F0000E94391C1093DB030093DA03D80115967C
:10190000EC9281E001C080E0AE960FB6F894DEBFA5
:101910000FBECDBFDF91CF911F910F91FF90EF9040
:10192000DF90CF90BF90AF909F908F900895CF930E
:10193000DF93EC0161110DC064E2CE010E94190930
:1019400090E091958195910995958795DF91CF913B
:10195000089541E063E20E94700963E2CE010E94B3
:10196000190981FFFACFE8CFCF93DF932091E503E8
:101970002330A9F42091E103211111C0EC0160E0B2
:101980000E94970C863A9F4F54F4E881F9810488AD
:10199000F589E02D61E0CE01099581E001C080E08C
:1019A000DF91CF910895EF92FF921F93CF93DF9332
:1019B000EC018091E503833001F568E2CE010E94DD
:1019C000190982FD28C019C08091E4038D3330F4D9
:1019D000E091E403F0E0EA51FC4F1082E881F981E4
:1019E000028CF38DE02DCE010995E881F981048800
:1019F000F589E02D63E0CE01099560E0CE010E94FB
:101A0000970C9093DE038093DD03DF91CF911F91BC
:101A1000FF90EF900895E881F9810488F589E02D21
:101A200061E0CE010995E881F981008CF18DE02D0E
:101A3000CE01099580E00E94780680E00E94780639
:101A40008093E1038091E1038334D0F48091E1033A
:101A50008093E10380E00E9478068093E2038E8108
:101A6000811109C08091E2039D81981721F0809136
:101A7000E2038F3F39F48091E103833018F017C0FF
:101A800082E4E6CF1092E103E881F981028CF38DC4
:101A9000E02DCE010995E881F9810288F389E02DD6
:101AA000CE01DF91CF911F91FF90EF90099480912B
:101AB000E10383508093E40380E00E9478068093E2
:101AC000E30380E00E947806982F90789093DF03DC
:101AD000982F90749093E003E881F9810684F7854C
:101AE000E02D682FCE01099510E08091E4031817CE
:101AF00008F06ACFE12EF12C80E00E947806F70111
:101B0000EA51FC4F80831F5FF0CF8F929F92AF927C
:101B1000BF92CF92DF92EF92FF920F931F93CF93DA
:101B2000DF93EC01162F6A01F22E6DE30E94190972
:101B3000482F44606DE3CE010E9470090E94011D90
:101B40004B015C01CE010E94B40C811115C00E94B2
:101B5000011DDC01CB0188199909AA09BB09883E3E
:101B60009340A105B10540F4E881F9810480F58135
:101B7000E02DCE010995E6CFE881F9810088F18951
:101B8000E02DE12C2F2DA601612FCE010995DF91CB
:101B9000CF911F910F91FF90EF90DF90CF90BF906A
:101BA000AF909F908F9008954F925F926F927F9227
:101BB000AF92BF92CF92DF92EF92FF920F931F935B
:101BC000CF93DF93EC015B01F42E1092E0031091B0
:101BD000E303C090DD03D090DE036DE30E9419099A
:101BE000482F44606DE3CE010E9470090E94011DE0
:101BF0002B013C01CE010E94B40C811115C00E9442
:101C0000011DDC01CB0184199509A609B709883E9D
:101C10009340A105B10540F4E881F9810480F58184
:101C2000E02DCE010995E6CF1093E303E881F98119
:101C30000088F189E02DEE24E39400E02F2DA5012A
:101C4000612FCE010995D092DE03C092DD03DF91B2
:101C5000CF911F910F91FF90EF90DF90CF90BF90A9
:101C6000AF907F906F905F904F9008951F93CF93A8
:101C7000DF93EC01162F611102C045E501C04DE56F
:101C80006AE5CE010E947009111102C040E701C04F
:101C90004CE76CE5CE01DF91CF911F910C94700958
:101CA000CF93DF93EC016887611102C04AE101C064
:101CB0004FE063E1CE010E9470098885882341F0DE
:101CC00061E1CE010E9419098F71482F406602C060
:101CD0004F81406861E1CE01DF91CF910C94700992
:101CE000FC01DB018CEB91E09183808312968C9157
:101CF0001297828313968C911397838314968C91F9
:101D00001497848315968C911597858316968C91DC
:101D10001697868317968C911797878318968C91C0
:101D20001897808719968C91199781871A968C91AC
:101D300082870895CF92DF92EF920F931F93CF93F4
:101D4000DF93CDB7DEB727970FB6F894DEBF0FBE8F
:101D5000CDBF6C0109831A832B833C834D835E8343
:101D60006F83EE2099F0CE0101960E94DE0781116B
:101D70000DC04FE068ED71E0C6010E94D40D61EE28
:101D800071E08AE694E00E94B21A06C046E068EE6E
:101D900071E0C6010E94D40D27960FB6F894DEBFFD
:101DA0000FBECDBFDF91CF911F910F91EF90DF90CC
:101DB000CF9008950F931F93CF93DF93CDB7DEB7E6
:101DC0000DB71EB7262F30E0220F331FA9014F5F3A
:101DD0005F4FEDB7FEB7E41BF50B0FB6F894FEBFEF
:101DE0000FBEEDBF4DB75EB74F5F5F4FFA01782F63
:101DF000DC018A2F871B861788F48D91982F929586
:101E00009F7090639A330CF0995D90838F7080631C
:101E10008A330CF0895D81833296EBCFFA01E20FB1
:101E2000F31F1082BA018AE694E00E94C41A0FB62A
:101E3000F8941EBF0FBE0DBFDF91CF911F910F9180
:101E400008952F923F924F925F926F927F928F925E
:101E50009F92AF92BF92CF92DF92EF92FF920F9339
:101E60001F93CF93DF93CDB7DEB7A5970FB6F89446
:101E7000DEBF0FBECDBF4C016DA3EC8EFD8E0E8F6D
:101E80001F8F28A339A34AA33C2CACA240E050E00A
:101E9000BA01CE014C960E94A70707E010E024E0AB
:101EA00032E040E050E0BA01CE014C960E94430778
:101EB0002AE349E050E060E070E0CE014C960E94D9
:101EC0001F070E94011D2B013C019AE0C92ED12C55
:101ED000A12CB12CC4010E948208882301F18091B9
:101EE000E3032DA182131BC06091E4036BA3643054
:101EF00020F08091E603863409F161E08CA10E9414
:101F0000DD1D61E08CA10E94191E61E070E080E09F
:101F100090E00E94321D60E08CA10E94191E0E9478
:101F2000011DDC01CB0184199509A609B709893B7C
:101F30009B40A105B10570F280E039C18091E703B3
:101F40008C34D9F68091E8038835B9F68091E9039D
:101F50008A3309F0A5C06BA1673008F4A1C084E002
:101F600090E000E010E0482FFF24FA94F80EFC0106
:101F7000EA51FC4F2081203308F411C120812A331B
:101F800008F00DC150816AE0609F9001619F300DA3
:101F90001124890100531109050F111D0196883084
:101FA000910509F7F42E3320C1F06BE971E08AE660
:101FB00094E00E94811A4AE050E06BA18AE694E026
:101FC0000E942C1B66E971E08AE694E00E94811A67
:101FD0006BA186EE93E00E94DA0EE1E0EF0DF0E0F7
:101FE000EA51FC4F80818A3309F0A6CF0E94011D7F
:101FF0002B013C01A016B10639F0C50101978017ED
:10200000910709F04DC027C082E0282E2F0C8FEFDA
:10201000A81AB80A9BA12916F0F4E22DF0E0EA51C3
:10202000FC4F208176016FEFE61AF60AA60160E008
:1020300070E0CE014C960E941F07C7019F77892B45
:1020400039F4A70160E070E0CE014C960E94A7072A
:1020500023946701DFCF1F930F938CE092E09F934F
:102060008F9381E090E08C0F9D1F9F938F930E9430
:102070002B21182F0F900F900F900F900F900F9013
:10208000332039F0BE016F5F7F4F8AE694E00E94F3
:10209000C41A412FBE016F5F7F4FC4010E94D40D4F
:1020A0008091E9038F3309F028CF9BA19430E1F4AC
:1020B000B401CE0141960E94700EEE24E3940C8D83
:1020C0001D8D2E8D3F8D48A159A16AA1CE0141964B
:1020D0000E949A0E332009F410CF68E871E08AE676
:1020E00094E00E94B21A09CF2BA1273009F005CF46
:1020F0008091EA03853409F000CF8091EB038F349F
:1021000009F0FBCE8091EC03863409F0F6CE86010F
:102110000A50110901306CE7160778F0332031F0CE
:1021200065E771E08AE694E00E94B21A4FE066E14A
:1021300072E0C4010E94D40DFFCEB401CE014196DD
:102140000E94700E46E068EE71E0CE0141960E945A
:10215000D40D332031F06EE671E08AE694E00E94FF
:10216000B21A212F47E050E060E070E0CE014C96BB
:102170000E941F0726EF2C0D48E050E060E070E061
:10218000CE014C960E941F072AE349E050E060E030
:1021900070E0CE014C960E941F0781E008C02081AC
:1021A0002A3309F0FBCE443009F0FDCEC5CEA5960A
:1021B0000FB6F894DEBF0FBECDBFDF91CF911F9158
:1021C0000F91FF90EF90DF90CF90BF90AF909F90D6
:1021D0008F907F906F905F904F903F902F900895D9
:1021E0008F929F92AF92BF92CF92DF92EF92FF9227
:1021F0000F931F93CF93DF93CDB7DEB762970FB6E0
:10220000F894DEBF0FBECDBF4C01B62EEC86FD8626
:102210000E871F87288B398B4A8BDC2CBC01CE01A3
:1022200001960E94700EEE24E3940C851D852E8588
:102230003F85488959896A89CE0101960E949A0E84
:10224000CC20D9F06FEC71E08AE694E00E94B21ADB
:102250006AEB71E08AE694E00E94811AC4010E9450
:102260003809AB01BC01405C5D4B604F7F4F2AE0F9
:1022700030E08AE694E00E94391BC4010E943809CC
:10228000AB01BC01405C5D4B604F7F4FC4010E94BD
:102290008F09B401CE0101960E94700ECD2CEC8402
:1022A000FD840E851F85288939894A896B2DCE01C9
:1022B00001960E94210F182FDD20A9F063EA71E03A
:1022C0008AE694E00E94811AC4010E943809AB0199
:1022D000BC01405452446F4071092AE030E08AE664
:1022E00094E00E94391BC4010E943809AB01BC0173
:1022F000405452446F407109C4010E948F09812FDC
:1023000062960FB6F894DEBF0FBECDBFDF91CF91BE
:102310001F910F91FF90EF90DF90CF90BF90AF9003
:102320009F908F900895C82F882331F064E671E064
:102330008AE694E00E94811A98E088E10FB6F8944A
:10234000A895809360000FBE90936000C11101C0FA
:10235000FFCF62E671E08AE694E00E94811AF6CF30
:10236000AF92BF92CF92DF92EF92FF920F931F93A3
:10237000CF93DF93CDB7DEB762970FB6F894DEBF89
:102380000FBECDBF0C871D872E873F87488B598B8B
:102390006A8B2091E403243008F45DC02091E603A9
:1023A000263409F058C02091E7032C3409F053C0BB
:1023B0002091E803283509F04EC02091E9032F331E
:1023C00009F049C0AC2CDE2CB090E3032091E4036B
:1023D0002730A1F42091EA03253481F42091EB0306
:1023E0002F3461F42091EC03263441F400E026E020
:1023F00048EE51E06B2D0E94850D2DC0BC01CE0131
:1024000001960E94700ECD2CEC84FD840E851F85F4
:10241000288939894A896B2DCE0101960E94F010D6
:10242000882359F0DD2031F068EF71E08AE694E00E
:102430000E94811A8D2D0E949311DD2061F066E2C9
:1024400072E08AE694E00E94A51A63EF71E08AE6E2
:1024500094E00E94B21A62960FB6F894DEBF0FBEE7
:10246000CDBFDF91CF911F910F91FF90EF90DF9043
:10247000CF90BF90AF900895EF92FF920F931F936C
:10248000CF93DF93EC0168835A8349831D86EB82E7
:10249000FC820D831E833C872B8781E08E87EF8231
:1024A000F88609871A870E944513009749F0BE01F4
:1024B000DF91CF911F910F91FF90EF900C94331308
:1024C000DF91CF911F910F91FF90EF900895DC0164
:1024D0001B96ED91FC911C97309711F08C9109940B
:1024E00080E00895DF92EF92FF920F931F93CF93B6
:1024F000DF938C01F62ED42EE22E0E944513EC01C0
:10250000892B01F1D11001C0FA80C801EE2059F0E9
:102510000E946712882311F0C80105C08881998143
:102520000E94A4080FC00E941C18F80146856F2D58
:10253000CE01DF91CF911F910F91FF90EF90DF902F
:102540000C944C1680E0DF91CF911F910F91FF907A
:10255000EF90DF900895CF93DF93FC018381948106
:10256000A581B681892B8A2B8B2B71F18781908570
:10257000A185B285481759076A077B0728F017829B
:1025800010861186128608C0841B950BA60BB70B0C
:1025900087839087A187B28787819085A185B2853F
:1025A000892B8A2B8B2BE1F4EF0121E040E060E0E6
:1025B000CF010E9472128B819C81AD81BE818F837D
:1025C0009887A987BA870CC08585882349F0158626
:1025D00021E040E060E0CF01DF91CF910C947212D6
:1025E000DF91CF9108950F931F93CF93DF93EC0169
:1025F000FC01E458FD4F88EE93E091838083D093F3
:102600002404C0932304798368832A831A86198655
:102610001B821C828E0102581D4FF801408340E24C
:1026200050E06FEF70E0CE01875F9D4F0E94152153
:1026300040E250E064E370E0CE01845C9D4F0E9474
:10264000102640E250E06FEF70E0CE01845A9D4FBB
:102650000E94152160E0F8018081DF91CF911F91E8
:102660000F910C94DD1DFC01218532852F3F310532
:1026700009F050F4C901019692878187220F331F18
:10268000E20FF31F7487638708958091230490916C
:1026900024040895CF92DF92EF92FF921F93CF937D
:1026A000DF93EC0110E0CC24CA94DC2C7601812F5E
:1026B00090E029853A858217930710F010E023C037
:1026C000880F991FFE01E80FF91F83859485FC018F
:1026D0002585222331F021E040E060E00E94721263
:1026E00010C0FC0187819085A185B2850097A10566
:1026F000B10539F08C159D05AE05BF0510F46C01D0
:102700007D011F5FD4CF812F90E029853A85821704
:10271000930768F4880F991FFE01E80FF91FB701AE
:10272000A601838594850E94AB121F5FECCFC70181
:10273000B601DF91CF911F91FF90EF90DF90CF9086
:102740000895FC01E75DFD4F875C9D4FDB012D91F6
:10275000BD012193E817F907C9F70895CF93DF93D7
:10276000EC0163E1888199810E941909682F80E05A
:1027700090E00E943826FE01E55CFD4F608181E01B
:1027800090E00E943826FE01E65CFD4F608182E009
:1027900090E00E943826FE01E75CFD4F608183E1F6
:1027A00090E00E94382640E150E063E070E0CE0106
:1027B000875D9D4FDF91CF910C9428266F927F9279
:1027C0008F929F92AF92BF92CF92DF92EF92FF9241
:1027D0000F931F93CF93DF93EC01662E042F722E7D
:1027E00080E090E00E942026182FCE01855C9D4F4E
:1027F0005C01DE01A65CBD4F7D01FE01E75CFD4F83
:102800006F0142974C011F3011F01A3111F500236E
:1028100001F16FE472E08AE694E00E94C41A81E05C
:1028200090E00E942026D5018C9382E090E00E94E7
:102830002026F701808383E190E00E942026D601C4
:102840008C9340E150E063E070E0C4010E941026E8
:1028500013C063E672E08AE694E00E94C41A84E63C
:10286000F501808386E5D7018C93F601608266E7E7
:1028700072E0CE010E94A113D5012C91F601408196
:10288000D7016C91888199810E94600BB401888185
:1028900099810E94180B1F3051F488819981DC01C5
:1028A000ED91FC910084F185E02D61E009957720A0
:1028B00059F0011109C067E872E08AE694E00E94CD
:1028C000C41ACE010E94AE1388819981DF91CF9105
:1028D0001F910F91FF90EF90DF90CF90BF90AF903E
:1028E0009F908F907F906F900C94A408AC0182E031
:1028F000E82FF0E093E0F595E7959A95E1F7E40F7E
:10290000F51FE45CFD4F208130E020953095982F35
:10291000977002C0359527959A95E2F720FF02C07F
:102920008F5FE6CF08950F931F93CF93DF93CDB7BB
:10293000DEB7EA970FB6F894DEBF0FBECDBFCB016E
:10294000BA018E010F5F1F4F41E00E94F520C801C0
:102950000E946017EA960FB6F894DEBF0FBECDBF97
:10296000DF91CF911F910F9108954F925F926F92D7
:102970007F928F929F92AF92BF92CF92DF92EF920F
:10298000FF920F931F93CF93DF9300D000D0CDB76A
:10299000DEB76C018090E403912C23E08216910451
:1029A0000CF463C19091E703953008F05EC110917B
:1029B000E303E12EF12C8091E00321E0811101C0BD
:1029C00020E05B01DB0113962C9313972091DD032C
:1029D0003091DE0316963C932E9315978091E60373
:1029E0008F3FC9F59330B9F52091E803203199F56F
:1029F0000E94011D69837A838B839C83CE0101969B
:102A00000E94C217F601808191814091000150918E
:102A10000101DC01ED91FC910190F081E02D00E0DD
:102A200027E0612F099573E0F594E7947A95E1F733
:102A3000CE0CDF1CF601E75FFD4F177081E090E0E0
:102A400001C0880F1A95EAF78095908189238083C9
:102A500083E090E00CC1F6012381222309F47BC0BE
:102A60008F3F09F078C0933009F075C02091E803DA
:102A7000233009F070C069EA72E08AE694E00E94AF
:102A8000C41AC6010E943118D6018D919C91DC01B7
:102A9000ED91FC910284F385E02D60E00995F6014B
:102AA000A080B180D501ED91FC91828093800E943D
:102AB0005C17F82E0E94571768E2E62E02E02F2DD1
:102AC000AC01612FC501F4010995182FD6018D9134
:102AD0009C91DC01ED91FC910284F385E02D6FE186
:102AE0000995112309F4B8C0E0910201F0910301A6
:102AF0008581E82FF0E053E0F595E7955A95E1F7E9
:102B0000EC0DFD1DE45CFD4F282F277081E090E067
:102B100001C0880F2A95EAF78095908189238083E8
:102B200040E250E064E370E0C601845C9D4F0E9487
:102B300028266EEB72E08AE694E00E94C41AF60141
:102B4000E75CFD4F21E041E06081C6010E94DE1399
:102B5000F601138281C0D5011C9311968C931197B5
:102B600012969C9312978091E80314968C93149775
:102B70001796E6EEF3E0B401635071099F01265EFB
:102B800033402617370724F493819D933196F6CF6F
:102B9000813109F464C0843009F464C0C70143E0A2
:102BA000959587954A95E1F71770F12E8601080FE4
:102BB000191F075F1D4FF801808190E08095909567
:102BC0000F2C02C0959587950A94E2F780FF3DC0CF
:102BD000F401EB51FC4F2081F401EC51FC4F80815A
:102BE00090E0A0E0B0E0DC0199278827B22BF40147
:102BF000EE51FC4F2081822BF401ED51FC4F2081DE
:102C0000922B89839A83AB83BC830E94011D4980E8
:102C10005A806B807C80DC01CB0184199509A60960
:102C2000B709883B9B40A105B105F8F4F501E80D13
:102C3000F91D108281E090E001C0880FFA94EAF754
:102C4000D8019C91892B8C9304C0F501E60FF71FE6
:102C5000178281E090E00BC084E090E008C082E041
:102C600090E005C085E090E002C080E090E00F9029
:102C70000F900F900F90DF91CF911F910F91FF90C8
:102C8000EF90DF90CF90BF90AF909F908F907F900C
:102C90006F905F904F9008954F925F926F927F92E6
:102CA0008F929F92AF92BF92CF92DF92EF92FF925C
:102CB0000F931F93CF93DF93CDB7DEB7C254D109E3
:102CC0000FB6F894DEBF0FBECDBF6C01B62EE42E5A
:102CD000442381F110E0FF24F39432E4A32ECE01CB
:102CE00001964C010E94AF17D6018D919C914091A5
:102CF000000150910101DC01ED91FC910190F08106
:102D0000E02D00E023E06B2D09950E94011D2B01B1
:102D10003C01FF2009F462C00E94011DDC01CB01CF
:102D200084199509A609B709883E9340A105B10504
:102D3000C0F155C0D6018D909C90D401ED91FC91CD
:102D400062807380E11002C005E001C003E00E94D0
:102D50005C17182F0E94571728E2E22E212FAC0192
:102D60006B2DC401F3010995182F882361F0809120
:102D7000E403882341F08091E603853521F481E066
:102D8000D60114968C93F601E75CFD4F9081F60115
:102D90008281981721F0808191810E94A408812F5F
:102DA00030C0D6018D919C91DC01ED91FC910480A5
:102DB000F581E02D0995882309F4AECFD401EA2DE1
:102DC0001D92EA95E9F7B401C6010E94B514029775
:102DD000A1F4CE0108960E94821713E0F12C1F5F28
:102DE000133008F47FCFFF2009F4A4CFF6018081CF
:102DF00091810E94A40880E004C0D6018D919C912D
:102E0000F8CFCE5BDF4F0FB6F894DEBF0FBECDBF5D
:102E1000DF91CF911F910F91FF90EF90DF90CF90B6
:102E2000BF90AF909F908F907F906F905F904F90EA
:102E30000895EF92FF921F93CF93DF93EC017A01F5
:102E40008BE090E00E94971740E06A81CE010E94DB
:102E50004C16182FB7018CE090E00E94971740E0C5
:102E60006A81CE010E944C168123DF91CF911F9180
:102E7000FF90EF900895CF93DF93EC01CB01BA015F
:102E80000E94971740E06A81CE01DF91CF910C94A8
:102E90004C16CF93DF93EC01862FBA010E940918DC
:102EA00040E06A81CE01DF91CF910C944C16809165
:102EB00002019091030108958091250490E0089506
:102EC000CF93BC01009761F0FC0101900020E9F76D
:102ED0003197E81BF90BE633F10520F4CE2F03C040
:102EE000C0E001C0C6E34C2F50E0809102019091F8
:102EF000030103960E941C21E3E0EC0FE0932504FC
:102F0000CF910895BC019091250420910201309148
:102F1000030144E050E0F901E90FF11DCF010E94E7
:102F20001C21809125048C5F809325040895E091F5
:102F30000201F09103019FEF9083E0910201F09173
:102F4000030193E09183E0910201F09103018283F8
:102F50006115710519F0CB010C9460170895E0918B
:102F60000001F09101018FEF8083E0910001F09169
:102F7000010183E08183E0910001F091010180E192
:102F800082830895FC01A0910001B09101018FEFAF
:102F90008C93A0910001B091010183E011968C9374
:102FA000A0910001B091010181E112968C931297DA
:102FB000808113968C931397408151816281738134
:102FC000452F562F672F7727408351836283738362
:102FD00014964C9314974081518162817381452FDF
:102FE000562F672F7727408351836283738315960B
:102FF0004C9315974081518162817381452F562FE3
:10300000672F7727408351836283738316964C938F
:103010000895E0910201F09103018083E0910201A3
:10302000F09103011182E0910201F09103016283AA
:1030300083E0809325040895E0910201F09103015B
:10304000DC012C912083E0910201F091030121E049
:103050002183E0910201F091030111968C9182830A
:1030600008950F931F93CF93DF93EC01E09102013A
:10307000F09103018FEF8083E0910201F091030151
:1030800083E08183009102011091030184E0F80143
:103090008283FE01E55CFD4F8081F8018383FE01A0
:1030A000E65CFD4F8081F8018483CE010E94761496
:1030B000F8018583C75DDD4F86E090E02991E091BE
:1030C0000201F0910301E80FF91F20830196863178
:1030D0009105A1F786E180932504DF91CF911F919F
:1030E0000F910895FC01918D228D892F90E0805CD5
:1030F0009F4F821B91098F7399270895FC01918D31
:10310000828D981731F0828DE80FF11D858D90E04A
:1031100008958FEF9FEF0895FC01918D828D981790
:1031200061F0828DDF01A80FB11D5D968C91928DAB
:103130009F5F9F73928F90E008958FEF9FEF0895A8
:10314000FC01538D448D252F30E0842F90E0821BAD
:10315000930B541710F0CF960895019708958BE0C4
:103160009AE1892B49F080E090E0892B29F00E94B8
:103170000B1A81110C9400000895FC01848DDF016D
:10318000A80FB11DA35ABF4F2C91848D90E00196DA
:103190008F739927848FA689B7892C93A089B189C9
:1031A0008C91837080648C93938D848D981306C06A
:1031B0000288F389E02D80818F7D80830895EF92CE
:1031C000FF920F931F93CF93DF93EC0181E0888FE1
:1031D0009B8D8C8D981305C0E889F989808185FDC8
:1031E00026C0F62E0B8D10E00F5F1F4F0F731127B7
:1031F000E02E8C8DE8120CC00FB607FCFACFE889E0
:10320000F989808185FFF5CFCE010E94BD18F1CFED
:103210008B8DFE01E80FF11DE35AFF4FF0829FB73F
:10322000F8940B8FEA89FB89808180620AC09FB77E
:10323000F894EE89FF896083E889F9898081837039
:10324000806480839FBF81E090E0DF91CF911F91E8
:103250000F91FF90EF900895CF93DF93EC01888D4D
:103260008823C9F0EA89FB89808185FD05C0A8898A
:10327000B9898C9186FD0FC00FB607FCF5CF808110
:1032800085FFF2CFA889B9898C9185FFEDCFCE015A
:103290000E94BD18E7CFDF91CF910895CF92DF92C2
:1032A000EF92FF921F93CF93DF93EC016A017B01B2
:1032B000122FE889F98982E080834115514E61051A
:1032C0007105B1F060E079E08DE390E0A70196012F
:1032D0000E94AE20DA01C9010197A109B109B69592
:1032E000A795979587959C01211580E13807A8F04F
:1032F000E889F989108260E874E88EE190E0A7011E
:1033000096010E94AE20DA01C9010197A109B10915
:10331000B695A795979587959C01EC85FD8530839B
:10332000EE85FF852083188EEC89FD891083EA895C
:10333000FB89808180618083EA89FB898081886044
:103340008083EA89FB89808180688083EA89FB89A0
:1033500080818F7D8083DF91CF911F91FF90EF90CF
:10336000DF90CF9008951F920F920FB60F92112405
:103370002F938F939F93EF93FF93E0917A04F091B3
:103380007B048081E0918004F091810482FD12C071
:103390009081809183048F5F8F73209184048217C2
:1033A00051F0E0918304F0E0E659FB4F958F809354
:1033B000830401C08081FF91EF919F918F912F91A4
:1033C0000F900FBE0F901F9018951F920F920FB67F
:1033D0000F9211242F933F934F935F936F937F939B
:1033E0008F939F93AF93BF93EF93FF938AE694E0FD
:1033F0000E94BD18FF91EF91BF91AF919F918F9166
:103400007F916F915F914F913F912F910F900FBEE0
:103410000F901F9018958AE694E00E94721821E0A0
:10342000892B09F420E0822F0895EAE6F4E0138264
:10343000128288EE93E0A0E0B0E084839583A683B7
:10344000B78383EE92E09183808385EC90E095874B
:10345000848784EC90E09787868780EC90E0918B5E
:10346000808B81EC90E0938B828B82EC90E0958B4B
:10347000848B86EC90E0978B868B118E128E138E48
:10348000148E0895CF92DF92EF92FF920F931F93C5
:10349000CF93DF936C017A018B01C0E0D0E0CE15B1
:1034A000DF0581F0D8016D918D01D601ED91FC9180
:1034B0000190F081E02DC6010995892B11F021962C
:1034C000EECF7E01C701DF91CF911F910F91FF9049
:1034D000EF90DF90CF9008956115710579F0FB01B1
:1034E00001900020E9F73197AF01461B570BDC0133
:1034F000ED91FC910280F381E02D099480E090E051
:103500000895EF92FF920F931F93CF93DF938C0157
:103510007B01C0E0D0E0F701EC0FFD1F6491662352
:1035200061F0D801ED91FC910190F081E02DC8018E
:103530000995892B11F02196EECFCE01DF91CF9125
:103540001F910F91FF90EF9008950C946C1ADC017D
:10355000ED91FC910190F081E02D099461EF72E012
:103560000C946C1A0F931F93CF93DF93EC010E947E
:10357000811A8C01CE010E94AE1A800F911FDF913B
:10358000CF911F910F9108950F931F93CF93DF93C6
:10359000EC010E946C1A8C01CE010E94AE1A800FC1
:1035A000911FDF91CF911F910F9108958F929F925C
:1035B000AF92BF92EF92FF920F931F93CF93DF933F
:1035C000CDB7DEB7A1970FB6F894DEBF0FBECDBF63
:1035D0007C01FA01CB0119A2223008F42AE08E0105
:1035E0000F5D1F4F822E912CA12CB12CBF01A50184
:1035F00094010E94AE20F901CA01015011096A30FC
:1036000014F4605D01C0695CD8016C93232B242BFA
:10361000252B61F7B801C7010E946C1AA1960FB65D
:10362000F894DEBF0FBECDBFDF91CF911F910F91F8
:10363000FF90EF90BF90AF909F908F9008952115CD
:10364000310541F4DC01ED91FC910190F081E02D18
:10365000642F09940C94D61A9A01462F50E060E02A
:1036600070E00C941F1B9A01AB0160E070E00C94B9
:103670001F1B0F931F93CF93DF93EC010E941F1B1F
:103680008C01CE010E94AE1A800F911FDF91CF9165
:103690001F910F9108957F928F929F92AF92BF9248
:1036A000CF92DF92EF92FF920F931F93CF93DF930E
:1036B0008C016A017B01722E9A01AB01C701B60130
:1036C0000E94A920882319F064EF72E027C0460108
:1036D0005701E894B7F82FEF3FEF4FE75FE7C501D9
:1036E000B4010E94A92081110DC02FEF3FEF4FE7D9
:1036F0005FE7C501B4010E94DF1E18161CF468EFD5
:1037000072E00CC02FEF3FEF4FE75FE4C701B60157
:103710000E943720181694F46CEF72E0C801DF9114
:10372000CF911F910F91FF90EF90DF90CF90BF90BE
:10373000AF909F908F907F900C946C1A2FEF3FEF7B
:103740004FE75FECC701B6010E94DF1E87FDE4CFA3
:1037500020E030E0A901C701B6010E94DF1E87FF0B
:103760000AC06DE2C8010E94A71AEC01F7FAF094B2
:10377000F7F8F09402C0C0E0D0E0B12C60E070E057
:1037800080E09FE37B1441F020E030E040E251E430
:103790000E94E41EB394F6CFA70196010E94731E07
:1037A0006B017C010E94561F4B015C012AE0AB01BA
:1037B000BC01C8010E94D61AC80FD91F7720B9F1E1
:1037C000C501B4010E94851F9B01AC01C701B60170
:1037D0000E94721E6B017C016EE2C8010E94A71A52
:1037E000C80FD91F20E030E040E251E4C701B60124
:1037F0000E943C204B015C010E94561F6B017C0122
:103800004AE050E0C8010E94331BC80FD91FB6011F
:1038100080E090E00E94851F9B01AC01C501B401CE
:103820000E94721E6B017C017A947110DBCFCE0175
:10383000DF91CF911F910F91FF90EF90DF90CF908C
:10384000BF90AF909F908F907F9008950F931F939C
:10385000CF93DF93EC010E944B1B8C01CE010E94A1
:10386000AE1A800F911FDF91CF911F910F91089594
:1038700008958230E8F4E82FF0E0EE0FFF1FEC5FD0
:10388000FE4F71836083813041F0809169008C7FAD
:10389000482B40936900E89A089580916900837FDE
:1038A000440F551F440F551F482B40936900E99A58
:1038B00008951F920F920FB60F9211242F933F93EA
:1038C0004F935F936F937F938F939F93AF93BF9328
:1038D000EF93FF93E0910401F09105010995FF91A9
:1038E000EF91BF91AF919F918F917F916F915F9178
:1038F0004F913F912F910F900FBE0F901F901895F1
:103900001F920F920FB60F9211242F933F934F9354
:103910005F936F937F938F939F93AF93BF93EF9337
:10392000FF93E0910601F09107010995FF91EF9156
:10393000BF91AF919F918F917F916F915F914F91C7
:103940003F912F910F900FBE0F901F9018950895E3
:103950000E94791D0E94A71C0E948401CFEAD8E131
:103960000E9408032097E1F30E94AF18F9CF1F923D
:103970000F920FB60F9211242F933F938F939F9323
:10398000AF93BF938091080590910905A0910A0516
:10399000B0910B053091070523E0230F2D3720F45C
:1039A0000196A11DB11D05C026E8230F0296A11D99
:1039B000B11D209307058093080590930905A093F6
:1039C0000A05B0930B0580910C0590910D05A0910F
:1039D0000E05B0910F050196A11DB11D80930C0538
:1039E00090930D05A0930E05B0930F05BF91AF9175
:1039F0009F918F913F912F910F900FBE0F901F902D
:103A000018952FB7F8946091080570910905809179
:103A10000A0590910B052FBF08953FB7F894809148
:103A20000C0590910D05A0910E05B0910F0526B5DE
:103A3000A89B05C02F3F19F00196A11DB11D3FBFE6
:103A4000BA2FA92F982F8827820F911DA11DB11D74
:103A5000BC01CD0142E0660F771F881F991F4A9570
:103A6000D1F708958F929F92AF92BF92CF92DF923B
:103A7000EF92FF926B017C010E940D1D4B015C01D6
:103A8000C114D104E104F10401F10E94711E0E94ED
:103A90000D1DDC01CB0188199909AA09BB09883ED3
:103AA0009340A105B10560F321E0C21AD108E108F5
:103AB000F10888EE880E83E0981EA11CB11CC11489
:103AC000D104E104F10419F7DBCFFF90EF90DF9010
:103AD000CF90BF90AF909F908F90089582309105C6
:103AE00038F0880F991F880F991F05970197F1F7F4
:103AF0000895789484B5826084BD84B5816084BD66
:103B000085B5826085BD85B5816085BDEEE6F0E056
:103B1000808181608083E1E8F0E0108280818260B2
:103B20008083808181608083E0E8F0E08081816033
:103B30008083E1EBF0E0808184608083E0EBF0E063
:103B4000808181608083EAE7F0E080818460808307
:103B500080818260808380818160808380818068B1
:103B600080831092C1000895833081F028F4813061
:103B700099F08230A1F008958730A9F08830B9F02B
:103B80008430D1F4809180008F7D03C080918000CB
:103B90008F7780938000089584B58F7702C084B5B5
:103BA0008F7D84BD08958091B0008F7703C0809190
:103BB000B0008F7D8093B0000895CF93DF9390E0A5
:103BC000FC01E35DFD4F2491FC01EF5BFD4F84910F
:103BD000882361F190E0880F991FFC01E759FD4FA0
:103BE000C591D491FC01E15AFD4FA591B4916111A9
:103BF00009C09FB7F8948881209582238883EC912F
:103C00002E230BC0623061F49FB7F8948881322F65
:103C1000309583238883EC912E2B2C939FBF06C075
:103C20008FB7F894E8812E2B28838FBFDF91CF9137
:103C300008951F93CF93DF93282F30E0F901E75EBB
:103C4000FD4F8491F901E35DFD4FD491F901EF5BE4
:103C5000FD4FC491CC23C1F0162F81110E94B41DD9
:103C6000EC2FF0E0EE0FFF1FE15AFD4FA591B4914C
:103C70009FB7F894111104C08C91D095D82302C03D
:103C8000EC91DE2BDC939FBFDF91CF911F910895C4
:103C9000CF93DF93282F30E0F901E75EFD4F849149
:103CA000F901E35DFD4FD491F901EF5BFD4FC49144
:103CB000CC2391F081110E94B41DEC2FF0E0EE0FA7
:103CC000FF1FEB5AFD4FA591B491EC91ED2381E0DC
:103CD00090E021F480E002C080E090E0DF91CF919D
:103CE000089508955058BB27AA270E948A1E0C9455
:103CF000FD1F0E94EF1F38F00E94F61F20F039F4DC
:103D00009F3F19F426F40C94EC1F0EF4E095E7FBAA
:103D10000C94E61FE92F0E940E2058F3BA17620791
:103D200073078407950720F079F4A6F50C943020EA
:103D30000EF4E0950B2EBA2FA02D0B01B9019001C6
:103D40000C01CA01A0011124FF27591B99F0593F0A
:103D500050F4503E68F11A16F040A22F232F342F52
:103D60004427585FF3CF469537952795A795F040A0
:103D70005395C9F77EF41F16BA0B620B730B840BB5
:103D8000BAF09150A1F0FF0FBB1F661F771F881F6D
:103D9000C2F70EC0BA0F621F731F841F48F48795C5
:103DA00077956795B795F7959E3F08F0B0CF9395B7
:103DB000880F08F09927EE0F9795879508950E9430
:103DC000C21F08F481E008950E94F81E0C94FD1FA4
:103DD0000E94F61F58F00E94EF1F40F029F45F3F49
:103DE00029F00C94E61F51110C9431200C94EC1F17
:103DF0000E940E2068F39923B1F3552391F3951B8C
:103E0000550BBB27AA2762177307840738F09F5FFB
:103E10005F4F220F331F441FAA1FA9F335D00E2E68
:103E20003AF0E0E832D091505040E695001CCAF7D5
:103E30002BD0FE2F29D0660F771F881FBB1F261798
:103E400037074807AB07B0E809F0BB0B802DBF016F
:103E5000FF2793585F4F3AF09E3F510578F00C943E
:103E6000E61F0C9431205F3FE4F3983ED4F386952F
:103E700077956795B795F7959F5FC9F7880F911D5F
:103E80009695879597F90895E1E0660F771F881F4B
:103E9000BB1F621773078407BA0720F0621B730BFE
:103EA000840BBA0BEE1F88F7E09508950E94162048
:103EB00088F09F5798F0B92F9927B751B0F0E1F0EB
:103EC000660F771F881F991F1AF0BA95C9F714C09B
:103ED000B13091F00E943020B1E008950C94302070
:103EE000672F782F8827B85F39F0B93FCCF38695D4
:103EF00077956795B395D9F73EF490958095709531
:103F000061957F4F8F4F9F4F0895E89409C097FBAD
:103F10003EF490958095709561957F4F8F4F9F4FA0
:103F20009923A9F0F92F96E9BB279395F6958795E4
:103F300077956795B795F111F8CFFAF4BB0F11F4A7
:103F400060FF1BC06F5F7F4F8F4F9F4F16C088234E
:103F500011F096E911C0772321F09EE8872F762F84
:103F600005C0662371F096E8862F70E060E02AF0C5
:103F70009A95660F771F881FDAF7880F96958795B1
:103F800097F90895990F0008550FAA0BE0E8FEEF86
:103F900016161706E807F907C0F012161306E4070D
:103FA000F50798F0621B730B840B950B39F40A2606
:103FB00061F0232B242B252B21F408950A2609F4E4
:103FC000A140A6958FEF811D811D089597F99F67E8
:103FD00080E870E060E008959FEF80EC0895002491
:103FE0000A941616170618060906089500240A945E
:103FF00012161306140605060895092E0394000CE4
:1040000011F4882352F0BB0F40F4BF2B11F460FF72
:1040100004C06F5F7F4F8F4F9F4F089557FD90589B
:10402000440F551F59F05F3F71F04795880F97FB7C
:10403000991F61F09F3F79F0879508951216130636
:104040001406551FF2CF4695F1DF08C01616170665
:104050001806991FF1CF869571056105089408959A
:10406000E894BB2766277727CB0197F908950E942C
:10407000C21F08F48FEF08950E944F200C94FD1F7B
:104080000E94EF1F38F00E94F61F20F0952311F0D8
:104090000C94E61F0C94EC1F11240C9431200E9408
:1040A0000E2070F3959FC1F3950F50E0551F629F4E
:1040B000F001729FBB27F00DB11D639FAA27F00D81
:1040C000B11DAA1F649F6627B00DA11D661F829FA8
:1040D0002227B00DA11D621F739FB00DA11D621F8D
:1040E000839FA00D611D221F749F3327A00D611DAA
:1040F000231F849F600D211D822F762F6A2F11248C
:104100009F5750409AF0F1F088234AF0EE0FFF1FBE
:10411000BB1F661F771F881F91505040A9F79E3F15
:10412000510580F00C94E61F0C9431205F3FE4F3BE
:10413000983ED4F3869577956795B795F795E7956B
:104140009F5FC1F7FE2B880F911D9695879597F974
:1041500008950E94C21F880B990B0895A1E21A2EA0
:10416000AA1BBB1BFD010DC0AA1FBB1FEE1FFF1F1B
:10417000A217B307E407F50720F0A21BB30BE40B6B
:10418000F50B661F771F881F991F1A9469F76095B2
:104190007095809590959B01AC01BD01CF0108956C
:1041A000052E97FB1EF400940E94E72057FD07D0D0
:1041B0000E94AE2007FC03D04EF40C94E7205095EB
:1041C0004095309521953F4F4F4F5F4F0895909503
:1041D0008095709561957F4F8F4F9F4F0895EE0F9B
:1041E000FF1F0590F491E02D0994EF920F931F9318
:1041F000CF93DF93E80147FD02C034E001C034E112
:10420000042E000C550B57FF03C0519541955109E1
:10421000E32E022F242FAE010E942E23CE01DF9128
:10422000CF911F910F91EF900895DC0101C06D9324
:1042300041505040E0F70895FB01DC0141505040EF
:1042400048F001900D920020C9F701C01D92415025
:104250005040E0F70895AEE0B0E0E1E3F1E20C9405
:1042600058260D891E8986E08C831A8309838FEF77
:104270009FE79E838D83AE01475E5F4F6F89788D88
:10428000CE0101960E944D21EF81F885E00FF11FCC
:1042900010822E96E4E00C947426ABE0B0E0E3E5E7
:1042A000F1E20C944A266C017B018A01FC01178221
:1042B0001682838181FFCCC1CE0101963C01F601BB
:1042C0009381F70193FD859193FF81917F0188236D
:1042D00009F4BAC1853239F493FD859193FF819138
:1042E0007F01853229F4B60190E00E947625E7CF60
:1042F000912C212C312CFFE1F315D8F08B3279F081
:1043000038F4803279F08332A1F4232D20611DC06E
:104310008D3261F0803369F4232D216016C0832D26
:104320008260382EE32DE4603E2E2AC0F32DF86023
:104330001DC037FC2DC020ED280F2A3040F08E32F2
:10434000B9F436FC81C1232D2064322E19C036FE0B
:1043500006C08AE0989E200D1124922E11C0EAE03A
:104360002E9E200D1124222EF32DF0623F2E08C028
:104370008C3621F4832D8068382E02C0883641F4B3
:10438000F70193FD859193FF81917F018111B3CF57
:10439000982F9F7D9554933028F40C5F1F4F9FE317
:1043A00099830DC0833631F0833771F0833509F07E
:1043B00059C021C0F801808189830E5F1F4F882476
:1043C0008394912C530113C02801F2E04F0E511C2D
:1043D000F801A080B18036FE03C0692D70E002C0F4
:1043E0006FEF7FEFC5010E946B254C018201F32D19
:1043F000FF773F2E16C0280122E0420E511CF80123
:10440000A080B18036FE03C0692D70E002C06FEF5E
:104410007FEFC5010E9460254C01F32DF0683F2E0F
:10442000820133FC1BC0822D90E088169906B0F4FF
:10443000B60180E290E00E9476252A94F4CFF5013F
:1044400037FC859137FE81915F01B60190E00E94B3
:10445000762521102A9421E0821A91088114910472
:1044600071F7E8C0843611F0893641F5F80137FE5E
:1044700007C060817181828193810C5F1F4F08C0EA
:1044800060817181072E000C880B990B0E5F1F4F06
:10449000F32DFF763F2E97FF09C09095809570957C
:1044A00061957F4F8F4F9F4FF0683F2E2AE030E09D
:1044B000A3010E94B225882E861845C0853731F4A5
:1044C000232D2F7EB22E2AE030E025C0932D997F38
:1044D000B92E8F36C1F018F4883579F0B5C0803721
:1044E00019F0883721F0B0C0E92FE061BE2EB4FE8C
:1044F0000DC0FB2DF460BF2E09C034FE0AC0292F69
:104500002660B22E06C028E030E005C020E130E091
:1045100002C020E132E0F801B7FE07C0608171817E
:10452000828193810C5F1F4F06C06081718180E0A2
:1045300090E00E5F1F4FA3010E94B225882E8618BF
:10454000FB2DFF773F2E36FE0DC0232D2E7FA22E92
:10455000891458F434FE0BC032FC09C0832D8E7EC2
:10456000A82E05C0B82CA32C03C0B82C01C0B92CB0
:10457000A4FE0FC0FE01E80DF11D8081803321F4FF
:104580009A2D997EA92E09C0A2FE06C0B394B394B9
:1045900004C08A2D867809F0B394A3FC11C0A0FE54
:1045A00006C0B21488F4280C922C9B180EC0B214CA
:1045B00060F4B60180E290E00E947625B394F7CFD4
:1045C000B21418F42B1802C0982C212CA4FE10C091
:1045D000B60180E390E00E947625A2FE17C0A1FC00
:1045E00003C088E790E002C088E590E0B6010CC007
:1045F0008A2D867859F0A1FE02C08BE201C080E2CC
:10460000A7FC8DE2B60190E00E947625891438F46B
:10461000B60180E390E00E9476259A94F7CF8A94C1
:10462000F301E80DF11D8081B60190E00E9476252E
:104630008110F5CF222009F442CEB60180E290E04D
:104640000E9476252A94F6CFF6018681978102C0D2
:104650008FEF9FEF2B96E2E10C946626A9E0B0E085
:10466000E4E3F3E20C9450266A01122FB02E2BE300
:10467000201720F0FF24F394F00E02C02CE3F22E5A
:104680000F2D27E0AE014F5F5F4F0E948824BC01D1
:104690004981842F8970813031F0E1FC06C0E0FE51
:1046A00006C090E205C09DE203C09BE201C090E01D
:1046B0005E2D507143FF3CC0911102C083E001C0E8
:1046C00084E0811718F4212F281B01C020E051112C
:1046D0000BC0F601822F30E2882319F0319381500C
:1046E000FBCFC20ED11C20E0992329F0D6019C9368
:1046F000F60131966F01C6010396E2FE0AC03EE460
:10470000D6013C9341E411964C93119712963C9339
:1047100006C03EE6F601308341E641833283FC0168
:10472000322F40E2332309F442C041933150FACF93
:1047300042FF44C0911102C083E001C084E08117B0
:1047400018F4212F281B01C020E051110BC0F601E5
:10475000822F30E2882319F031938150FBCFC20EB3
:10476000D11C20E0992329F0D6019C93F6013196C3
:104770006F01C6010396E2FE0BC039E4D6013C93FB
:104780003EE411963C93119736E412963C9307C091
:1047900039E6F60130833EE6318336E63283FC01AA
:1047A000322F40E2332319F041933150FBCFFC010B
:1047B000E20FF11D10828EEF9FEFA6C021E030E0E6
:1047C000911102C020E030E0161617061CF4FB0120
:1047D000319602C0E1E0F0E02E0F3F1FBB2021F038
:1047E000EB2DF0E0319602C0E0E0F0E02E0F3F1F2D
:1047F000E12FF0E02E173F071CF4121B212F01C000
:1048000020E08E2D887159F4F601822F30E2882342
:1048100019F031938150FBCFC20ED11C20E09923B7
:1048200029F0D6019C93F60131966F0151110BC00E
:10483000F601822F90E3882319F091938150FBCFEA
:10484000C20ED11C20E00F2D060F9A81342F30713B
:1048500044FF03C0913309F40150101624F40930C9
:1048600018F008E001C001E0AB0177FF02C040E0B2
:1048700050E0FB01E41BF50BA1E0B0E0AC0FBD1F65
:10488000EA0FFB1F8EE2A82E4B01801A91080B2D18
:1048900010E01195019511094F3FBFEF5B0721F41F
:1048A000D601AC9211966D01641775072CF0841631
:1048B000950614F4818101C080E34150510931967D
:1048C000D60111967D014017510724F0D6018C9333
:1048D0006701E2CF6417750739F4963320F49533F6
:1048E00019F4311101C081E3F6018083F701822FB1
:1048F00090E2882319F091938150FBCFF701E20FEA
:10490000F11D108280E090E02996ECE00C946C267A
:10491000283008F027E03327DA01990F311D87FD91
:10492000916000966105710539F432602E5F3D9308
:1049300030E32A95E1F708959F3F30F08038710504
:10494000610509F03C5F3C5F3D93913008F0806861
:10495000911DDF93CF931F930F93FF92EF92192F27
:10496000987F9695E92F96959695E90FFF27EE5338
:10497000FF4F99273327EE24FF24A701E701059075
:104980000894079428F4360FE71EF81E491F511D9E
:10499000660F771F881F991F0694A1F7059007944B
:1049A00028F4E70EF81E491F561FC11D770F881FF8
:1049B000991F661F0694A1F70590079428F4F80E36
:1049C000491F561FC71FD11D880F991F661F771FCC
:1049D0000694A1F70590079420F4490F561FC71FAE
:1049E000D81F990F661F771F881F0694A9F7849117
:1049F0001095177041F0D695C79557954795F79440
:104A0000E7941A95C1F7E8E6F0E0689415901591DF
:104A100035916591959105907FE27395E118F10AC2
:104A2000430B560BC90BD009C0F7E10CF11E431F15
:104A3000561FC91FD01D7EF4703311F48A95E6CF3E
:104A4000E894015030F0080F0AF40027021708F428
:104A5000202F2395022F7A3328F079E37D932A952E
:104A6000E9F710C07D932A9589F606949795679586
:104A7000379517951794E118F10A430B560BC90B9C
:104A8000D00998F023957E9173957A3308F070E3FE
:104A90007C932013B8F77E9170617D9330F08395FD
:104AA00071E37D9370E32A95E1F71124EF90FF9075
:104AB0000F911F91CF91DF91992787FD90950895D0
:104AC000FC010590615070400110D8F780959095D9
:104AD0008E0F9F1F0895FC016150704001900110DE
:104AE000D8F7809590958E0F9F1F08950F931F9371
:104AF000CF93DF93FB01238121FD03C08FEF9FEF55
:104B00002CC022FF16C0468157812481358142176F
:104B1000530744F4A081B1819D012F5F3F4F318342
:104B200020838C93268137812F5F3F4F37832683E5
:104B300014C08B01EC01FB010084F185E02D099587
:104B4000892BE1F6D80116968D919C9117970196C5
:104B500017969C938E931697CE01DF91CF911F915C
:104B60000F910895FA01AA27283051F1203181F1DF
:104B7000E8946F936E7F6E5F7F4F8F4F9F4FAF4F65
:104B8000B1E03ED0B4E03CD0670F781F891F9A1F78
:104B9000A11D680F791F8A1F911DA11D6A0F711D2C
:104BA000811D911DA11D20D009F468943F912AE038
:104BB000269F11243019305D3193DEF6CF01089520
:104BC000462F4770405D4193B3E00FD0C9F7F6CF51
:104BD000462F4F70405D4A3318F0495D31FD405219
:104BE000419302D0A9F7EACFB4E0A69597958795AF
:104BF00077956795BA95C9F700976105710508958E
:104C00009B01AC010A2E0694579547953795279539
:104C1000BA95C9F7620F731F841F951FA01D0895D1
:104C2000DC01CB01FC01F999FECF06C0F2BDE1BD6C
:104C3000F89A319600B40D9241505040B8F708955B
:104C4000F999FECF92BD81BDF89A992780B5089554
:104C5000DC01A40FB51F4150504048F0CB01840F38
:104C6000951F2E910E94392641505040D0F708954B
:104C7000262FF999FECF92BD81BDF89A019700B415
:104C8000021639F01FBA20BD0FB6F894FA9AF99AB5
:104C90000FBE08952F923F924F925F926F927F9234
:104CA0008F929F92AF92BF92CF92DF92EF92FF923C
:104CB0000F931F93CF93DF93CDB7DEB7CA1BDB0BE8
:104CC0000FB6F894DEBF0FBECDBF09942A8839888D
:104CD00048885F846E847D848C849B84AA84B98494
:104CE000C884DF80EE80FD800C811B81AA81B981A0
:104CF000CE0FD11D0FB6F894DEBF0FBECDBFED01B4
:064D00000895F894FFCFB6
:104D060026042D04381C381C53657269616C2069B1
:104D16006E697420646F6E650053504920466C615D
:104D2600736820496E6974204F4B21005350492007
:104D3600466C61736820496E6974204641494C216E
:104D460000312E340044485432322D4C6967687461
:104D5600004661696C65642072656164696E6720EE
:104D660074656D70657261747572652066726F6DBB
:104D76002044485400543A20004661696C6564201A
:104D860072656164696E672068756D6964697479B6
:104D96002066726F6D2044485400483A20005570D2
:104DA600646174696E672E2E2E0055706461746599
:104DB600206661696C65640000000000850DC50809
:104DC6008208D40D500E480AD30C4708620AE70A37
:104DD600DF09360E59086F08464C583F4E4F4B3A7E
:104DE6004E4F464C41534800464C583F4F4B0046A9
:104DF6004C583F454F4600464C583F00464C583AA3
:104E060025753A00464C58494D473A00464C583AA3
:104E160025753A4F4B00464C583F4E4F4B3A484546
:104E2600583E33316B0054696D656F75742F45724A
:104E3600726F722C2065726173696E672077726972
:104E46007474656E2064617461202E2E2E200052CB
:104E5600656164696E67204E4F444520436F6E66F8
:104E6600696700437573746F6D204E4F4445204348
:104E76006F6E6669670073616D706C65456E63720F
:104E86007970744B657900536176696E67204E4F71
:104E9600444520436F6E666967002A206275747404
:104EA6006F6E202A003100300053656E64696E67AC
:104EB600206E6574776F726B20646174610045784B
:104EC600697420696E636C75646500536176696EFA
:104ED6006720726164696F20636F6E6669670000A0
:104EE600000000DF18421AA0182C1972188C187EC0
:104EF600180D0A006E616E00696E66006F766600B8
:00000001FF
