:100000000C943C010C948B1B0C94B21B0C9464015B
:100010000C9464010C9464010C942D060C946401FE
:100020000C9464010C9464010C9464010C946401BC
:100030000C9464010C9464010C9464010C946401AC
:100040000C94E91B0C9464010C94E5180C9417199A
:100050000C9464010C9464010C9464010C9464018C
:100060000C9464010C94640100407A10F35A00A0CF
:10007000724E18090010A5D4E80000E87648170071
:1000800000E40B54020000CA9A3B000000E1F505B1
:10009000000080969800000040420F000000A086FB
:1000A00001000000102700000000E803000000002D
:1000B0006400000000000A000000000001000000D1
:1000C00000002C76D888DC674F0823DFC1DFAE59EB
:1000D000E1B1B796E5E3E453C63AE651997696E87E
:1000E000E6C28426EB898C9B62ED407C6FFCEFBC02
:1000F0009C9F40F2BAA56FA5F490055A2AF75C932D
:100100006B6CF9676DC11BFCE0E40D47FEF520E662
:10011000B500D0ED902E0300943577050080841E45
:10012000080000204E0A000000C80C333333330FA0
:10013000986E12831141EF8D2114893BE65516CF3D
:10014000FEE6DB18D1844B381BF77C1D901DA4BB49
:10015000E424203284725E228100C9F124ECA1E5FE
:100160003D272E005245424F4F54494E4700464CC2
:10017000583F4F4B00494D47203E2033316B2C20D8
:10018000746F6F2062696700464C583F4F4B207276
:100190006573656E64005D203E2000726164696F66
:1001A000205B00554E5368696674696E672063680A
:1001B000616E6E656C20746F2000536869667469A7
:1001C0006E67206368616E6E656C20746F200046F8
:1001D0004C583F4F4B202841434B2073656E742988
:1001E000004641494C3A4E4F20464C415348204D21
:1001F000454D00444F4E4500464C41534820494D23
:1002000047205452414E534D495353494F4E20536A
:10021000554343455353210A0000000008000201E2
:1002200000000304070000000000000000010204B9
:100230000810204080010204081020010204081068
:10024000200404040404040404020202020202035F
:10025000030303030300000000230026002900001D
:10026000000000250028002B0000000000240027CB
:10027000002A00003503471911241FBECFEFD8E034
:10028000DEBFCDBF12E0A0E0B1E0EAE6FBE402C0D1
:1002900005900D92AE3FB107D9F725E0AEEFB2E081
:1002A00001C01D92AE30B207E1F711E0CCE3D1E01E
:1002B00004C02197FE010E942120CA33D107C9F74B
:1002C0000E94DA1B0C94B3250C9400004091BD03EE
:1002D0005091BE036091BF037091C00322E08CE196
:1002E00093E00E949C1381E008954091B9035091DE
:1002F000BA036091BB037091BC0322E08CE193E0F0
:100300000E949C1381E008958F929F92AF92BF92BA
:10031000CF92DF92EF92FF921F93CF93DF936B0107
:100320007C0183EA93E00E944A088EEA93E00E94EF
:1003300091074601570183E0B694A7949794879458
:100340008A95D1F7C701B6012AE030E040E050E0DD
:100350000E94E01F162FC0E0D0E0CE01A0E0B0E088
:1003600088159905AA05BB0560F420E030E040E05F
:1003700050E069E070E083ED93E00E94E105219692
:10038000ECCFC12F12FF0AC020E030E040E050E087
:1003900068E070E083ED93E00E94E105C1FF0AC0D0
:1003A00020E030E040E050E067E070E083ED93E073
:1003B0000E94E10510FF15C020E030E040E050E071
:1003C00066E070E083ED93E0DF91CF911F91FF90A5
:1003D000EF90DF90CF90BF90AF909F908F900C9454
:1003E000E105DF91CF911F91FF90EF90DF90CF90CB
:1003F000BF90AF909F908F900895CF92DF92EF9231
:10040000FF9261E085E00E944B1D60E086E00E9463
:100410000F1D81EC93E00E94E70362E070E080E052
:1004200090E00E94840140E060E081EC93E00E9453
:1004300040056B017C019B01AC010E94DB1F8823FE
:1004400039F068E071E088E694E00E94F61924C073
:100450002091BD033091BE034091BF035091C00372
:10046000C701B6010E94111E8823B1F0C092BD03DE
:10047000D092BE03E092BF03F092C0036CE271E041
:1004800088E694E00E94D71922E030E0B701A60187
:1004900088E694E00E94581B60E081EC93E00E94A3
:1004A0009D056B017C019B01AC010E94DB1F882331
:1004B00039F060E371E088E694E00E94F61924C008
:1004C0002091B9033091BA034091BB035091BC0312
:1004D000C701B6010E94111E8823B1F0C092B90372
:1004E000D092BA03E092BB03F092BC0361E571E0E5
:1004F00088E694E00E94D71922E030E0B701A60117
:1005000088E694E00E94581B60E085E00E944B1D45
:1005100061E086E00E940F1D60E086E0FF90EF90B2
:10052000DF90CF900C944B1D8EE480937C0062E0B2
:1005300070E080E090E00E94641C80917A0080640A
:1005400080937A0080917A0086FDFCCF80917800BC
:100550002091790030E0322F2227A901330F660B5A
:10056000770B9A01AB01282B64EB7BE281E190E0F1
:100570000E940220CA01B90108958F929F92AF9202
:10058000BF92CF92DF92EF92FF920F931F93CF9380
:10059000DF9300D000D0CDB7DEB70E94FD018CE123
:1005A00093E00E945D124B015C018091200388233F
:1005B000A1F065E571E088E694E00E94F61929E073
:1005C00040E06EEA73E083EA93E00E94F81061E68F
:1005D00071E088E694E00E94F6190E9494026B0193
:1005E0007C012DE9C21A2CE0D20AE108F1088091C1
:1005F000B5039091B603A091B703B091B803C816A4
:10060000D906EA06FB06E1F0C701B6010E94B91E51
:100610008E010F5F1F4F20E041E00E942720A801BC
:1006200060E070E08CE193E00E944416882341F082
:10063000C092B503D092B603E092B703F092B8032C
:10064000C501B4010E9484010F900F900F900F908C
:10065000DF91CF911F910F91FF90EF90DF90CF909E
:10066000BF90AF909F908F900895EF92FF920F935D
:100670001F9326E046E166E081EC93E00E94C6030A
:1006800040E35FEE68E08EEA93E00E944B0620E0D4
:1006900042E06AE083EA93E00E943B0820E04EE0FB
:1006A00063EA73E08CE193E00E9406121CE3E12E02
:1006B000F12C00E010E026E631E040E050E061E09F
:1006C0008DE093E00E94571125E731E041E050E0D2
:1006D00062E08EEF92E00E9457111F910F91FF9000
:1006E000EF90089561E085E00E940F1D61E080E1D8
:1006F0000E940F1D60E08FE00E940F1D26E040E089
:1007000052EC61E070E088E694E00E9480186FE6A9
:1007100071E088E694E00E94F6198EEA93E00E9468
:10072000AA07882339F060E871E088E694E00E9427
:10073000F61906C063E971E088E694E00E94F619B4
:1007400021E041E061E08CE193E00E94E71260E08B
:1007500083EA93E00E942F0E8CE193E00E94B7128F
:1007600048EA51E06CEA71E08CE193E00E942216C5
:1007700046E050E061E08CE193E00E94521647E0D1
:1007800050E062E08CE193E00C945216DC01159687
:100790006C93159716964C93169770E0FB01E35DEA
:1007A000FD4FE4911796EC931797FB01EF5BFD4F1C
:1007B000649118966C93189740E85EE360E070E0EF
:1007C0001D964D935D936D937C9350970895CF93B1
:1007D000DF93EC0162E08D810E940F1D80E398EFB2
:1007E000AFEFBFEF89879A87AB87BC87DF91CF9147
:1007F00008958F929F92AF92BF92CF92DF92EF9225
:10080000FF92CF93DC011796CC911797662311F0D6
:100810009C2F01C090E018962C91189730E0220F81
:10082000331F2B5A3D4F40E050E0BA01F901E590EB
:10083000F490F70180818C2398131AC04A015B0160
:10084000FFEF8F1A9F0AAF0ABF0A1D96CD90DD9069
:10085000ED90FC9050974C155D056E057F0518F4E2
:10086000B501A401E3CF30E020E080E090E003C0D8
:10087000342F252FCB01632F722FCF91FF90EF9054
:10088000DF90CF90BF90AF909F908F9008958F9200
:100890009F92AF92BF92CF92DF92EF92FF920F930F
:1008A0001F93CF93DF93CDB7DEB7C054D1400FB6BF
:1008B000F894DEBF0FBECDBF8C01F62E0E94331C14
:1008C000F11016C0F801C184D284E384F4849B0142
:1008D000AC012C193D094E095F0969017A0130ED1F
:1008E000C31637E0D306E104F10410F48189B4C0E3
:1008F000F80161877287838794871482138212823A
:100900001182108261E085810E944B1D6AEF70E0C8
:1009100080E090E00E94641C61E0F80185810E9403
:100920000F1D60E0F80185810E944B1D64E170E0BD
:1009300080E090E00E94641CF89461E0F8018581F9
:100940000E944B1D88E290E00E94A01C62E0F8012A
:1009500085810E940F1D8AE090E00E94A01C60E04B
:10096000C8010E94F903672B682B692B21F4F80159
:10097000118A789442C061E0C8010E94F903672B94
:10098000682B692BA1F39E012F5F3F4F79015E0118
:100990003FEBA31A3EEFB30A670160E0C8010E9473
:1009A000F903F601608371838283938361E0C80158
:1009B0000E94F903F6016483758386839783F8E0C8
:1009C000CF0ED11CCA14DB0441F7789420E030E04C
:1009D000F70180809180A280B38044815581668137
:1009E000778181149104A104B10429F041155105C6
:1009F0006105710521F4F801118A80E02DC0F9012B
:100A000083E0F595E7958A95E1F7E00FF11F808186
:100A1000880F84169506A606B70608F481608083C1
:100A20002F5F3F4FF8E0EF0EF11C2832310581F6C1
:100A3000F801248130E04081818190E0840F911D94
:100A40004281840F911D4381840F911D992728179E
:100A5000390789F681E0818BC05CDE4F0FB6F894D0
:100A6000DEBF0FBECDBFDF91CF911F910F91FF90E1
:100A7000EF90DF90CF90BF90AF909F908F900895B0
:100A8000CF92DF92EF92FF920F931F93CF93DF935A
:100A9000EC01162F642F0E944704882309F440C0FC
:100AA0008E818B3029F0E0F18551823040F038C0E2
:100AB0006A8170E080E090E00E94B71E22C00A8147
:100AC000602F6F7770E080E090E00E94B91E20E018
:100AD00030E040E853E40E946E1F6B017C016B81A3
:100AE00070E080E090E00E94B91EA70196010E948C
:100AF000A51D2DEC3CEC4CEC5DE30E946E1F07FD48
:100B00009058112389F026E636E646EE5FE30E9410
:100B10006E1F20E030E040E052E40E94A51D04C0BA
:100B200060E070E080EC9FE7DF91CF911F910F9123
:100B3000FF90EF90DF90CF900895CF92DF92EF92E9
:100B4000FF92CF93DF93EC0160E00E94470488237B
:100B500069F18E818B3019F148F18551823030F581
:100B6000688170E080E090E00E94B71E20E030E0F5
:100B700040E853E40E946E1F6B017C01698170E0C4
:100B800080E090E00E94B91EA70196010E94A51D79
:100B90002DEC3CEC4CEC5DE30E946E1F0BC06881B9
:100BA00070E080E090E00E94B71E04C060E070E05A
:100BB00080EC9FE7DF91CF91FF90EF90DF90CF9097
:100BC00008954115510529F4EAE7F0E080818F7717
:100BD00080836A307105A9F063FD02C088E001C01E
:100BE00088E26770682B88E10FB6F894A895809327
:100BF00060000FBE60936000E0E6F0E080818064FA
:100C00008083232BA1F483B7817F846083BFF89412
:100C100083B7816083BF85B7806685BF8F7D85BFC1
:100C20007894889583B78E7F83BF78940EC083B7FE
:100C3000817F846083BFF89483B7816083BF789499
:100C4000889583B78E7F83BF7894452B29F4EAE794
:100C5000F0E080818068808308951F920F920FB624
:100C60000F9211248F930FB6F894A895809160008D
:100C7000886180936000109260000FBE8F910F908A
:100C80000FBE0F901F9018958EBD00000DB407FE8B
:100C9000FDCF8EB50895FC0180E5858316826083C3
:100CA000528341830895FC018CB583838DB5848381
:100CB000458136818091D603882399F02FB7F89427
:100CC0008091D603813059F48DB38093D4039DB3C2
:100CD0008091D503809589238DBB2FBF02C02093BF
:100CE000D4034CBD3DBD60E080810C944B1DCF937F
:100CF000DF93EC0161E088810E944B1D8091D60357
:100D0000882361F09FB7F8942091D6038091D40393
:100D1000213019F48DBB9FBF01C08FBF8B818CBD6B
:100D20008C818DBDDF91CF9108950F931F93CF9349
:100D3000DF938C010E9453068FE90E94440680E0F5
:100D40000E944406C82FD0E0DC2FCC2780E00E9410
:100D50004406C82BC8010E947706CE01DF91CF91CF
:100D60001F910F9108951F93CF93DF93EC010E9481
:100D7000530685E00E94440680E00E944406182F36
:100D8000CE010E947706812FDF91CF911F910895A8
:100D90000E94B306817008951F93CF93DF93EC01F7
:100DA000162F442339F040E066E00E94CC06CE01C5
:100DB0000E9477061B3A49F4CE010E945306812F08
:100DC000DF91CF911F910C944406CE010E94C8067A
:100DD0008111FBCFF1CFEF92FF920F931F93CF932F
:100DE000DF93EC01042FF52EE62E122F41E062E096
:100DF0000E94CC068E2D0E9444068F2D0E94440630
:100E0000802F0E944406812F0E944406CE01DF916C
:100E1000CF911F910F91FF90EF900C9477062F9236
:100E20003F924F925F926F927F928F929F92AF927A
:100E3000BF92CF92DF92EF92FF920F931F93CF93C7
:100E4000DF936C012A013B0119019A01332780E0ED
:100E500091E0821B930B812C912C0115110581F1DE
:100E6000E8018017910708F4EC0141E062E0C60157
:100E70000E94CC06862D0E944406852D0E944406C1
:100E8000842D0E9444065101A80CB91C7501F7017C
:100E900081917F010E944406C7018A199B098C1722
:100EA0009D07A8F3C6010E9477064C0E5D1E611CCB
:100EB000711C8C0E9D1E0C1B1D0B80E091E0CDCF94
:100EC000DF91CF911F910F91FF90EF90DF90CF9026
:100ED000BF90AF909F908F907F906F905F904F905A
:100EE0003F902F900895FF920F931F93CF93DF931E
:100EF000EC01142F052FF62E41E062E50E94CC068E
:100F00008F2D0E944406802F0E944406812F0E944C
:100F10004406CE01DF91CF911F910F91FF900C9469
:100F20007706CF93DF93EC0140E069EB0E94CC069B
:100F3000CE01DF91CF910C947706CF93DF93EC0134
:100F40000E9453068BEA0E944406CE01DF91CF91A6
:100F50000C947706CF93DF93EC018CB58B838DB522
:100F60008C8361E088810E940F1D0E94DD0780E56F
:100F70008D831E82CE010E947706CE010E949D07BE
:100F800089819A81892B51F0CE010E949506298191
:100F90003A818217930711F080E00CC041E061E0D4
:100FA000CE010E94CC0680E00E944406CE010E9441
:100FB000770681E0DF91CF910895CF93CFB7F89472
:100FC0008091D703811127C0EBE4F2E08491E7E33D
:100FD000F2E09491E82FF0E0EE0FFF1FE759FD4F8C
:100FE000A591B491EC91E92321F461E08AE00E949B
:100FF0004B1D61E08AE00E940F1D8CB580618CBDA5
:101000008CB580648CBD61E08DE00E940F1D61E0B5
:101010008BE00E940F1D8091D7038F5F8093D703D1
:10102000CFBFCF910895089581E08093DA030895AA
:10103000CF93DF93EC0161E08A810E944B1D89858B
:101040008CBD8A858DBDDF91CF910895FC018CB553
:1010500081878DB582878CB5837F8CBD8CB58F7D64
:101060008CBD8CB58C7F8CBD8DB58E7F8DBD60E0C9
:1010700082810C944B1DFC018CEB91E09183808369
:101080006283438381E08093E30316828FE1878349
:1010900020870895DC01ED91FC910288F389E02D11
:1010A00060E00994CF93C62FDC01ED91FC910480A0
:1010B000F581E02D0995882361F08091E103C8173F
:1010C00011F0CF3F29F49091DD0381E0911101C02F
:1010D00080E0CF9108953F924F925F926F927F92FE
:1010E0008F929F92AF92BF92CF92DF92EF92FF9238
:1010F0000F931F93CF93DF93EC01162F5A01822E8B
:10110000902E312CCE2CD12CE12CF12CE881F981C0
:101110000190F081E02D01E0282DA501612FCE0185
:1011200009950E94331C2B013C010E94331CDC01F9
:10113000CB0184199509A609B7098C159D05AE0543
:10114000BF0538F4612FCE010E945208882369F34D
:1011500004C033949314D0F680E0DF91CF911F91B7
:101160000F91FF90EF90DF90CF90BF90AF909F9046
:101170008F907F906F905F904F903F9008951F9356
:10118000CF93DF93EC01162FE881F9810688F78968
:10119000E02D0995812F8F770E94440680E00E9400
:1011A0004406182FE881F981008CF18DE02DCE01E5
:1011B0000995812FDF91CF911F9108950F931F9370
:1011C000CF93DF938C0167E00E94BF08C82F68E0CF
:1011D000C8010E94BF08D82F69E0C8010E94BF085B
:1011E0004C2F50E060E070E0BA0155274427480FCB
:1011F000511D611D711D8D2F90E0982F88278A0148
:101200009B01080F191F211D311DC901B8010E9442
:10121000B71E20E034E244E752E40E946E1F0E94B1
:10122000881EDF91CF911F910F9108950F931F9307
:10123000CF93DF93EC01062F142FE881F981068804
:10124000F789E02D0995802F80680E944406812F40
:101250000E944406E881F981008CF18DE02DCE01D9
:10126000DF91CF911F910F910994CF92DF92EF926E
:10127000FF921F93CF93DF93EC016A017B011091E2
:10128000E303143039F4E881F9810288F389E02D11
:1012900063E00995C701B6010E94B71E20E034E261
:1012A00044E752E40E94161E0E94881E6B017C01D6
:1012B000A7016627772767E0CE010E9416097727E6
:1012C0006F2D5E2D4D2D68E0CE010E9416094C2D2C
:1012D00069E0CE010E941609133041F4E881F981DA
:1012E0000288F389E02D62E0CE010995E881F98159
:1012F0000288F389E02D612FCE01DF91CF911F91FC
:10130000FF90EF90DF90CF9009941F93CF93DF93DE
:101310002091E303261709F45DC0162FEC0162301B
:10132000E9F168F4662309F440C0613009F052C065
:1013300061E00E94BF08837E482F44603BC0633059
:10134000B9F0643009F046C061E00E94BF08837EB6
:10135000482F4C6061E0CE010E94160988858823E1
:1013600069F1E881F9810488F589E02D61E013C015
:1013700061E00E94BF08837E482F406161E0CE019A
:101380000E94160988858823C9F0E881F9810488BC
:10139000F589E02D60E0CE01099510C061E00E9462
:1013A000BF08837E482F486005C061E00E94BF08E7
:1013B000482F437E61E0CE010E9416098091E3032D
:1013C000811106C067E2CE010E94BF0887FFF6CFF9
:1013D0001093E303DF91CF911F910895CF93DF9393
:1013E000EC01603208F06FE16F838885882311F08B
:1013F00066956F8361E1CE010E94BF08807E9F8168
:10140000482F492B61E1CE01DF91CF910C94160951
:10141000CF92DF92EF92FF920F931F93CF93DF93C0
:10142000EC01F62ED42EC52E122FE881F981028808
:10143000F389E02D61E0099567E2CE010E94BF08C3
:1014400087FFFACF40E065E2CE010E9416091E3305
:1014500008F01DE3E11004C0002321F000E403C004
:1014600000E801C000E0E881F9810688F789E02DF5
:10147000CE01099580E80E94440683E0810F0E9416
:1014800044068F2D0E9444068D810E944406802FC1
:101490000E9444060D2DED2CFC2C8E2D801B8117F7
:1014A00030F4F70181917F010E944406F6CFE88174
:1014B000F981008CF18DE02DCE010995E881F9814B
:1014C0000288F389E02D64E0CE0109950E94331C67
:1014D0006B017C018B810E947A1D892B81F0E88150
:1014E000F9810288F389E02D61E0CE01DF91CF918F
:1014F0001F910F91FF90EF90DF90CF9009940E9481
:10150000331CDC01CB018C199D09AE09BF09883E53
:101510009340A105B105F0F2E2CFCF93DF93EC0148
:101520001092E2031092E1031092E0031092DF03A5
:101530001092DE031092DD031092DC031092DB03A5
:1015400068E20E94BF0882FF0AC06DE3CE010E94DC
:10155000BF08482F44606DE3CE010E94160940E4A5
:1015600065E2CE010E941609E881F9810288F389BB
:10157000E02D63E0CE01DF91CF910994CF92DF920D
:10158000EF92FF920F931F93CF93DF93EC018B01A8
:10159000E881F9810288F389E02D61E00995011560
:1015A0001105F1F0E881F9810688F789E02DCE0177
:1015B00009958EEB0E9444067801680180E1C80E0F
:1015C000D11CF70181917F010E944406EC14FD04B7
:1015D000C1F7E881F981008CF18DE02DCE010995EC
:1015E0006DE3CE010E94BF088E7F41E0012B09F41C
:1015F00040E0482B6DE3CE01DF91CF911F910F9119
:10160000FF90EF90DF90CF900C9416098F929F92ED
:10161000AF92BF92CF92DF92EF92FF920F931F9300
:10162000CF93DF93CDB7DEB7AE970FB6F894DEBF9A
:101630000FBECDBF8C01E42EDC0113968C9182305D
:1016400021F0833021F08FEF03C080E001C081E002
:10165000F80184838EE2AE014F5F5F4F6A01DA01C9
:10166000E82F1D92EA95E9F791E0998334E03A83F7
:1016700042E04B8393E09D834E833F8340E4488761
:1016800035E039879A8796E09B8793E39C8737E01C
:101690003D8798E09F8799E0998B99E19B8B92E435
:1016A0009C8B55E25D8B4E8B46E24F8B388F38E238
:1016B000398F30E13A8F39E23B8F3CED3C8F8D8F93
:1016C00088E88E8F8FE28F8F8DE288A380E389A3D5
:1016D00037E33BA330E93CA338E33DA39EA39CE35F
:1016E0009FA39FE898A79DE399A792E19AA79FE6F9
:1016F0009BA78CA78FEF8DA76F3131F06B3231F044
:10170000663531F084EE05C08EE403C08CE601C07E
:1017100089ED8E876F3141F06B3221F0663521F40F
:1017200080E003C080E401C080EC888B2AA361E0E4
:10173000D80112968C910E944B1D61E0F8018281C4
:101740000E940F1D0E94DD070E94331C4B015C01AB
:101750004AEA6FE2C8010E9416096FE2C8010E94BE
:10176000BF088A3A61F00E94331CDC01CB01881962
:101770009909AA09BB09C297A105B10548F30E94BE
:10178000331C4B015C0145E56FE2C8010E9416095C
:101790006FE2C8010E94BF08853561F00E94331CCA
:1017A000DC01CB0188199909AA09BB09C297A105D7
:1017B000B10548F3F12CF601EF0DF11DEF0DF11D10
:1017C00060816F3F31F04181C8010E941609F39496
:1017D000F2CF60E070E0C8010E94BE0AD801ED912E
:1017E000FC9111970084F185E02D18966C91C80149
:1017F0000995D801ED91FC910288F389E02D61E013
:10180000C80109950E94331C4B015C0167E2C801C5
:101810000E94BF0887FD0CC00E94331CDC01CB0175
:1018200088199909AA09BB09C297A105B10570F3E6
:101830000E94331CDC01CB0188199909AA09BB0954
:10184000C297A105B10588F443E050E064E178E077
:10185000F80184810E946B1B1093D9030093D80375
:10186000D8011596EC9281E001C080E0AE960FB6EB
:10187000F894DEBF0FBECDBFDF91CF911F910F91C6
:10188000FF90EF90DF90CF90BF90AF909F908F90A0
:101890000895CF93DF93EC0161110DC064E2CE0196
:1018A0000E94BF0890E09195819591099595879543
:1018B000DF91CF91089541E063E20E94160963E24F
:1018C000CE010E94BF0881FFFACFE8CFCF93DF930C
:1018D0002091E3032330A9F42091DF03211111C0EB
:1018E000EC0160E00E94490C863A9F4F54F4E88175
:1018F000F9810288F389E02D61E0CE01099581E04C
:1019000001C080E0DF91CF910895EF92FF921F9385
:10191000CF93DF93EC018091E303833001F568E21C
:10192000CE010E94BF0882FD28C019C08091E20349
:101930008D3330F4E091E203F0E0EC51FC4F108283
:10194000E881F981008CF18DE02DCE010995E881C7
:10195000F9810288F389E02D63E0CE01099560E00A
:10196000CE010E94490C9093DC038093DB03DF914E
:10197000CF911F91FF90EF900895E881F98102883F
:10198000F389E02D61E0CE010995E881F9810688AF
:10199000F789E02DCE01099580E00E94440680E0A1
:1019A0000E9444068093DF038091DF038334D0F4E8
:1019B0008091DF038093DF0380E00E9444068093E0
:1019C000E0038E81811109C08091E0039D81981709
:1019D00021F08091E0038F3F39F48091DF03833061
:1019E00018F017C082E4E6CF1092DF03E881F98196
:1019F000008CF18DE02DCE010995E881F9810088F8
:101A0000F189E02DCE01DF91CF911F91FF90EF90F2
:101A100009948091DF0383508093E20380E00E9469
:101A200044068093E10380E00E944406982F90785A
:101A30009093DD03982F90749093DE03E881F981F1
:101A40000484F585E02D682FCE01099510E0809182
:101A5000E203181708F06ACFE12EF12C80E00E9413
:101A60004406F701EC51FC4F80831F5FF0CFCF930A
:101A7000DF93EC018091DA03882329F01092DA03D6
:101A8000CE010E94850C8091E303833071F4809134
:101A9000DF03882351F0E881F9810288F389E02D82
:101AA00061E0CE01099581E00CC08091E3038330B1
:101AB00039F0E881F9810088F189E02DCE0109959E
:101AC00080E0DF91CF9108958F929F92AF92BF9265
:101AD000CF92DF92EF92FF920F931F93CF93DF93FA
:101AE000EC01162F6A01F22E6DE30E94BF08482F09
:101AF00044606DE3CE010E9416090E94331C4B0125
:101B00005C01CE010E94660C811115C00E94331C3D
:101B1000DC01CB0188199909AA09BB09883E9340C9
:101B2000A105B10540F4E881F9810480F581E02D3B
:101B3000CE010995E6CFE881F9810684F785E02D8D
:101B4000E12C2F2DA601612FCE010995DF91CF91B8
:101B50001F910F91FF90EF90DF90CF90BF90AF90CB
:101B60009F908F9008954F925F926F927F92AF9265
:101B7000BF92CF92DF92EF92FF920F931F93CF937A
:101B8000DF93EC015B01F42E1092DE031091E10370
:101B9000C090DB03D090DC036DE30E94BF08482FA8
:101BA00044606DE3CE010E9416090E94331C2B0194
:101BB0003C01CE010E94660C811115C00E94331CAD
:101BC000DC01CB0184199509A609B709883E934029
:101BD000A105B10540F4E881F9810480F581E02D8B
:101BE000CE010995E6CF1093E103E881F9810684DF
:101BF000F785E02DEE24E39400E02F2DA501612F61
:101C0000CE010995D092DC03C092DB03DF91CF9126
:101C10001F910F91FF90EF90DF90CF90BF90AF900A
:101C20007F906F905F904F9008951F93CF93DF93B5
:101C3000EC01162F611102C045E501C04DE56AE5D2
:101C4000CE010E941609111102C040E701C04CE705
:101C50006CE5CE01DF91CF911F910C941609CF93C3
:101C6000DF93EC016887611102C04AE101C04FE0D7
:101C700063E1CE010E9416098885882341F061E165
:101C8000CE010E94BF088F71482F406602C04F816D
:101C9000406861E1CE01DF91CF910C941609CF939A
:101CA000DF93EC01CB014423B1F00E94AA0781111C
:101CB00012C0E881F9810680F781E02D4FE066EDE2
:101CC00071E0CE01099561EE71E088E694E0DF9164
:101CD000CF910C94E419E881F9810680F781E02D19
:101CE00046E066EE71E0CE01DF91CF910994EF926C
:101CF000FF920F931F93CF93DF938C01EC01C60FDC
:101D0000D11DC017D107D9F07801F8016081629523
:101D10006F7060636A330CF0695F88E694E00E943C
:101D2000D9190F5F1F4FF70160816F7060636A33CD
:101D30000CF0695F88E694E00E94D919E2CFDF9148
:101D4000CF911F910F91FF90EF9008952F923F92A6
:101D50004F925F926F927F928F929F92AF92BF92BB
:101D6000CF92DF92EF92FF920F931F93CF93DF9367
:101D7000CDB7DEB769970FB6F894DEBF0FBECDBF03
:101D80006C01698F7A01298B0C8B40E050E0BA011D
:101D9000C7010E94730707E010E022E032E040E054
:101DA00050E0BA01C7010E940F072AE349E050E062
:101DB00060E070E0C7010E94EB060E94331C6D8B4F
:101DC0007E8B8F8B988F61E08C890E940F1D9AE02B
:101DD000892E912CA12CB12C1B8A1A8AD601ED9147
:101DE000FC910480F581E02DC60109958823A9F0B6
:101DF0008091E103B98D8B1310C00091E20361E083
:101E00008C890E944B1D043020F08091E4038634BD
:101E1000B9F060E08C890E944B1D0E94331CDC01EC
:101E2000CB012D893E894F89588D821B930BA40BC2
:101E3000B50B893B9B40A105B10580F280E037C11D
:101E40008091E5038C3429F78091E603883509F702
:101E50008091E7038A3309F0B2C0073008F4AFC0BD
:101E600084E090E0612C712C482F1FEF180FFC01CB
:101E7000EC51FC4F2081203308F411C120812A331A
:101E800008F00DC150816AE0669D9001679D300D9C
:101E90001124205331093901650E711C01968830D7
:101EA000910511F7142F29892223C1F06BE971E004
:101EB00088E694E00E94B3194AE050E0602F88E67B
:101EC00094E00E945E1A66E971E088E694E00E9460
:101ED000B319602F84EE93E00E94770EE1E0E10FEA
:101EE000F0E0EC51FC4F80818A3309F0A7CF0E94CB
:101EF000331C6D8B7E8B8F8B988F4A895B8946153F
:101F0000570539F0CA0101978615970509F057C0A2
:101F10002BC01E5F8A899B8901969B8B8A8B101729
:101F200018F5E12FF0E0EC51FC4F20811401250160
:101F30009FEF291A390A490A590AB501A401C701B4
:101F40000E94EB06D201C1019F77AA27BB27892BEC
:101F50008A2B8B2B29F4B201A101C7010E947307C0
:101F60001F5F52014101DBCF7F926F92AAE0B2E086
:101F7000BF93AF9341E050E04C0F5D1F5F934F93D1
:101F80000E945D20182F0F900F900F900F900F90D0
:101F90000F905989552339F0BE016F5F7F4F88E656
:101FA00094E00E94F619D601ED91FC910680F7812C
:101FB000E02D412FBE016F5F7F4FC60109958091D3
:101FC000E7038F3309F025CF043081F441E0B701F6
:101FD000C6010E944F0EB989BB2309F41ACF68E8E5
:101FE00071E088E694E00E94E41913CF073009F00D
:101FF00010CF8091E803853409F00BCF8091E9037D
:102000008F3409F006CF8091EA03863409F001CFBE
:10201000240135012AE0421A51086108710831E0B3
:1020200043163CE7530661047104A8F04989442330
:1020300031F065E771E088E694E00E94E419D6018A
:10204000ED91FC910680F781E02D4FE064E172E0B4
:10205000C6010995F3CE40E0B701C6010E944F0EBC
:10206000B989BB2331F06EE671E088E694E00E9406
:10207000E4195527472D362D252D47E050E060E027
:1020800070E0C7010E94EB0626EF280D48E050E003
:1020900060E070E0C7010E94EB0681E008C020818B
:1020A0002A3309F0FBCE443009F0FDCEC7CE699645
:1020B0000FB6F894DEBF0FBECDBFDF91CF911F9159
:1020C0000F91FF90EF90DF90CF90BF90AF909F90D7
:1020D0008F907F906F905F904F903F902F900895DA
:1020E000CF92DF92FF920F931F93CF93DF93EC0178
:1020F000162F6A01F22E41E0B6010E944F0EFF201A
:10210000D9F06FEC71E088E694E00E94E4196AEB84
:1021100071E088E694E00E94B319CE010E94DE08C7
:10212000AB01BC01405C5D4B604F7F4F2AE030E06B
:1021300088E694E00E946B1ACE010E94DE08AB0193
:10214000BC01405C5D4B604F7F4FCE010E94350962
:102150002F2DA601612FCE010E94A60E182FFF2061
:10216000A9F063EA71E088E694E00E94B319CE0119
:102170000E94DE08AB01BC01405452446F4071091B
:102180002AE030E088E694E00E946B1ACE010E94BB
:10219000DE08AB01BC01405452446F407109CE01CE
:1021A0000E943509812FDF91CF911F910F91FF90F0
:1021B000DF90CF900895C82F882331F064E671E056
:1021C00088E694E00E94B31998E088E10FB6F8948D
:1021D000A895809360000FBE90936000C11101C06C
:1021E000FFCF62E671E088E694E00E94B319F6CF73
:1021F0000F93CF933091E203343008F455C03091FF
:10220000E403363409F050C03091E5033C3409F062
:102210004BC03091E603383509F046C03091E703F2
:102220003F3309F041C0022FC42FAB016091E1039D
:102230002091E2032730C1F42091E8032534A1F472
:102240002091E9032F3481F42091EA03263461F4CC
:10225000DC01ED91FC910190F081E02D00E026E0A1
:1022600046EE51E0099520C02C2F0E947010882363
:1022700059F0CC2331F068EF71E088E694E00E94D9
:10228000B3198C2F0E94DB10CC2371F064E272E052
:1022900088E694E00E94D71963EF71E088E694E045
:1022A000CF910F910C94E419CF910F910895EF9273
:1022B000FF920F931F93CF93DF93EC0168835A83B0
:1022C00049831D86EB82FC820D831E833C872B870E
:1022D00081E08E87EF82F88609871A870E9458125C
:1022E000009749F0BE01DF91CF911F910F91FF90B0
:1022F000EF900C944612DF91CF911F910F91FF90B8
:10230000EF900895DC011B96ED91FC911C9730979E
:1023100011F08C91099480E00895DF92EF92FF9282
:102320000F931F93CF93DF938C01F62ED42EE22EC2
:102330000E945812EC01892B01F1D11001C0FA80E2
:10234000C801EE2059F00E948211882311F0C801C3
:1023500005C0888199810E944A080FC00E944E17CB
:10236000F80146856F2DCE01DF91CF911F910F911E
:10237000FF90EF90DF900C94551580E0DF91CF91A6
:102380001F910F91FF90EF90DF900895CF93DF930F
:10239000FC0183819481A581B681892B8A2B8B2BAB
:1023A00031F187819085A185B285481759076A0761
:1023B0007B07A0F0EF0121E040E060E0CF010E9448
:1023C0008D118B819C81AD81BE818F839887A98778
:1023D000BA878D858823B9F01D8615C0841B950B9F
:1023E000A60BB70B87839087A187B2870CC0858522
:1023F000882349F0158621E040E060E0CF01DF91BD
:10240000CF910C948D11DF91CF9108950F931F936D
:10241000CF93DF93EC01FC01E458FD4F88EE93E08D
:1024200091838083D0932204C093210479836883AD
:102430002A831A8619861B821C828E0102581D4F20
:10244000F801408340E250E06FEF70E0CE01875F1B
:102450009D4F0E94472040E250E064E370E0CE01CF
:10246000845C9D4F0E94422540E250E06FEF70E097
:10247000CE01845A9D4F0E94472060E0F801808180
:10248000DF91CF911F910F910C940F1DFC012185BD
:1024900032852F3F310509F050F4C901019692872A
:1024A0008187220F331FE20FF31F7487638708951C
:1024B00080912104909122040895CF92DF92EF92AF
:1024C000FF921F93CF93DF93EC0149855A8520E05B
:1024D000CC24CA94DC2C7601822F90E084179507D7
:1024E00010F010E019C0880F991FFE01E80FF91FC6
:1024F0000384F485E02D87819085A185B2850097BE
:10250000A105B10539F08C159D05AE05BF0510F488
:102510006C017D012F5FE0CF812F90E029853A8506
:102520008217930768F4880F991FFE01E80FF91FBF
:10253000B701A601838594850E94C6111F5FECCF69
:10254000C701B601DF91CF911F91FF90EF90DF900F
:10255000CF900895FC01E75DFD4F875C9D4FDB0147
:102560002D91BD012193E817F907C9F70895CF937D
:10257000DF93EC0163E1888199810E94BF08682F95
:1025800080E090E00E946A25FE01E55CFD4F6081DD
:1025900081E090E00E946A25FE01E65CFD4F6081CB
:1025A00082E090E00E946A25FE01E75CFD4F6081B9
:1025B00083E190E00E946A2540E150E063E070E032
:1025C000CE01875D9D4FDF91CF910C945A256F927C
:1025D0007F928F929F92AF92BF92CF92DF92EF92B3
:1025E000FF920F931F93CF93DF93EC01662E042F7E
:1025F000722E80E090E00E945225182FCE01855C5B
:102600009D4F5C01DE01A65CBD4F7D01FE01E75CD4
:10261000FD4F6F0142974C011F3011F01A3111F537
:10262000002301F16DE472E088E694E00E94F6195F
:1026300081E090E00E945225D5018C9382E090E0E9
:102640000E945225F701808383E190E00E94522589
:10265000D6018C9340E150E063E070E0C4010E9439
:10266000422513C061E672E088E694E00E94F61904
:1026700084E6F501808386E5D7018C93F6016082BC
:1026800064E772E0CE010E94AA12D5012C91F601F6
:102690004081D7016C91888199810E94060BB40119
:1026A000888199810E94BE0A1F3051F488819981E6
:1026B000DC01ED91FC910084F185E02D61E009954C
:1026C000772059F0011109C065E872E088E694E0CE
:1026D0000E94F619CE010E94B71288819981DF917C
:1026E000CF911F910F91FF90EF90DF90CF90BF900F
:1026F000AF909F908F907F906F900C944A08AC01A0
:1027000082E0E82FF0E093E0F595E7959A95E1F700
:10271000E40FF51FE45CFD4F208130E020953095FB
:10272000982F977002C0359527959A95E2F720FF6C
:1027300002C08F5FE6CF08950F931F93CF93DF936F
:10274000CDB7DEB7EA970FB6F894DEBF0FBECDBFA8
:10275000CB01BA018E010F5F1F4F41E00E9427207D
:10276000C8010E949216EA960FB6F894DEBF0FBE1B
:10277000CDBFDF91CF911F910F9108954F925F923E
:102780006F927F928F929F92AF92BF92CF92DF9281
:10279000EF92FF920F931F93CF93DF9300D000D05F
:1027A000CDB7DEB76C018090E203912C23E0821656
:1027B00091040CF463C19091E503953008F05EC17B
:1027C0001091E103E12EF12C8091DE0321E08111D3
:1027D00001C020E05B01DB0113962C93139720913D
:1027E000DB033091DC0316963C932E931597809172
:1027F000E4038F3FC9F59330B9F52091E60320310A
:1028000099F50E94331C69837A838B839C83CE0164
:1028100001960E94F416F601808191814091000199
:1028200050910101DC01ED91FC910190F081E02DCE
:1028300000E027E0612F099573E0F594E7947A951D
:10284000E1F7CE0CDF1CF601E75FFD4F177081E06A
:1028500090E001C0880F1A95EAF78095908189234E
:10286000808383E090E00CC1F6012381222309F4E8
:102870007BC08F3F09F078C0933009F075C020917C
:10288000E603233009F070C067EA72E088E694E05E
:102890000E94F619C6010E946317D6018D919C9182
:1028A000DC01ED91FC910284F385E02D60E0099557
:1028B000F601A080B180D501ED91FC9182809380DA
:1028C0000E948E16F82E0E94891668E2E62E02E01B
:1028D0002F2DAC01612FC501F4010995182FD601E8
:1028E0008D919C91DC01ED91FC910284F385E02DAA
:1028F0006FE10995112309F4B8C0E0910201F0914C
:1029000003018581E82FF0E053E0F595E7955A95AE
:10291000E1F7EC0DFD1DE45CFD4F282F277081E0F1
:1029200090E001C0880F2A95EAF78095908189236D
:10293000808340E250E064E370E0C601845C9D4F18
:102940000E945A256CEB72E088E694E00E94F6192A
:10295000F601E75CFD4F21E041E06081C6010E9485
:10296000E712F601138281C0D5011C9311968C9356
:10297000119712969C9312978091E60314968C936C
:1029800014971796E4EEF3E0B401635071099F01C8
:10299000245E33402617370724F493819D933196A4
:1029A000F6CF813109F464C0843009F464C0C701F2
:1029B00043E0959587954A95E1F71770F12E8601CA
:1029C000080F191F075F1D4FF801808190E0809567
:1029D00090950F2C02C0959587950A94E2F780FF99
:1029E0003DC0F401ED51FC4F2081F401EE51FC4F4C
:1029F000808190E0A0E0B0E0DC0199278827B22B2D
:102A0000F401E052FC4F2081822BF401EF51FC4F86
:102A10002081922B89839A83AB83BC830E94331CD1
:102A200049805A806B807C80DC01CB018419950938
:102A3000A609B709883B9B40A105B105F8F4F5014B
:102A4000E80DF91D108281E090E001C0880FFA9432
:102A5000EAF7D8019C91892B8C9304C0F501E60F0D
:102A6000F71F178281E090E00BC084E090E008C07F
:102A700082E090E005C085E090E002C080E090E058
:102A80000F900F900F900F90DF91CF911F910F91AA
:102A9000FF90EF90DF90CF90BF90AF909F908F907E
:102AA0007F906F905F904F9008954F925F926F92DA
:102AB0007F928F929F92AF92BF92CF92DF92EF92CE
:102AC000FF920F931F93CF93DF93CDB7DEB7C2541E
:102AD000D1090FB6F894DEBF0FBECDBF6C01B62E84
:102AE000E42E442381F110E0FF24F39432E4A32E7A
:102AF000CE0101964C010E94E116D6018D919C9168
:102B00004091000150910101DC01ED91FC91019097
:102B1000F081E02D00E023E06B2D09950E94331C2D
:102B20002B013C01FF2009F462C00E94331CDC0130
:102B3000CB0184199509A609B709883E9340A105E0
:102B4000B105C0F155C0D6018D909C90D401ED9196
:102B5000FC9162807380E11002C005E001C003E0D7
:102B60000E948E16182F0E94891628E2E22E212F2D
:102B7000AC016B2DC401F3010995182F882361F076
:102B80008091E203882341F08091E403853521F4AC
:102B900081E0D60114968C93F601E75CFD4F90819D
:102BA000F6018281981721F0808191810E944A0864
:102BB000812F30C0D6018D919C91DC01ED91FC916B
:102BC0000480F581E02D0995882309F4AECFD40166
:102BD000EA2D1D92EA95E9F7B401C6010E94BE13E1
:102BE0000297A1F4CE0108960E94B41613E0F12CCE
:102BF0001F5F133008F47FCFFF2009F4A4CFF60144
:102C0000808191810E944A0880E004C0D6018D91A4
:102C10009C91F8CFCE5BDF4F0FB6F894DEBF0FBEAE
:102C2000CDBFDF91CF911F910F91FF90EF90DF907B
:102C3000CF90BF90AF909F908F907F906F905F905C
:102C40004F900895EF92FF921F93CF93DF93EC0183
:102C50007A018BE090E00E94C91640E06A81CE01C3
:102C60000E945515182FB7018CE090E00E94C916FC
:102C700040E06A81CE010E9455158123DF91CF91FA
:102C80001F91FF90EF900895CF93DF93EC01CB015C
:102C9000BA010E94C91640E06A81CE01DF91CF914E
:102CA0000C945515EF92FF920F931F93CF93DF93E0
:102CB0008C01E62EBA018E2D0E943B1740E0F801F0
:102CC0006281C8010E945515F12CCF2DD0E0F8018A
:102CD00081859285C817D907A8F4CC0FDD1FC00FD6
:102CE000D11F8B859C85FC012081E21209C00E94C6
:102CF000821120E040E060E08B859C850E948D1170
:102D0000F394E3CFDF91CF911F910F91FF90EF905C
:102D10000895809102019091030108958091230408
:102D200090E00895CF93BC01009761F0FC01019001
:102D30000020E9F73197E81BF90BE633F10520F4A1
:102D4000CE2F03C0C0E001C0C6E34C2F50E08091FD
:102D500002019091030103960E944E20E3E0EC0FE4
:102D6000E0932304CF910895BC0190912304209116
:102D700002013091030144E050E0F901E90FF11D37
:102D8000CF010E944E20809123048C5F8093230406
:102D90000895E0910201F09103019FEF9083E0918B
:102DA0000201F091030193E09183E0910201F0911F
:102DB000030182836115710519F0CB010C94921601
:102DC0000895E0910001F09101018FEF8083E0917F
:102DD0000001F091010183E08183E0910001F09115
:102DE000010180E182830895FC01A0910001B0916E
:102DF00001018FEF8C93A0910001B091010183E05C
:102E000011968C93A0910001B091010181E112967D
:102E10008C931297808113968C93139740815181E4
:102E200062817381452F562F672F77274083518307
:102E30006283738314964C9314974081518162810D
:102E40007381452F562F672F7727408351836283E5
:102E5000738315964C9315974081518162817381DC
:102E6000452F562F672F77274083518362837383C3
:102E700016964C930895E0910201F091030180832E
:102E8000E0910201F09103011182E0910201F091C1
:102E90000301628383E0809323040895E09102019B
:102EA000F0910301DC012C912083E0910201F0916B
:102EB000030121E02183E0910201F09103011196C9
:102EC0008C91828308950F931F93CF93DF93EC012E
:102ED000E0910201F09103018FEF8083E091020104
:102EE000F091030183E081830091020110910301BD
:102EF00084E0F8018283FE01E55CFD4F8081F801EA
:102F00008383FE01E65CFD4F8081F8018483CE015E
:102F10000E947F13F8018583C75DDD4F86E090E056
:102F20002991E0910201F0910301E80FF91F20833C
:102F3000019686319105A1F786E180932304DF9104
:102F4000CF911F910F910895FC01918D228D892FB2
:102F500090E0805C9F4F821B91098F7399270895A1
:102F6000FC01918D828D981731F0828DE80FF11D53
:102F7000858D90E008958FEF9FEF0895FC01918D6E
:102F8000828D981761F0828DDF01A80FB11D5D96CB
:102F90008C91928D9F5F9F73928F90E008958FEF39
:102FA0009FEF0895FC01538D448D252F30E0842F31
:102FB00090E0821B930B541710F0CF960895019761
:102FC00008958DE399E1892B49F080E090E0892B09
:102FD00029F00E943D1981110C9400000895FC0114
:102FE000848DDF01A80FB11DA35ABF4F2C91848D92
:102FF00090E001968F739927848FA689B7892C93C7
:10300000A089B1898C91837080648C93938D848D19
:10301000981306C00288F389E02D80818F7D80831C
:103020000895EF92FF920F931F93CF93DF93EC01DC
:1030300081E0888F9B8D8C8D981305C0E889F98974
:10304000808185FD26C0F62E0B8D10E00F5F1F4F8F
:103050000F731127E02E8C8DE8120CC00FB607FC01
:10306000FACFE889F989808185FFF5CFCE010E94EA
:10307000EF17F1CF8B8DFE01E80FF11DE35AFF4FE3
:10308000F0829FB7F8940B8FEA89FB898081806278
:103090000AC09FB7F894EE89FF896083E889F989AF
:1030A00080818370806480839FBF81E090E0DF91A6
:1030B000CF911F910F91FF90EF900895CF93DF93E1
:1030C000EC01888D8823C9F0EA89FB89808185FD20
:1030D00005C0A889B9898C9186FD0FC00FB607FC81
:1030E000F5CF808185FFF2CFA889B9898C9185FFC2
:1030F000EDCFCE010E94EF17E7CFDF91CF9108957A
:10310000CF92DF92EF92FF921F93CF93DF93EC0168
:103110006A017B01122FE889F98982E080834115D9
:10312000514E61057105B1F060E079E08DE390E00A
:10313000A70196010E94E01FDA01C9010197A109C8
:10314000B109B695A795979587959C01211580E1C2
:103150003807A8F0E889F989108260E874E88EE100
:1031600090E0A70196010E94E01FDA01C9010197D2
:10317000A109B109B695A795979587959C01EC850E
:10318000FD853083EE85FF852083188EEC89FD89CF
:103190001083EA89FB89808180618083EA89FB89C9
:1031A000808188608083EA89FB8980818068808350
:1031B000EA89FB8980818F7D8083DF91CF911F9188
:1031C000FF90EF90DF90CF9008951F920F920FB66F
:1031D0000F9211242F938F939F93EF93FF93E0917E
:1031E0007804F09179048081E0917E04F0917F046D
:1031F00082FD12C09081809181048F5F8F73209136
:103200008204821751F0E0918104F0E0E859FB4F0D
:10321000958F8093810401C08081FF91EF919F91F0
:103220008F912F910F900FBE0F901F9018951F92A6
:103230000F920FB60F9211242F933F934F935F93EA
:103240006F937F938F939F93AF93BF93EF93FF936E
:1032500088E694E00E94EF17FF91EF91BF91AF9144
:103260009F918F917F916F915F914F913F912F919E
:103270000F900FBE0F901F90189588E694E00E9463
:10328000A41721E0892B09F420E0822F0895E8E6B5
:10329000F4E01382128288EE93E0A0E0B0E0848331
:1032A0009583A683B78381EE92E09183808385EC3A
:1032B00090E09587848784EC90E09787868780EC00
:1032C00090E0918B808B81EC90E0938B828B82ECF1
:1032D00090E0958B848B86EC90E0978B868B118E9B
:1032E000128E138E148E0895CF92DF92EF92FF927A
:1032F0000F931F93CF93DF936C017A018B01C0E092
:10330000D0E0CE15DF0581F0D8016D918D01D60199
:10331000ED91FC910190F081E02DC6010995892B7A
:1033200011F02196EECF7E01C701DF91CF911F9161
:103330000F91FF90EF90DF90CF9008956115710588
:1033400079F0FB0101900020E9F73197AF01461BAE
:10335000570BDC01ED91FC910280F381E02D099483
:1033600080E090E00895EF92FF920F931F93CF9328
:10337000DF938C017B01C0E0D0E0F701EC0FFD1F73
:103380006491662361F0D801ED91FC910190F08188
:10339000E02DC8010995892B11F02196EECFCE01C1
:1033A000DF91CF911F910F91FF90EF9008950C94B2
:1033B0009E19DC01ED91FC910190F081E02D0994C2
:1033C0006FEE72E00C949E190F931F93CF93DF93CF
:1033D000EC010E94B3198C01CE010E94E019800F0C
:1033E000911FDF91CF911F910F9108950F931F931C
:1033F000CF93DF93EC010E949E198C01CE010E94B5
:10340000E019800F911FDF91CF911F910F910895C7
:103410008F929F92AF92BF92EF92FF920F931F9362
:10342000CF93DF93CDB7DEB7A1970FB6F894DEBF89
:103430000FBECDBF7C01FA01CB0119A2223008F4E6
:103440002AE08E010F5D1F4F822E912CA12CB12CF2
:10345000BF01A50194010E94E01FF901CA010150BA
:1034600011096A3014F4605D01C0695CD8016C9385
:10347000232B242B252B61F7B801C7010E949E192D
:10348000A1960FB6F894DEBF0FBECDBFDF91CF91EE
:103490001F910F91FF90EF90BF90AF909F908F90F2
:1034A00008952115310541F4DC01ED91FC91019065
:1034B000F081E02D642F09940C94081A9A01462F8C
:1034C00050E060E070E00C94511A9A01AB0160E0AA
:1034D00070E00C94511A0F931F93CF93DF93EC017C
:1034E0000E94511A8C01CE010E94E019800F911F99
:1034F000DF91CF911F910F9108957F928F929F92AC
:10350000AF92BF92CF92DF92EF92FF920F931F93F1
:10351000CF93DF938C016A017B01722E9A01AB017C
:10352000C701B6010E94DB1F882319F062EF72E029
:1035300027C046015701E894B7F82FEF3FEF4FE758
:103540005FE7C501B4010E94DB1F81110DC02FEFA1
:103550003FEF4FE75FE7C501B4010E94111E181647
:103560001CF466EF72E00CC02FEF3FEF4FE75FE413
:10357000C701B6010E94691F181694F46AEF72E041
:10358000C801DF91CF911F910F91FF90EF90DF90D5
:10359000CF90BF90AF909F908F907F900C949E198A
:1035A0002FEF3FEF4FE75FECC701B6010E94111EFE
:1035B00087FDE4CF20E030E0A901C701B6010E94F9
:1035C000111E87FF0AC06DE2C8010E94D919EC01E3
:1035D000F7FAF094F7F8F09402C0C0E0D0E0B12C14
:1035E00060E070E080E09FE37B1441F020E030E099
:1035F00040E251E40E94161EB394F6CFA701960153
:103600000E94A51D6B017C010E94881E4B015C017C
:103610002AE0AB01BC01C8010E94081AC80FD91FDB
:103620007720B9F1C501B4010E94B71E9B01AC011E
:10363000C701B6010E94A41D6B017C016EE2C801A6
:103640000E94D919C80FD91F20E030E040E251E4B0
:10365000C701B6010E946E1F4B015C010E94881ECB
:103660006B017C014AE050E0C8010E94651AC80F56
:10367000D91FB60180E090E00E94B71E9B01AC010B
:10368000C501B4010E94A41D6B017C017A947110E4
:10369000DBCFCE01DF91CF911F910F91FF90EF9083
:1036A000DF90CF90BF90AF909F908F907F900895C4
:1036B0000F931F93CF93DF93EC010E947D1A8C012F
:1036C000CE010E94E019800F911FDF91CF911F91D1
:1036D0000F91089508958230E8F4E82FF0E0EE0F9E
:1036E000FF1FEC5FFE4F71836083813041F080915A
:1036F00069008C7F482B40936900E89A0895809177
:103700006900837F440F551F440F551F482B40937A
:103710006900E99A08951F920F920FB60F92112433
:103720002F933F934F935F936F937F938F939F93C9
:10373000AF93BF93EF93FF93E0910401F0910501E4
:103740000995FF91EF91BF91AF919F918F917F91DB
:103750006F915F914F913F912F910F900FBE0F90FE
:103760001F9018951F920F920FB60F9211242F934E
:103770003F934F935F936F937F938F939F93AF93F9
:10378000BF93EF93FF93E0910601F0910701099534
:10379000FF91EF91BF91AF919F918F917F916F9129
:1037A0005F914F913F912F910F900FBE0F901F90FF
:1037B000189508950E94AB1C0E94D91B0E947203A9
:1037C000C1EED7E10E94BD022097E1F30E94E1170C
:1037D000F9CF1F920F920FB60F9211242F933F93A0
:1037E0008F939F93AF93BF938091060590910705A8
:1037F000A0910805B09109053091050523E0230F3C
:103800002D3720F40196A11DB11D05C026E8230F18
:103810000296A11DB11D2093050580930605909386
:103820000705A0930805B093090580910A059091BA
:103830000B05A0910C05B0910D050196A11DB11DC0
:1038400080930A0590930B05A0930C05B0930D058A
:10385000BF91AF919F918F913F912F910F900FBE8C
:103860000F901F9018952FB7F894609106057091EE
:10387000070580910805909109052FBF08953FB76E
:10388000F89480910A0590910B05A0910C05B091D8
:103890000D0526B5A89B05C02F3F19F00196A11D67
:1038A000B11D3FBFBA2FA92F982F8827820F911DD6
:1038B000A11DB11DBC01CD0142E0660F771F881F1D
:1038C000991F4A95D1F708958F929F92AF92BF9218
:1038D000CF92DF92EF92FF926B017C010E943F1C1E
:1038E0004B015C01C114D104E104F10401F10E9417
:1038F000A31D0E943F1CDC01CB0188199909AA096C
:10390000BB09883E9340A105B10560F321E0C21ACE
:10391000D108E108F10888EE880E83E0981EA11C0A
:10392000B11CC114D104E104F10419F7DBCFFF90FD
:10393000EF90DF90CF90BF90AF909F908F900895C1
:103940008230910538F0880F991F880F991F0597CD
:103950000197F1F70895789484B5826084BD84B5A9
:10396000816084BD85B5826085BD85B5816085BD7A
:10397000EEE6F0E0808181608083E1E8F0E0108293
:10398000808182608083808181608083E0E8F0E0D4
:10399000808181608083E1EBF0E0808184608083BE
:1039A000E0EBF0E0808181608083EAE7F0E08081F5
:1039B0008460808380818260808380818160808355
:1039C0008081806880831092C1000895833081F0E7
:1039D00028F4813099F08230A1F008958730A9F061
:1039E0008830B9F08430D1F4809180008F7D03C09D
:1039F000809180008F7780938000089584B58F77C1
:103A000002C084B58F7D84BD08958091B0008F770A
:103A100003C08091B0008F7D8093B0000895CF9354
:103A2000DF9390E0FC01E35DFD4F2491FC01EF5B2F
:103A3000FD4F8491882361F190E0880F991FFC016C
:103A4000E759FD4FC591D491FC01E15AFD4FA59175
:103A5000B491611109C09FB7F894888120958223A1
:103A60008883EC912E230BC0623061F49FB7F894E9
:103A70008881322F309583238883EC912E2B2C93D1
:103A80009FBF06C08FB7F894E8812E2B28838FBF85
:103A9000DF91CF9108951F93CF93DF93282F30E0CC
:103AA000F901E75EFD4F8491F901E35DFD4FD4918B
:103AB000F901EF5BFD4FC491CC23C1F0162F8111AA
:103AC0000E94E61CEC2FF0E0EE0FFF1FE15AFD4FC5
:103AD000A591B4919FB7F894111104C08C91D09521
:103AE000D82302C0EC91DE2BDC939FBFDF91CF91F6
:103AF0001F910895CF93DF93282F30E0F901E75EFF
:103B0000FD4F8491F901E35DFD4FD491F901EF5B25
:103B1000FD4FC491CC2391F081110E94E61CEC2F43
:103B2000F0E0EE0FFF1FEB5AFD4FA591B491EC9121
:103B3000ED2381E090E021F480E002C080E090E09D
:103B4000DF91CF91089508955058BB27AA270E946E
:103B5000BC1D0C942F1F0E94211F38F00E94281FAB
:103B600020F039F49F3F19F426F40C941E1F0EF434
:103B7000E095E7FB0C94181FE92F0E94401F58F3B3
:103B8000BA17620773078407950720F079F4A6F542
:103B90000C94621F0EF4E0950B2EBA2FA02D0B0192
:103BA000B90190010C01CA01A0011124FF27591B82
:103BB00099F0593F50F4503E68F11A16F040A22F88
:103BC000232F342F4427585FF3CF469537952795F9
:103BD000A795F0405395C9F77EF41F16BA0B620BF8
:103BE000730B840BBAF09150A1F0FF0FBB1F661F3F
:103BF000771F881FC2F70EC0BA0F621F731F841F82
:103C000048F4879577956795B795F7959E3F08F0A7
:103C1000B0CF9395880F08F09927EE0F9795879569
:103C200008950E94F41E08F481E008950E942A1E5F
:103C30000C942F1F0E94281F58F00E94211F40F053
:103C400029F45F3F29F00C94181F51110C94631F45
:103C50000C941E1F0E94401F68F39923B1F3552353
:103C600091F3951B550BBB27AA276217730784078F
:103C700038F09F5F5F4F220F331F441FAA1FA9F325
:103C800035D00E2E3AF0E0E832D091505040E69513
:103C9000001CCAF72BD0FE2F29D0660F771F881F74
:103CA000BB1F261737074807AB07B0E809F0BB0B67
:103CB000802DBF01FF2793585F4F3AF09E3F51057B
:103CC00078F00C94181F0C94631F5F3FE4F3983E48
:103CD000D4F3869577956795B795F7959F5FC9F764
:103CE000880F911D9695879597F90895E1E0660FE5
:103CF000771F881FBB1F621773078407BA0720F05E
:103D0000621B730B840BBA0BEE1F88F7E0950895C6
:103D10000E94481F88F09F5798F0B92F9927B751F4
:103D2000B0F0E1F0660F771F881F991F1AF0BA955F
:103D3000C9F714C0B13091F00E94621FB1E008953C
:103D40000C94621F672F782F8827B85F39F0B93F2E
:103D5000CCF3869577956795B395D9F73EF4909512
:103D60008095709561957F4F8F4F9F4F0895E89490
:103D700009C097FB3EF490958095709561957F4FB3
:103D80008F4F9F4F9923A9F0F92F96E9BB27939561
:103D9000F695879577956795B795F111F8CFFAF471
:103DA000BB0F11F460FF1BC06F5F7F4F8F4F9F4FA2
:103DB00016C0882311F096E911C0772321F09EE800
:103DC000872F762F05C0662371F096E8862F70E066
:103DD00060E02AF09A95660F771F881FDAF7880F40
:103DE0009695879597F90895990F0008550FAA0B96
:103DF000E0E8FEEF16161706E807F907C0F01216FE
:103E00001306E407F50798F0621B730B840B950B00
:103E100039F40A2661F0232B242B252B21F4089555
:103E20000A2609F4A140A6958FEF811D811D0895F2
:103E300097F99F6780E870E060E008959FEF80EC5D
:103E4000089500240A941616170618060906089500
:103E500000240A9412161306140605060895092E66
:103E60000394000C11F4882352F0BB0F40F4BF2BD5
:103E700011F460FF04C06F5F7F4F8F4F9F4F089515
:103E800057FD9058440F551F59F05F3F71F047950B
:103E9000880F97FB991F61F09F3F79F087950895F0
:103EA000121613061406551FF2CF4695F1DF08C00F
:103EB000161617061806991FF1CF8695710561052C
:103EC00008940895E894BB2766277727CB0197F9D4
:103ED00008950E94F41E08F48FEF08950E94811F38
:103EE0000C942F1F0E94211F38F00E94281F20F0E1
:103EF000952311F00C94181F0C941E1F11240C9480
:103F0000631F0E94401F70F3959FC1F3950F50E00F
:103F1000551F629FF001729FBB27F00DB11D639F7B
:103F2000AA27F00DB11DAA1F649F6627B00DA11D21
:103F3000661F829F2227B00DA11D621F739FB00DC7
:103F4000A11D621F839FA00D611D221F749F332737
:103F5000A00D611D231F849F600D211D822F762FD0
:103F60006A2F11249F5750409AF0F1F088234AF0AD
:103F7000EE0FFF1FBB1F661F771F881F9150504019
:103F8000A9F79E3F510580F00C94181F0C94631FF5
:103F90005F3FE4F3983ED4F3869577956795B795A0
:103FA000F795E7959F5FC1F7FE2B880F911D9695BA
:103FB000879597F908950E94F41E880B990B089530
:103FC000A1E21A2EAA1BBB1BFD010DC0AA1FBB1F1D
:103FD000EE1FFF1FA217B307E407F50720F0A21B8F
:103FE000B30BE40BF50B661F771F881F991F1A94FC
:103FF00069F760957095809590959B01AC01BD0126
:10400000CF010895052E97FB1EF400940E941920FD
:1040100057FD07D00E94E01F07FC03D04EF40C941C
:10402000192050954095309521953F4F4F4F5F4F48
:10403000089590958095709561957F4F8F4F9F4F14
:104040000895EE0FFF1F0590F491E02D0994EF9273
:104050000F931F93CF93DF93E80147FD02C034E035
:1040600001C034E1042E000C550B57FF03C05195DD
:1040700041955109E32E022F242FAE010E946022A8
:10408000CE01DF91CF911F910F91EF900895DC0148
:1040900001C06D9341505040E0F70895FB01DC01F1
:1040A0004150504048F001900D920020C9F701C0E6
:1040B0001D9241505040E0F70895AEE0B0E0E3E6D5
:1040C000F0E20C948A250D891E8986E08C831A8380
:1040D00009838FEF9FE79E838D83AE01475E5F4F1D
:1040E0006F89788DCE0101960E947F20EF81F8853F
:1040F000E00FF11F10822E96E4E00C94A625ABE0B1
:10410000B0E0E5E8F0E20C947C256C017B018A01CB
:10411000FC0117821682838181FFCCC1CE010196FA
:104120003C01F6019381F70193FD859193FF819105
:104130007F01882309F4BAC1853239F493FD859152
:1041400093FF81917F01853229F4B60190E00E94AE
:10415000A824E7CF912C212C312CFFE1F315D8F0C6
:104160008B3279F038F4803279F08332A1F4232D48
:1041700020611DC08D3261F0803369F4232D2160F0
:1041800016C0832D8260382EE32DE4603E2E2AC0B7
:10419000F32DF8601DC037FC2DC020ED280F2A300C
:1041A00040F08E32B9F436FC81C1232D2064322ECA
:1041B00019C036FE06C08AE0989E200D1124922E6A
:1041C00011C0EAE02E9E200D1124222EF32DF06264
:1041D0003F2E08C08C3621F4832D8068382E02C013
:1041E000883641F4F70193FD859193FF81917F011A
:1041F0008111B3CF982F9F7D9554933028F40C5F95
:104200001F4F9FE399830DC0833631F0833771F0E0
:10421000833509F059C021C0F801808189830E5F80
:104220001F4F88248394912C530113C02801F2E07E
:104230004F0E511CF801A080B18036FE03C0692DDD
:1042400070E002C06FEF7FEFC5010E949D244C011A
:104250008201F32DFF773F2E16C0280122E0420E87
:10426000511CF801A080B18036FE03C0692D70E0BA
:1042700002C06FEF7FEFC5010E9492244C01F32D25
:10428000F0683F2E820133FC1BC0822D90E088161F
:104290009906B0F4B60180E290E00E94A8242A9426
:1042A000F4CFF50137FC859137FE81915F01B601AE
:1042B00090E00E94A82421102A9421E0821A9108FB
:1042C0008114910471F7E8C0843611F0893641F504
:1042D000F80137FE07C060817181828193810C5F94
:1042E0001F4F08C060817181072E000C880B990B4D
:1042F0000E5F1F4FF32DFF763F2E97FF09C090955D
:104300008095709561957F4F8F4F9F4FF0683F2E3E
:104310002AE030E0A3010E94E424882E861845C0DC
:10432000853731F4232D2F7EB22E2AE030E025C0D0
:10433000932D997FB92E8F36C1F018F4883579F016
:10434000B5C0803719F0883721F0B0C0E92FE0619F
:10435000BE2EB4FE0DC0FB2DF460BF2E09C034FE8E
:104360000AC0292F2660B22E06C028E030E005C022
:1043700020E130E002C020E132E0F801B7FE07C0E2
:1043800060817181828193810C5F1F4F06C06081C3
:10439000718180E090E00E5F1F4FA3010E94E42432
:1043A000882E8618FB2DFF773F2E36FE0DC0232D5D
:1043B0002E7FA22E891458F434FE0BC032FC09C0A3
:1043C000832D8E7EA82E05C0B82CA32C03C0B82C3C
:1043D00001C0B92CA4FE0FC0FE01E80DF11D8081C3
:1043E000803321F49A2D997EA92E09C0A2FE06C021
:1043F000B394B39404C08A2D867809F0B394A3FCD7
:1044000011C0A0FE06C0B21488F4280C922C9B1890
:104410000EC0B21460F4B60180E290E00E94A824BD
:10442000B394F7CFB21418F42B1802C0982C212C97
:10443000A4FE10C0B60180E390E00E94A824A2FE72
:1044400017C0A1FC03C088E790E002C088E590E0B7
:10445000B6010CC08A2D867859F0A1FE02C08BE20D
:1044600001C080E2A7FC8DE2B60190E00E94A82482
:10447000891438F4B60180E390E00E94A8249A944D
:10448000F7CF8A94F301E80DF11D8081B60190E029
:104490000E94A8248110F5CF222009F442CEB60153
:1044A00080E290E00E94A8242A94F6CFF60186814B
:1044B000978102C08FEF9FEF2B96E2E10C94982535
:1044C000A9E0B0E0E6E6F2E20C9482256A01122F40
:1044D000B02E2BE3201720F0FF24F394F00E02C03F
:1044E0002CE3F22E0F2D27E0AE014F5F5F4F0E94AD
:1044F000BA23BC014981842F8970813031F0E1FCFD
:1045000006C0E0FE06C090E205C09DE203C09BE24B
:1045100001C090E05E2D507143FF3CC0911102C07C
:1045200083E001C084E0811718F4212F281B01C00B
:1045300020E051110BC0F601822F30E2882319F0E0
:1045400031938150FBCFC20ED11C20E0992329F07A
:10455000D6019C93F60131966F01C6010396E2FEE7
:104560000AC03EE4D6013C9341E411964C93119766
:1045700012963C9306C03EE6F601308341E6418345
:104580003283FC01322F40E2332309F442C04193CD
:104590003150FACF42FF44C0911102C083E001C004
:1045A00084E0811718F4212F281B01C020E051114D
:1045B0000BC0F601822F30E2882319F0319381502D
:1045C000FBCFC20ED11C20E0992329F0D6019C9389
:1045D000F60131966F01C6010396E2FE0BC039E485
:1045E000D6013C933EE411963C93119736E4129623
:1045F0003C9307C039E6F60130833EE6318336E668
:104600003283FC01322F40E2332319F041933150C1
:10461000FBCFFC01E20FF11D10828EEF9FEFA6C0D1
:1046200021E030E0911102C020E030E016161706BC
:104630001CF4FB01319602C0E1E0F0E02E0F3F1FB9
:10464000BB2021F0EB2DF0E0319602C0E0E0F0E07D
:104650002E0F3F1FE12FF0E02E173F071CF4121B17
:10466000212F01C020E08E2D887159F4F601822F90
:1046700030E2882319F031938150FBCFC20ED11C58
:1046800020E0992329F0D6019C93F60131966F0121
:1046900051110BC0F601822F90E3882319F09193FA
:1046A0008150FBCFC20ED11C20E00F2D060F9A8146
:1046B000342F307144FF03C0913309F401501016B8
:1046C00024F4093018F008E001C001E0AB0177FFE5
:1046D00002C040E050E0FB01E41BF50BA1E0B0E0BC
:1046E000AC0FBD1FEA0FFB1F8EE2A82E4B01801AF4
:1046F00091080B2D10E01195019511094F3FBFEF67
:104700005B0721F4D601AC9211966D016417750711
:104710002CF08416950614F4818101C080E3415089
:1047200051093196D60111967D014017510724F0A9
:10473000D6018C936701E2CF6417750739F496337D
:1047400020F4953319F4311101C081E3F60180831F
:10475000F701822F90E2882319F091938150FBCFCB
:10476000F701E20FF11D108280E090E02996ECE065
:104770000C949E25283008F027E03327DA01990FA2
:10478000311D87FD916000966105710539F4326035
:104790002E5F3D9330E32A95E1F708959F3F30F077
:1047A00080387105610509F03C5F3C5F3D939130B5
:1047B00008F08068911DDF93CF931F930F93FF92B2
:1047C000EF92192F987F9695E92F96959695E90F78
:1047D000FF27EE53FF4F99273327EE24FF24A7012D
:1047E000E70105900894079428F4360FE71EF81E99
:1047F000491F511D660F771F881F991F0694A1F747
:104800000590079428F4E70EF81E491F561FC11D96
:10481000770F881F991F661F0694A1F705900794CC
:1048200028F4F80E491F561FC71FD11D880F991F66
:10483000661F771F0694A1F70590079420F4490F8F
:10484000561FC71FD81F990F661F771F881F069412
:10485000A9F784911095177041F0D695C795579593
:104860004795F794E7941A95C1F7E8E6F0E0689465
:104870001590159135916591959105907FE273950D
:10488000E118F10A430B560BC90BD009C0F7E10C34
:10489000F11E431F561FC91FD01D7EF4703311F443
:1048A0008A95E6CFE894015030F0080F0AF400270B
:1048B000021708F4202F2395022F7A3328F079E38A
:1048C0007D932A95E9F710C07D932A9589F6069481
:1048D00097956795379517951794E118F10A430B4B
:1048E000560BC90BD00998F023957E9173957A33B6
:1048F00008F070E37C932013B8F77E9170617D938C
:1049000030F0839571E37D9370E32A95E1F71124EC
:10491000EF90FF900F911F91CF91DF91992787FD25
:1049200090950895FC010590615070400110D8F7F2
:10493000809590958E0F9F1F0895FC0161507040E7
:1049400001900110D8F7809590958E0F9F1F0895C4
:104950000F931F93CF93DF93FB01238121FD03C0AE
:104960008FEF9FEF2CC022FF16C046815781248114
:1049700035814217530744F4A081B1819D012F5F17
:104980003F4F318320838C93268137812F5F3F4FA8
:104990003783268314C08B01EC01FB010084F18571
:1049A000E02D0995892BE1F6D80116968D919C9101
:1049B0001797019617969C938E931697CE01DF91C9
:1049C000CF911F910F910895FA01AA27283051F134
:1049D000203181F1E8946F936E7F6E5F7F4F8F4F30
:1049E0009F4FAF4FB1E03ED0B4E03CD0670F781F8F
:1049F000891F9A1FA11D680F791F8A1F911DA11D74
:104A00006A0F711D811D911DA11D20D009F46894AC
:104A10003F912AE0269F11243019305D3193DEF654
:104A2000CF010895462F4770405D4193B3E00FD00A
:104A3000C9F7F6CF462F4F70405D4A3318F0495DF5
:104A400031FD4052419302D0A9F7EACFB4E0A695D8
:104A50009795879577956795BA95C9F700976105FA
:104A6000710508959B01AC010A2E06945795479550
:104A700037952795BA95C9F7620F731F841F951F45
:104A8000A01D0895DC01CB01FC01F999FECF06C001
:104A9000F2BDE1BDF89A319600B40D9241505040FC
:104AA000B8F70895F999FECF92BD81BDF89A99277C
:104AB00080B50895DC01A40FB51F4150504048F067
:104AC000CB01840F951F2E910E946B2541505040C1
:104AD000D0F70895262FF999FECF92BD81BDF89A9F
:104AE000019700B4021639F01FBA20BD0FB6F89432
:104AF000FA9AF99A0FBE08952F923F924F925F92C1
:104B00006F927F928F929F92AF92BF92CF92DF92DD
:104B1000EF92FF920F931F93CF93DF93CDB7DEB742
:104B2000CA1BDB0B0FB6F894DEBF0FBECDBF0994D6
:104B30002A88398848885F846E847D848C849B842D
:104B4000AA84B984C884DF80EE80FD800C811B813B
:104B5000AA81B981CE0FD11D0FB6F894DEBF0FBE6A
:0A4B6000CDBFED010895F894FFCFDA
:104B6A0024042B046A1B6A1B4661696C6564207203
:104B7A00656164696E672074656D706572617475CC
:104B8A0072652066726F6D2044485400543A2000C2
:104B9A004661696C65642072656164696E67206844
:104BAA00756D69646974792066726F6D2044485422
:104BBA0000483A20005570646174696E672E2E2E83
:104BCA0000557064617465206661696C65640053A0
:104BDA00657269616C20696E697420646F6E650024
:104BEA0053504920466C61736820496E6974204F9E
:104BFA004B210053504920466C61736820496E6905
:104C0A0074204641494C2100312E34004448543224
:104C1A00322D4C696768740000000000640D6B084F
:104C2A00370DB30D2F0EEE091308080A8D0A8509F0
:104C3A00150E26081808464C583F4E4F4B3A4E4F11
:104C4A00464C41534800464C583F4F4B00464C583F
:104C5A003F454F4600464C583F00464C583A25754A
:104C6A003A00464C58494D473A00464C583A257541
:104C7A003A4F4B00464C583F4E4F4B3A4845583EE8
:104C8A0033316B0054696D656F75742F4572726F9D
:104C9A00722C2065726173696E6720777269747409
:104CAA00656E2064617461202E2E2E20005265618B
:104CBA0064696E67204E4F444520436F6E6669678C
:104CCA0000437573746F6D204E4F444520436F6ED9
:104CDA006669670073616D706C65456E63727970A1
:104CEA00744B657900536176696E67204E4F44456F
:104CFA0020436F6E666967002A20627574746F6E4E
:104D0A00202A003100300053656E64696E67206E98
:104D1A006574776F726B2064617461004578697499
:104D2A0020696E636C75646500536176696E6720ED
:104D3A00726164696F20636F6E66696700000000C4
:104D4A000011187419D2175E18A417BE17B0170DE0
:0E4D5A000A006E616E00696E66006F7666007C
:00000001FF
