:100000000C943C010C94921C0C94B91C0C9464014B
:100010000C9464010C9464010C944A060C946401E1
:100020000C9464010C9464010C9464010C946401BC
:100030000C9464010C9464010C9464010C946401AC
:100040000C94F01C0C9464010C9492190C94C41937
:100050000C9464010C9464010C9464010C9464018C
:100060000C9464010C94640100407A10F35A00A0CF
:10007000724E18090010A5D4E80000E87648170071
:1000800000E40B54020000CA9A3B000000E1F505B1
:10009000000080969800000040420F000000A086FB
:1000A00001000000102700000000E803000000002D
:1000B0006400000000000A000000000001000000D1
:1000C00000002C76D888DC674F0823DFC1DFAE59EB
:1000D000E1B1B796E5E3E453C63AE651997696E87E
:1000E000E6C28426EB898C9B62ED407C6FFCEFBC02
:1000F0009C9F40F2BAA56FA5F490055A2AF75C932D
:100100006B6CF9676DC11BFCE0E40D47FEF520E662
:10011000B500D0ED902E0300943577050080841E45
:10012000080000204E0A000000C80C333333330FA0
:10013000986E12831141EF8D2114893BE65516CF3D
:10014000FEE6DB18D1844B381BF77C1D901DA4BB49
:10015000E424203284725E228100C9F124ECA1E5FE
:100160003D272E005245424F4F54494E4700464CC2
:10017000583F4F4B00494D47203E2033316B2C20D8
:10018000746F6F2062696700464C583F4F4B207276
:100190006573656E64005D203E2000726164696F66
:1001A000205B00554E5368696674696E672063680A
:1001B000616E6E656C20746F2000536869667469A7
:1001C0006E67206368616E6E656C20746F200046F8
:1001D0004C583F4F4B202841434B2073656E742988
:1001E000004641494C3A4E4F20464C415348204D21
:1001F000454D00444F4E4500464C41534820494D23
:1002000047205452414E534D495353494F4E20536A
:10021000554343455353210A0000000008000201E2
:1002200000000304070000000000000000010204B9
:100230000810204080010204081020010204081068
:10024000200404040404040404020202020202035F
:10025000030303030300000000230026002900001D
:10026000000000250028002B0000000000240027CB
:10027000002A00009C03F41911241FBECFEFD8E020
:10028000DEBFCDBF13E0A0E0B1E0E8E7FDE402C0CF
:1002900005900D92A830B107D9F725E0A8E0B3E0AA
:1002A00001C01D92A431B207E1F711E0CCE3D1E027
:1002B00004C02197FE010E942821CA33D107C9F743
:1002C0000E94E11C0C94BA260C9400004091C303D8
:1002D0005091C4036091C5037091C60322E086E289
:1002E00093E00E947A1481E008954091BF035091F9
:1002F000C0036091C1037091C20322E086E293E0E3
:100300000E947A1481E008958F929F92AF92BF92DB
:10031000CF92DF92EF92FF921F93CF93DF936B0107
:100320007C018DEA93E00E948D0888EB93E00E94A7
:10033000AE074601570183E0B694A794979487943B
:100340008A95D1F7C701B6012AE030E040E050E0DD
:100350000E94E720162FC0E0D0E0CE01A0E0B0E080
:1003600088159905AA05BB0560F420E030E040E05F
:1003700050E069E070E089ED93E00E94FE0521966F
:10038000ECCFC12F12FF0AC020E030E040E050E087
:1003900068E070E089ED93E00E94FE05C1FF0AC0AD
:1003A00020E030E040E050E067E070E089ED93E06D
:1003B0000E94FE0510FF15C020E030E040E050E054
:1003C00066E070E089ED93E0DF91CF911F91FF909F
:1003D000EF90DF90CF90BF90AF909F908F900C9454
:1003E000FE05DF91CF911F91FF90EF90DF90CF90AE
:1003F000BF90AF909F908F900895CF92DF92EF9231
:10040000FF9261E085E00E94521E60E086E00E945B
:10041000161E87EC93E00E94040462E070E080E026
:1004200090E00E94840140E060E087EC93E00E944D
:100430005D056B017C019B01AC010E94E2208823D9
:1004400039F068E071E08EE694E00E94A31A24C0BF
:100450002091C3033091C4034091C5035091C6035A
:10046000C701B6010E94181F8823B1F0C092C303D0
:10047000D092C403E092C503F092C6036CE271E02F
:100480008EE694E00E94841A22E030E0B701A601D3
:100490008EE694E00E945F1C60E087EC93E00E948F
:1004A000BA056B017C019B01AC010E94E22088230C
:1004B00039F060E371E08EE694E00E94A31A24C054
:1004C0002091BF033091C0034091C1035091C203FA
:1004D000C701B6010E94181F8823B1F0C092BF0364
:1004E000D092C003E092C103F092C20361E571E0D3
:1004F0008EE694E00E94841A22E030E0B701A60163
:100500008EE694E00E945F1C60E085E00E94521E2F
:1005100061E086E00E94161E60E086E0FF90EF90AA
:10052000DF90CF900C94521E8F929F92AF92BF9209
:10053000CF92EF920F931F93CF93DF93CDB7DEB798
:100540002B970FB6F894DEBF0FBECDBF0E94FD0102
:1005500086E293E00E9433134B015C0180912A03F1
:10056000882309F442C065E571E08EE694E00E94BC
:10057000A31A8CEB91E09A8389838091AF038B83DC
:100580008091B0038C838091B1038D838091B203FD
:100590008E838091B3038F838091B4038887809189
:1005A000B50389878091B6038A878091B7038B87CB
:1005B00089E0C82EE12C0091B8031091B903209175
:1005C000BA033091BB034091BC035091BD036091CD
:1005D000BE03CE0101960E94991161E671E08EE69C
:1005E00094E00E94A31A10922A034091C3035091F1
:1005F000C4036091C5037091C60322E086E293E0D4
:100600000E947A1420E041E063E687E193E00E94D3
:100610005B12C501B4010E9484012B960FB6F894B9
:10062000DEBF0FBECDBFDF91CF911F910F91EF9035
:10063000CF90BF90AF909F908F9008958EE480935D
:100640007C0062E070E080E090E00E946B1D809191
:100650007A00806480937A0080917A0086FDFCCFD6
:10066000809178002091790030E0322F2227A90173
:10067000330F660B770B9A01AB01282B64EB7BE2FF
:1006800081E190E00E940921CA01B901089561E069
:1006900085E00E94161E61E080E10E94161E60E067
:1006A0008FE00E94161E26E040E052EC61E070E010
:1006B0008EE694E00E942D196FE671E08EE694E0DC
:1006C0000E94A31A88EB93E00E94C707882339F0A1
:1006D00060E871E08EE694E00E94A31A06C063E928
:1006E00071E08EE694E00E94A31A21E041E061E00F
:1006F00086E293E00E94C71348EA51E06CEA71E099
:1007000086E293E00E94061746E050E061E086E250
:1007100093E00E94281747E050E062E086E293E011
:100720000E9428170E941E03AB01BC012AE030E0A2
:100730008EE694E00C94721BEF92FF920F931F933E
:1007400026E046E166E087EC93E00E94E30340E3A5
:100750005FEE68E088EB93E00E946806EDEAF3E064
:100760008CEB91E0918380838AE0828382E08383B3
:10077000148281E08093E90316828FE187831086DB
:1007800020E04EE0BF0186E293E00E94DC121CE311
:10079000E12EF12C00E010E026E631E040E050E0F0
:1007A00061E087E193E00E94251225E731E041E016
:1007B00050E062E088E093E00E9425121F910F91C3
:1007C000FF90EF900895DC0115966C93159716969F
:1007D0004C93169770E0FB01E35DFD4FE491179693
:1007E000EC931797FB01EF5BFD4F649118966C93A8
:1007F000189740E85EE360E070E01D964D935D93CE
:100800006D937C9350970895CF93DF93EC0162E052
:100810008D810E94161E80E398EFAFEFBFEF8987AE
:100820009A87AB87BC87DF91CF9108958F929F9273
:10083000AF92BF92CF92DF92EF92FF92CF93DC0103
:100840001796CC911797662311F09C2F01C090E06A
:1008500018962C91189730E0220F331F2B5A3D4FDA
:1008600040E050E0BA01F901E590F490F701808191
:100870008C2398131AC04A015B01FFEF8F1A9F0A5D
:10088000AF0ABF0A1D96CD90DD90ED90FC90509779
:100890004C155D056E057F0518F4B501A401E3CF85
:1008A00030E020E080E090E003C0342F252FCB0122
:1008B000632F722FCF91FF90EF90DF90CF90BF907A
:1008C000AF909F908F9008958F929F92AF92BF921A
:1008D000CF92DF92EF92FF920F931F93CF93DF930C
:1008E000CDB7DEB7C054D1400FB6F894DEBF0FBE0F
:1008F000CDBF8C01F62E0E943A1DF11016C0F801F2
:10090000C184D284E384F4849B01AC012C193D0999
:100910004E095F0969017A0130EDC31637E0D3064D
:10092000E104F10410F48189B4C0F8016187728791
:10093000838794871482138212821182108261E06D
:1009400085810E94521E6AEF70E080E090E00E9474
:100950006B1D61E0F80185810E94161E60E0F801C0
:1009600085810E94521E64E170E080E090E00E9468
:100970006B1DF89461E0F80185810E94521E88E2A7
:1009800090E00E94A71D62E0F80185810E94161E7A
:100990008AE090E00E94A71D60E0C8010E94160452
:1009A000672B682B692B21F4F801118A789442C0D7
:1009B00061E0C8010E941604672B682B692BA1F324
:1009C0009E012F5F3F4F79015E013FEBA31A3EEF7F
:1009D000B30A670160E0C8010E941604F601608353
:1009E00071838283938361E0C8010E941604F6013B
:1009F0006483758386839783F8E0CF0ED11CCA1475
:100A0000DB0441F7789420E030E0F70180809180AA
:100A1000A280B380448155816681778181149104DD
:100A2000A104B10429F0411551056105710521F4B6
:100A3000F801118A80E02DC0F90183E0F595E79572
:100A40008A95E1F7E00FF11F8081880F84169506E3
:100A5000A606B70608F4816080832F5F3F4FF8E059
:100A6000EF0EF11C2832310581F6F801248130E0C7
:100A70004081818190E0840F911D4281840F911DFE
:100A80004381840F911D99272817390789F681E042
:100A9000818BC05CDE4F0FB6F894DEBF0FBECDBFBA
:100AA000DF91CF911F910F91FF90EF90DF90CF904A
:100AB000BF90AF909F908F900895CF92DF92EF926A
:100AC000FF920F931F93CF93DF93EC01162F642FA8
:100AD0000E946404882309F440C08E818B3029F081
:100AE000E0F18551823040F038C06A8170E080E0EA
:100AF00090E00E94BE1F22C00A81602F6F7770E0D5
:100B000080E090E00E94C01F20E030E040E853E425
:100B10000E9475206B017C016B8170E080E090E0A9
:100B20000E94C01FA70196010E94AC1E2DEC3CEC58
:100B30004CEC5DE30E94752007FD9058112389F06D
:100B400026E636E646EE5FE30E94752020E030E0C0
:100B500040E052E40E94AC1E04C060E070E080EC13
:100B60009FE7DF91CF911F910F91FF90EF90DF9062
:100B7000CF900895CF92DF92EF92FF92CF93DF93C1
:100B8000EC0160E00E946404882369F18E818B305F
:100B900019F148F18551823030F5688170E080E0CC
:100BA00090E00E94BE1F20E030E040E853E40E9445
:100BB00075206B017C01698170E080E090E00E940B
:100BC000C01FA70196010E94AC1E2DEC3CEC4CEC22
:100BD0005DE30E9475200BC0688170E080E090E0CA
:100BE0000E94BE1F04C060E070E080EC9FE7DF91D0
:100BF000CF91FF90EF90DF90CF9008954115510570
:100C000029F4EAE7F0E080818F7780836A3071050C
:100C1000A9F063FD02C088E001C088E26770682B1C
:100C200088E10FB6F894A895809360000FBE60939A
:100C30006000E0E6F0E0808180648083232BA1F4F3
:100C400083B7817F846083BFF89483B7816083BF5B
:100C500085B7806685BF8F7D85BF7894889583B77B
:100C60008E7F83BF78940EC083B7817F846083BFFB
:100C7000F89483B7816083BF7894889583B78E7F1B
:100C800083BF7894452B29F4EAE7F0E080818068FF
:100C9000808308951F920F920FB60F9211248F93A5
:100CA0000FB6F894A89580916000886180936000E9
:100CB000109260000FBE8F910F900FBE0F901F908B
:100CC00018958EBD00000DB407FEFDCF8EB50895BA
:100CD000FC0180E5858316826083528341830895F9
:100CE000FC018CB583838DB58483458136818091E9
:100CF000DC03882399F02FB7F8948091DC038130CE
:100D000059F48DB38093DA039DB38091DB03809512
:100D100089238DBB2FBF02C02093DA034CBD3DBD9C
:100D200060E080810C94521ECF93DF93EC0161E070
:100D300088810E94521E8091DC03882361F09FB756
:100D4000F8942091DC038091DA03213019F48DBBF3
:100D50009FBF01C08FBF8B818CBD8C818DBDDF910A
:100D6000CF9108950F931F93CF93DF938C010E942F
:100D700070068FE90E94610680E00E946106C82F1C
:100D8000D0E0DC2FCC2780E00E946106C82BC80190
:100D90000E949406CE01DF91CF911F910F9108958B
:100DA0001F93CF93DF93EC010E94700685E00E94B1
:100DB000610680E00E946106182FCE010E94940611
:100DC000812FDF91CF911F9108950E94D0068170ED
:100DD00008951F93CF93DF93EC01162F442339F02E
:100DE00040E066E00E94E906CE010E9494061B3AAC
:100DF00049F4CE010E947006812FDF91CF911F919F
:100E00000C946106CE010E94E5068111FBCFF1CF63
:100E1000EF92FF920F931F93CF93DF93EC01042F78
:100E2000F52EE62E122F41E062E00E94E9068E2D9B
:100E30000E9461068F2D0E946106802F0E9461062C
:100E4000812F0E946106CE01DF91CF911F910F91FA
:100E5000FF90EF900C9494062F923F924F925F92E6
:100E60006F927F928F929F92AF92BF92CF92DF92BA
:100E7000EF92FF920F931F93CF93DF936C012A01A0
:100E80003B0119019A01332780E091E0821B930B0B
:100E9000812C912C0115110581F1E8018017910732
:100EA00008F4EC0141E062E0C6010E94E906862DEB
:100EB0000E946106852D0E946106842D0E946106B4
:100EC0005101A80CB91C7501F70181917F010E94A5
:100ED0006106C7018A199B098C179D07A8F3C601F3
:100EE0000E9494064C0E5D1E611C711C8C0E9D1E92
:100EF0000C1B1D0B80E091E0CDCFDF91CF911F91B6
:100F00000F91FF90EF90DF90CF90BF90AF909F90A8
:100F10008F907F906F905F904F903F902F900895AB
:100F2000FF920F931F93CF93DF93EC01142F052FA4
:100F3000F62E41E062E50E94E9068F2D0E946106CF
:100F4000802F0E946106812F0E946106CE01DF91F1
:100F5000CF911F910F91FF900C949406CF93DF9344
:100F6000EC0140E069EB0E94E906CE01DF91CF91F0
:100F70000C949406CF93DF93EC010E9470068BEAE9
:100F80000E946106CE01DF91CF910C949406CF931D
:100F9000DF93EC018CB58B838DB58C8361E0888108
:100FA0000E94161E0E94FA0780E58D831E82CE01E4
:100FB0000E949406CE010E94BA0789819A81892BEA
:100FC00051F0CE010E94B20629813A81821793071F
:100FD00011F080E00CC041E061E0CE010E94E90622
:100FE00080E00E946106CE010E94940681E0DF91BC
:100FF000CF910895CF93CFB7F8948091DD038111FD
:1010000027C0EBE4F2E08491E7E3F2E09491E82F6B
:10101000F0E0EE0FFF1FE759FD4FA591B491EC9161
:10102000E92321F461E08AE00E94521E61E08AE037
:101030000E94161E8CB580618CBD8CB580648CBD01
:1010400061E08DE00E94161E61E08BE00E94161E9A
:101050008091DD038F5F8093DD03CFBFCF91089533
:10106000089581E08093E0038091DE039091DF0397
:10107000DC01ED91FC910484F585E02D0995109239
:10108000E0030895FC01F8948CB581878DB58287C3
:101090008CB5837F8CBD8CB58F7D8CBD8CB58C7FE2
:1010A0008CBD8DB58E7F8DBD60E082810C94521E0B
:1010B000CF93DF93EC0161E08A810E94521E898503
:1010C0008CBD8A858DBD8091E003811101C078942B
:1010D000DF91CF910895F8942091E903233021F412
:1010E0002091E50321110FC02091E903233011F471
:1010F000789407C0DC01ED91FC910288F389E02D22
:10110000099580E00895DC01ED91FC910488F58952
:10111000E02D61E0099581E00895DC01ED91FC91FD
:101120000488F589E02D60E00994CF93C62FDC0197
:10113000ED91FC910480F581E02D0995882361F003
:101140008091E703C81711F0CF3F29F49091E30392
:1011500081E0911101C080E0CF9108953F924F92BC
:101160005F926F927F928F929F92AF92BF92CF9237
:10117000DF92EF92FF920F931F93CF93DF93EC01D7
:10118000162F5A01822E902E312CCE2CD12CE12CF0
:10119000F12CE881F9810190F081E02D01E0282D0A
:1011A000A501612FCE0109950E943A1D2B013C013A
:1011B0000E943A1DDC01CB0184199509A609B709E3
:1011C0008C159D05AE05BF0538F4612FCE010E9438
:1011D0009508882369F304C033949314D0F680E013
:1011E000DF91CF911F910F91FF90EF90DF90CF9003
:1011F000BF90AF909F908F907F906F905F904F9037
:101200003F9008951F93CF93DF93EC01162FE88151
:10121000F981008CF18DE02D0995812F8F770E9447
:10122000610680E00E946106182FE881F981028C36
:10123000F38DE02DCE010995812FDF91CF911F9184
:1012400008950F931F93CF93DF938C0167E00E9463
:101250000209C82F68E0C8010E940209D82F69E07E
:10126000C8010E9402094C2F50E060E070E0BA0112
:1012700055274427480F511D611D711D8D2F90E08A
:10128000982F88278A019B01080F191F211D311DE6
:10129000C901B8010E94BE1F20E034E244E752E4D5
:1012A0000E9475200E948F1FDF91CF911F910F9197
:1012B00008950F931F93CF93DF93EC01062F142F04
:1012C000E881F981008CF18DE02D0995802F8068EF
:1012D0000E946106812F0E946106E881F981028CDB
:1012E000F38DE02DCE01DF91CF911F910F910994E5
:1012F000CF92DF92EF92FF921F93CF93DF93EC0197
:101300006A017B011091E903143039F4E881F98115
:101310000488F589E02D63E00995C701B6010E94B4
:10132000BE1F20E034E244E752E40E941D1F0E94E9
:101330008F1F6B017C01A7016627772767E0CE012D
:101340000E94590977276F2D5E2D4D2D68E0CE0143
:101350000E9459094C2D69E0CE010E9459091330B1
:1013600041F4E881F9810488F589E02D62E0CE013D
:101370000995E881F9810488F589E02D612FCE0176
:10138000DF91CF911F91FF90EF90DF90CF90099464
:101390001F93CF93DF932091E903261709F45DC0D3
:1013A000162FEC016230E9F168F4662309F440C0BD
:1013B000613009F052C061E00E940209837E482F2B
:1013C00044603BC06330B9F0643009F046C061E06E
:1013D0000E940209837E482F4C6061E0CE010E948A
:1013E00059098885882369F1E881F9810688F78998
:1013F000E02D61E013C061E00E940209837E482F66
:10140000406161E0CE010E94590988858823C9F0B6
:10141000E881F9810688F789E02D60E0CE01099521
:1014200010C061E00E940209837E482F486005C019
:1014300061E00E940209482F437E61E0CE010E94D4
:1014400059098091E903811106C067E2CE010E942B
:10145000020987FFF6CF1093E903DF91CF911F9127
:101460000895CF93DF93EC01603208F06FE16F8352
:101470008885882311F066956F8361E1CE010E9413
:101480000209807E9F81482F492B61E1CE01DF91C7
:10149000CF910C945909CF92DF92EF92FF920F9364
:1014A0001F93CF93DF93EC01F62ED42EC52E122F6F
:1014B000E881F9810488F589E02D61E0099567E20A
:1014C000CE010E94020987FFFACF40E065E2CE011B
:1014D0000E9459091E3308F01DE3E11004C00023E7
:1014E00021F000E403C000E801C000E0E881F981D8
:1014F000008CF18DE02DCE01099580E80E946106F7
:1015000083E0810F0E9461068F2D0E9461068D810C
:101510000E946106802F0E9461060D2DED2CFC2C8F
:101520008E2D801B811730F4F70181917F010E947D
:101530006106F6CFE881F981028CF38DE02DCE01B2
:101540000995E881F9810488F589E02D64E0CE01F0
:1015500009950E943A1D6B017C018B810E94811EBE
:10156000892B81F0E881F9810488F589E02D61E01B
:10157000CE01DF91CF911F910F91FF90EF90DF90FF
:10158000CF9009940E943A1DDC01CB018C199D0972
:10159000AE09BF09883E9340A105B105F0F2E2CF44
:1015A000CF93DF93EC011092E8031092E7031092BF
:1015B000E6031092E5031092E4031092E303109205
:1015C000E2031092E10368E20E94020982FF0AC06E
:1015D0006DE3CE010E940209482F44606DE3CE0105
:1015E0000E94590940E465E2CE010E945909E88150
:1015F000F9810488F589E02D63E0CE01DF91CF9178
:101600000994CF92DF92EF92FF920F931F93CF93A3
:10161000DF93EC018B01E881F9810488F589E02DE5
:1016200061E0099501151105F1F0E881F981008C5F
:10163000F18DE02DCE0109958EEB0E9461067801B7
:10164000680180E1C80ED11CF70181917F010E94E1
:101650006106EC14FD04C1F7E881F981028CF38D79
:10166000E02DCE0109956DE3CE010E9402098E7F27
:1016700041E0012B09F440E0482B6DE3CE01DF91FE
:10168000CF911F910F91FF90EF90DF90CF900C942E
:1016900059098F929F92AF92BF92CF92DF92EF92B1
:1016A000FF920F931F93CF93DF93CDB7DEB7AE9723
:1016B0000FB6F894DEBF0FBECDBF8C01E42E8EE2D4
:1016C000AE014F5F5F4F6A01DA01E82F1D92EA9584
:1016D000E9F791E0998334E03A8342E04B8393E069
:1016E0009D834E833F8340E4488735E039879A875E
:1016F00096E09B8793E39C8737E03D8798E09F8740
:1017000099E0998B99E19B8B92E49C8B55E25D8BE0
:101710004E8B46E24F8B388F38E2398F30E13A8F6B
:1017200039E23B8F3CED3C8F8D8F88E88E8F8FE2C6
:101730008F8F8DE288A380E389A337E33BA330E951
:101740003CA338E33DA39EA39CE39FA39FE898A7F7
:101750009DE399A792E19AA79FE69BA78CA78FEF9D
:101760008DA76F3131F06B3231F0663531F084EE98
:1017700005C08EE403C08CE601C089ED8E876F3111
:1017800041F06B3221F0663521F480E003C080E443
:1017900001C080EC888B2AA361E0D80112968C915D
:1017A0000E94521E61E0F80182810E94161E0E9472
:1017B000FA070E943A1D4B015C014AEA6FE2C80138
:1017C0000E9459096FE2C8010E9402098A3A61F039
:1017D0000E943A1DDC01CB0188199909AA09BB09AD
:1017E000C297A105B10548F30E943A1D4B015C0167
:1017F00045E56FE2C8010E9459096FE2C8010E94E5
:101800000209853561F00E943A1DDC01CB0188197F
:101810009909AA09BB09C297A105B10548F3F12CA2
:10182000F601EF0DF11DEF0DF11D60816F3F31F0FD
:101830004181C8010E945909F394F2CF60E070E041
:10184000C8010E94010BD801ED91FC911197008411
:10185000F185E02D18966C91C8010995D801ED919C
:10186000FC910488F589E02D61E0C80109950E948A
:101870003A1D4B015C0167E2C8010E94020987FD25
:101880000CC00E943A1DDC01CB0188199909AA09F4
:10189000BB09C297A105B10570F30E943A1DDC0196
:1018A000CB0188199909AA09BB09C297A105B105FD
:1018B00098F41092E00343E050E061E378E0F8012F
:1018C00084810E94721C1093DF030093DE03D80111
:1018D0001596EC9281E001C080E0AE960FB6F894C8
:1018E000DEBF0FBECDBFDF91CF911F910F91FF9053
:1018F000EF90DF90CF90BF90AF909F908F90089522
:10190000CF93DF93EC0161110DC064E2CE010E9420
:10191000020990E091958195910995958795DF91C0
:10192000CF91089541E063E20E94590963E2CE013C
:101930000E94020981FFFACFE8CFCF93DF93209175
:10194000E9032330A9F42091E503211111C0EC0132
:1019500060E00E94800C863A9F4F54F4E881F98140
:101960000488F589E02D61E0CE01099581E001C090
:1019700080E0DF91CF910895EF92FF921F93CF9374
:10198000DF93EC018091E903833001F568E2CE0139
:101990000E94020982FD28C019C08091E8038D339E
:1019A00030F4E091E803F0E0E651FC4F1082E8816A
:1019B000F981028CF38DE02DCE010995E881F98142
:1019C0000488F589E02D63E0CE01099560E0CE0141
:1019D0000E94800C9093E2038093E103DF91CF910A
:1019E0001F91FF90EF900895E881F9810488F589AF
:1019F000E02D61E0CE010995E881F981008CF18D3F
:101A0000E02DCE01099580E00E94610680E00E94F1
:101A100061068093E5038091E5038334D0F48091DF
:101A2000E5038093E50380E00E9461068093E6036E
:101A30008E81811109C08091E6039D81981721F064
:101A40008091E6038F3F39F48091E503833018F0ED
:101A500017C082E4E6CF1092E503E881F981028C99
:101A6000F38DE02DCE010995E881F9810288F38993
:101A7000E02DCE01DF91CF911F91FF90EF9009945F
:101A80008091E50383508093E80380E00E94610623
:101A90008093E70380E00E946106982F90789093EE
:101AA000E303982F90749093E403E881F98106840E
:101AB000F785E02D682FCE01099510E08091E803AD
:101AC000181708F06ACFE12EF12C80E00E94610621
:101AD000F701E651FC4F80831F5FF0CF8F929F92FA
:101AE000AF92BF92CF92DF92EF92FF920F931F932C
:101AF000CF93DF93EC01162F6A01F22E6DE30E9463
:101B00000209482F44606DE3CE010E9459090E94EA
:101B10003A1D4B015C01CE010E949D0C811115C044
:101B20000E943A1DDC01CB0188199909AA09BB0959
:101B3000883E9340A105B10540F4E881F981048015
:101B4000F581E02DCE010995E6CFE881F981008885
:101B5000F189E02DE12C2F2DA601612FCE010995F1
:101B6000DF91CF911F910F91FF90EF90DF90CF9079
:101B7000BF90AF909F908F9008954F925F926F9219
:101B80007F92AF92BF92CF92DF92EF92FF920F932C
:101B90001F93CF93DF93EC015B01F42E1092E403CB
:101BA0001091E703C090E103D090E2036DE30E943F
:101BB0000209482F44606DE3CE010E9459090E943A
:101BC0003A1D2B013C01CE010E949D0C811115C0D4
:101BD0000E943A1DDC01CB0184199509A609B709B9
:101BE000883E9340A105B10540F4E881F981048065
:101BF000F581E02DCE010995E6CF1093E703E8814A
:101C0000F9810088F189E02DEE24E39400E02F2D86
:101C1000A501612FCE010995D092E203C092E103A4
:101C2000DF91CF911F910F91FF90EF90DF90CF90B8
:101C3000BF90AF907F906F905F904F9008951F93EB
:101C4000CF93DF93EC01162F611102C045E501C06F
:101C50004DE56AE5CE010E945909111102C040E725
:101C600001C04CE76CE5CE01DF91CF911F910C9440
:101C70005909CF93DF93EC016887611102C04AE1F3
:101C800001C04FE063E1CE010E9459098885882395
:101C900041F061E1CE010E9402098F71482F406638
:101CA00002C04F81406861E1CE01DF91CF910C9479
:101CB0005909FC01DB018CEB91E091838083129642
:101CC0008C911297828313968C9113978383149629
:101CD0008C911497848315968C911597858316960D
:101CE0008C911697868317968C91179787831896F1
:101CF0008C911897808719968C91199781871A96DD
:101D00008C9182870895CF92DF92EF920F931F9369
:101D1000CF93DF93CDB7DEB727970FB6F894DEBF2A
:101D20000FBECDBF6C0109831A832B833C834D8387
:101D30005E836F83EE2099F0CE0101960E94C70763
:101D400081110DC04FE068ED71E0C6010E94BD0D2C
:101D500061EE71E08EE694E00E94911A06C046E0C2
:101D600068EE71E0C6010E94BD0D27960FB6F8948B
:101D7000DEBF0FBECDBFDF91CF911F910F91EF90CE
:101D8000DF90CF9008950F931F93CF93DF93CDB73C
:101D9000DEB70DB71EB7262F30E0220F331FA90183
:101DA0004F5F5F4FEDB7FEB7E41BF50B0FB6F8942E
:101DB000FEBF0FBEEDBF4DB75EB74F5F5F4FFA017D
:101DC000782FDC018A2F871B861788F48D91982F36
:101DD00092959F7090639A330CF0995D90838F7009
:101DE00080638A330CF0895D81833296EBCFFA01F0
:101DF000E20FF31F1082BA018EE694E00E94A31A4C
:101E00000FB6F8941EBF0FBE0DBFDF91CF911F918B
:101E10000F9108952F923F924F925F926F927F920F
:101E20008F929F92AF92BF92CF92DF92EF92FF92EA
:101E30000F931F93CF93DF93CDB7DEB7A5970FB660
:101E4000F894DEBF0FBECDBF4C016DA3EC8EFD8EAE
:101E50000E8F1F8F28A339A34AA33C2CACA240E0CD
:101E600050E0BA01CE014C960E94900707E010E0C6
:101E700024E032E040E050E0BA01CE014C960E94EE
:101E80002C072AE349E050E060E070E0CE014C9678
:101E90000E9408070E943A1D2B013C019AE0C92EBE
:101EA000D12CA12CB12CC4010E946B08882301F114
:101EB0008091E7032DA182131BC06091E8036BA3FF
:101EC000643020F08091EA03863409F161E08CA14E
:101ED0000E94161E61E08CA10E94521E61E070E01B
:101EE00080E090E00E946B1D60E08CA10E94521E79
:101EF0000E943A1DDC01CB0184199509A609B70996
:101F0000893B9B40A105B10570F280E039C1809109
:101F1000EB038C34D9F68091EC038835B9F68091C7
:101F2000ED038A3309F0A5C06BA1673008F4A1C0A6
:101F300084E090E000E010E0482FFF24FA94F80ECF
:101F4000FC01E651FC4F2081203308F411C12081AF
:101F50002A3308F00DC150816AE0609F9001619FB3
:101F6000300D1124890100531109050F111D01962F
:101F70008830910509F7F42E3320C1F06BE971E048
:101F80008EE694E00E94601A4AE050E06BA18EE673
:101F900094E00E940B1B66E971E08EE694E00E94DB
:101FA000601A6BA18AEE93E00E94C30EE1E0EF0D90
:101FB000F0E0E651FC4F80818A3309F0A6CF0E9401
:101FC0003A1D2B013C01A016B10639F0C50101975D
:101FD0008017910709F04DC027C082E0282E2F0CF2
:101FE0008FEFA81AB80A9BA12916F0F4E22DF0E0B1
:101FF000E651FC4F208176016FEFE61AF60AA60142
:1020000060E070E0CE014C960E940807C7019F7700
:10201000892B39F4A70160E070E0CE014C960E9454
:10202000900723946701DFCF1F930F938CE092E01A
:102030009F938F9381E090E08C0F9D1F9F938F93D0
:102040000E946421182F0F900F900F900F900F9007
:102050000F90332039F0BE016F5F7F4F8EE694E022
:102060000E94A31A412FBE016F5F7F4FC4010E94DF
:10207000BD0D8091ED038F3309F028CF9BA19430E3
:10208000E1F4B401CE0141960E94590EEE24E3948E
:102090000C8D1D8D2E8D3F8D48A159A16AA1CE01B9
:1020A00041960E94830E332009F410CF68E871E056
:1020B0008EE694E00E94911A09CF2BA1273009F0F7
:1020C00005CF8091EE03853409F000CF8091EF03B6
:1020D0008F3409F0FBCE8091F003863409F0F6CE00
:1020E00086010A50110901306CE7160778F0332099
:1020F00031F065E771E08EE694E00E94911A4FE0BE
:1021000066E172E0C4010E94BD0DFFCEB401CE01B4
:1021100041960E94590E46E068EE71E0CE0141966C
:102120000E94BD0D332031F06EE671E08EE694E042
:102130000E94911A212F47E050E060E070E0CE014C
:102140004C960E94080726EF2C0D48E050E060E016
:1021500070E0CE014C960E9408072AE349E050E067
:1021600060E070E0CE014C960E94080781E008C054
:1021700020812A3309F0FBCE443009F0FDCEC5CED4
:10218000A5960FB6F894DEBF0FBECDBFDF91CF91FD
:102190001F910F91FF90EF90DF90CF90BF90AF9085
:1021A0009F908F907F906F905F904F903F902F9077
:1021B00008958F929F92AF92BF92CF92DF92EF924B
:1021C000FF920F931F93CF93DF93CDB7DEB7629744
:1021D0000FB6F894DEBF0FBECDBF4C01B62EEC8615
:1021E000FD860E871F87288B398B4A8BDC2CBC0120
:1021F000CE0101960E94590EEE24E3940C851D85B4
:102200002E853F85488959896A89CE0101960E94A9
:10221000830ECC20D9F06FEC71E08EE694E00E9442
:10222000911A6AEB71E08EE694E00E94601AC40194
:102230000E942109AB01BC01405C5D4B604F7F4FA8
:102240002AE030E08EE694E00E94181BC4010E9450
:102250002109AB01BC01405C5D4B604F7F4FC40165
:102260000E947809B401CE0101960E94590ECD2C2E
:10227000EC84FD840E851F85288939894A896B2D58
:10228000CE0101960E940A0F182FDD20A9F063EA03
:1022900071E08EE694E00E94601AC4010E94210958
:1022A000AB01BC01405452446F4071092AE030E058
:1022B0008EE694E00E94181BC4010E942109AB0124
:1022C000BC01405452446F407109C4010E94780916
:1022D000812F62960FB6F894DEBF0FBECDBFDF919F
:1022E000CF911F910F91FF90EF90DF90CF90BF9013
:1022F000AF909F908F900895C82F882331F064E6A7
:1023000071E08EE694E00E94601A98E088E10FB6D2
:10231000F894A895809360000FBE90936000C1115F
:1023200001C0FFCF62E671E08EE694E00E94601A81
:10233000F6CFAF92BF92CF92DF92EF92FF920F93C0
:102340001F93CF93DF93CDB7DEB762970FB6F894A4
:10235000DEBF0FBECDBF0C871D872E873F87488B02
:10236000598B6A8B2091E803243008F45DC02091DA
:10237000EA03263409F058C02091EB032C3409F00D
:1023800053C02091EC03283509F04EC02091ED0395
:102390002F3309F049C0AC2CDE2CB090E70320911C
:1023A000E8032730A1F42091EE03253481F4209135
:1023B000EF032F3461F42091F003263441F400E060
:1023C00026E048EE51E06B2D0E946E0D2DC0BC0141
:1023D000CE0101960E94590ECD2CEC84FD840E8511
:1023E0001F85288939894A896B2DCE0101960E9463
:1023F000D910882359F0DD2031F068EF71E08EE6C6
:1024000094E00E94601A8D2D0E947C11DD2061F005
:1024100066E272E08EE694E00E94841A63EF71E057
:102420008EE694E00E94911A62960FB6F894DEBF91
:102430000FBECDBFDF91CF911F910F91FF90EF9015
:10244000DF90CF90BF90AF900895EF92FF920F93DF
:102450001F93CF93DF93EC0168835A8349831D86D2
:10246000EB82FC820D831E833C872B8781E08E8765
:10247000EF82F88609871A870E942E13009749F089
:10248000BE01DF91CF911F910F91FF90EF900C94BF
:102490001C13DF91CF911F910F91FF90EF90089542
:1024A000DC011B96ED91FC911C97309711F08C91FB
:1024B000099480E00895DF92EF92FF920F931F93AB
:1024C000CF93DF938C01F62ED42EE22E0E942E1392
:1024D000EC01892B01F1D11001C0FA80C801EE2076
:1024E00059F00E945012882311F0C80105C088815C
:1024F00099810E948D080FC00E94FB17F801468544
:102500006F2DCE01DF91CF911F910F91FF90EF9032
:10251000DF900C94331680E0DF91CF911F910F91E3
:10252000FF90EF90DF900895CF93DF93FC018381BC
:102530009481A581B681892B8A2B8B2B71F18781A0
:102540009085A185B285481759076A077B0728F04F
:10255000178210861186128608C0841B950BA60B65
:10256000B70B87839087A187B28787819085A185E4
:10257000B285892B8A2B8B2BE1F4EF0121E040E01F
:1025800060E0CF010E945B128B819C81AD81BE8196
:102590008F839887A987BA870CC08585882349F0DF
:1025A000158621E040E060E0CF01DF91CF910C94EF
:1025B0005B12DF91CF9108950F931F93CF93DF9319
:1025C000EC01FC01E458FD4F88EE93E09183808399
:1025D000D0932804C0932704798368832A831A86BA
:1025E00019861B821C828E0102581D4FF801408300
:1025F00040E250E06FEF70E0CE01875F9D4F0E9498
:102600004E2140E250E064E370E0CE01845C9D4FD7
:102610000E94492640E250E06FEF70E0CE01845AFC
:102620009D4F0E944E2160E0F8018081DF91CF91A3
:102630001F910F910C94161EFC01218532852F3FAE
:10264000310509F050F4C901019692878187220F64
:10265000331FE20FF31F7487638708958091270467
:10266000909128040895CF92DF92EF92FF921F93EA
:10267000CF93DF93EC0110E0CC24CA94DC2C7601DC
:10268000812F90E029853A858217930710F010E09A
:1026900023C0880F991FFE01E80FF91F83859485D9
:1026A000FC012585222331F021E040E060E00E941A
:1026B0005B1210C0FC0187819085A185B2850097CF
:1026C000A105B10539F08C159D05AE05BF0510F4C7
:1026D0006C017D011F5FD4CF812F90E029853A8561
:1026E0008217930768F4880F991FFE01E80FF91FFE
:1026F000B701A601838594850E9494121F5FECCFD9
:10270000C701B601DF91CF911F91FF90EF90DF904D
:10271000CF900895FC01E75DFD4F875C9D4FDB0185
:102720002D91BD012193E817F907C9F70895CF93BB
:10273000DF93EC0163E1888199810E940209682F8F
:1027400080E090E00E947126FE01E55CFD4F608113
:1027500081E090E00E947126FE01E65CFD4F608101
:1027600082E090E00E947126FE01E75CFD4F6081EF
:1027700083E190E00E94712640E150E063E070E068
:10278000CE01875D9D4FDF91CF910C9461266F92B2
:102790007F928F929F92AF92BF92CF92DF92EF92F1
:1027A000FF920F931F93CF93DF93EC01762E642E4D
:1027B000022F80E090E00E945926182FCE01855C00
:1027C0009D4F5C01DE01A65CBD4F7D01FE01E75C13
:1027D000FD4F6F0142974C011F3011F01A3111F576
:1027E000662001F16FE472E08EE694E00E94A31A85
:1027F00081E090E00E945926D5018C9382E090E020
:102800000E945926F701808383E190E00E945926B7
:10281000D6018C9340E150E063E070E0C4010E9477
:10282000492613C063E672E08EE694E00E94A31A84
:1028300084E6F501808386E5D7018C93F6017082EA
:1028400066E772E0CE010E948A13D5012C91F60151
:102850004081D7016C91888199810E94490BB40114
:10286000888199810E94010B1F3051F488819981E0
:10287000DC01ED91FC910084F185E02D61E009958A
:10288000002349F067E872E08EE694E00E94A31A04
:10289000CE010E94971388819981DF91CF911F917A
:1028A0000F91FF90EF90DF90CF90BF90AF909F90EF
:1028B0008F907F906F900C948D08AC0182E0E82F90
:1028C000F0E093E0F595E7959A95E1F7E40FF51FB1
:1028D000E45CFD4F208130E020953095982F977073
:1028E00002C0359527959A95E2F720FF02C08F5FC9
:1028F000E6CF08950F931F93CF93DF93CDB7DEB745
:10290000EA970FB6F894DEBF0FBECDBFCB01BA0178
:102910008E010F5F1F4F41E00E942E21C8010E94CF
:102920003F17EA960FB6F894DEBF0FBECDBFDF911A
:10293000CF911F910F9108954F925F926F927F9266
:102940008F929F92AF92BF92CF92DF92EF92FF92BF
:102950000F931F93CF93DF9300D000D0CDB7DEB796
:102960006C018090E803912C23E0821691040CF412
:1029700063C19091EB03953008F05EC11091E703BD
:10298000E12EF12C8091E40321E0811101C020E0CF
:102990005B01DB0113962C9313972091E103309197
:1029A000E20316963C932E9315978091EA038F3F8E
:1029B000C9F59330B9F52091EC03203199F50E94C7
:1029C0003A1D69837A838B839C83CE0101960E9492
:1029D000A117F60180819181409100015091010180
:1029E000DC01ED91FC910190F081E02D00E027E009
:1029F000612F099573E0F594E7947A95E1F7CE0C91
:102A0000DF1CF601E75FFD4F177081E090E001C029
:102A1000880F1A95EAF7809590818923808383E057
:102A200090E00CC1F6012381222309F47BC08F3F83
:102A300009F078C0933009F075C02091EC03233081
:102A400009F070C069EA72E08EE694E00E94A31A71
:102A5000C6010E941018D6018D919C91DC01ED9168
:102A6000FC910284F385E02D60E00995F601A080D9
:102A7000B180D501ED91FC91828093800E943B173B
:102A8000F82E0E94361768E2E62E02E02F2DAC01E8
:102A9000612FC501F4010995182FD6018D919C91E4
:102AA000DC01ED91FC910284F385E02D6FE1099545
:102AB000112309F4B8C0E0910201F091030185816E
:102AC000E82FF0E053E0F595E7955A95E1F7EC0D26
:102AD000FD1DE45CFD4F282F277081E090E001C0D0
:102AE000880F2A95EAF7809590818923808340E2B8
:102AF00050E064E370E0C601845C9D4F0E94612653
:102B00006EEB72E08EE694E00E94A31AF601E75C99
:102B1000FD4F21E041E06081C6010E94C713F6012C
:102B2000138281C0D5011C9311968C931197129634
:102B30009C9312978091EC0314968C93149717969C
:102B4000EAEEF3E0B401635071099F012A5E33405D
:102B50002617370724F493819D933196F6CF813160
:102B600009F464C0843009F464C0C70143E095955A
:102B700087954A95E1F71770F12E8601080F191F06
:102B8000075F1D4FF801808190E0809590950F2C94
:102B900002C0959587950A94E2F780FF3DC0F40145
:102BA000E751FC4F2081F401E851FC4F808190E017
:102BB000A0E0B0E0DC0199278827B22BF401EA51AC
:102BC000FC4F2081822BF401E951FC4F2081922B94
:102BD00089839A83AB83BC830E943A1D49805A80C3
:102BE0006B807C80DC01CB0184199509A609B709AB
:102BF000883B9B40A105B105F8F4F501E80DF91DEE
:102C0000108281E090E001C0880FFA94EAF7D801C1
:102C10009C91892B8C9304C0F501E60FF71F178256
:102C200081E090E00BC084E090E008C082E090E09A
:102C300005C085E090E002C080E090E00F900F902A
:102C40000F900F90DF91CF911F910F91FF90EF9018
:102C5000DF90CF90BF90AF909F908F907F906F90BC
:102C60005F904F9008954F925F926F927F928F92F4
:102C70009F92AF92BF92CF92DF92EF92FF920F930B
:102C80001F93CF93DF93CDB7DEB7C254D1090FB6F0
:102C9000F894DEBF0FBECDBF6C01B62EE42E4423E8
:102CA00081F110E0FF24F39432E4A32ECE010196CB
:102CB0004C010E948E17D6018D919C91409100018C
:102CC00050910101DC01ED91FC910190F081E02D2A
:102CD00000E023E06B2D09950E943A1D2B013C0179
:102CE000FF2009F468C00E943A1DDC01CB01841961
:102CF0009509A609B709883E9340A105B105F0F1F1
:102D00005BC0D6018D909C90D401ED91FC916280C6
:102D10007380E11002C005E001C003E00E943B1790
:102D2000182F0E94361728E2E22E212FAC016B2DBE
:102D3000C401F3010995182F882391F08091E803CD
:102D4000882371F08091EA03853551F481E0D60142
:102D500014968C936FED72E08EE694E00E94A31AB5
:102D6000F601E75CFD4F9081F6018281981721F012
:102D7000808191810E948D08812F30C0D6018D9174
:102D80009C91DC01ED91FC910480F581E02D099589
:102D9000882309F4A8CFD401EA2D1D92EA95E9F71A
:102DA000B401C6010E949C140297A1F4CE010896BA
:102DB0000E94611713E0F12C1F5F133008F479CFE4
:102DC000FF2009F49ECFF601808191810E948D0839
:102DD00080E004C0D6018D919C91F8CFCE5BDF4F8F
:102DE0000FB6F894DEBF0FBECDBFDF91CF911F911C
:102DF0000F91FF90EF90DF90CF90BF90AF909F909A
:102E00008F907F906F905F904F900895EF92FF9218
:102E10001F93CF93DF93EC017A018BE090E00E9447
:102E2000761740E06A81CE010E943316182FB70151
:102E30008CE090E00E94761740E06A81CE010E940B
:102E400033168123DF91CF911F91FF90EF9008956A
:102E5000CF93DF93EC01862FBA010E94E81740E080
:102E60006A81CE01DF91CF910C94331680910201DB
:102E70009091030108958091290490E00895CF93E3
:102E8000BC01009761F0FC0101900020E9F7319747
:102E9000E81BF90BE633F10520F4CE2F03C0C0E0A8
:102EA00001C0C6E34C2F50E08091020190910301D4
:102EB00003960E945521E3E0EC0FE0932904CF91A3
:102EC0000895BC01909129042091020130910301E1
:102ED00044E050E0F901E90FF11DCF010E945521B6
:102EE000809129048C5F809329040895E091020168
:102EF000F09103019FEF9083E0910201F0910301B3
:102F000093E09183E0910201F091030182836115C6
:102F1000710519F0CB010C943F170895E091000161
:102F2000F09101018FEF8083E0910001F0910101A8
:102F300083E08183E0910001F091010180E18283CF
:102F40000895FC01A0910001B09101018FEF8C93D5
:102F5000A0910001B091010183E011968C93A091A2
:102F60000001B091010181E112968C93129780814A
:102F700013968C9313974081518162817381452F01
:102F8000562F672F7727408351836283738314966C
:102F90004C9314974081518162817381452F562F44
:102FA000672F7727408351836283738315964C93F1
:102FB00015974081518162817381452F562F672F6C
:102FC0007727408351836283738316964C930895C9
:102FD000E0910201F09103018083E0910201F09100
:102FE00003011182E0910201F0910301628383E009
:102FF000809329040895E0910201F0910301DC011E
:103000002C912083E0910201F091030121E02183C2
:10301000E0910201F091030111968C918283089551
:103020000F931F93CF93DF93EC01E0910201F09196
:1030300003018FEF8083E0910201F091030183E0AF
:103040008183009102011091030184E0F8018283E1
:10305000FE01E55CFD4F8081F8018383FE01E65CA3
:10306000FD4F8081F8018483CE010E945D14F80138
:103070008583C75DDD4F86E090E02991E0910201F4
:10308000F0910301E80FF91F208301968631910525
:10309000A1F786E180932904DF91CF911F910F91D1
:1030A0000895FC01918D228D892F90E0805C9F4FC7
:1030B000821B91098F7399270895FC01918D828D50
:1030C000981731F0828DE80FF11D858D90E00895FD
:1030D0008FEF9FEF0895FC01918D828D981761F01D
:1030E000828DDF01A80FB11D5D968C91928D9F5F3F
:1030F0009F73928F90E008958FEF9FEF0895FC01EA
:10310000538D448D252F30E0842F90E0821B930B4C
:10311000541710F0CF960895019708958AEE99E11B
:10312000892B49F080E090E0892B29F00E94EA1970
:1031300081110C9400000895FC01848DDF01A80F1B
:10314000B11DA35ABF4F2C91848D90E001968F73CF
:103150009927848FA689B7892C93A089B1898C91EE
:10316000837080648C93938D848D981306C002883D
:10317000F389E02D80818F7D80830895EF92FF9207
:103180000F931F93CF93DF93EC0181E0888F9B8D8A
:103190008C8D981305C0E889F989808185FD26C04A
:1031A000F62E0B8D10E00F5F1F4F0F731127E02ECF
:1031B0008C8DE8120CC00FB607FCFACFE889F989AC
:1031C000808185FFF5CFCE010E949C18F1CF8B8DB9
:1031D000FE01E80FF11DE35AFF4FF0829FB7F8940C
:1031E0000B8FEA89FB89808180620AC09FB7F894BF
:1031F000EE89FF896083E889F98980818370806422
:1032000080839FBF81E090E0DF91CF911F910F916C
:10321000FF90EF900895CF93DF93EC01888D882382
:10322000C9F0EA89FB89808185FD05C0A889B98933
:103230008C9186FD0FC00FB607FCF5CF808185FF0E
:10324000F2CFA889B9898C9185FFEDCFCE010E947C
:103250009C18E7CFDF91CF910895CF92DF92EF9244
:10326000FF921F93CF93DF93EC016A017B01122F32
:10327000E889F98982E080834115514E6105710525
:10328000B1F060E079E08DE390E0A70196010E9443
:10329000E720DA01C9010197A109B109B695A795FF
:1032A000979587959C01211580E13807A8F0E8895A
:1032B000F989108260E874E88EE190E0A701960138
:1032C0000E94E720DA01C9010197A109B109B69569
:1032D000A795979587959C01EC85FD853083EE85B4
:1032E000FF852083188EEC89FD891083EA89FB898C
:1032F000808180618083EA89FB8980818860808306
:10330000EA89FB89808180688083EA89FB898081E2
:103310008F7D8083DF91CF911F91FF90EF90DF90A1
:10332000CF9008951F920F920FB60F9211242F93F2
:103330008F939F93EF93FF93E0917E04F0917F042E
:103340008081E0918404F091850482FD12C0908117
:10335000809187048F5F8F7320918804821751F0CA
:10336000E0918704F0E0E259FB4F958F809387044A
:1033700001C08081FF91EF919F918F912F910F90CC
:103380000FBE0F901F9018951F920F920FB60F92BD
:1033900011242F933F934F935F936F937F938F935A
:1033A0009F93AF93BF93EF93FF938EE694E00E94B9
:1033B0009C18FF91EF91BF91AF919F918F917F9159
:1033C0006F915F914F913F912F910F900FBE0F9092
:1033D0001F9018958EE694E00E94511821E0892BE9
:1033E00009F420E0822F0895EEE6F4E013821282C1
:1033F00088EE93E0A0E0B0E084839583A683B78352
:103400008AEE92E09183808385EC90E095878487B3
:1034100084EC90E09787868780EC90E0918B808B9E
:1034200081EC90E0938B828B82EC90E0958B848B87
:1034300086EC90E0978B868B118E128E138E148EF5
:103440000895CF92DF92EF92FF920F931F93CF9345
:10345000DF936C017A018B01C0E0D0E0CE15DF056F
:1034600081F0D8016D918D01D601ED91FC91019013
:10347000F081E02DC6010995892B11F02196EECF40
:103480007E01C701DF91CF911F910F91FF90EF90C7
:10349000DF90CF9008956115710579F0FB010190DF
:1034A0000020E9F73197AF01461B570BDC01ED9186
:1034B000FC910280F381E02D099480E090E0089572
:1034C000EF92FF920F931F93CF93DF938C017B01B9
:1034D000C0E0D0E0F701EC0FFD1F6491662361F0BE
:1034E000D801ED91FC910190F081E02DC801099582
:1034F000892B11F02196EECFCE01DF91CF911F9154
:103500000F91FF90EF9008950C944B1ADC01ED9110
:10351000FC910190F081E02D099468EF72E00C9429
:103520004B1A0F931F93CF93DF93EC010E94601A05
:103530008C01CE010E948D1A800F911FDF91CF91D7
:103540001F910F9108950F931F93CF93DF93EC0179
:103550000E944B1A8C01CE010E948D1A800F911F80
:10356000DF91CF911F910F9108958F929F92AF920B
:10357000BF92EF92FF920F931F93CF93DF93CDB73C
:10358000DEB7A1970FB6F894DEBF0FBECDBF7C01AA
:10359000FA01CB0119A2223008F42AE08E010F5D56
:1035A0001F4F822E912CA12CB12CBF01A50194019B
:1035B0000E94E720F901CA01015011096A3014F490
:1035C000605D01C0695CD8016C93232B242B252BF3
:1035D00061F7B801C7010E944B1AA1960FB6F89483
:1035E000DEBF0FBECDBFDF91CF911F910F91FF9036
:1035F000EF90BF90AF909F908F9008952115310567
:1036000041F4DC01ED91FC910190F081E02D642FFB
:1036100009940C94B51A9A01462F50E060E070E0CE
:103620000C94FE1A9A01AB0160E070E00C94FE1A53
:103630000F931F93CF93DF93EC010E94FE1A8C012E
:10364000CE010E948D1A800F911FDF91CF911F91A3
:103650000F910895CF92DF92EF92FF920F931F93F5
:10366000CF93DF932115310581F4DC01ED91FC91BD
:103670000190F081E02D642FDF91CF911F910F9188
:10368000FF90EF90DF90CF9009942A30310501F53B
:1036900077FF1DC06A017B01EC016DE20E94861A72
:1036A0008C0144275527BA014C195D096E097F0921
:1036B0002AE0CE010E94B51A800F911FDF91CF91B1
:1036C0001F910F91FF90EF90DF90CF9008952AE027
:1036D000DF91CF911F910F91FF90EF90DF90CF90EE
:1036E0000C94B51A0F931F93CF93DF93EC010E94B4
:1036F0002A1B8C01CE010E948D1A800F911FDF9131
:10370000CF911F910F9108957F928F929F92AF92C8
:10371000BF92CF92DF92EF92FF920F931F93CF93BE
:10372000DF938C016A017B01722E9A01AB01C70104
:10373000B6010E94E220882319F06BEF72E027C0E7
:1037400046015701E894B7F82FEF3FEF4FE75FE7E7
:10375000C501B4010E94E22081110DC02FEF3FEF9F
:103760004FE75FE7C501B4010E94181F18161CF44B
:103770006FEF72E00CC02FEF3FEF4FE75FE4C70140
:10378000B6010E947020181694F463E073E0C8013B
:10379000DF91CF911F910F91FF90EF90DF90CF902D
:1037A000BF90AF909F908F907F900C944B1A2FEF0B
:1037B0003FEF4FE75FECC701B6010E94181F87FD7E
:1037C000E4CF20E030E0A901C701B6010E94181F34
:1037D00087FF0AC06DE2C8010E94861AEC01F7FA61
:1037E000F094F7F8F09402C0C0E0D0E0B12C60E0B3
:1037F00070E080E09FE37B1441F020E030E040E2A5
:1038000051E40E941D1FB394F6CFA70196010E94B8
:10381000AC1E6B017C010E948F1F4B015C012AE0F2
:10382000AB01BC01C8010E94B51AC80FD91F77208F
:10383000B9F1C501B4010E94BE1F9B01AC01C701D3
:10384000B6010E94AB1E6B017C016EE2C8010E94B2
:10385000861AC80FD91F20E030E040E251E4C701CA
:10386000B6010E9475204B015C010E948F1F6B0105
:103870007C014AE050E0C8010E94121BC80FD91F0A
:10388000B60180E090E00E94BE1F9B01AC01C50123
:10389000B4010E94AB1E6B017C017A947110DBCFE6
:1038A000CE01DF91CF911F910F91FF90EF90DF90AC
:1038B000CF90BF90AF909F908F907F9008950F937F
:1038C0001F93CF93DF93EC010E94841B8C01CE01E8
:1038D0000E948D1A800F911FDF91CF911F910F9140
:1038E000089508958230E8F4E82FF0E0EE0FFF1F0E
:1038F000EC5FFE4F71836083813041F080916900FD
:103900008C7F482B40936900E89A08958091690064
:10391000837F440F551F440F551F482B4093690068
:10392000E99A08951F920F920FB60F9211242F93C8
:103930003F934F935F936F937F938F939F93AF9337
:10394000BF93EF93FF93E0910401F0910501099576
:10395000FF91EF91BF91AF919F918F917F916F9167
:103960005F914F913F912F910F900FBE0F901F903D
:1039700018951F920F920FB60F9211242F933F9319
:103980004F935F936F937F938F939F93AF93BF9367
:10399000EF93FF93E0910601F09107010995FF91E4
:1039A000EF91BF91AF919F918F917F916F915F91B7
:1039B0004F913F912F910F900FBE0F901F90189530
:1039C00008950E94B21D0E94E01C0E944703CEE8A9
:1039D000D8E10E9494022097E1F30E948E18F9CF5B
:1039E0001F920F920FB60F9211242F933F938F9334
:1039F0009F93AF93BF9380910C0590910D05A0917B
:103A00000E05B0910F0530910B0523E0230F2D37E4
:103A100020F40196A11DB11D05C026E8230F0296D2
:103A2000A11DB11D20930B0580930C0590930D05EE
:103A3000A0930E05B0930F0580911005909111058C
:103A4000A0911205B09113050196A11DB11D80939F
:103A5000100590931105A0931205B0931305BF9123
:103A6000AF919F918F913F912F910F900FBE0F902B
:103A70001F9018952FB7F89460910C0570910D0563
:103A800080910E0590910F052FBF08953FB7F894D0
:103A90008091100590911105A0911205B091130528
:103AA00026B5A89B05C02F3F19F00196A11DB11D99
:103AB0003FBFBA2FA92F982F8827820F911DA11DD4
:103AC000B11DBC01CD0142E0660F771F881F991F11
:103AD0004A95D1F708958F929F92AF92BF92CF925D
:103AE000DF92EF92FF926B017C010E94461D4B0119
:103AF0005C01C114D104E104F10401F10E94AA1E89
:103B00000E94461DDC01CB0188199909AA09BB094D
:103B1000883E9340A105B10560F321E0C21AD108A7
:103B2000E108F10888EE880E83E0981EA11CB11C04
:103B3000C114D104E104F10419F7DBCFFF90EF9039
:103B4000DF90CF90BF90AF909F908F90089582307C
:103B5000910538F0880F991F880F991F05970197D5
:103B6000F1F70895789484B5826084BD84B581604E
:103B700084BD85B5826085BD85B5816085BDEEE675
:103B8000F0E0808181608083E1E8F0E01082808154
:103B900082608083808181608083E0E8F0E08081C2
:103BA00081608083E1EBF0E0808184608083E0EBE2
:103BB000F0E0808181608083EAE7F0E080818460CA
:103BC0008083808182608083808181608083808126
:103BD000806880831092C1000895833081F028F4BA
:103BE000813099F08230A1F008958730A9F08830B3
:103BF000B9F08430D1F4809180008F7D03C0809132
:103C000080008F7780938000089584B58F7702C0FD
:103C100084B58F7D84BD08958091B0008F7703C0F7
:103C20008091B0008F7D8093B0000895CF93DF9393
:103C300090E0FC01E35DFD4F2491FC01EF5BFD4F43
:103C40008491882361F190E0880F991FFC01E75966
:103C5000FD4FC591D491FC01E15AFD4FA591B4915E
:103C6000611109C09FB7F8948881209582238883C9
:103C7000EC912E230BC0623061F49FB7F8948881D9
:103C8000322F309583238883EC912E2B2C939FBF6A
:103C900006C08FB7F894E8812E2B28838FBFDF9161
:103CA000CF9108951F93CF93DF93282F30E0F90130
:103CB000E75EFD4F8491F901E35DFD4FD491F90179
:103CC000EF5BFD4FC491CC23C1F0162F81110E94F0
:103CD000ED1DEC2FF0E0EE0FFF1FE15AFD4FA59117
:103CE000B4919FB7F894111104C08C91D095D8234A
:103CF00002C0EC91DE2BDC939FBFDF91CF911F912F
:103D00000895CF93DF93282F30E0F901E75EFD4F50
:103D10008491F901E35DFD4FD491F901EF5BFD4F13
:103D2000C491CC2391F081110E94ED1DEC2FF0E0A5
:103D3000EE0FFF1FEB5AFD4FA591B491EC91ED23CF
:103D400081E090E021F480E002C080E090E0DF912B
:103D5000CF91089508955058BB27AA270E94C31EEB
:103D60000C9436200E94282038F00E942F2020F04A
:103D700039F49F3F19F426F40C9425200EF4E095B5
:103D8000E7FB0C941F20E92F0E94472058F3BA1735
:103D9000620773078407950720F079F4A6F50C9461
:103DA00069200EF4E0950B2EBA2FA02D0B01B9015E
:103DB00090010C01CA01A0011124FF27591B99F0A1
:103DC000593F50F4503E68F11A16F040A22F232FAD
:103DD000342F4427585FF3CF469537952795A795FD
:103DE000F0405395C9F77EF41F16BA0B620B730BA4
:103DF000840BBAF09150A1F0FF0FBB1F661F771F15
:103E0000881FC2F70EC0BA0F621F731F841F48F4C9
:103E1000879577956795B795F7959E3F08F0B0CF52
:103E20009395880F08F09927EE0F97958795089539
:103E30000E94FB1F08F481E008950E94311F0C943A
:103E400036200E942F2058F00E94282040F029F4AC
:103E50005F3F29F00C941F2051110C946A200C94A0
:103E600025200E94472068F39923B1F3552391F34D
:103E7000951B550BBB27AA2762177307840738F0D9
:103E80009F5F5F4F220F331F441FAA1FA9F335D036
:103E90000E2E3AF0E0E832D091505040E695001CEA
:103EA000CAF72BD0FE2F29D0660F771F881FBB1FA4
:103EB000261737074807AB07B0E809F0BB0B802D82
:103EC000BF01FF2793585F4F3AF09E3F510578F0AE
:103ED0000C941F200C946A205F3FE4F3983ED4F3C7
:103EE000869577956795B795F7959F5FC9F7880F82
:103EF000911D9695879597F90895E1E0660F771FD4
:103F0000881FBB1F621773078407BA0720F0621B64
:103F1000730B840BBA0BEE1F88F7E09508950E948F
:103F20004F2088F09F5798F0B92F9927B751B0F0DC
:103F3000E1F0660F771F881F991F1AF0BA95C9F72D
:103F400014C0B13091F00E946920B1E008950C9442
:103F50006920672F782F8827B85F39F0B93FCCF3F5
:103F6000869577956795B395D9F73EF490958095AA
:103F7000709561957F4F8F4F9F4F0895E89409C0CA
:103F800097FB3EF490958095709561957F4F8F4F8C
:103F90009F4F9923A9F0F92F96E9BB279395F695A2
:103FA000879577956795B795F111F8CFFAF4BB0F20
:103FB00011F460FF1BC06F5F7F4F8F4F9F4F16C084
:103FC000882311F096E911C0772321F09EE8872F0E
:103FD000762F05C0662371F096E8862F70E060E0CA
:103FE0002AF09A95660F771F881FDAF7880F969543
:103FF000879597F90895990F0008550FAA0BE0E8E7
:10400000FEEF16161706E807F907C0F0121613069A
:10401000E407F50798F0621B730B840B950B39F4DA
:104020000A2661F0232B242B252B21F408950A2640
:1040300009F4A140A6958FEF811D811D089597F980
:104040009F6780E870E060E008959FEF80EC08953E
:1040500000240A9416161706180609060895002467
:104060000A9412161306140605060895092E0394E1
:10407000000C11F4882352F0BB0F40F4BF2B11F455
:1040800060FF04C06F5F7F4F8F4F9F4F089557FDB4
:104090009058440F551F59F05F3F71F04795880FB6
:1040A00097FB991F61F09F3F79F08795089512164D
:1040B00013061406551FF2CF4695F1DF08C01616F9
:1040C00017061806991FF1CF8695710561050894AA
:1040D0000895E894BB2766277727CB0197F90895C1
:1040E0000E94FB1F08F48FEF08950E9488200C9413
:1040F00036200E94282038F00E942F2020F095239F
:1041000011F00C941F200C94252011240C946A208B
:104110000E94472070F3959FC1F3950F50E0551F03
:10412000629FF001729FBB27F00DB11D639FAA270C
:10413000F00DB11DAA1F649F6627B00DA11D661F5B
:10414000829F2227B00DA11D621F739FB00DA11D7C
:10415000621F839FA00D611D221F749F3327A00D36
:10416000611D231F849F600D211D822F762F6A2FD2
:1041700011249F5750409AF0F1F088234AF0EE0F37
:10418000FF1FBB1F661F771F881F91505040A9F764
:104190009E3F510580F00C941F200C946A205F3FD5
:1041A000E4F3983ED4F3869577956795B795F795A0
:1041B000E7959F5FC1F7FE2B880F911D9695879518
:1041C00097F908950E94FB1F880B990B0895A1E2AF
:1041D0001A2EAA1BBB1BFD010DC0AA1FBB1FEE1F81
:1041E000FF1FA217B307E407F50720F0A21BB30BCC
:1041F000E40BF50B661F771F881F991F1A9469F748
:1042000060957095809590959B01AC01BD01CF01A3
:104210000895052E97FB1EF400940E94202157FD5F
:1042200007D00E94E72007FC03D04EF40C94202115
:1042300050954095309521953F4F4F4F5F4F0895D2
:1042400090958095709561957F4F8F4F9F4F089502
:10425000EE0FFF1F0590F491E02D0994EF920F935C
:104260001F93CF93DF93E80147FD02C034E001C004
:1042700034E1042E000C550B57FF03C051954195B6
:104280005109E32E022F242FAE010E946723CE0195
:10429000DF91CF911F910F91EF900895DC0101C044
:1042A0006D9341505040E0F70895FB01DC0141500F
:1042B000504048F001900D920020C9F701C01D92B6
:1042C00041505040E0F70895AEE0B0E0EAE6F1E298
:1042D0000C9491260D891E8986E08C831A830983AC
:1042E0008FEF9FE79E838D83AE01475E5F4F6F899F
:1042F000788DCE0101960E948621EF81F885E00F2E
:10430000F11F10822E96E4E00C94AD26ABE0B0E0F5
:10431000ECE8F1E20C9483266C017B018A01FC013C
:1043200017821682838181FFCCC1CE0101963C01A8
:10433000F6019381F70193FD859193FF81917F01B0
:10434000882309F4BAC1853239F493FD859193FF2E
:1043500081917F01853229F4B60190E00E94AF255A
:10436000E7CF912C212C312CFFE1F315D8F08B32C3
:1043700079F038F4803279F08332A1F4232D206172
:104380001DC08D3261F0803369F4232D216016C089
:10439000832D8260382EE32DE4603E2E2AC0F32D5B
:1043A000F8601DC037FC2DC020ED280F2A3040F0EA
:1043B0008E32B9F436FC81C1232D2064322E19C00F
:1043C00036FE06C08AE0989E200D1124922E11C060
:1043D000EAE02E9E200D1124222EF32DF0623F2EB6
:1043E00008C08C3621F4832D8068382E02C08836B0
:1043F00041F4F70193FD859193FF81917F01811134
:10440000B3CF982F9F7D9554933028F40C5F1F4FA6
:104410009FE399830DC0833631F0833771F0833584
:1044200009F059C021C0F801808189830E5F1F4FB8
:1044300088248394912C530113C02801F2E04F0E7D
:10444000511CF801A080B18036FE03C0692D70E0D8
:1044500002C06FEF7FEFC5010E94A4254C018201CD
:10446000F32DFF773F2E16C0280122E0420E511C8B
:10447000F801A080B18036FE03C0692D70E002C053
:104480006FEF7FEFC5010E9499254C01F32DF06875
:104490003F2E820133FC1BC0822D90E088169906C6
:1044A000B0F4B60180E290E00E94AF252A94F4CFE8
:1044B000F50137FC859137FE81915F01B60190E0EF
:1044C0000E94AF2521102A9421E0821A91088114BC
:1044D000910471F7E8C0843611F0893641F5F8018E
:1044E00037FE07C060817181828193810C5F1F4F0D
:1044F00008C060817181072E000C880B990B0E5F3C
:104500001F4FF32DFF763F2E97FF09C090958095A2
:10451000709561957F4F8F4F9F4FF0683F2E2AE037
:1045200030E0A3010E94EB25882E861845C0853710
:1045300031F4232D2F7EB22E2AE030E025C0932DBA
:10454000997FB92E8F36C1F018F4883579F0B5C04F
:10455000803719F0883721F0B0C0E92FE061BE2E16
:10456000B4FE0DC0FB2DF460BF2E09C034FE0AC09E
:10457000292F2660B22E06C028E030E005C020E1D9
:1045800030E002C020E132E0F801B7FE07C06081F0
:104590007181828193810C5F1F4F06C060817181A0
:1045A00080E090E00E5F1F4FA3010E94EB25882E54
:1045B0008618FB2DFF773F2E36FE0DC0232D2E7F54
:1045C000A22E891458F434FE0BC032FC09C0832D8E
:1045D0008E7EA82E05C0B82CA32C03C0B82C01C019
:1045E000B92CA4FE0FC0FE01E80DF11D80818033BF
:1045F00021F49A2D997EA92E09C0A2FE06C0B3947B
:10460000B39404C08A2D867809F0B394A3FC11C03A
:10461000A0FE06C0B21488F4280C922C9B180EC081
:10462000B21460F4B60180E290E00E94AF25B3942A
:10463000F7CFB21418F42B1802C0982C212CA4FE2A
:1046400010C0B60180E390E00E94AF25A2FE17C023
:10465000A1FC03C088E790E002C088E590E0B601C5
:104660000CC08A2D867859F0A1FE02C08BE201C0F1
:1046700080E2A7FC8DE2B60190E00E94AF2589148C
:1046800038F4B60180E390E00E94AF259A94F7CF0A
:104690008A94F301E80DF11D8081B60190E00E943B
:1046A000AF258110F5CF222009F442CEB60180E279
:1046B00090E00E94AF252A94F6CFF601868197817B
:1046C00002C08FEF9FEF2B96E2E10C949F26A9E0AA
:1046D000B0E0EDE6F3E20C9489266A01122FB02EC9
:1046E0002BE3201720F0FF24F394F00E02C02CE3FC
:1046F000F22E0F2D27E0AE014F5F5F4F0E94C124C5
:10470000BC014981842F8970813031F0E1FC06C001
:10471000E0FE06C090E205C09DE203C09BE201C03E
:1047200090E05E2D507143FF3CC0911102C083E0C8
:1047300001C084E0811718F4212F281B01C020E05C
:1047400051110BC0F601822F30E2882319F031930A
:104750008150FBCFC20ED11C20E0992329F0D60155
:104760009C93F60131966F01C6010396E2FE0AC0E2
:104770003EE4D6013C9341E411964C931197129676
:104780003C9306C03EE6F601308341E64183328326
:10479000FC01322F40E2332309F442C041933150EF
:1047A000FACF42FF44C0911102C083E001C084E00F
:1047B000811718F4212F281B01C020E051110BC0D4
:1047C000F601822F30E2882319F031938150FBCF1C
:1047D000C20ED11C20E0992329F0D6019C93F6014A
:1047E00031966F01C6010396E2FE0BC039E4D60193
:1047F0003C933EE411963C93119736E412963C9319
:1048000007C039E6F60130833EE6318336E632836F
:10481000FC01322F40E2332319F041933150FBCF9A
:10482000FC01E20FF11D10828EEF9FEFA6C021E088
:1048300030E0911102C020E030E0161617061CF49B
:10484000FB01319602C0E1E0F0E02E0F3F1FBB20DC
:1048500021F0EB2DF0E0319602C0E0E0F0E02E0F09
:104860003F1FE12FF0E02E173F071CF4121B212FF2
:1048700001C020E08E2D887159F4F601822F30E2BC
:10488000882319F031938150FBCFC20ED11C20E058
:10489000992329F0D6019C93F60131966F015111AD
:1048A0000BC0F601822F90E3882319F09193815079
:1048B000FBCFC20ED11C20E00F2D060F9A81342FA2
:1048C000307144FF03C0913309F40150101624F4F1
:1048D000093018F008E001C001E0AB0177FF02C029
:1048E00040E050E0FB01E41BF50BA1E0B0E0AC0FB1
:1048F000BD1FEA0FFB1F8EE2A82E4B01801A910804
:104900000B2D10E01195019511094F3FBFEF5B078B
:1049100021F4D601AC9211966D01641775072CF045
:104920008416950614F4818101C080E34150510939
:104930003196D60111967D014017510724F0D6011A
:104940008C936701E2CF6417750739F4963320F42E
:10495000953319F4311101C081E3F6018083F70129
:10496000822F90E2882319F091938150FBCFF701B9
:10497000E20FF11D108280E090E02996ECE00C94AB
:10498000A526283008F027E03327DA01990F311DDA
:1049900087FD916000966105710539F432602E5FE4
:1049A0003D9330E32A95E1F708959F3F30F080383A
:1049B0007105610509F03C5F3C5F3D93913008F063
:1049C0008068911DDF93CF931F930F93FF92EF9217
:1049D000192F987F9695E92F96959695E90FFF27C1
:1049E000EE53FF4F99273327EE24FF24A701E70159
:1049F00005900894079428F4360FE71EF81E491F07
:104A0000511D660F771F881F991F0694A1F7059007
:104A1000079428F4E70EF81E491F561FC11D770F93
:104A2000881F991F661F0694A1F70590079428F424
:104A3000F80E491F561FC71FD11D880F991F661FEB
:104A4000771F0694A1F70590079420F4490F561F8D
:104A5000C71FD81F990F661F771F881F0694A9F7D5
:104A600084911095177041F0D695C7955795479545
:104A7000F794E7941A95C1F7E8E6F0E0689415908A
:104A8000159135916591959105907FE27395E118A7
:104A9000F10A430B560BC90BD009C0F7E10CF11E0C
:104AA000431F561FC91FD01D7EF4703311F48A9521
:104AB000E6CFE894015030F0080F0AF400270217FF
:104AC00008F4202F2395022F7A3328F079E37D9381
:104AD0002A95E9F710C07D932A9589F60694979553
:104AE0006795379517951794E118F10A430B560B04
:104AF000C90BD00998F023957E9173957A3308F00D
:104B000070E37C932013B8F77E9170617D9330F051
:104B1000839571E37D9370E32A95E1F71124EF907B
:104B2000FF900F911F91CF91DF91992787FD90956D
:104B30000895FC010590615070400110D8F78095F0
:104B400090958E0F9F1F0895FC0161507040019059
:104B50000110D8F7809590958E0F9F1F08950F93A1
:104B60001F93CF93DF93FB01238121FD03C08FEFC0
:104B70009FEF2CC022FF16C04681578124813581CA
:104B80004217530744F4A081B1819D012F5F3F4F2D
:104B9000318320838C93268137812F5F3F4F37836A
:104BA000268314C08B01EC01FB010084F185E02D0C
:104BB0000995892BE1F6D80116968D919C9117974E
:104BC000019617969C938E931697CE01DF91CF9105
:104BD0001F910F910895FA01AA27283051F1203131
:104BE00081F1E8946F936E7F6E5F7F4F8F4F9F4F81
:104BF000AF4FB1E03ED0B4E03CD0670F781F891FC3
:104C00009A1FA11D680F791F8A1F911DA11D6A0F90
:104C1000711D811D911DA11D20D009F468943F9143
:104C20002AE0269F11243019305D3193DEF6CF0142
:104C30000895462F4770405D4193B3E00FD0C9F708
:104C4000F6CF462F4F70405D4A3318F0495D31FD75
:104C50004052419302D0A9F7EACFB4E0A6959795C8
:104C6000879577956795BA95C9F70097610571059E
:104C700008959B01AC010A2E0694579547953795E8
:104C80002795BA95C9F7620F731F841F951FA01D42
:104C90000895DC01CB01FC01F999FECF06C0F2BDFD
:104CA000E1BDF89A319600B40D9241505040B8F7EA
:104CB0000895F999FECF92BD81BDF89A992780B5E4
:104CC0000895DC01A40FB51F4150504048F0CB01BE
:104CD000840F951F2E910E94722641505040D0F7AC
:104CE0000895262FF999FECF92BD81BDF89A0197BC
:104CF00000B4021639F01FBA20BD0FB6F894FA9A24
:104D0000F99A0FBE08952F923F924F925F926F9241
:104D10007F928F929F92AF92BF92CF92DF92EF924B
:104D2000FF920F931F93CF93DF93CDB7DEB7CA1BCC
:104D3000DB0B0FB6F894DEBF0FBECDBF09942A88F7
:104D4000398848885F846E847D848C849B84AA849F
:104D5000B984C884DF80EE80FD800C811B81AA812C
:104D6000B981CE0FD11D0FB6F894DEBF0FBECDBFF7
:084D7000ED010895F894FFCF56
:104D78002A043104711C711C4661696C65642072D7
:104D8800656164696E672074656D706572617475BC
:104D980072652066726F6D2044485400543A2000B2
:104DA8004661696C65642072656164696E67206834
:104DB800756D69646974792066726F6D2044485412
:104DC80000483A20005570646174696E672E2E2E73
:104DD80000557064617465206661696C6564005390
:104DE800657269616C20696E697420646F6E650014
:104DF80053504920466C61736820496E6974204F8E
:104E08004B210053504920466C61736820496E69F4
:104E180074204641494C2100312E34004448543214
:104E2800322D4C6967687400000000006E0DAE08F2
:104E38006B08BD0D390E310ABC0C30084B0AD00A7C
:104E4800C8091F0E42085808464C583F4E4F4B3A67
:104E58004E4F464C41534800464C583F4F4B004636
:104E68004C583F454F4600464C583F00464C583A30
:104E780025753A00464C58494D473A00464C583A31
:104E880025753A4F4B00464C583F4E4F4B3A4845D4
:104E9800583E33316B0054696D656F75742F4572D8
:104EA800726F722C2065726173696E672077726900
:104EB8007474656E2064617461202E2E2E20005259
:104EC800656164696E67204E4F444520436F6E6686
:104ED800696700437573746F6D204E4F44452043D6
:104EE8006F6E6669670073616D706C65456E63729D
:104EF8007970744B657900536176696E67204E4FFF
:104F0800444520436F6E666967002A206275747491
:104F18006F6E202A003100300053656E64696E6739
:104F2800206E6574776F726B2064617461004578D8
:104F3800697420696E636C75646500536176696E87
:104F48006720726164696F20636F6E6669670047E6
:104F58004F543A20550000000000BE18211A7F184F
:104F68000B1951186B185D180D0A006E616E0069F7
:084F78006E66006F7666000012
:00000001FF
