:100000000C94BF000C94F7170C941E180C94E70086
:100010000C94E7000C94E7000C94E7000C94E700C4
:100020000C94E7000C94E7000C94E7000C94E700B4
:100030000C94E7000C94E7000C94E7000C94E700A4
:100040000C94F7180C94E7000C944B160C947D1646
:100050000C94E7000C94E7000C94E7000C94E70084
:100060000C94E7000C94E7002E005245424F4F5489
:10007000494E4700464C583F4F4B00494D47203EA4
:100080002033316B2C20746F6F2062696700464CFF
:10009000583F4F4B20726573656E64005D203E20B3
:1000A00000726164696F205B00554E536869667425
:1000B000696E67206368616E6E656C20746F2000E6
:1000C0005368696674696E67206368616E6E656CFB
:1000D00020746F2000464C583F4F4B202841434B23
:1000E0002073656E7429004641494C3A4E4F2046B4
:1000F0004C415348204D454D00444F4E4500464C21
:1001000041534820494D47205452414E534D495385
:1001100053494F4E2053554343455353210A000042
:1001200000000800020100000304070000000000B6
:1001300000000001020408102040800102040810A1
:10014000200102040810200404040404040404022E
:100150000202020202030303030303000000002360
:10016000002600290000000000250028002B0000C8
:10017000000000240027002A0000C302AD1611244D
:100180001FBECFEFD8E0DEBFCDBF12E0A0E0B1E0F0
:10019000E8EBF3E402C005900D92AA39B107D9F754
:1001A00026E0AAE9B2E001C01D92A93EB207E1F73C
:1001B00010E0CFEBD0E004C02197FE010E94651C47
:1001C000CD3BD107C9F70E94E8180C94DA210C94B2
:1001D00000006091190380910801861741F0609337
:1001E00008018AE193E00E94421181E0089580E0D5
:1001F000089580E10E947D1A892B21F480910701E6
:1002000081110BC081E10E947D1A892B49F48091F4
:100210000701813029F081E00CC0109207011FC056
:1002200080911903811108C0809107018430A9F0E1
:1002300084E08093070113C0813031F4809107017D
:10024000853059F085E0F5CF843039F486E080932D
:10025000070181E08093180302C080E00895609157
:1002600007018AE193E00E94421181E008956091C4
:1002700018038AE193E00E94391181E008956091AA
:1002800006018AE193E00E94391181E0089561E05E
:1002900086E00E944E1A61E087E00E944E1A6CE2EE
:1002A00071E080E090E00E94721960E086E00E94B8
:1002B0004E1A60E087E00C944E1A26E040E052ECC3
:1002C00061E070E08FE396E00E94E61584EA95E035
:1002D0000E946D04882319F061E171E002C064E2BC
:1002E00071E08FE396E00E94551721E041E061E064
:1002F0008AE193E00E94841049E351E06DE371E0EC
:100300008AE193E00E94BF1348E250E061E08AE195
:1003100093E00E94E11321E040E060E089E093E097
:100320000E94010F21E040E060E08AEF92E00E942D
:10033000010F21E040E060E08BEE92E00E94010FAF
:1003400021E040E060E08CED92E00E94010F61E06E
:1003500086E00E94121A61E087E00E94121A62E0B1
:1003600080E10E94121A62E081E10E94121A69E49F
:1003700071E08FE396E00C945517CF93DF93EC0177
:100380006BE371E00E94C8188823A9F080910701EF
:10039000982F9B7F81F4843041F40E9447016CE2E6
:1003A00071E080E090E00E9472190E94470181E0B4
:1003B000809319030DC063E571E0CE010E94C81857
:1003C000882331F080910701982F9B7F913049F06D
:1003D00021E040E060E089E093E0DF91CF910C9470
:1003E000010F853041F40E9447016CE271E080E02A
:1003F00090E00E9472190E94470110921903E8CF01
:10040000CF93DF9300D000D000D0CDB7DEB780917E
:100410009C02813039F585E090E00E94820F809146
:100420009E02823071F461EA72E0CE0101960E9470
:10043000B318CE0101960E94BD01CE0101960E9423
:10044000451880919E028F3069F49091060181E0F9
:1004500089278093060121E040E060E08CED92E086
:100460000E94010F26960FB6F894DEBF0FBECDBFD7
:10047000DF91CF910895CF92EF920F931F93CF9377
:10048000DF93CDB7DEB72B970FB6F894DEBF0FBE64
:10049000CDBF89E995E00E941105882309F450C079
:1004A00089E591E09A83898380919B058B83809174
:1004B0009C058C8380919D058D8380919E058E8304
:1004C00080919F058F838091A00588878091A105E9
:1004D00089878091A2058A878091A3058B8789E00F
:1004E000C82EEE24E3940091A4051091A505209157
:1004F000A6053091A7054091A8055091A9056091E6
:10050000AA05CE0101960E943F0E6AE972E08AE1D7
:1005100093E00E945B118C018091B505882339F02E
:1005200040E06CE872E089E995E00E94630A0130DE
:10053000110531F48AE090E00E94820F0E940002CF
:1005400080911803882371F080910601882351F06F
:1005500021E040E060E08BEE92E00E94010F81110B
:10056000109218038AE193E00E94F00F2B960FB6C9
:10057000F894DEBF0FBECDBFDF91CF911F910F91D9
:10058000EF90CF900895EF92FF920F931F9340E367
:100590005FEE68E084EA95E00E941A03E9E9F5E07D
:1005A00089E591E0918380838AE0828382E083837E
:1005B000148281E08093BA0516828FE187831086CA
:1005C00020E04EE0BF018AE193E00E94990FE12C08
:1005D000F12C870129EE30E042E050E061E089E053
:1005E00093E00E94CB0E29EF30E044E250E061E05E
:1005F0008AEF92E00E94CB0E27E331E040E150E029
:1006000061E08BEE92E00E94CB0E2FE331E04FE0F1
:1006100050E061E08CED92E00E94CB0E1F910F91B3
:10062000FF90EF9008958EBD00000DB407FEFDCF42
:100630008EB50895FC0180E5858316826083528320
:1006400041830895FC018CB583838DB584834581F6
:1006500036818091AD05882399F02FB7F894809169
:10066000AD05813059F48DB38093AB059DB3809176
:10067000AC05809589238DBB2FBF02C02093AB05AD
:100680004CBD3DBD60E080810C944E1ACF93DF934A
:10069000EC0161E088810E944E1A8091AD058823AB
:1006A00061F09FB7F8942091AD058091AB052130A2
:1006B00019F48DBB9FBF01C08FBF8B818CBD8C8116
:1006C0008DBDDF91CF9108950F931F93CF93DF934B
:1006D0008C010E9422038FE90E94130380E00E9494
:1006E0001303C82FD0E0DC2FCC2780E00E94130337
:1006F000C82BC8010E944603CE01DF91CF911F9104
:100700000F9108951F93CF93DF93EC010E94220372
:1007100085E00E94130380E00E941303182FCE018E
:100720000E944603812FDF91CF911F9108950E946F
:100730008203817008951F93CF93DF93EC01162FEE
:10074000442339F040E066E00E949B03CE010E9402
:1007500046031B3A49F4CE010E942203812FDF9108
:10076000CF911F910C941303CE010E949703811126
:10077000FBCFF1CFEF92FF920F931F93CF93DF93B5
:10078000EC01042FF52EE62E122F41E062E00E94CC
:100790009B038E2D0E9413038F2D0E941303802F25
:1007A0000E941303812F0E941303CE01DF91CF918A
:1007B0001F910F91FF90EF900C9446032F923F9260
:1007C0004F925F926F927F928F929F92AF92BF9261
:1007D000CF92DF92EF92FF920F931F93CF93DF930D
:1007E0006C012A013B0119019A01332780E091E055
:1007F000821B930B812C912C0115110581F1E801CD
:100800008017910708F4EC0141E062E0C6010E9404
:100810009B03862D0E941303852D0E941303842DB4
:100820000E9413035101A80CB91C7501F7018191B5
:100830007F010E941303C7018A199B098C179D072A
:10084000A8F3C6010E9446034C0E5D1E611C711C7C
:100850008C0E9D1E0C1B1D0B80E091E0CDCFDF9117
:10086000CF911F910F91FF90EF90DF90CF90BF90AD
:10087000AF909F908F907F906F905F904F903F9040
:100880002F900895FF920F931F93CF93DF93EC0166
:10089000142F052FF62E41E062E50E949B038F2D59
:1008A0000E941303802F0E941303812F0E941303C1
:1008B000CE01DF91CF911F910F91FF900C944603D1
:1008C000CF93DF93EC010E9422038BEA0E94130373
:1008D000CE01DF91CF910C944603CF93DF93EC01CF
:1008E0008CB58B838DB58C8361E088810E94121A50
:1008F0000E94A00480E58D831E82CE010E944603E3
:10090000CE010E94600489819A81892B51F0CE0129
:100910000E94640329813A818217930711F080E0D5
:100920000CC041E061E0CE010E949B0380E00E9488
:100930001303CE010E94460381E0DF91CF91089519
:10094000CF93CFB7F8948091AE05811127C0E1E530
:10095000F1E08491EDE3F1E09491E82FF0E0EE0F07
:10096000FF1FE159FE4FA591B491EC91E92321F4C9
:1009700061E08AE00E944E1A61E08AE00E94121A49
:100980008CB580618CBD8CB580648CBD61E08DE0E0
:100990000E94121A61E08BE00E94121A8091AE054B
:1009A0008F5F8093AE05CFBFCF910895089581E00A
:1009B0008093B1058091AF059091B005DC01ED9178
:1009C000FC910484F585E02D09951092B1050895F8
:1009D000FC01F8948CB581878DB582878CB5837FB7
:1009E0008CBD8CB58F7D8CBD8CB58C7F8CBD8DB551
:1009F0008E7F8DBD60E082810C944E1ACF93DF9381
:100A0000EC0161E08A810E944E1A89858CBD8A853D
:100A10008DBD8091B105811101C07894DF91CF9196
:100A20000895F8942091BA05233021F42091B60559
:100A300021110FC02091BA05233011F4789407C01A
:100A4000DC01ED91FC910288F389E02D099580E0AD
:100A50000895DC01ED91FC910488F589E02D61E0B9
:100A6000099581E00895DC01ED91FC910488F589F8
:100A7000E02D60E00994CF93C62FDC01ED91FC914D
:100A80000480F581E02D0995882361F08091B805F7
:100A9000C81711F0CF3F29F49091B40581E091116E
:100AA00001C080E0CF9108953F924F925F926F9284
:100AB0007F928F929F92AF92BF92CF92DF92EF92EE
:100AC000FF920F931F93CF93DF93EC01162F5A01E0
:100AD000822E902E312CCE2CD12CE12CF12CE881C1
:100AE000F9810190F081E02D01E0282DA501612F11
:100AF000CE0109950E9441192B013C010E94411928
:100B0000DC01CB0184199509A609B7098C159D054F
:100B1000AE05BF0538F4612FCE010E943B05882346
:100B200069F304C033949314D0F680E0DF91CF9141
:100B30001F910F91FF90EF90DF90CF90BF90AF90FB
:100B40009F908F907F906F905F904F903F9008950F
:100B50001F93CF93DF93EC01162FE881F981008C6E
:100B6000F18DE02D0995812F8F770E94130380E08E
:100B70000E941303182FE881F981028CF38DE02D78
:100B8000CE010995812FDF91CF911F9108950F9389
:100B90001F93CF93DF938C0167E00E94A805C82FB5
:100BA00068E0C8010E94A805D82F69E0C8010E942A
:100BB000A8054C2F50E060E070E0BA0155274427AB
:100BC000480F511D611D711D8D2F90E0982F8827B2
:100BD0008A019B01080F191F211D311DC901B80190
:100BE0000E94481B20E034E244E752E40E94D61BF6
:100BF0000E94191BDF91CF911F910F9108950F93C0
:100C00001F93CF93DF93EC01062F142FE881F98116
:100C1000008CF18DE02D0995802F80680E941303D0
:100C2000812F0E941303E881F981028CF38DE02D5E
:100C3000CE01DF91CF911F910F910994CF92DF9256
:100C4000EF92FF921F93CF93DF93EC016A017B0138
:100C50001091BA05143039F4E881F9810488F589D6
:100C6000E02D63E00995C701B6010E94481B20E012
:100C700034E244E752E40E94A71A0E94191B6B0158
:100C80007C01A7016627772767E0CE010E94FF0558
:100C900077276F2D5E2D4D2D68E0CE010E94FF0558
:100CA0004C2D69E0CE010E94FF05133041F4E8812C
:100CB000F9810488F589E02D62E0CE010995E8818B
:100CC000F9810488F589E02D612FCE01DF91CF9164
:100CD0001F91FF90EF90DF90CF9009941F93CF93D7
:100CE000DF932091BA05261709F45DC0162FEC0199
:100CF0006230E9F168F4662309F440C0613009F01C
:100D000052C061E00E94A805837E482F44603BC02A
:100D10006330B9F0643009F046C061E00E94A80574
:100D2000837E482F4C6061E0CE010E94FF058885DC
:100D3000882369F1E881F9810688F789E02D61E06F
:100D400013C061E00E94A805837E482F406161E0E6
:100D5000CE010E94FF0588858823C9F0E881F981CA
:100D60000688F789E02D60E0CE01099510C061E0AA
:100D70000E94A805837E482F486005C061E00E945C
:100D8000A805482F437E61E0CE010E94FF058091B7
:100D9000BA05811106C067E2CE010E94A80587FF4F
:100DA000F6CF1093BA05DF91CF911F910895CF939D
:100DB000DF93EC01603208F06FE16F838885882350
:100DC00011F066956F8361E1CE010E94A805807ED7
:100DD0009F81482F492B61E1CE01DF91CF910C9487
:100DE000FF05CF92DF92EF92FF920F931F93CF9365
:100DF000DF93EC01F62ED42EC52E122FE881F98157
:100E00000488F589E02D61E0099567E2CE010E9432
:100E1000A80587FFFACF40E065E2CE010E94FF05FA
:100E20001E3308F01DE3E11004C0002321F000E4AC
:100E300003C000E801C000E0E881F981008CF18D79
:100E4000E02DCE01099580E80E94130383E0810F15
:100E50000E9413038F2D0E9413038D810E941303A0
:100E6000802F0E9413030D2DED2CFC2C8E2D801B4A
:100E7000811730F4F70181917F010E941303F6CFAF
:100E8000E881F981028CF38DE02DCE010995E8818E
:100E9000F9810488F589E02D64E0CE0109950E946E
:100EA00041196B017C018B810E947D1A892B81F095
:100EB000E881F9810488F589E02D61E0CE01DF91B8
:100EC000CF911F910F91FF90EF90DF90CF900994F9
:100ED0000E944119DC01CB018C199D09AE09BF09A3
:100EE000883E9340A105B105F0F2E2CFCF93DF93A6
:100EF000EC011092B9051092B8051092B705109246
:100F0000B6051092B5051092B4051092B305109273
:100F1000B20568E20E94A80582FF0AC06DE3CE0117
:100F20000E94A805482F44606DE3CE010E94FF0592
:100F300040E465E2CE010E94FF05E881F981048862
:100F4000F589E02D63E0CE01DF91CF910994CF9236
:100F5000DF92EF92FF920F931F93CF93DF93EC01F9
:100F60008B01E881F9810488F589E02D61E009951C
:100F700001151105F1F0E881F981008CF18DE02D6A
:100F8000CE0109958EEB0E9413037801680180E180
:100F9000C80ED11CF70181917F010E941303EC144C
:100FA000FD04C1F7E881F981028CF38DE02DCE01BB
:100FB00009956DE3CE010E94A8058E7F41E0012BCB
:100FC00009F440E0482B6DE3CE01DF91CF911F91F2
:100FD0000F91FF90EF90DF90CF900C94FF058F92D0
:100FE0009F92AF92BF92CF92DF92EF92FF920F93B8
:100FF0001F93CF93DF93CDB7DEB7AE970FB6F894BC
:10100000DEBF0FBECDBF8C01E42E8EE2AE014F5F7E
:101010005F4F6A01DA01E82F1D92EA95E9F791E046
:10102000998334E03A8342E04B8393E09D834E837F
:101030003F8340E4488735E039879A8796E09B876D
:1010400093E39C8737E03D8798E09F8799E0998BF1
:1010500099E19B8B92E49C8B55E25D8B4E8B46E233
:101060004F8B388F38E2398F30E13A8F39E23B8F3E
:101070003CED3C8F8D8F88E88E8F8FE28F8F8DE2D5
:1010800088A380E389A337E33BA330E93CA338E39B
:101090003DA39EA39CE39FA39FE898A79DE399A7E8
:1010A00092E19AA79FE69BA78CA78FEF8DA76F3140
:1010B00031F06B3231F0663531F084EE05C08EE4EC
:1010C00003C08CE601C089ED8E876F3141F06B3231
:1010D00021F0663521F480E003C080E401C080EC9B
:1010E000888B2AA361E0D80112968C910E944E1A37
:1010F00061E0F80182810E94121A0E94A0040E94FD
:1011000041194B015C014AEA6FE2C8010E94FF05E8
:101110006FE2C8010E94A8058A3A61F00E94411955
:10112000DC01CB0188199909AA09BB09C297A1055D
:10113000B10548F30E9441194B015C0145E56FE29E
:10114000C8010E94FF056FE2C8010E94A80585350D
:1011500061F00E944119DC01CB0188199909AA09A3
:10116000BB09C297A105B10548F3F12CF601EF0DBB
:10117000F11DEF0DF11D60816F3F31F04181C8011C
:101180000E94FF05F394F2CF60E070E0C8010E9476
:10119000A707D801ED91FC9111970084F185E02D0E
:1011A00018966C91C8010995D801ED91FC910488BD
:1011B000F589E02D61E0C80109950E9441194B01B4
:1011C0005C0167E2C8010E94A80587FD0CC00E946F
:1011D0004119DC01CB0188199909AA09BB09C297F9
:1011E000A105B10570F30E944119DC01CB018819FA
:1011F0009909AA09BB09C297A105B10598F41092F3
:10120000B10543E050E067ED74E0F80184810E948D
:10121000D7171093B0050093AF05D8011596EC923F
:1012200081E001C080E0AE960FB6F894DEBF0FBE3D
:10123000CDBFDF91CF911F910F91FF90EF90DF9085
:10124000CF90BF90AF909F908F900895CF93DF93F2
:10125000EC0161110DC064E2CE010E94A80590E08E
:1012600091958195910995958795DF91CF910895F5
:1012700041E063E20E94FF0563E2CE010E94A805FF
:1012800081FFFACFE8CFCF93DF932091BA052330C7
:10129000A9F42091B605211111C0EC0160E00E9473
:1012A0002609863A9F4F54F4E881F9810488F5892C
:1012B000E02D61E0CE01099581E001C080E0DF9181
:1012C000CF910895EF92FF921F93CF93DF93EC019C
:1012D0008091BA05833001F568E2CE010E94A8052D
:1012E00082FD28C019C08091B9058D3330F4E0919A
:1012F000B905F0E0E554FA4F1082E881F981028CDB
:10130000F38DE02DCE010995E881F9810488F589F6
:10131000E02D63E0CE01099560E0CE010E94260930
:101320009093B3058093B205DF91CF911F91FF9009
:10133000EF900895E881F9810488F589E02D61E056
:10134000CE010995E881F981008CF18DE02DCE0167
:10135000099580E00E94130380E00E9413038093AC
:10136000B6058091B6058334D0F48091B60580939C
:10137000B60580E00E9413038093B7058E8181112A
:1013800009C08091B7059D81981721F08091B7051C
:101390008F3F39F48091B605833018F017C082E48E
:1013A000E6CF1092B605E881F981028CF38DE02D2D
:1013B000CE010995E881F9810288F389E02DCE01FB
:1013C000DF91CF911F91FF90EF9009948091B60526
:1013D00083508093B90580E00E9413038093B80581
:1013E00080E00E941303982F90789093B405982F73
:1013F00090749093B505E881F9810684F785E02D16
:10140000682FCE01099510E08091B905181708F0F2
:101410006ACFE12EF12C80E00E941303F701E5541E
:10142000FA4F80831F5FF0CF8F929F92AF92BF924F
:10143000CF92DF92EF92FF920F931F93CF93DF93A0
:10144000EC01162F6A01F22E6DE30E94A805482FC9
:1014500044606DE3CE010E94FF050E9441194B01DB
:101460005C01CE010E944309811115C00E944119FF
:10147000DC01CB0188199909AA09BB09883E934070
:10148000A105B10540F4E881F9810480F581E02DE2
:10149000CE010995E6CFE881F9810088F189E02D38
:1014A000E12C2F2DA601612FCE010995DF91CF915F
:1014B0001F910F91FF90EF90DF90CF90BF90AF9072
:1014C0009F908F9008954F925F926F927F92AF920C
:1014D000BF92CF92DF92EF92FF920F931F93CF9321
:1014E000DF93EC015B01F42E1092B5051091B80565
:1014F000C090B205D090B3056DE30E94A805482FB7
:1015000044606DE3CE010E94FF050E9441192B014A
:101510003C01CE010E944309811115C00E9441196E
:10152000DC01CB0184199509A609B709883E9340CF
:10153000A105B10540F4E881F9810480F581E02D31
:10154000CE010995E6CF1093B805E881F9810088AE
:10155000F189E02DEE24E39400E02F2DA501612F09
:10156000CE010995D092B305C092B205DF91CF911B
:101570001F910F91FF90EF90DF90CF90BF90AF90B1
:101580007F906F905F904F9008951F93CF93DF935C
:10159000EC01162F611102C045E501C04DE56AE579
:1015A000CE010E94FF05111102C040E701C04CE7C7
:1015B0006CE5CE01DF91CF911F910C94FF05CF9385
:1015C000DF93EC016887611102C04AE101C04FE07E
:1015D00063E1CE010E94FF058885882341F061E127
:1015E000CE010E94A8058F71482F406602C04F812E
:1015F000406861E1CE01DF91CF910C94FF05FC01C1
:10160000DB0189E591E09183808312968C9112979A
:10161000828313968C911397838314968C911497DD
:10162000848315968C911597858316968C911697C1
:10163000868317968C911797878318968C911897A5
:10164000808719968C91199781871A968C91828739
:101650000895CF92DF92EF920F931F93CF93DF9372
:10166000CDB7DEB727970FB6F894DEBF0FBECDBF5C
:101670006C0109831A832B833C834D835E836F83C4
:10168000EE2099F0CE0101960E946D0481110DC0EB
:101690004FE065E771E0C6010E94630A67EE70E003
:1016A0008FE396E00E94431706C046E065E871E0CC
:1016B000C6010E94630A27960FB6F894DEBF0FBEDC
:1016C000CDBFDF91CF911F910F91EF90DF90CF9021
:1016D00008950F931F93CF93DF93CDB7DEB70DB768
:1016E0001EB7262F30E0220F331FA9014F5F5F4F37
:1016F000EDB7FEB7E41BF50B0FB6F894FEBF0FBEB7
:10170000EDBF4DB75EB74F5F5F4FFA01782FDC0139
:101710008A2F871B861788F48D91982F92959F703A
:1017200090639A330CF0995D90838F7080638A3355
:101730000CF0895D81833296EBCFFA01E20FF31F43
:101740001082BA018FE396E00E9455170FB6F89405
:101750001EBF0FBE0DBFDF91CF911F910F91089556
:101760002F923F924F925F926F927F928F929F92B1
:10177000AF92BF92CF92DF92EF92FF920F931F939F
:10178000CF93DF93CDB7DEB7A5970FB6F894DEBF42
:101790000FBECDBF4C016DA3EC8EFD8E0E8F1F8F43
:1017A00028A339A34AA33C2CACA240E050E0BA01E4
:1017B000CE014C960E94420407E010E021EA31E09D
:1017C00040E050E0BA01CE014C960E94DE032AE3CD
:1017D00049E050E060E070E0CE014C960E94BA0310
:1017E0000E9441192B013C019AE0C92ED12CA12C59
:1017F000B12CC4010E941105882301F18091B80524
:101800002DA182131BC06091B9056BA3643020F039
:101810008091BB05863409F161E08CA10E94121A07
:1018200061E08CA10E944E1A61E070E080E090E0DF
:101830000E94721960E08CA10E944E1A0E94411908
:10184000DC01CB0184199509A609B709893B9B40A6
:10185000A105B10570F280E039C18091BC058C34DE
:10186000D9F68091BD058835B9F68091BE058A33D9
:1018700009F0A5C06BA1673008F4A1C084E090E036
:1018800000E010E0482FFF24FA94F80EFC01E55424
:10189000FA4F2081203308F411C120812A3308F047
:1018A0000DC150816AE0609F9001619F300D11244D
:1018B000890100531109050F111D0196883091050A
:1018C00009F7F42E3320C1F061EA70E08FE396E06F
:1018D0000E9419174AE050E06BA18FE396E00E9446
:1018E000BD176CE970E08FE396E00E9419176BA1B9
:1018F0008BEB95E00E94690BE1E0EF0DF0E0E55421
:10190000FA4F80818A3309F0A6CF0E9441192B013A
:101910003C01A016B10639F0C50101978017910767
:1019200009F04DC027C082E0282E2F0C8FEFA81A97
:10193000B80A9BA12916F0F4E22DF0E0E554FA4F25
:10194000208176016FEFE61AF60AA60160E070E0EA
:10195000CE014C960E94BA03C7019F77892B39F4B8
:10196000A70160E070E0CE014C960E9442042394EF
:101970006701DFCF1F930F9389EA91E09F938F93C5
:1019800081E090E08C0F9D1F9F938F930E94A61E75
:10199000182F0F900F900F900F900F900F903320F3
:1019A00039F0BE016F5F7F4F8FE396E00E945517BD
:1019B000412FBE016F5F7F4FC4010E94630A809177
:1019C000BE058F3309F028CF9BA19430E1F4B40118
:1019D000CE0141960E94FF0AEE24E3940C8D1D8DEA
:1019E0002E8D3F8D48A159A16AA1CE0141960E943A
:1019F000290B332009F410CF6EE870E08FE396E0F6
:101A00000E94431709CF2BA1273009F005CF809101
:101A1000BF05853409F000CF8091C0058F3409F0EF
:101A2000FBCE8091C105863409F0F6CE86010A50BE
:101A3000110901306CE7160778F0332031F06BE7BD
:101A400070E08FE396E00E9443174FE063EB71E094
:101A5000C4010E94630AFFCEB401CE0141960E94E8
:101A6000FF0A46E065E871E0CE0141960E94630AF4
:101A7000332031F064E770E08FE396E00E94431773
:101A8000212F47E050E060E070E0CE014C960E94CC
:101A9000BA0326EF2C0D48E050E060E070E0CE0184
:101AA0004C960E94BA032AE349E050E060E070E0FF
:101AB000CE014C960E94BA0381E008C020812A33EF
:101AC00009F0FBCE443009F0FDCEC5CEA5960FB689
:101AD000F894DEBF0FBECDBFDF91CF911F910F9164
:101AE000FF90EF90DF90CF90BF90AF909F908F903E
:101AF0007F906F905F904F903F902F9008958F92BE
:101B00009F92AF92BF92CF92DF92EF92FF920F938C
:101B10001F93CF93DF93CDB7DEB762970FB6F894DC
:101B2000DEBF0FBECDBF4C01B62EEC86FD860E8704
:101B30001F87288B398B4A8BDC2CBC01CE01019688
:101B40000E94FF0AEE24E3940C851D852E853F85B7
:101B5000488959896A89CE0101960E94290BCC20B7
:101B6000D9F065ED70E08FE396E00E94431760ECDA
:101B700070E08FE396E00E941917C4010E94C70528
:101B8000AB01BC01405C5D4B604F7F4F2AE030E011
:101B90008FE396E00E94C417C4010E94C705AB0101
:101BA000BC01405C5D4B604F7F4FC4010E941E062C
:101BB000B401CE0101960E94FF0ACD2CEC84FD8475
:101BC0000E851F85288939894A896B2DCE0101969A
:101BD0000E94B00B182FDD20A9F069EA70E08FE3B6
:101BE00096E00E941917C4010E94C705AB01BC0111
:101BF000405452446F4071092AE030E08FE396E090
:101C00000E94C417C4010E94C705AB01BC01405427
:101C100052446F407109C4010E941E06812F6296D2
:101C20000FB6F894DEBF0FBECDBFDF91CF911F91ED
:101C30000F91FF90EF90DF90CF90BF90AF909F906B
:101C40008F900895C82F882331F06AE670E08FE303
:101C500096E00E94191798E088E10FB6F894A895CD
:101C6000809360000FBE90936000C11101C0FFCF50
:101C700068E670E08FE396E00E941917F6CFAF9206
:101C8000BF92CF92DF92EF92FF920F931F93CF9369
:101C9000DF93CDB7DEB762970FB6F894DEBF0FBE05
:101CA000CDBF0C871D872E873F87488B598B6A8B4A
:101CB0002091B905243008F45DC02091BB0526347D
:101CC00009F058C02091BC052C3409F053C0209174
:101CD000BD05283509F04EC02091BE052F3309F00F
:101CE00049C0AC2CDE2CB090B8052091B905273046
:101CF000A1F42091BF05253481F42091C0052F3433
:101D000061F42091C105263441F400E026E045E865
:101D100051E06B2D0E94140A2DC0BC01CE0101962A
:101D20000E94FF0ACD2CEC84FD840E851F85288936
:101D300039894A896B2DCE0101960E947F0D882337
:101D400059F0DD2031F06EEF70E08FE396E00E94F5
:101D500019178D2D0E94220EDD2061F063EC71E0D9
:101D60008FE396E00E943D1769EF70E08FE396E005
:101D70000E94431762960FB6F894DEBF0FBECDBF28
:101D8000DF91CF911F910F91FF90EF90DF90CF9057
:101D9000BF90AF900895EF92FF920F931F93CF9350
:101DA000DF93EC0168835A8349831D86EB82FC82B2
:101DB0000D831E833C872B8781E08E87EF82F88618
:101DC00009871A870E94EB0F009749F0BE01DF9147
:101DD000CF911F910F91FF90EF900C94D90FDF914D
:101DE000CF911F910F91FF90EF900895DC011B960A
:101DF000ED91FC911C97309711F08C91099480E043
:101E00000895DF92EF92FF920F931F93CF93DF938A
:101E10008C01F62ED42EE22E0E94EB0FEC01892BC2
:101E200001F1D11001C0FA80C801EE2059F00E94E2
:101E3000F60E882311F0C80105C0888199810E949F
:101E400033050FC00E94B414F80146856F2DCE01F2
:101E5000DF91CF911F910F91FF90EF90DF900C9445
:101E6000F21280E0DF91CF911F910F91FF90EF90E0
:101E7000DF900895CF93DF93FC0183819481A58146
:101E8000B681892B8A2B8B2B71F187819085A18557
:101E9000B285481759076A077B0728F01782108612
:101EA0001186128608C0841B950BA60BB70B87837F
:101EB0009087A187B28787819085A185B285892B7C
:101EC0008A2B8B2BE1F4EF0121E040E060E0CF01B1
:101ED0000E94010F8B819C81AD81BE818F83988789
:101EE000A987BA870CC08585882349F0158621E02B
:101EF00040E060E0CF01DF91CF910C94010FDF91C2
:101F0000CF910895CF93DF93EC0161E089E00E94C7
:101F1000121A61E089E00E944E1ABE01DD0F880BA3
:101F2000990B0E94721960E089E0DF91CF910C94C7
:101F30004E1A0F931F93CF93DF93EC01FC01E458EB
:101F4000FD4F88EE93E091838083D093F905C09391
:101F5000F805798368832A831A8619861B821C8276
:101F60008E0102581D4FF801408340E250E06FEFB0
:101F700070E0CE01875F9D4F0E945B1E40E250E003
:101F800064E370E0CE01845C9D4F0E94692140E2D1
:101F900050E06FEF70E0CE01845A9D4F0E945B1EAF
:101FA00060E0F8018081DF91CF911F910F910C9437
:101FB000121AFC01218532852F3F310509F050F4BA
:101FC000C901019692878187220F331FE20FF31F09
:101FD0007487638708958091F8059091F9050895B5
:101FE000CF92DF92EF92FF921F93CF93DF93EC019A
:101FF00010E0CC24CA94DC2C7601812F90E0298556
:102000003A858217930710F010E023C0880F991FBC
:10201000FE01E80FF91F83859485FC0125852223A5
:1020200031F021E040E060E00E94010F10C0FC01AF
:1020300087819085A185B2850097A105B10539F00A
:102040008C159D05AE05BF0510F46C017D011F5F69
:10205000D4CF812F90E029853A858217930768F4C1
:10206000880F991FFE01E80FF91FB701A6018385AC
:1020700094850E943A0F1F5FECCFC701B601DF9134
:10208000CF911F91FF90EF90DF90CF900895FC01CA
:10209000E75DFD4F875C9D4FDB012D91BD012193D5
:1020A000E817F907C9F70895CF93DF93EC0163E1CF
:1020B000888199810E94A805682F80E090E00E94A5
:1020C0009121FE01E55CFD4F608181E090E00E947E
:1020D0009121FE01E65CFD4F608182E090E00E946C
:1020E0009121FE01E75CFD4F608183E190E00E9459
:1020F000912140E150E063E070E0CE01875D9D4FAB
:10210000DF91CF910C9481216F927F928F929F9259
:10211000AF92BF92CF92DF92EF92FF920F931F93F5
:10212000CF93DF93EC01662E042F722E80E090E0B7
:102130000E947921182FCE01855C9D4F5C01DE0144
:10214000A65CBD4F7D01FE01E75CFD4F6F0142972C
:102150004C011F3011F01A3111F5002301F16CEE22
:1021600071E08FE396E00E94551781E090E00E94B5
:102170007921D5018C9382E090E00E947921F701CA
:10218000808383E190E00E947921D6018C9340E125
:1021900050E063E070E0C4010E94692113C060E078
:1021A00072E08FE396E00E94551784E6F501808384
:1021B00086E5D7018C93F601608263E172E0CE017F
:1021C0000E944710D5012C91F6014081D7016C91F6
:1021D000888199810E94EF07B401888199810E94CA
:1021E000A7071F3051F488819981DC01ED91FC91A2
:1021F0000084F185E02D61E00995772059F0011107
:1022000009C064E272E08FE396E00E945517CE01A8
:102210000E94541088819981DF91CF911F910F9175
:10222000FF90EF90DF90CF90BF90AF909F908F90F6
:102230007F906F900C943305AC0182E0E82FF0E0C2
:1022400093E0F595E7959A95E1F7E40FF51FE45CC7
:10225000FD4F208130E020953095982F977002C077
:10226000359527959A95E2F720FF02C08F5FE6CF5C
:102270000895611103C083E591E002C08BE391E012
:102280000C94F813CF93DF9300D000D0CDB7DEB716
:10229000862F4AE0BE016F5F7F4F90E00E94811E53
:1022A000CE0101960E94F8130F900F900F900F909F
:1022B000DF91CF9108954F925F926F927F928F92AC
:1022C0009F92AF92BF92CF92DF92EF92FF920F93C5
:1022D0001F93CF93DF9300D000D0CDB7DEB76C0152
:1022E0008090B905912C23E0821691040CF463C10F
:1022F0009091BC05953008F05EC11091B805E12EB3
:10230000F12C8091B50521E0811101C020E05B0135
:10231000DB0113962C9313972091B2053091B305EE
:1023200016963C932E9315978091BB058F3FC9F568
:102330009330B9F52091BD05203199F50E944119DE
:1023400069837A838B839C83CE0101960E945A1401
:10235000F601808191814091090150910A01DC01CF
:10236000ED91FC910190F081E02D00E027E0612FDC
:10237000099573E0F594E7947A95E1F7CE0CDF1CAC
:10238000F601E75FFD4F177081E090E001C0880F14
:102390001A95EAF7809590818923808383E090E005
:1023A0000CC1F6012381222309F47BC08F3F09F081
:1023B00078C0933009F075C02091BD05233009F035
:1023C00070C062E472E08FE396E00E945517C60188
:1023D0000E94C914D6018D919C91DC01ED91FC9174
:1023E0000284F385E02D60E00995F601A080B180BC
:1023F000D501ED91FC91828093800E94F413F82E18
:102400000E94EF1368E2E62E02E02F2DAC01612F4F
:10241000C501F4010995182FD6018D919C91DC011D
:10242000ED91FC910284F385E02D6FE10995112374
:1024300009F4B8C0E0910B01F0910C018581E82FFF
:10244000F0E053E0F595E7955A95E1F7EC0DFD1DA9
:10245000E45CFD4F282F277081E090E001C0880FD9
:102460002A95EAF7809590818923808340E250E0A5
:1024700064E370E0C601845C9D4F0E94812167E5A2
:1024800072E08FE396E00E945517F601E75CFD4F7E
:1024900021E041E06081C6010E948410F6011382B0
:1024A00081C0D5011C9311968C93119712969C9321
:1024B00012978091BD0514968C9314971796EBEBA9
:1024C000F5E0B401635071099F012B5B354026177D
:1024D000370724F493819D933196F6CF813109F427
:1024E00064C0843009F464C0C70143E095958795C2
:1024F0004A95E1F71770F12E8601080F191F075F43
:102500001D4FF801808190E0809590950F2C02C0BE
:10251000959587950A94E2F780FF3DC0F401E65453
:10252000FA4F2081F401E754FA4F808190E0A0E057
:10253000B0E0DC0199278827B22BF401E954FA4F67
:102540002081822BF401E854FA4F2081922B898359
:102550009A83AB83BC830E94411949805A806B8067
:102560007C80DC01CB0184199509A609B709883B59
:102570009B40A105B105F8F4F501E80DF91D1082A5
:1025800081E090E001C0880FFA94EAF7D8019C91AD
:10259000892B8C9304C0F501E60FF71F178281E0A9
:1025A00090E00BC084E090E008C082E090E005C0BD
:1025B00085E090E002C080E090E00F900F900F90D7
:1025C0000F90DF91CF911F910F91FF90EF90DF90CF
:1025D000CF90BF90AF909F908F907F906F905F90C3
:1025E0004F9008954F925F926F927F928F929F9239
:1025F000AF92BF92CF92DF92EF92FF920F931F9311
:10260000CF93DF93CDB7DEB7C254D1090FB6F8949C
:10261000DEBF0FBECDBF6C01B62EE42E442381F188
:1026200010E0FF24F39432E4A32ECE0101964C0176
:102630000E944714D6018D919C91409109015091BF
:102640000A01DC01ED91FC910190F081E02D00E0A8
:1026500023E06B2D09950E9441192B013C01FF20BD
:1026600009F462C00E944119DC01CB01841995096B
:10267000A609B709883E9340A105B105C0F155C030
:10268000D6018D909C90D401ED91FC916280738075
:10269000E11002C005E001C003E00E94F413182F0E
:1026A0000E94EF1328E2E22E212FAC016B2DC40112
:1026B000F3010995182F882361F08091B9058823CB
:1026C00041F08091BB05853521F481E0D601149657
:1026D0008C93F601E75CFD4F9081F601828198179B
:1026E00021F0808191810E943305812F30C0D60175
:1026F0008D919C91DC01ED91FC910480F581E02DA0
:102700000995882309F4AECFD401EA2D1D92EA95EC
:10271000E9F7B401C6010E945B110297A1F4CE0152
:1027200008960E941A1413E0F12C1F5F133008F46E
:102730007FCFFF2009F4A4CFF601808191810E9410
:10274000330580E004C0D6018D919C91F8CFCE5B1B
:10275000DF4F0FB6F894DEBF0FBECDBFDF91CF9134
:102760001F910F91FF90EF90DF90CF90BF90AF90AF
:102770009F908F907F906F905F904F900895EF9211
:10278000FF921F93CF93DF93EC017A018BE090E0EF
:102790000E942F1440E06A81CE010E94F212182F8D
:1027A000B7018CE090E00E942F1440E06A81CE01D6
:1027B0000E94F2128123DF91CF911F91FF90EF9041
:1027C0000895CF93DF93EC01862FBA010E94A114E4
:1027D00040E06A81CE01DF91CF910C94F21280919A
:1027E0000B0190910C0108958091FA0590E00895F5
:1027F000CF93BC01009761F0FC0101900020E9F744
:102800003197E81BF90BE633F10520F4CE2F03C016
:10281000C0E001C0C6E34C2F50E080910B019091C5
:102820000C0103960E94721EE3E0EC0FE093FA05A0
:10283000CF910895BC019091FA0520910B01309140
:102840000C0144E050E0F901E90FF11DCF010E94B5
:10285000721E8091FA058C5F8093FA050895E091CD
:102860000B01F0910C019FEF9083E0910B01F0912F
:102870000C0193E09183E0910B01F0910C018283B4
:102880006115710519F0CB010C94F8130895E091CE
:102890000901F0910A018FEF8083E0910901F09125
:1028A0000A0183E08183E0910901F0910A0180E14E
:1028B00082830895FC01A0910901B0910A018FEF74
:1028C0008C93A0910901B0910A0183E011968C9339
:1028D000A0910901B0910A0181E112968C9312979F
:1028E000808113968C93139740815181628173810B
:1028F000452F562F672F7727408351836283738339
:1029000014964C9314974081518162817381452FB5
:10291000562F672F772740835183628373831596E1
:102920004C9315974081518162817381452F562FB9
:10293000672F7727408351836283738316964C9366
:102940000895E0910B01F0910C018083E0910B015F
:10295000F0910C011182E0910B01F0910C01628366
:1029600083E08093FA050895E0910B01F0910C014A
:10297000DC012C912083E0910B01F0910C0121E00E
:102980002183E0910B01F0910C0111968C918283CF
:1029900008950F931F93CF93DF93EC01E0910B0108
:1029A000F0910C018FEF8083E0910B01F0910C010D
:1029B00083E0818300910B0110910C0184E0F80108
:1029C0008283FE01E55CFD4F8081F8018383FE0177
:1029D000E65CFD4F8081F8018483CE010E941C11CA
:1029E000F8018583C75DDD4F86E090E02991E09195
:1029F0000B01F0910C01E80FF91F2083019686313D
:102A00009105A1F786E18093FA05DF91CF911F919F
:102A10000F910895FC01918D228D892F90E0805CAB
:102A20009F4F821B91098F7399270895FC01918D07
:102A3000828D981731F0828DE80FF11D858D90E021
:102A400008958FEF9FEF0895FC01918D828D981767
:102A500061F0828DDF01A80FB11D5D968C91928D82
:102A60009F5F9F73928F90E008958FEF9FEF08957F
:102A7000FC01538D448D252F30E0842F90E0821B84
:102A8000930B541710F0CF9608950197089583EA99
:102A900096E1892B49F080E090E0892B29F00E9493
:102AA000A31681110C9400000895FC01848DDF01B0
:102AB000A80FB11DA35ABF4F2C91848D90E00196B1
:102AC0008F739927848FA689B7892C93A089B189A0
:102AD0008C91837080648C93938D848D981306C041
:102AE0000288F389E02D80818F7D80830895EF92A5
:102AF000FF920F931F93CF93DF93EC0181E0888FB8
:102B00009B8D8C8D981305C0E889F989808185FD9E
:102B100026C0F62E0B8D10E00F5F1F4F0F7311278D
:102B2000E02E8C8DE8120CC00FB607FCFACFE889B6
:102B3000F989808185FFF5CFCE010E945515F1CF2F
:102B40008B8DFE01E80FF11DE35AFF4FF0829FB716
:102B5000F8940B8FEA89FB89808180620AC09FB755
:102B6000F894EE89FF896083E889F9898081837010
:102B7000806480839FBF81E090E0DF91CF911F91BF
:102B80000F91FF90EF900895CF93DF93EC01888D24
:102B90008823C9F0EA89FB89808185FD05C0A88961
:102BA000B9898C9186FD0FC00FB607FCF5CF8081E7
:102BB00085FFF2CFA889B9898C9185FFEDCFCE0131
:102BC0000E945515E7CFDF91CF910895CF92DF9204
:102BD000EF92FF921F93CF93DF93EC016A017B0189
:102BE000122FE889F98982E080834115514E6105F1
:102BF0007105B1F060E079E08DE390E0A701960106
:102C00000E94431CDA01C9010197A109B109B695D7
:102C1000A795979587959C01211580E13807A8F025
:102C2000E889F989108260E874E88EE190E0A701F4
:102C300096010E94431CDA01C9010197A109B1095B
:102C4000B695A795979587959C01EC85FD85308372
:102C5000EE85FF852083188EEC89FD891083EA8933
:102C6000FB89808180618083EA89FB89808188601B
:102C70008083EA89FB89808180688083EA89FB8977
:102C800080818F7D8083DF91CF911F91FF90EF90A6
:102C9000DF90CF9008951F920F920FB60F921124DC
:102CA0002F938F939F93EF93FF93E0914F06F091B3
:102CB00050068081E0915506F091560682FD12C0C3
:102CC0009081809158068F5F8F73209159068217EB
:102CD00051F0E0915806F0E0E15CF94F958F809358
:102CE000580601C08081FF91EF919F918F912F91A4
:102CF0000F900FBE0F901F9018951F920F920FB656
:102D00000F9211242F933F934F935F936F937F9371
:102D10008F939F93AF93BF93EF93FF938FE396E0CF
:102D20000E945515FF91EF91BF91AF919F918F91A7
:102D30007F916F915F914F913F912F910F900FBEB7
:102D40000F901F9018958FE396E00E940A1521E0DE
:102D5000892B09F420E0822F0895EFE3F6E0138237
:102D6000128288EE93E0A0E0B0E084839583A6838E
:102D7000B7838CE792E09183808385EC90E0958720
:102D8000848784EC90E09787868780EC90E0918B35
:102D9000808B81EC90E0938B828B82EC90E0958B22
:102DA000848B86EC90E0978B868B118E128E138E1F
:102DB000148E0895CF92DF92EF92FF920F931F939C
:102DC000CF93DF936C017A018B01C0E0D0E0CE1588
:102DD000DF0581F0D8016D918D01D601ED91FC9157
:102DE0000190F081E02DC6010995892B11F0219603
:102DF000EECF7E01C701DF91CF911F910F91FF9020
:102E0000EF90DF90CF9008956115710579F0FB0187
:102E100001900020E9F73197AF01461B570BDC0109
:102E2000ED91FC910280F381E02D099480E090E027
:102E30000895EF92FF920F931F93CF93DF938C012E
:102E40007B01C0E0D0E0F701EC0FFD1F6491662329
:102E500061F0D801ED91FC910190F081E02DC80165
:102E60000995892B11F02196EECFCE01DF91CF91FC
:102E70001F910F91FF90EF9008950C9404176AE84A
:102E800072E00C9404170F931F93CF93DF93EC0120
:102E90000E9419178C01CE010E943F17800F911FCD
:102EA000DF91CF911F910F9108950F931F93CF93AF
:102EB000DF93EC010E9404178C01CE010E943F17A2
:102EC000800F911FDF91CF911F910F9108958F92E5
:102ED0009F92AF92BF92EF92FF920F931F93CF9367
:102EE000DF93CDB7DEB7A1970FB6F894DEBF0FBE64
:102EF000CDBF7C01FA01CB0119A2223008F42AE0EF
:102F00008E010F5D1F4F822E912CA12CB12CBF0181
:102F1000A50194010E94431CF901CA010150110945
:102F20006A3014F4605D01C0695CD8016C93232B96
:102F3000242B252B61F7B801C7010E940417A19625
:102F40000FB6F894DEBF0FBECDBFDF91CF911F91BA
:102F50000F91FF90EF90BF90AF909F908F9008954A
:102F60002115310541F4DC01ED91FC910190F081D6
:102F7000E02D642F09940C9467179A01462F50E0B6
:102F800060E070E00C94B0170F931F93CF93DF9322
:102F9000EC010E94B0178C01CE010E943F17800FF8
:102FA000911FDF91CF911F910F9108950895823065
:102FB000E8F4E82FF0E0EE0FFF1FE35FFE4F7183B0
:102FC0006083813041F0809169008C7F482B409371
:102FD0006900E89A089580916900837F440F551F26
:102FE000440F551F482B40936900E99A08951F929A
:102FF0000F920FB60F9211242F933F934F935F932D
:103000006F937F938F939F93AF93BF93EF93FF93B0
:10301000E0910D01F0910E010995FF91EF91BF91A3
:10302000AF919F918F917F916F915F914F913F9160
:103030002F910F900FBE0F901F9018951F920F9217
:103040000FB60F9211242F933F934F935F936F937B
:103050007F938F939F93AF93BF93EF93FF93E091F1
:103060000F01F09110010995FF91EF91BF91AF9180
:103070009F918F917F916F915F914F913F912F9190
:103080000F900FBE0F901F901895FC0180819181C9
:103090000C94031DCF93DF93EC01888199810097F5
:1030A00011F00E94031D198218821D821C821B824E
:1030B0001A82DF91CF9108950F931F93CF93DF93DF
:1030C000EC018B016F5F7F4F888199810E948C1D7D
:1030D000009731F0998388831B830A8381E001C0C4
:1030E00080E0DF91CF911F910F910895CF93DF93EF
:1030F000EC0188819981892B29F08A819B8186172F
:10310000970760F4CE010E945C18882341F08C81FF
:103110009D81892B19F4E881F981108281E0DF918A
:10312000CF910895EF92FF920F931F93CF93DF9368
:10313000EC017B018A01BA010E947618811104C05A
:10314000CE010E944A1807C01D830C83B7018881F5
:1031500099810E946B1ECE01DF91CF911F910F913B
:10316000FF90EF900895FC01118210821382128269
:10317000158214826115710551F0FB010190002048
:10318000E9F73197AF01461B570B0C94921808953D
:10319000FC0124813581232B31F421E06115710577
:1031A000A1F0FB0108C0FC018081918161157105CE
:1031B00031F421E0FC018081882339F005C00E94B0
:1031C000621E21E0892B09F020E0822F08950895E6
:1031D0000E94AE190E94E7180E945D01C7E4D5E184
:1031E0000E943B022097E1F30E944715F9CF1F92FE
:1031F0000F920FB60F9211242F933F938F939F93AB
:10320000AF93BF938091DD069091DE06A091DF061B
:10321000B091E0063091DC0623E0230F2D3720F437
:103220000196A11DB11D05C026E8230F0296A11D20
:10323000B11D2093DC068093DD069093DE06A093FB
:10324000DF06B093E0068091E1069091E206A0913E
:10325000E306B091E4060196A11DB11D8093E1063D
:103260009093E206A093E306B093E406BF91AF917A
:103270009F918F913F912F910F900FBE0F901F90B4
:1032800018952FB7F8946091DD067091DE06809155
:10329000DF069091E0062FBF08953FB7F894809124
:1032A000E1069091E206A091E306B091E40626B50E
:1032B000A89B05C02F3F19F00196A11DB11D3FBF6E
:1032C000BA2FA92F982F8827820F911DA11DB11DFC
:1032D000BC01CD0142E0660F771F881F991F4A95F8
:1032E000D1F708958F929F92AF92BF92CF92DF92C3
:1032F000EF92FF926B017C010E944D194B015C0122
:10330000C114D104E104F10401F10E94A61A0E9443
:103310004D19DC01CB0188199909AA09BB09883E1E
:103320009340A105B10560F321E0C21AD108E1087C
:10333000F10888EE880E83E0981EA11CB11CC11410
:10334000D104E104F10419F7DBCFFF90EF90DF9097
:10335000CF90BF90AF909F908F900895789484B550
:10336000826084BD84B5816084BD85B5826085BD81
:1033700085B5816085BDEEE6F0E080818160808367
:10338000E1E8F0E01082808182608083808181604A
:103390008083E0E8F0E0808181608083E1EBF0E011
:1033A000808184608083E0EBF0E0808181608083B5
:1033B000EAE7F0E08081846080838081826080839E
:1033C0008081816080838081806880831092C100C9
:1033D0000895833081F028F4813099F08230A1F093
:1033E00008958730A9F08830B9F08430D1F4809105
:1033F00080008F7D03C0809180008F778093800054
:10340000089584B58F7702C084B58F7D84BD0895FB
:103410008091B0008F7703C08091B0008F7D809342
:10342000B0000895CF93DF9390E0FC01ED5CFE4F78
:103430002491FC01E95BFE4F8491882361F190E0C7
:10344000880F991FFC01E159FE4FC591D491FC01F1
:10345000EB59FE4FA591B491611109C09FB7F89443
:103460008881209582238883EC912E230BC06230C3
:1034700061F49FB7F8948881322F30958323888335
:10348000EC912E2B2C939FBF06C08FB7F894E88148
:103490002E2B28838FBFDF91CF9108951F93CF9359
:1034A000DF93282F30E0F901E15EFE4F8491F901AE
:1034B000ED5CFE4FD491F901E95BFE4FC491CC2342
:1034C000C1F0162F81110E94E919EC2FF0E0EE0FE8
:1034D000FF1FEB59FE4FA591B4919FB7F8941111BE
:1034E00004C08C91D095D82302C0EC91DE2BDC93E4
:1034F0009FBFDF91CF911F910895CF93DF93282F26
:1035000030E0F901E15EFE4F8491F901ED5CFE4F80
:10351000D491F901E95BFE4FC491CC2391F0811164
:103520000E94E919EC2FF0E0EE0FFF1FE55AFE4F65
:10353000A591B491EC91ED2381E090E021F480E03D
:1035400002C080E090E0DF91CF91089508950E943D
:10355000BB1A0C949C1B0E94951B58F00E948E1B5A
:1035600040F029F45F3F29F00C94851B51110C9415
:10357000D01B0C948B1B0E94AD1B68F39923B1F3F5
:10358000552391F3951B550BBB27AA276217730789
:10359000840738F09F5F5F4F220F331F441FAA1F1D
:1035A000A9F335D00E2E3AF0E0E832D091505040D9
:1035B000E695001CCAF72BD0FE2F29D0660F771F87
:1035C000881FBB1F261737074807AB07B0E809F06D
:1035D000BB0B802DBF01FF2793585F4F3AF09E3FF2
:1035E000510578F00C94851B0C94D01B5F3FE4F3DD
:1035F000983ED4F3869577956795B795F7959F5F35
:10360000C9F7880F911D9695879597F90895E1E080
:10361000660F771F881FBB1F621773078407BA07DF
:1036200020F0621B730B840BBA0BEE1F88F7E0953A
:1036300008950E94B51B88F09F5798F0B92F9927DD
:10364000B751B0F0E1F0660F771F881F991F1AF08D
:10365000BA95C9F714C0B13091F00E94CF1BB1E008
:1036600008950C94CF1B672F782F8827B85F39F007
:10367000B93FCCF3869577956795B395D9F73EF426
:1036800090958095709561957F4F8F4F9F4F0895CE
:10369000E89409C097FB3EF49095809570956195EC
:1036A0007F4F8F4F9F4F9923A9F0F92F96E9BB27A2
:1036B0009395F695879577956795B795F111F8CF1E
:1036C000FAF4BB0F11F460FF1BC06F5F7F4F8F4F89
:1036D0009F4F16C0882311F096E911C0772321F07F
:1036E0009EE8872F762F05C0662371F096E8862F17
:1036F00070E060E02AF09A95660F771F881FDAF76E
:10370000880F9695879597F9089597F99F6780E8B0
:1037100070E060E008959FEF80EC089500240A9423
:103720001616170618060906089500240A9412169C
:103730001306140605060895092E0394000C11F4CF
:10374000882352F0BB0F40F4BF2B11F460FF04C07C
:103750006F5F7F4F8F4F9F4F089557FD9058440FD5
:10376000551F59F05F3F71F04795880F97FB991FE0
:1037700061F09F3F79F0879508951216130614069D
:10378000551FF2CF4695F1DF08C01616170618062A
:10379000991FF1CF86957105610508940895E89405
:1037A000BB2766277727CB0197F908950E94E91B6D
:1037B0000C949C1B0E948E1B38F00E94951B20F0DD
:1037C000952311F00C94851B0C948B1B11240C94E5
:1037D000D01B0E94AD1B70F3959FC1F3950F50E075
:1037E000551F629FF001729FBB27F00DB11D639FB3
:1037F000AA27F00DB11DAA1F649F6627B00DA11D59
:10380000661F829F2227B00DA11D621F739FB00DFE
:10381000A11D621F839FA00D611D221F749F33276E
:10382000A00D611D231F849F600D211D822F762F07
:103830006A2F11249F5750409AF0F1F088234AF0E4
:10384000EE0FFF1FBB1F661F771F881F9150504050
:10385000A9F79E3F510580F00C94851B0C94D01B5A
:103860005F3FE4F3983ED4F3869577956795B795D7
:10387000F795E7959F5FC1F7FE2B880F911D9695F1
:10388000879597F90895A1E21A2EAA1BBB1BFD018B
:103890000DC0AA1FBB1FEE1FFF1FA217B307E4072F
:1038A000F50720F0A21BB30BE40BF50B661F771F87
:1038B000881F991F1A9469F7609570958095909567
:1038C0009B01AC01BD01CF010895EE0FFF1F0590D4
:1038D000F491E02D09940F931F93CF93DF938230DF
:1038E000910510F482E090E0E091E706F091E8069F
:1038F00020E030E0A0E0B0E0309719F14081518144
:103900000281138148175907C8F08417950769F495
:10391000109731F012960C93129713961C9327C0B0
:103920000093E7061093E80622C02115310519F02F
:103930004217530718F49A01BD01EF01DF01F801A6
:10394000DBCF21153105F9F0281B390B2430310567
:1039500080F48A819B816115710521F0FB019383BD
:10396000828304C09093E8068093E706FE013296B6
:1039700044C0FE01E20FF31F81939193225031095D
:10398000398328833AC02091E5063091E606232B3F
:1039900041F420910201309103013093E606209317
:1039A000E50620910001309101012115310541F416
:1039B0002DB73EB74091040150910501241B350BF2
:1039C000E091E506F091E606E217F307A0F42E1B5E
:1039D0003F0B2817390778F0AC014E5F5F4F241773
:1039E000350748F04E0F5F1F5093E6064093E506FB
:1039F0008193919302C0E0E0F0E0CF01DF91CF919D
:103A00001F910F910895CF93DF93009709F481C020
:103A1000FC01329713821282A091E706B091E8066A
:103A2000109781F420813181820F931F2091E50648
:103A30003091E6062817390751F5F093E606E09332
:103A4000E50667C0ED0120E030E0CE17DF0740F467
:103A50004A815B819E0141155105F1F0EA01F5CFE4
:103A6000D383C28340815181840F951FC817D90722
:103A700059F488819981840F951F029691838083E0
:103A80008A819B81938382832115310529F4F093E8
:103A9000E806E093E7063DC0E901FB83EA8349912C
:103AA0005991C40FD51FEC17FD0761F480819181F6
:103AB000840F951F0296E9019983888382819381FF
:103AC0009B838A83E0E0F0E012968D919C9113979E
:103AD000009719F0FD01DC01F7CF8D919C911197B2
:103AE0009D012E5F3F4F820F931F2091E50630917D
:103AF000E6062817390769F4309729F41092E8068A
:103B00001092E70602C013821282B093E606A093D9
:103B1000E506DF91CF910895A0E0B0E0E2E9FDE194
:103B20000C94A721EC01009721F4CB010E946B1C9F
:103B3000B4C0FC01E60FF71F9C0122503109E217C7
:103B4000F30708F4A8C0D9010D911C91119706172D
:103B50001707B0F00530110508F49BC0C8010497A1
:103B60008617970708F495C002501109061B170B1A
:103B7000019311936D937C93CF010E94031D89C023
:103B80005B01A01AB10A4C01800E911EA091E706BC
:103B9000B091E806612C712CE12CF12C109709F4FE
:103BA00046C08D919C911197A815B905B1F56C018E
:103BB00042E0C40ED11CCA14DB0478F14C018A180F
:103BC0009B08640142E0C40ED11C1296BC9012976F
:103BD0001396AC91B5E0CB16D10440F0B282A3832A
:103BE00091828082D9016D937C9309C00E5F1F4F33
:103BF000800F911FF90191838083EB2DFA2FE1143F
:103C0000F10431F0D7011396FC93EE93129741C063
:103C1000F093E806E093E7063CC06816790608F4DE
:103C20003C017D0112960D90BC91A02DB7CF8091E3
:103C3000E5069091E60688169906E1F46616770681
:103C4000C8F48091000190910101009741F48DB773
:103C50009EB74091040150910501841B950BE81714
:103C6000F907C8F4F093E606E093E506F9017183DD
:103C700060830FC0CB010E946B1C7C01009759F040
:103C8000A801BE010E94521ECE010E94031DC70161
:103C900004C0CE0102C080E090E0CDB7DEB7EEE018
:103CA0000C94C321FB01DC0102C001900D92415034
:103CB0005040D8F70895DC0101C06D934150504049
:103CC000E0F70895FB01DC018D910190801901104E
:103CD000D9F3990B0895FB01DC0101900D920020AE
:103CE000E1F70895FB01DC014150504048F001909C
:103CF0000D920020C9F701C01D9241505040E0F7DD
:103D00000895BB274A3031F4992322F4BDE29095FF
:103D100081959F4F0C948D1EBB27FB015527AA2729
:103D2000880F991FAA1FA41710F0A41B8395505148
:103D3000B9F7A05DAA3308F0A95DA193009779F7C0
:103D4000B111B1931192CB010C94BF20AEE0B0E061
:103D5000ECEAFEE10C94B1210D891E8986E08C838A
:103D60001A8309838FEF9FE79E838D83AE01475EA1
:103D70005F4F6F89788DCE0101960E94C81EEF813A
:103D8000F885E00FF11F10822E96E4E00C94CD210F
:103D9000ABE0B0E0EEECFEE10C94A3216C017B0102
:103DA0008A01FC0117821682838181FFCCC1CE017A
:103DB00001963C01F6019381F70193FD859193FFF4
:103DC00081917F01882309F4BAC1853239F493FDCA
:103DD000859193FF81917F01853229F4B60190E0AE
:103DE0000E94CF20E7CF912C212C312CFFE1F3153D
:103DF000D8F08B3279F038F4803279F08332A1F444
:103E0000232D20611DC08D3261F0803369F4232D94
:103E1000216016C0832D8260382EE32DE4603E2E93
:103E20002AC0F32DF8601DC037FC2DC020ED280FEF
:103E30002A3040F08E32B9F436FC81C1232D206443
:103E4000322E19C036FE06C08AE0989E200D11243D
:103E5000922E11C0EAE02E9E200D1124222EF32D69
:103E6000F0623F2E08C08C3621F4832D8068382EF6
:103E700002C0883641F4F70193FD859193FF81914B
:103E80007F018111B3CF982F9F7D9554933028F4F3
:103E90000C5F1F4F9FE399830DC0833631F083374A
:103EA00071F0833509F059C021C0F8018081898300
:103EB0000E5F1F4F88248394912C530113C0280157
:103EC000F2E04F0E511CF801A080B18036FE03C015
:103ED000692D70E002C06FEF7FEFC5010E94B42032
:103EE0004C018201F32DFF773F2E16C0280122E0FE
:103EF000420E511CF801A080B18036FE03C0692D2E
:103F000070E002C06FEF7FEFC5010E94A9204C0155
:103F1000F32DF0683F2E820133FC1BC0822D90E010
:103F200088169906B0F4B60180E290E00E94CF2096
:103F30002A94F4CFF50137FC859137FE81915F011A
:103F4000B60190E00E94CF2021102A9421E0821A2D
:103F500091088114910471F7E8C0843611F0893614
:103F600041F5F80137FE07C060817181828193813C
:103F70000C5F1F4F08C060817181072E000C880BF9
:103F8000990B0E5F1F4FF32DFF763F2E97FF09C051
:103F900090958095709561957F4F8F4F9F4FF068FA
:103FA0003F2E2AE030E0A3010E940B21882E8618C4
:103FB00045C0853731F4232D2F7EB22E2AE030E024
:103FC00025C0932D997FB92E8F36C1F018F488350E
:103FD00079F0B5C0803719F0883721F0B0C0E92FEB
:103FE000E061BE2EB4FE0DC0FB2DF460BF2E09C0F3
:103FF00034FE0AC0292F2660B22E06C028E030E029
:1040000005C020E130E002C020E132E0F801B7FE57
:1040100007C060817181828193810C5F1F4F06C050
:104020006081718180E090E00E5F1F4FA3010E94CC
:104030000B21882E8618FB2DFF773F2E36FE0DC0F4
:10404000232D2E7FA22E891458F434FE0BC032FC8F
:1040500009C0832D8E7EA82E05C0B82CA32C03C0CA
:10406000B82C01C0B92CA4FE0FC0FE01E80DF11D53
:104070008081803321F49A2D997EA92E09C0A2FE59
:1040800006C0B394B39404C08A2D867809F0B39423
:10409000A3FC11C0A0FE06C0B21488F4280C922C18
:1040A0009B180EC0B21460F4B60180E290E00E944A
:1040B000CF20B394F7CFB21418F42B1802C0982C69
:1040C000212CA4FE10C0B60180E390E00E94CF2016
:1040D000A2FE17C0A1FC03C088E790E002C088E5FB
:1040E00090E0B6010CC08A2D867859F0A1FE02C07E
:1040F0008BE201C080E2A7FC8DE2B60190E00E9455
:10410000CF20891438F4B60180E390E00E94CF20DC
:104110009A94F7CF8A94F301E80DF11D8081B601DE
:1041200090E00E94CF208110F5CF222009F442CEEA
:10413000B60180E290E00E94CF202A94F6CFF601EB
:104140008681978102C08FEF9FEF2B96E2E10C945E
:10415000BF21FC010590615070400110D8F7809597
:1041600090958E0F9F1F0895FC0161507040019043
:104170000110D8F7809590958E0F9F1F0895DC0150
:10418000FC01672F71917723E1F7329704C07C918E
:104190006D9370836291AE17BF07C8F308950F93B4
:1041A0001F93CF93DF93FB01238121FD03C08FEF8A
:1041B0009FEF2CC022FF16C0468157812481358194
:1041C0004217530744F4A081B1819D012F5F3F4FF7
:1041D000318320838C93268137812F5F3F4F378334
:1041E000268314C08B01EC01FB010084F185E02DD6
:1041F0000995892BE1F6D80116968D919C91179718
:10420000019617969C938E931697CE01DF91CF91CE
:104210001F910F910895FA01AA27283051F12031FA
:1042200081F1E8946F936E7F6E5F7F4F8F4F9F4F4A
:10423000AF4FB1E03ED0B4E03CD0670F781F891F8C
:104240009A1FA11D680F791F8A1F911DA11D6A0F5A
:10425000711D811D911DA11D20D009F468943F910D
:104260002AE0269F11243019305D3193DEF6CF010C
:104270000895462F4770405D4193B3E00FD0C9F7D2
:10428000F6CF462F4F70405D4A3318F0495D31FD3F
:104290004052419302D0A9F7EACFB4E0A695979592
:1042A000879577956795BA95C9F700976105710568
:1042B00008959B01AC010A2E0694579547953795B2
:1042C0002795BA95C9F7620F731F841F951FA01D0C
:1042D0000895DC01CB01FC01F999FECF06C0F2BDC7
:1042E000E1BDF89A319600B40D9241505040B8F7B4
:1042F0000895F999FECF92BD81BDF89A992780B5AE
:104300000895DC01A40FB51F4150504048F0CB0187
:10431000840F951F2E910E94922141505040D0F75A
:104320000895262FF999FECF92BD81BDF89A019785
:1043300000B4021639F01FBA20BD0FB6F894FA9AED
:10434000F99A0FBE08952F923F924F925F926F920B
:104350007F928F929F92AF92BF92CF92DF92EF9215
:10436000FF920F931F93CF93DF93CDB7DEB7CA1B96
:10437000DB0B0FB6F894DEBF0FBECDBF09942A88C1
:10438000398848885F846E847D848C849B84AA8469
:10439000B984C884DF80EE80FD800C811B81AA81F6
:1043A000B981CE0FD11D0FB6F894DEBF0FBECDBFC1
:0843B000ED010895F894FFCF20
:1043B8000000E9068000010304FB050206D617D6B3
:1043C8001753504920466C61736820496E69742000
:1043D8004F4B210053504920466C61736820496E49
:1043E8006974204641494C2100312E3100476174DF
:1043F80065436F6E74726F6C00496E697420646FE8
:104408006E6500300000000000140A5405110563B1
:104418000ADF0AD7066209D604F10676076E06C5D2
:104428000AE804FE04464C583F4E4F4B3A4E4F465E
:104438004C41534800464C583F4F4B00464C583F60
:10444800454F4600464C583F00464C583A25753A69
:1044580000464C58494D473A00464C583A25753A5B
:104468004F4B00464C583F4E4F4B3A4845583E3309
:10447800316B0054696D656F75742F4572726F7278
:104488002C2065726173696E672077726974746530
:104498006E2064617461202E2E2E200052656164A6
:1044A800696E67204E4F444520436F6E666967000A
:1044B800437573746F6D204E4F444520436F6E668D
:1044C80069670073616D706C65456E6372797074AD
:1044D8004B657900536176696E67204E4F444520DD
:1044E800436F6E666967002A20627574746F6E2068
:1044F8002A0053656E64696E67206E6574776F7203
:104508006B2064617461004578697420696E636C1E
:1045180075646500536176696E6720726164696FBE
:1045280020636F6E66696700000000007715DA1671
:104538003815C4150A15241516150D0A006E616E76
:0A45480000696E66006F76660000E1
:00000001FF
