:100000000C94BF000C94CD170C94F4170C94E700DB
:100010000C94E7000C94E7000C94E7000C94E700C4
:100020000C94E7000C94E7000C94E7000C94E700B4
:100030000C94E7000C94E7000C94E7000C94E700A4
:100040000C94CD180C94E7000C9421160C945316C4
:100050000C94E7000C94E7000C94E7000C94E70084
:100060000C94E7000C94E7002E005245424F4F5489
:10007000494E4700464C583F4F4B00494D47203EA4
:100080002033316B2C20746F6F2062696700464CFF
:10009000583F4F4B20726573656E64005D203E20B3
:1000A00000726164696F205B00554E536869667425
:1000B000696E67206368616E6E656C20746F2000E6
:1000C0005368696674696E67206368616E6E656CFB
:1000D00020746F2000464C583F4F4B202841434B23
:1000E0002073656E7429004641494C3A4E4F2046B4
:1000F0004C415348204D454D00444F4E4500464C21
:1001000041534820494D47205452414E534D495385
:1001100053494F4E2053554343455353210A000042
:1001200000000800020100000304070000000000B6
:1001300000000001020408102040800102040810A1
:10014000200102040810200404040404040404022E
:100150000202020202030303030303000000002360
:10016000002600290000000000250028002B0000C8
:10017000000000240027002A00009C02831611249E
:100180001FBECFEFD8E0DEBFCDBF12E0A0E0B1E0F0
:10019000E4E6F3E402C005900D92A03AB107D9F766
:1001A00024E0A0EAB2E001C01D92A83EB207E1F748
:1001B00010E0CFEBD0E004C02197FE010E943B1C71
:1001C000CD3BD107C9F70E94BE180C94B0210C9406
:1001D00000006091100380910701861741F0609341
:1001E000070181E193E00E94121181E0089580E00F
:1001F000089580E10E94531A892B21F48091060111
:1002000081110BC081E10E94531A892B49F480911E
:100210000601813029F081E00CC0109206011FC058
:1002200080911003811108C0809106018430A9F0EB
:1002300084E08093060113C0813031F4809106017F
:10024000853059F085E0F5CF843039F486E080932D
:10025000060181E080930F0302C080E00895609161
:10026000060181E193E00E94121181E008958091DE
:100270000F03882329F061E081E193E00E940911D6
:1002800080910F03089561E086E00E94241A61E0E6
:1002900087E00E94241A6CE271E080E090E00E9406
:1002A000481960E086E00E94241A60E087E00C9420
:1002B000241A26E040E052EC61E070E08EE394E026
:1002C0000E94BC1583EA93E00E943D04882319F044
:1002D00060E171E002C063E271E08EE394E00E94AD
:1002E0002B1721E040E066E081E193E00E9454108A
:1002F00048E351E06CE371E081E193E00E949513E3
:1003000043E050E061E081E193E00E94B71321E017
:1003100040E060E080E093E00E94D10E21E040E008
:1003200060E081EF92E00E94D10E21E040E060E0C9
:1003300082EE92E00E94D10E61E086E00E94E81910
:1003400061E087E00E94E81962E080E10E94E8191C
:1003500062E081E10E94E81968E471E08EE394E0D4
:100360000C942B17CF93DF93EC016AE371E00E94AA
:100370009E188823A9F080910601982F9B7F81F415
:10038000843041F40E9443016CE271E080E090E02F
:100390000E9448190E94430181E0809310031BC012
:1003A00062E571E0CE010E949E188823A1F0809141
:1003B0000601982F9B7F913071F4853041F40E94A3
:1003C00043016CE271E080E090E00E9448190E94D5
:1003D000430110921003DF91CF910895CF93DF93E3
:1003E00000D000D000D0CDB7DEB78091A20281301E
:1003F00091F48091A402823071F467EA72E0CE0138
:1004000001960E948918CE0101960E94B201CE0188
:1004100001960E941B1826960FB6F894DEBF0FBEF9
:10042000CDBFDF91CF910895CF92EF920F931F939D
:10043000CF93DF93CDB7DEB72B970FB6F894DEBF1F
:100440000FBECDBF88E993E00E94E104882309F440
:1004500054C08AE090E00E94520F88E591E09A83B0
:10046000898380919A038B8380919B038C838091F5
:100470009C038D8380919D038E8380919E038F8347
:1004800080919F0388878091A00389878091A10331
:100490008A878091A2038B8789E0C82EEE24E3949B
:1004A0000091A3031091A4032091A5033091A6030A
:1004B0004091A7035091A8036091A903CE01019632
:1004C0000E940F0E60EA72E081E193E00E942B111E
:1004D0008C018091B403882339F040E062E972E036
:1004E00088E993E00E94330A0130110531F48AE073
:1004F00090E00E94520F0E94EE0180910F0388232A
:1005000051F021E040E060E082EE92E00E94D10EE6
:10051000811110920F0381E193E00E94C00F2B968E
:100520000FB6F894DEBF0FBECDBFDF91CF911F9104
:100530000F91EF90CF900895EF92FF920F931F933A
:1005400040E35FEE68E083EA93E00E94EA02E8E9B4
:10055000F3E088E591E0918380838AE0828382E002
:100560008383148281E08093B90316828FE18783AD
:10057000108620E04EE0BF0181E193E00E94690F08
:10058000E12CF12C870129EE30E042E050E061E0FF
:1005900080E093E00E949B0E29EF30E044E250E0BF
:1005A00061E081EF92E00E949B0E27E331E040E1A1
:1005B00050E061E082EE92E00E949B0E1F910F914D
:1005C000FF90EF9008958EBD00000DB407FEFDCFA3
:1005D0008EB50895FC0180E5858316826083528381
:1005E00041830895FC018CB583838DB58483458157
:1005F00036818091AC03882399F02FB7F8948091CD
:10060000AC03813059F48DB38093AA039DB38091DC
:10061000AB03809589238DBB2FBF02C02093AA0313
:100620004CBD3DBD60E080810C94241ACF93DF93D4
:10063000EC0161E088810E94241A8091AC03882338
:1006400061F09FB7F8942091AC038091AA03213008
:1006500019F48DBB9FBF01C08FBF8B818CBD8C8176
:100660008DBDDF91CF9108950F931F93CF93DF93AB
:100670008C010E94F2028FE90E94E30280E00E9456
:10068000E302C82FD0E0DC2FCC2780E00E94E302F9
:10069000C82BC8010E941603CE01DF91CF911F9194
:1006A0000F9108951F93CF93DF93EC010E94F20204
:1006B00085E00E94E30280E00E94E302182FCE0151
:1006C0000E941603812FDF91CF911F9108950E9400
:1006D0005203817008951F93CF93DF93EC01162F7F
:1006E000442339F040E066E00E946B03CE010E9493
:1006F00016031B3A49F4CE010E94F202812FDF91CA
:10070000CF911F910C94E302CE010E9467038111E7
:10071000FBCFF1CFEF92FF920F931F93CF93DF9315
:10072000EC01042FF52EE62E122F41E062E00E942C
:100730006B038E2D0E94E3028F2D0E94E302802F17
:100740000E94E302812F0E94E302CE01DF91CF914C
:100750001F910F91FF90EF900C9416032F923F92F0
:100760004F925F926F927F928F929F92AF92BF92C1
:10077000CF92DF92EF92FF920F931F93CF93DF936D
:100780006C012A013B0119019A01332780E091E0B5
:10079000821B930B812C912C0115110581F1E8012D
:1007A0008017910708F4EC0141E062E0C6010E9465
:1007B0006B03862D0E94E302852D0E94E302842DA7
:1007C0000E94E3025101A80CB91C7501F701819147
:1007D0007F010E94E302C7018A199B098C179D07BC
:1007E000A8F3C6010E9416034C0E5D1E611C711C0D
:1007F0008C0E9D1E0C1B1D0B80E091E0CDCFDF9178
:10080000CF911F910F91FF90EF90DF90CF90BF900D
:10081000AF909F908F907F906F905F904F903F90A0
:100820002F900895FF920F931F93CF93DF93EC01C6
:10083000142F052FF62E41E062E50E946B038F2DE9
:100840000E94E302802F0E94E302812F0E94E302B4
:10085000CE01DF91CF911F910F91FF900C94160361
:10086000CF93DF93EC010E94F2028BEA0E94E30235
:10087000CE01DF91CF910C941603CF93DF93EC015F
:100880008CB58B838DB58C8361E088810E94E819DB
:100890000E94700480E58D831E82CE010E941603A3
:1008A000CE010E94300489819A81892B51F0CE01BA
:1008B0000E94340329813A818217930711F080E066
:1008C0000CC041E061E0CE010E946B0380E00E9419
:1008D000E302CE010E94160381E0DF91CF910895DB
:1008E000CF93CFB7F8948091AD03811127C0E1E594
:1008F000F1E08491EDE3F1E09491E82FF0E0EE0F68
:10090000FF1FE159FE4FA591B491EC91E92321F429
:1009100061E08AE00E94241A61E08AE00E94E819FE
:100920008CB580618CBD8CB580648CBD61E08DE040
:100930000E94E81961E08BE00E94E8198091AD0304
:100940008F5F8093AD03CFBFCF910895089581E06D
:100950008093B0038091AE039091AF03DC01ED91E1
:10096000FC910484F585E02D09951092B00308955B
:10097000FC01F8948CB581878DB582878CB5837F17
:100980008CBD8CB58F7D8CBD8CB58C7F8CBD8DB5B1
:100990008E7F8DBD60E082810C94241ACF93DF930B
:1009A000EC0161E08A810E94241A89858CBD8A85C8
:1009B0008DBD8091B003811101C07894DF91CF91FA
:1009C0000895F8942091B903233021F42091B503C0
:1009D00021110FC02091B903233011F4789407C07E
:1009E000DC01ED91FC910288F389E02D099580E00E
:1009F0000895DC01ED91FC910488F589E02D61E01A
:100A0000099581E00895DC01ED91FC910488F58958
:100A1000E02D60E00994CF93C62FDC01ED91FC91AD
:100A20000480F581E02D0995882361F08091B7035A
:100A3000C81711F0CF3F29F49091B30381E09111D1
:100A400001C080E0CF9108953F924F925F926F92E4
:100A50007F928F929F92AF92BF92CF92DF92EF924E
:100A6000FF920F931F93CF93DF93EC01162F5A0140
:100A7000822E902E312CCE2CD12CE12CF12CE88121
:100A8000F9810190F081E02D01E0282DA501612F71
:100A9000CE0109950E9417192B013C010E941719DC
:100AA000DC01CB0184199509A609B7098C159D05B0
:100AB000AE05BF0538F4612FCE010E940B058823D7
:100AC00069F304C033949314D0F680E0DF91CF91A2
:100AD0001F910F91FF90EF90DF90CF90BF90AF905C
:100AE0009F908F907F906F905F904F903F90089570
:100AF0001F93CF93DF93EC01162FE881F981008CCF
:100B0000F18DE02D0995812F8F770E94E30280E01F
:100B10000E94E302182FE881F981028CF38DE02D09
:100B2000CE010995812FDF91CF911F9108950F93E9
:100B30001F93CF93DF938C0167E00E947805C82F45
:100B400068E0C8010E947805D82F69E0C8010E94BA
:100B500078054C2F50E060E070E0BA01552744273B
:100B6000480F511D611D711D8D2F90E0982F882712
:100B70008A019B01080F191F211D311DC901B801F0
:100B80000E941E1B20E034E244E752E40E94AC1BAA
:100B90000E94EF1ADF91CF911F910F9108950F934B
:100BA0001F93CF93DF93EC01062F142FE881F98177
:100BB000008CF18DE02D0995802F80680E94E30262
:100BC000812F0E94E302E881F981028CF38DE02DF0
:100BD000CE01DF91CF911F910F910994CF92DF92B7
:100BE000EF92FF921F93CF93DF93EC016A017B0199
:100BF0001091B903143039F4E881F9810488F5893A
:100C0000E02D63E00995C701B6010E941E1B20E09C
:100C100034E244E752E40E947D1A0E94EF1A6B010D
:100C20007C01A7016627772767E0CE010E94CF05E8
:100C300077276F2D5E2D4D2D68E0CE010E94CF05E8
:100C40004C2D69E0CE010E94CF05133041F4E881BC
:100C5000F9810488F589E02D62E0CE010995E881EB
:100C6000F9810488F589E02D612FCE01DF91CF91C4
:100C70001F91FF90EF90DF90CF9009941F93CF9337
:100C8000DF932091B903261709F45DC0162FEC01FC
:100C90006230E9F168F4662309F440C0613009F07C
:100CA00052C061E00E947805837E482F44603BC0BB
:100CB0006330B9F0643009F046C061E00E94780505
:100CC000837E482F4C6061E0CE010E94CF0588856D
:100CD000882369F1E881F9810688F789E02D61E0D0
:100CE00013C061E00E947805837E482F406161E077
:100CF000CE010E94CF0588858823C9F0E881F9815B
:100D00000688F789E02D60E0CE01099510C061E00A
:100D10000E947805837E482F486005C061E00E94EC
:100D20007805482F437E61E0CE010E94CF05809177
:100D3000B903811106C067E2CE010E94780587FFE2
:100D4000F6CF1093B903DF91CF911F910895CF9300
:100D5000DF93EC01603208F06FE16F8388858823B0
:100D600011F066956F8361E1CE010E947805807E67
:100D70009F81482F492B61E1CE01DF91CF910C94E7
:100D8000CF05CF92DF92EF92FF920F931F93CF93F5
:100D9000DF93EC01F62ED42EC52E122FE881F981B7
:100DA0000488F589E02D61E0099567E2CE010E9493
:100DB000780587FFFACF40E065E2CE010E94CF05BB
:100DC0001E3308F01DE3E11004C0002321F000E40D
:100DD00003C000E801C000E0E881F981008CF18DDA
:100DE000E02DCE01099580E80E94E30283E0810FA7
:100DF0000E94E3028F2D0E94E3028D810E94E30294
:100E0000802F0E94E3020D2DED2CFC2C8E2D801BDB
:100E1000811730F4F70181917F010E94E302F6CF40
:100E2000E881F981028CF38DE02DCE010995E881EE
:100E3000F9810488F589E02D64E0CE0109950E94CE
:100E400017196B017C018B810E94531A892B81F049
:100E5000E881F9810488F589E02D61E0CE01DF9118
:100E6000CF911F910F91FF90EF90DF90CF90099459
:100E70000E941719DC01CB018C199D09AE09BF092D
:100E8000883E9340A105B105F0F2E2CFCF93DF9306
:100E9000EC011092B8031092B7031092B6031092AF
:100EA000B5031092B4031092B3031092B2031092E0
:100EB000B10368E20E94780582FF0AC06DE3CE01AB
:100EC0000E947805482F44606DE3CE010E94CF0553
:100ED00040E465E2CE010E94CF05E881F9810488F3
:100EE000F589E02D63E0CE01DF91CF910994CF9297
:100EF000DF92EF92FF920F931F93CF93DF93EC015A
:100F00008B01E881F9810488F589E02D61E009957C
:100F100001151105F1F0E881F981008CF18DE02DCA
:100F2000CE0109958EEB0E94E3027801680180E111
:100F3000C80ED11CF70181917F010E94E302EC14DD
:100F4000FD04C1F7E881F981028CF38DE02DCE011B
:100F500009956DE3CE010E9478058E7F41E0012B5B
:100F600009F440E0482B6DE3CE01DF91CF911F9152
:100F70000F91FF90EF90DF90CF900C94CF058F9260
:100F80009F92AF92BF92CF92DF92EF92FF920F9318
:100F90001F93CF93DF93CDB7DEB7AE970FB6F8941C
:100FA000DEBF0FBECDBF8C01E42E8EE2AE014F5FDF
:100FB0005F4F6A01DA01E82F1D92EA95E9F791E0A7
:100FC000998334E03A8342E04B8393E09D834E83E0
:100FD0003F8340E4488735E039879A8796E09B87CE
:100FE00093E39C8737E03D8798E09F8799E0998B52
:100FF00099E19B8B92E49C8B55E25D8B4E8B46E294
:101000004F8B388F38E2398F30E13A8F39E23B8F9E
:101010003CED3C8F8D8F88E88E8F8FE28F8F8DE235
:1010200088A380E389A337E33BA330E93CA338E3FB
:101030003DA39EA39CE39FA39FE898A79DE399A748
:1010400092E19AA79FE69BA78CA78FEF8DA76F31A0
:1010500031F06B3231F0663531F084EE05C08EE44C
:1010600003C08CE601C089ED8E876F3141F06B3291
:1010700021F0663521F480E003C080E401C080ECFB
:10108000888B2AA361E0D80112968C910E94241AC1
:1010900061E0F80182810E94E8190E9470040E94B8
:1010A00017194B015C014AEA6FE2C8010E94CF05A3
:1010B0006FE2C8010E9478058A3A61F00E94171910
:1010C000DC01CB0188199909AA09BB09C297A105BE
:1010D000B10548F30E9417194B015C0145E56FE229
:1010E000C8010E94CF056FE2C8010E9478058535CE
:1010F00061F00E941719DC01CB0188199909AA092E
:10110000BB09C297A105B10548F3F12CF601EF0D1B
:10111000F11DEF0DF11D60816F3F31F04181C8017C
:101120000E94CF05F394F2CF60E070E0C8010E9406
:101130007707D801ED91FC9111970084F185E02D9E
:1011400018966C91C8010995D801ED91FC9104881D
:10115000F589E02D61E0C80109950E9417194B013E
:101160005C0167E2C8010E94780587FD0CC00E94FF
:101170001719DC01CB0188199909AA09BB09C29783
:10118000A105B10570F30E941719DC01CB01881984
:101190009909AA09BB09C297A105B10598F4109253
:1011A000B00343E050E067EA74E0F80184810E94F4
:1011B000AD171093AF030093AE03D8011596EC92D0
:1011C00081E001C080E0AE960FB6F894DEBF0FBE9E
:1011D000CDBFDF91CF911F910F91FF90EF90DF90E6
:1011E000CF90BF90AF909F908F900895CF93DF9353
:1011F000EC0161110DC064E2CE010E94780590E01F
:1012000091958195910995958795DF91CF91089555
:1012100041E063E20E94CF0563E2CE010E947805BF
:1012200081FFFACFE8CFCF93DF932091B90323302A
:10123000A9F42091B503211111C0EC0160E00E94D6
:10124000F608863A9F4F54F4E881F9810488F589BD
:10125000E02D61E0CE01099581E001C080E0DF91E1
:10126000CF910895EF92FF921F93CF93DF93EC01FC
:101270008091B903833001F568E2CE010E947805C0
:1012800082FD28C019C08091B8038D3330F4E091FD
:10129000B803F0E0E654FC4F1082E881F981028C3B
:1012A000F38DE02DCE010995E881F9810488F58957
:1012B000E02D63E0CE01099560E0CE010E94F608C2
:1012C0009093B2038093B103DF91CF911F91FF9070
:1012D000EF900895E881F9810488F589E02D61E0B7
:1012E000CE010995E881F981008CF18DE02DCE01C8
:1012F000099580E00E94E30280E00E94E30280936F
:10130000B5038091B5038334D0F48091B503809305
:10131000B50380E00E94E3028093B6038E818111C1
:1013200009C08091B6039D81981721F08091B60382
:101330008F3F39F48091B503833018F017C082E4F1
:10134000E6CF1092B503E881F981028CF38DE02D90
:10135000CE010995E881F9810288F389E02DCE015B
:10136000DF91CF911F91FF90EF9009948091B50389
:1013700083508093B80380E00E94E3028093B70318
:1013800080E00E94E302982F90789093B303982F07
:1013900090749093B403E881F9810684F785E02D79
:1013A000682FCE01099510E08091B803181708F056
:1013B0006ACFE12EF12C80E00E94E302F701E654AF
:1013C000FC4F80831F5FF0CF8F929F92AF92BF92AE
:1013D000CF92DF92EF92FF920F931F93CF93DF9301
:1013E000EC01162F6A01F22E6DE30E947805482F5A
:1013F00044606DE3CE010E94CF050E9417194B0196
:101400005C01CE010E941309811115C00E941719B9
:10141000DC01CB0188199909AA09BB09883E9340D0
:10142000A105B10540F4E881F9810480F581E02D42
:10143000CE010995E6CFE881F9810088F189E02D98
:10144000E12C2F2DA601612FCE010995DF91CF91BF
:101450001F910F91FF90EF90DF90CF90BF90AF90D2
:101460009F908F9008954F925F926F927F92AF926C
:10147000BF92CF92DF92EF92FF920F931F93CF9381
:10148000DF93EC015B01F42E1092B4031091B703CB
:10149000C090B103D090B2036DE30E947805482F4D
:1014A00044606DE3CE010E94CF050E9417192B0105
:1014B0003C01CE010E941309811115C00E94171929
:1014C000DC01CB0184199509A609B709883E934030
:1014D000A105B10540F4E881F9810480F581E02D92
:1014E000CE010995E6CF1093B703E881F981008812
:1014F000F189E02DEE24E39400E02F2DA501612F6A
:10150000CE010995D092B203C092B103DF91CF9181
:101510001F910F91FF90EF90DF90CF90BF90AF9011
:101520007F906F905F904F9008951F93CF93DF93BC
:10153000EC01162F611102C045E501C04DE56AE5D9
:10154000CE010E94CF05111102C040E701C04CE757
:101550006CE5CE01DF91CF911F910C94CF05CF9315
:10156000DF93EC016887611102C04AE101C04FE0DE
:1015700063E1CE010E94CF058885882341F061E1B7
:10158000CE010E9478058F71482F406602C04F81BE
:10159000406861E1CE01DF91CF910C94CF05FC0151
:1015A000DB0188E591E09183808312968C911297FC
:1015B000828313968C911397838314968C9114973E
:1015C000848315968C911597858316968C91169722
:1015D000868317968C911797878318968C91189706
:1015E000808719968C91199781871A968C9182879A
:1015F0000895CF92DF92EF920F931F93CF93DF93D3
:10160000CDB7DEB727970FB6F894DEBF0FBECDBFBC
:101610006C0109831A832B833C834D835E836F8324
:10162000EE2099F0CE0101960E943D0481110DC07B
:101630004FE064E771E0C6010E94330A67EE70E094
:101640008EE394E00E94191706C046E064E871E05A
:10165000C6010E94330A27960FB6F894DEBF0FBE6C
:10166000CDBFDF91CF911F910F91EF90DF90CF9081
:1016700008950F931F93CF93DF93CDB7DEB70DB7C8
:101680001EB7262F30E0220F331FA9014F5F5F4F97
:10169000EDB7FEB7E41BF50B0FB6F894FEBF0FBE17
:1016A000EDBF4DB75EB74F5F5F4FFA01782FDC019A
:1016B0008A2F871B861788F48D91982F92959F709B
:1016C00090639A330CF0995D90838F7080638A33B6
:1016D0000CF0895D81833296EBCFFA01E20FF31FA4
:1016E0001082BA018EE394E00E942B170FB6F89493
:1016F0001EBF0FBE0DBFDF91CF911F910F910895B7
:101700002F923F924F925F926F927F928F929F9211
:10171000AF92BF92CF92DF92EF92FF920F931F93FF
:10172000CF93DF93CDB7DEB7A5970FB6F894DEBFA2
:101730000FBECDBF4C016DA3EC8EFD8E0E8F1F8FA3
:1017400028A339A34AA33C2CACA240E050E0BA0144
:10175000CE014C960E94120407E010E020EA31E02E
:1017600040E050E0BA01CE014C960E94AE032AE35D
:1017700049E050E060E070E0CE014C960E948A03A0
:101780000E9417192B013C019AE0C92ED12CA12CE3
:10179000B12CC4010E94E104882301F18091B703B8
:1017A0002DA182131BC06091B8036BA3643020F09D
:1017B0008091BA03863409F161E08CA10E94E81996
:1017C00061E08CA10E94241A61E070E080E090E06A
:1017D0000E94481960E08CA10E94241A0E941719E7
:1017E000DC01CB0184199509A609B709893B9B4007
:1017F000A105B10570F280E039C18091BB038C3442
:10180000D9F68091BC038835B9F68091BD038A333F
:1018100009F0A5C06BA1673008F4A1C084E090E096
:1018200000E010E0482FFF24FA94F80EFC01E65483
:10183000FC4F2081203308F411C120812A3308F0A5
:101840000DC150816AE0609F9001619F300D1124AD
:10185000890100531109050F111D0196883091056A
:1018600009F7F42E3320C1F061EA70E08EE394E0D2
:101870000E94EF164AE050E06BA18EE394E00E94D4
:1018800093176CE970E08EE394E00E94EF166BA171
:101890008AEB93E00E94390BE1E0EF0DF0E0E654B3
:1018A000FC4F80818A3309F0A6CF0E9417192B01C3
:1018B0003C01A016B10639F0C501019780179107C8
:1018C00009F04DC027C082E0282E2F0C8FEFA81AF8
:1018D000B80A9BA12916F0F4E22DF0E0E654FC4F83
:1018E000208176016FEFE61AF60AA60160E070E04B
:1018F000CE014C960E948A03C7019F77892B39F449
:10190000A70160E070E0CE014C960E94120423947F
:101910006701DFCF1F930F9388EA91E09F938F9326
:1019200081E090E08C0F9D1F9F938F930E947C1EFF
:10193000182F0F900F900F900F900F900F90332053
:1019400039F0BE016F5F7F4F8EE394E00E942B174A
:10195000412FBE016F5F7F4FC4010E94330A809107
:10196000BD038F3309F028CF9BA19430E1F4B4017B
:10197000CE0141960E94CF0AEE24E3940C8D1D8D7A
:101980002E8D3F8D48A159A16AA1CE0141960E949A
:10199000F90A332009F410CF6EE870E08EE394E08A
:1019A0000E94191709CF2BA1273009F005CF80918C
:1019B000BE03853409F000CF8091BF038F3409F056
:1019C000FBCE8091C003863409F0F6CE86010A5022
:1019D000110901306CE7160778F0332031F06BE71E
:1019E00070E08EE394E00E9419174FE062EB71E023
:1019F000C4010E94330AFFCEB401CE0141960E9479
:101A0000CF0A46E064E871E0CE0141960E94330AB5
:101A1000332031F064E770E08EE394E00E94191700
:101A2000212F47E050E060E070E0CE014C960E942C
:101A30008A0326EF2C0D48E050E060E070E0CE0114
:101A40004C960E948A032AE349E050E060E070E08F
:101A5000CE014C960E948A0381E008C020812A337F
:101A600009F0FBCE443009F0FDCEC5CEA5960FB6E9
:101A7000F894DEBF0FBECDBFDF91CF911F910F91C4
:101A8000FF90EF90DF90CF90BF90AF909F908F909E
:101A90007F906F905F904F903F902F9008958F921E
:101AA0009F92AF92BF92CF92DF92EF92FF920F93ED
:101AB0001F93CF93DF93CDB7DEB762970FB6F8943D
:101AC000DEBF0FBECDBF4C01B62EEC86FD860E8765
:101AD0001F87288B398B4A8BDC2CBC01CE010196E9
:101AE0000E94CF0AEE24E3940C851D852E853F8548
:101AF000488959896A89CE0101960E94F90ACC2049
:101B0000D9F065ED70E08EE394E00E94191760EC67
:101B100070E08EE394E00E94EF16C4010E949705E6
:101B2000AB01BC01405C5D4B604F7F4F2AE030E071
:101B30008EE394E00E949A17C4010E949705AB01BE
:101B4000BC01405C5D4B604F7F4FC4010E94EE05BD
:101B5000B401CE0101960E94CF0ACD2CEC84FD8405
:101B60000E851F85288939894A896B2DCE010196FA
:101B70000E94800B182FDD20A9F069EA70E08EE347
:101B800094E00E94EF16C4010E949705AB01BC01CE
:101B9000405452446F4071092AE030E08EE394E0F3
:101BA0000E949A17C4010E949705AB01BC014054E2
:101BB00052446F407109C4010E94EE05812F629664
:101BC0000FB6F894DEBF0FBECDBFDF91CF911F914E
:101BD0000F91FF90EF90DF90CF90BF90AF909F90CC
:101BE0008F900895C82F882331F06AE670E08EE365
:101BF00094E00E94EF1698E088E10FB6F894A8955B
:101C0000809360000FBE90936000C11101C0FFCFB0
:101C100068E670E08EE394E00E94EF16F6CFAF9294
:101C2000BF92CF92DF92EF92FF920F931F93CF93C9
:101C3000DF93CDB7DEB762970FB6F894DEBF0FBE65
:101C4000CDBF0C871D872E873F87488B598B6A8BAA
:101C50002091B803243008F45DC02091BA032634E3
:101C600009F058C02091BB032C3409F053C02091D7
:101C7000BC03283509F04EC02091BD032F3309F075
:101C800049C0AC2CDE2CB090B7032091B8032730AC
:101C9000A1F42091BE03253481F42091BF032F3499
:101CA00061F42091C003263441F400E026E044E8CA
:101CB00051E06B2D0E94E4092DC0BC01CE010196BC
:101CC0000E94CF0ACD2CEC84FD840E851F852889C7
:101CD00039894A896B2DCE0101960E944F0D8823C8
:101CE00059F0DD2031F06EEF70E08EE394E00E9459
:101CF000EF168D2D0E94F20DDD2061F062EC71E097
:101D00008EE394E00E94131769EF70E08EE394E095
:101D10000E94191762960FB6F894DEBF0FBECDBFB2
:101D2000DF91CF911F910F91FF90EF90DF90CF90B7
:101D3000BF90AF900895EF92FF920F931F93CF93B0
:101D4000DF93EC0168835A8349831D86EB82FC8212
:101D50000D831E833C872B8781E08E87EF82F88678
:101D600009871A870E94BB0F009749F0BE01DF91D7
:101D7000CF911F910F91FF90EF900C94A90FDF91DD
:101D8000CF911F910F91FF90EF900895DC011B966A
:101D9000ED91FC911C97309711F08C91099480E0A3
:101DA0000895DF92EF92FF920F931F93CF93DF93EB
:101DB0008C01F62ED42EE22E0E94BB0FEC01892B53
:101DC00001F1D11001C0FA80C801EE2059F00E9443
:101DD000C60E882311F0C80105C0888199810E9430
:101DE00003050FC00E948A14F80146856F2DCE01AD
:101DF000DF91CF911F910F91FF90EF90DF900C94A6
:101E0000C21280E0DF91CF911F910F91FF90EF9070
:101E1000DF900895CF93DF93FC0183819481A581A6
:101E2000B681892B8A2B8B2B71F187819085A185B7
:101E3000B285481759076A077B0728F01782108672
:101E40001186128608C0841B950BA60BB70B8783DF
:101E50009087A187B28787819085A185B285892BDC
:101E60008A2B8B2BE1F4EF0121E040E060E0CF0111
:101E70000E94D10E8B819C81AD81BE818F8398871A
:101E8000A987BA870CC08585882349F0158621E08B
:101E900040E060E0CF01DF91CF910C94D10EDF9153
:101EA000CF910895CF93DF93EC0161E089E00E9428
:101EB000E81961E089E00E94241ABE01DD0F880B59
:101EC000990B0E94481960E089E0DF91CF910C9452
:101ED000241A0F931F93CF93DF93EC01FC01E45876
:101EE000FD4F88EE93E091838083D093F803C093F5
:101EF000F703798368832A831A8619861B821C82DA
:101F00008E0102581D4FF801408340E250E06FEF10
:101F100070E0CE01875F9D4F0E94311E40E250E08D
:101F200064E370E0CE01845C9D4F0E943F2140E25B
:101F300050E06FEF70E0CE01845A9D4F0E94311E39
:101F400060E0F8018081DF91CF911F910F910C9497
:101F5000E819FC01218532852F3F310509F050F445
:101F6000C901019692878187220F331FE20FF31F69
:101F70007487638708958091F7039091F80308951B
:101F8000CF92DF92EF92FF921F93CF93DF93EC01FA
:101F900010E0CC24CA94DC2C7601812F90E02985B6
:101FA0003A858217930710F010E023C0880F991F1D
:101FB000FE01E80FF91F83859485FC012585222306
:101FC00031F021E040E060E00E94D10E10C0FC0141
:101FD00087819085A185B2850097A105B10539F06B
:101FE0008C159D05AE05BF0510F46C017D011F5FCA
:101FF000D4CF812F90E029853A858217930768F422
:10200000880F991FFE01E80FF91FB701A60183850C
:1020100094850E940A0F1F5FECCFC701B601DF91C4
:10202000CF911F91FF90EF90DF90CF900895FC012A
:10203000E75DFD4F875C9D4FDB012D91BD01219335
:10204000E817F907C9F70895CF93DF93EC0163E12F
:10205000888199810E947805682F80E090E00E9435
:102060006721FE01E55CFD4F608181E090E00E9408
:102070006721FE01E65CFD4F608182E090E00E94F6
:102080006721FE01E75CFD4F608183E190E00E94E3
:10209000672140E150E063E070E0CE01875D9D4F35
:1020A000DF91CF910C9457216F927F928F929F92E4
:1020B000AF92BF92CF92DF92EF92FF920F931F9356
:1020C000CF93DF93EC01662E042F722E80E090E018
:1020D0000E944F21182FCE01855C9D4F5C01DE01CF
:1020E000A65CBD4F7D01FE01E75CFD4F6F0142978D
:1020F0004C011F3011F01A3111F5002301F16BEE84
:1021000071E08EE394E00E942B1781E090E00E9442
:102110004F21D5018C9382E090E00E944F21F7017E
:10212000808383E190E00E944F21D6018C9340E1AF
:1021300050E063E070E0C4010E943F2113C06FEFE4
:1021400071E08EE394E00E942B1784E6F501808312
:1021500086E5D7018C93F601608262E172E0CE01E0
:102160000E941710D5012C91F6014081D7016C9186
:10217000888199810E94BF07B401888199810E945A
:1021800077071F3051F488819981DC01ED91FC9132
:102190000084F185E02D61E00995772059F0011167
:1021A00009C063E272E08EE394E00E942B17CE0137
:1021B0000E94241088819981DF91CF911F910F9106
:1021C000FF90EF90DF90CF90BF90AF909F908F9057
:1021D0007F906F900C940305AC0182E0E82FF0E053
:1021E00093E0F595E7959A95E1F7E40FF51FE45C28
:1021F000FD4F208130E020953095982F977002C0D8
:10220000359527959A95E2F720FF02C08F5FE6CFBC
:102210000895611103C082E591E002C08AE391E074
:102220000C94CE13CF93DF9300D000D0CDB7DEB7A0
:10223000862F4AE0BE016F5F7F4F90E00E94571EDD
:10224000CE0101960E94CE130F900F900F900F9029
:10225000DF91CF9108954F925F926F927F928F920C
:102260009F92AF92BF92CF92DF92EF92FF920F9325
:102270001F93CF93DF9300D000D0CDB7DEB76C01B2
:102280008090B803912C23E0821691040CF463C172
:102290009091BB03953008F05EC11091B703E12E19
:1022A000F12C8091B40321E0811101C020E05B0199
:1022B000DB0113962C9313972091B1033091B20355
:1022C00016963C932E9315978091BA038F3FC9F5CC
:1022D0009330B9F52091BC03203199F50E9417196C
:1022E00069837A838B839C83CE0101960E9430148C
:1022F000F601808191814091080150910901DC0132
:10230000ED91FC910190F081E02D00E027E0612F3C
:10231000099573E0F594E7947A95E1F7CE0CDF1C0C
:10232000F601E75FFD4F177081E090E001C0880F74
:102330001A95EAF7809590818923808383E090E065
:102340000CC1F6012381222309F47BC08F3F09F0E1
:1023500078C0933009F075C02091BC03233009F098
:1023600070C061E472E08EE394E00E942B17C60116
:102370000E949F14D6018D919C91DC01ED91FC91FE
:102380000284F385E02D60E00995F601A080B1801C
:10239000D501ED91FC91828093800E94CA13F82EA2
:1023A0000E94C51368E2E62E02E02F2DAC01612FDA
:1023B000C501F4010995182FD6018D919C91DC017E
:1023C000ED91FC910284F385E02D6FE109951123D5
:1023D00009F4B8C0E0910A01F0910B018581E82F62
:1023E000F0E053E0F595E7955A95E1F7EC0DFD1D0A
:1023F000E45CFD4F282F277081E090E001C0880F3A
:102400002A95EAF7809590818923808340E250E005
:1024100064E370E0C601845C9D4F0E94572166E52D
:1024200072E08EE394E00E942B17F601E75CFD4F0B
:1024300021E041E06081C6010E945410F601138240
:1024400081C0D5011C9311968C93119712969C9381
:1024500012978091BC0314968C9314971796EAEB0D
:10246000F3E0B401635071099F012A5B33402617E2
:10247000370724F493819D933196F6CF813109F487
:1024800064C0843009F464C0C70143E09595879522
:102490004A95E1F71770F12E8601080F191F075FA3
:1024A0001D4FF801808190E0809590950F2C02C01F
:1024B000959587950A94E2F780FF3DC0F401E754B3
:1024C000FC4F2081F401E854FC4F808190E0A0E0B3
:1024D000B0E0DC0199278827B22BF401EA54FC4FC5
:1024E0002081822BF401E954FC4F2081922B8983B7
:1024F0009A83AB83BC830E94171949805A806B80F2
:102500007C80DC01CB0184199509A609B709883BB9
:102510009B40A105B105F8F4F501E80DF91D108205
:1025200081E090E001C0880FFA94EAF7D8019C910D
:10253000892B8C9304C0F501E60FF71F178281E009
:1025400090E00BC084E090E008C082E090E005C01D
:1025500085E090E002C080E090E00F900F900F9037
:102560000F90DF91CF911F910F91FF90EF90DF902F
:10257000CF90BF90AF909F908F907F906F905F9023
:102580004F9008954F925F926F927F928F929F9299
:10259000AF92BF92CF92DF92EF92FF920F931F9371
:1025A000CF93DF93CDB7DEB7C254D1090FB6F894FD
:1025B000DEBF0FBECDBF6C01B62EE42E442381F1E9
:1025C00010E0FF24F39432E4A32ECE0101964C01D7
:1025D0000E941D14D6018D919C914091080150914B
:1025E0000901DC01ED91FC910190F081E02D00E00A
:1025F00023E06B2D09950E9417192B013C01FF2048
:1026000009F468C00E941719DC01CB0184199509EF
:10261000A609B709883E9340A105B105F0F15BC05A
:10262000D6018D909C90D401ED91FC9162807380D5
:10263000E11002C005E001C003E00E94CA13182F98
:102640000E94C51328E2E22E212FAC016B2DC4019C
:10265000F3010995182F882391F08091B8038823FE
:1026600071F08091BA03853551F481E0D60114965A
:102670008C9367E772E08EE394E00E942B17F601DB
:10268000E75CFD4F9081F6018281981721F08081EF
:1026900091810E940305812F30C0D6018D919C91BC
:1026A000DC01ED91FC910480F581E02D09958823F2
:1026B00009F4A8CFD401EA2D1D92EA95E9F7B401F7
:1026C000C6010E942B110297A1F4CE0108960E9428
:1026D000F01313E0F12C1F5F133008F479CFFF20C3
:1026E00009F49ECFF601808191810E94030580E06C
:1026F00004C0D6018D919C91F8CFCE5BDF4F0FB611
:10270000F894DEBF0FBECDBFDF91CF911F910F9127
:10271000FF90EF90DF90CF90BF90AF909F908F9001
:102720007F906F905F904F900895EF92FF921F936C
:10273000CF93DF93EC017A018BE090E00E940514C7
:1027400040E06A81CE010E94C212182FB7018CE0CE
:1027500090E00E94051440E06A81CE010E94C212FE
:102760008123DF91CF911F91FF90EF900895CF9338
:10277000DF93EC01862FBA010E94771440E06A8152
:10278000CE01DF91CF910C94C21280910A019091F9
:102790000B0108958091F90390E00895CF93BC0157
:1027A000009761F0FC0101900020E9F73197E81BE8
:1027B000F90BE633F10520F4CE2F03C0C0E001C0D1
:1027C000C6E34C2F50E080910A0190910B010396D3
:1027D0000E94481EE3E0EC0FE093F903CF910895C7
:1027E000BC019091F90320910A0130910B0144E062
:1027F00050E0F901E90FF11DCF010E94481E8091C0
:10280000F9038C5F8093F9030895E0910A01F09138
:102810000B019FEF9083E0910A01F0910B0193E08F
:102820009183E0910A01F0910B018283611571059A
:1028300019F0CB010C94CE130895E0910801F091AA
:1028400009018FEF8083E0910801F091090183E095
:102850008183E0910801F091090180E1828308956C
:10286000FC01A0910801B09109018FEF8C93A09118
:102870000801B091090183E011968C93A0910801A1
:10288000B091090181E112968C9312978081139681
:102890008C9313974081518162817381452F562F0C
:1028A000672F7727408351836283738314964C93F9
:1028B00014974081518162817381452F562F672F74
:1028C0007727408351836283738315964C931597C2
:1028D0004081518162817381452F562F672F772761
:1028E000408351836283738316964C930895E091DD
:1028F0000A01F0910B018083E0910A01F0910B0134
:102900001182E0910A01F0910B01628383E08093D0
:10291000F9030895E0910A01F0910B01DC012C917B
:102920002083E0910A01F0910B0121E02183E091E5
:102930000A01F0910B0111968C91828308950F93F7
:102940001F93CF93DF93EC01E0910A01F0910B010B
:102950008FEF8083E0910A01F0910B0183E0818386
:1029600000910A0110910B0184E0F8018283FE01BD
:10297000E55CFD4F8081F8018383FE01E65CFD4F3D
:102980008081F8018483CE010E94EC10F8018583D8
:10299000C75DDD4F86E090E02991E0910A01F0915A
:1029A0000B01E80FF91F2083019686319105A1F7ED
:1029B00086E18093F903DF91CF911F910F910895E4
:1029C000FC01918D228D892F90E0805C9F4F821BAE
:1029D00091098F7399270895FC01918D828D981725
:1029E00031F0828DE80FF11D858D90E008958FEF15
:1029F0009FEF0895FC01918D828D981761F0828D73
:102A0000DF01A80FB11D5D968C91928D9F5F9F7322
:102A1000928F90E008958FEF9FEF0895FC01538D02
:102A2000448D252F30E0842F90E0821B930B5417A8
:102A300010F0CF9608950197089589E796E1892BC4
:102A400049F080E090E0892B29F00E9479168111ED
:102A50000C9400000895FC01848DDF01A80FB11DC6
:102A6000A35ABF4F2C91848D90E001968F739927C4
:102A7000848FA689B7892C93A089B1898C918370A2
:102A800080648C93938D848D981306C00288F3899B
:102A9000E02D80818F7D80830895EF92FF920F93C8
:102AA0001F93CF93DF93EC0181E0888F9B8D8C8DFA
:102AB000981305C0E889F989808185FD26C0F62E26
:102AC0000B8D10E00F5F1F4F0F731127E02E8C8DC1
:102AD000E8120CC00FB607FCFACFE889F9898081AB
:102AE00085FFF5CFCE010E942B15F1CF8B8DFE0116
:102AF000E80FF11DE35AFF4FF0829FB7F8940B8F58
:102B0000EA89FB89808180620AC09FB7F894EE89C8
:102B1000FF896083E889F98980818370806480837C
:102B20009FBF81E090E0DF91CF911F910F91FF90C7
:102B3000EF900895CF93DF93EC01888D8823C9F03F
:102B4000EA89FB89808185FD05C0A889B9898C91B6
:102B500086FD0FC00FB607FCF5CF808185FFF2CF51
:102B6000A889B9898C9185FFEDCFCE010E942B15E4
:102B7000E7CFDF91CF910895CF92DF92EF92FF924E
:102B80001F93CF93DF93EC016A017B01122FE88939
:102B9000F98982E080834115514E61057105B1F0DC
:102BA00060E079E08DE390E0A70196010E94191C96
:102BB000DA01C9010197A109B109B695A7959795C1
:102BC00087959C01211580E13807A8F0E889F989EB
:102BD000108260E874E88EE190E0A70196010E94FF
:102BE000191CDA01C9010197A109B109B695A79588
:102BF000979587959C01EC85FD853083EE85FF8553
:102C00002083188EEC89FD891083EA89FB898081F5
:102C100080618083EA89FB89808188608083EA897A
:102C2000FB89808180688083EA89FB8980818F7D30
:102C30008083DF91CF911F91FF90EF90DF90CF9035
:102C400008951F920F920FB60F9211242F938F9316
:102C50009F93EF93FF93E0914E04F0914F04808196
:102C6000E0915404F091550482FD12C0908180914E
:102C700057048F5F8F7320915804821751F0E091B1
:102C80005704F0E0E25CFB4F958F8093570401C03E
:102C90008081FF91EF919F918F912F910F900FBEA7
:102CA0000F901F9018951F920F920FB60F9211243C
:102CB0002F933F934F935F936F937F938F939F9344
:102CC000AF93BF93EF93FF938EE394E00E942B1595
:102CD000FF91EF91BF91AF919F918F917F916F91F4
:102CE0005F914F913F912F910F900FBE0F901F90CA
:102CF00018958EE394E00E94E01421E0892B09F4FA
:102D000020E0822F0895EEE3F4E01382128288EE31
:102D100093E0A0E0B0E084839583A683B78382E844
:102D200092E09183808385EC90E09587848784ECA2
:102D300090E09787868780EC90E0918B808B81EC88
:102D400090E0938B828B82EC90E0958B848B86EC69
:102D500090E0978B868B118E128E138E148E0895B1
:102D6000CF92DF92EF92FF920F931F93CF93DF9357
:102D70006C017A018B01C0E0D0E0CE15DF0581F057
:102D8000D8016D918D01D601ED91FC910190F081FA
:102D9000E02DC6010995892B11F02196EECF7E0119
:102DA000C701DF91CF911F910F91FF90EF90DF90BE
:102DB000CF9008956115710579F0FB010190002015
:102DC000E9F73197AF01461B570BDC01ED91FC9100
:102DD0000280F381E02D099480E090E00895EF9265
:102DE000FF920F931F93CF93DF938C017B01C0E081
:102DF000D0E0F701EC0FFD1F6491662361F0D8016C
:102E0000ED91FC910190F081E02DC8010995892B8D
:102E100011F02196EECFCE01DF91CF911F910F914E
:102E2000FF90EF9008950C94DA1660E972E00C942C
:102E3000DA160F931F93CF93DF93EC010E94EF16E6
:102E40008C01CE010E941517800F911FDF91CF9149
:102E50001F910F9108950F931F93CF93DF93EC0170
:102E60000E94DA168C01CE010E941517800F911F67
:102E7000DF91CF911F910F9108958F929F92AF9202
:102E8000BF92EF92FF920F931F93CF93DF93CDB733
:102E9000DEB7A1970FB6F894DEBF0FBECDBF7C01A1
:102EA000FA01CB0119A2223008F42AE08E010F5D4D
:102EB0001F4F822E912CA12CB12CBF01A501940192
:102EC0000E94191CF901CA01015011096A3014F459
:102ED000605D01C0695CD8016C93232B242B252BEA
:102EE00061F7B801C7010E94DA16A1960FB6F894EF
:102EF000DEBF0FBECDBFDF91CF911F910F91FF902D
:102F0000EF90BF90AF909F908F900895211531055D
:102F100041F4DC01ED91FC910190F081E02D642FF2
:102F200009940C943D179A01462F50E060E070E040
:102F30000C9486170F931F93CF93DF93EC010E949D
:102F400086178C01CE010E941517800F911FDF910B
:102F5000CF911F910F91089508958230E8F4E82FE2
:102F6000F0E0EE0FFF1FE45FFE4F7183608381305E
:102F700041F0809169008C7F482B40936900E89A6A
:102F8000089580916900837F440F551F440F551F9A
:102F9000482B40936900E99A08951F920F920FB64B
:102FA0000F9211242F933F934F935F936F937F93CF
:102FB0008F939F93AF93BF93EF93FF93E0910C0197
:102FC000F0910D010995FF91EF91BF91AF919F9104
:102FD0008F917F916F915F914F913F912F910F90C2
:102FE0000FBE0F901F9018951F920F920FB60F9261
:102FF00011242F933F934F935F936F937F938F93FE
:103000009F93AF93BF93EF93FF93E0910E01F091E5
:103010000F010995FF91EF91BF91AF919F918F9112
:103020007F916F915F914F913F912F910F900FBEC4
:103030000F901F901895FC01808191810C94D91CF0
:10304000CF93DF93EC0188819981009711F00E9462
:10305000D91C198218821D821C821B821A82DF9160
:10306000CF9108950F931F93CF93DF93EC018B01C2
:103070006F5F7F4F888199810E94621D009731F0B8
:10308000998388831B830A8381E001C080E0DF91FC
:10309000CF911F910F910895CF93DF93EC01888119
:1030A0009981892B29F08A819B818617970760F483
:1030B000CE010E943218882341F08C819D81892B9A
:1030C00019F4E881F981108281E0DF91CF910895B0
:1030D000EF92FF920F931F93CF93DF93EC017B014D
:1030E0008A01BA010E944C18811104C0CE010E94CD
:1030F000201807C01D830C83B701888199810E9425
:10310000411ECE01DF91CF911F910F91FF90EF9063
:103110000895FC011182108213821282158214829A
:103120006115710551F0FB0101900020E9F731971D
:10313000AF01461B570B0C9468180895FC012481BD
:103140003581232B31F421E061157105A1F0FB01DC
:1031500008C0FC01808191816115710531F421E085
:10316000FC018081882339F005C00E94381E21E0CF
:10317000892B09F020E0822F089508950E94841978
:103180000E94BD180E945901CDE1D5E10E941402B0
:103190002097E1F30E941D15F9CF1F920F920FB6F1
:1031A0000F9211242F933F938F939F93AF93BF93CD
:1031B0008091DC049091DD04A091DE04B091DF04E5
:1031C0003091DB0423E0230F2D3720F40196A11D5D
:1031D000B11D05C026E8230F0296A11DB11D209345
:1031E000DB048093DC049093DD04A093DE04B093B1
:1031F000DF048091E0049091E104A091E204B09199
:10320000E3040196A11DB11D8093E0049093E104B5
:10321000A093E204B093E304BF91AF919F918F918B
:103220003F912F910F900FBE0F901F9018952FB7C1
:10323000F8946091DC047091DD048091DE0490913B
:10324000DF042FBF08953FB7F8948091E004909178
:10325000E104A091E204B091E30426B5A89B05C067
:103260002F3F19F00196A11DB11D3FBFBA2FA92F05
:10327000982F8827820F911DA11DB11DBC01CD0182
:1032800042E0660F771F881F991F4A95D1F708956E
:103290008F929F92AF92BF92CF92DF92EF92FF9266
:1032A0006B017C010E9423194B015C01C114D10404
:1032B000E104F10401F10E947C1A0E942319DC014F
:1032C000CB0188199909AA09BB09883E9340A10539
:1032D000B10560F321E0C21AD108E108F10888EED7
:1032E000880E83E0981EA11CB11CC114D104E10416
:1032F000F10419F7DBCFFF90EF90DF90CF90BF90F4
:10330000AF909F908F900895789484B5826084BD2B
:1033100084B5816084BD85B5826085BD85B58160D9
:1033200085BDEEE6F0E0808181608083E1E8F0E039
:103330001082808182608083808181608083E0E868
:10334000F0E0808181608083E1EBF0E08081846047
:103350008083E0EBF0E0808181608083EAE7F0E049
:1033600080818460808380818260808380818160AD
:1033700080838081806880831092C10008958330AB
:1033800081F028F4813099F08230A1F008958730DF
:10339000A9F08830B9F08430D1F4809180008F7D1D
:1033A00003C0809180008F7780938000089584B55A
:1033B0008F7702C084B58F7D84BD08958091B00061
:1033C0008F7703C08091B0008F7D8093B000089507
:1033D000CF93DF9390E0FC01ED5CFE4F2491FC0164
:1033E000E95BFE4F8491882361F190E0880F991F7B
:1033F000FC01E159FE4FC591D491FC01EB59FE4F00
:10340000A591B491611109C09FB7F8948881209566
:1034100082238883EC912E230BC0623061F49FB726
:10342000F8948881322F309583238883EC912E2B5A
:103430002C939FBF06C08FB7F894E8812E2B28836A
:103440008FBFDF91CF9108951F93CF93DF93282FE4
:1034500030E0F901E15EFE4F8491F901ED5CFE4F31
:10346000D491F901E95BFE4FC491CC23C1F0162F32
:1034700081110E94BF19EC2FF0E0EE0FFF1FEB59F6
:10348000FE4FA591B4919FB7F894111104C08C918F
:10349000D095D82302C0EC91DE2BDC939FBFDF9147
:1034A000CF911F910895CF93DF93282F30E0F9013A
:1034B000E15EFE4F8491F901ED5CFE4FD491F9017C
:1034C000E95BFE4FC491CC2391F081110E94BF199A
:1034D000EC2FF0E0EE0FFF1FE55AFE4FA591B491DF
:1034E000EC91ED2381E090E021F480E002C080E0E7
:1034F00090E0DF91CF91089508950E94911A0C9465
:10350000721B0E946B1B58F00E94641B40F029F450
:103510005F3F29F00C945B1B51110C94A61B0C947B
:10352000611B0E94831B68F39923B1F3552391F328
:10353000951B550BBB27AA2762177307840738F022
:103540009F5F5F4F220F331F441FAA1FA9F335D07F
:103550000E2E3AF0E0E832D091505040E695001C33
:10356000CAF72BD0FE2F29D0660F771F881FBB1FED
:10357000261737074807AB07B0E809F0BB0B802DCB
:10358000BF01FF2793585F4F3AF09E3F510578F0F7
:103590000C945B1B0C94A61B5F3FE4F3983ED4F3A2
:1035A000869577956795B795F7959F5FC9F7880FCB
:1035B000911D9695879597F90895E1E0660F771F1D
:1035C000881FBB1F621773078407BA0720F0621BAE
:1035D000730B840BBA0BEE1F88F7E09508950E94D9
:1035E0008B1B88F09F5798F0B92F9927B751B0F0EF
:1035F000E1F0660F771F881F991F1AF0BA95C9F777
:1036000014C0B13091F00E94A51BB1E008950C9454
:10361000A51B672F782F8827B85F39F0B93FCCF307
:10362000869577956795B395D9F73EF490958095F3
:10363000709561957F4F8F4F9F4F0895E89409C013
:1036400097FB3EF490958095709561957F4F8F4FD5
:103650009F4F9923A9F0F92F96E9BB279395F695EB
:10366000879577956795B795F111F8CFFAF4BB0F69
:1036700011F460FF1BC06F5F7F4F8F4F9F4F16C0CD
:10368000882311F096E911C0772321F09EE8872F57
:10369000762F05C0662371F096E8862F70E060E013
:1036A0002AF09A95660F771F881FDAF7880F96958C
:1036B000879597F9089597F99F6780E870E060E033
:1036C00008959FEF80EC089500240A9416161706BB
:1036D00018060906089500240A9412161306140603
:1036E00005060895092E0394000C11F4882352F066
:1036F000BB0F40F4BF2B11F460FF04C06F5F7F4F1E
:103700008F4F9F4F089557FD9058440F551F59F004
:103710005F3F71F04795880F97FB991F61F09F3FBE
:1037200079F087950895121613061406551FF2CFE7
:103730004695F1DF08C0161617061806991FF1CF37
:1037400086957105610508940895E894BB2766275E
:103750007727CB0197F908950E94BF1B0C94721B29
:103760000E94641B38F00E946B1B20F0952311F01F
:103770000C945B1B0C94611B11240C94A61B0E94DF
:10378000831B70F3959FC1F3950F50E0551F629F07
:10379000F001729FBB27F00DB11D639FAA27F00DAA
:1037A000B11DAA1F649F6627B00DA11D661F829FD1
:1037B0002227B00DA11D621F739FB00DA11D621FB6
:1037C000839FA00D611D221F749F3327A00D611DD3
:1037D000231F849F600D211D822F762F6A2F1124B5
:1037E0009F5750409AF0F1F088234AF0EE0FFF1FE8
:1037F000BB1F661F771F881F91505040A9F79E3F3F
:10380000510580F00C945B1B0C94A61B5F3FE4F306
:10381000983ED4F3869577956795B795F795E79594
:103820009F5FC1F7FE2B880F911D9695879597F99D
:103830000895A1E21A2EAA1BBB1BFD010DC0AA1FF1
:10384000BB1FEE1FFF1FA217B307E407F50720F009
:10385000A21BB30BE40BF50B661F771F881F991F84
:103860001A9469F760957095809590959B01AC01CD
:10387000BD01CF010895EE0FFF1F0590F491E02DDB
:1038800009940F931F93CF93DF938230910510F427
:1038900082E090E0E091E604F091E70420E030E07F
:1038A000A0E0B0E0309719F140815181028113818D
:1038B00048175907C8F08417950769F4109731F035
:1038C00012960C93129713961C9327C00093E6044C
:1038D0001093E70422C02115310519F04217530750
:1038E00018F49A01BD01EF01DF01F801DBCF2115CA
:1038F0003105F9F0281B390B2430310580F48A8119
:103900009B816115710521F0FB019383828304C0C3
:103910009093E7048093E604FE01329644C0FE01D2
:10392000E20FF31F81939193225031093983288349
:103930003AC02091E4043091E504232B41F4209116
:103940000201309103013093E5042093E4042091B7
:103950000001309101012115310541F42DB73EB729
:103960004091040150910501241B350BE091E404C2
:10397000F091E504E217F307A0F42E1B3F0B281784
:10398000390778F0AC014E5F5F4F2417350748F0D8
:103990004E0F5F1F5093E5044093E404819391938D
:1039A00002C0E0E0F0E0CF01DF91CF911F910F91D5
:1039B0000895CF93DF93009709F481C0FC013297FB
:1039C00013821282A091E604B091E704109781F46B
:1039D00020813181820F931F2091E4043091E5040E
:1039E0002817390751F5F093E504E093E40467C024
:1039F000ED0120E030E0CE17DF0740F44A815B8123
:103A00009E0141155105F1F0EA01F5CFD383C28340
:103A100040815181840F951FC817D90759F48881B7
:103A20009981840F951F0296918380838A819B815F
:103A3000938382832115310529F4F093E704E09301
:103A4000E6043DC0E901FB83EA8349915991C40F23
:103A5000D51FEC17FD0761F480819181840F951FBC
:103A60000296E90199838883828193819B838A836B
:103A7000E0E0F0E012968D919C911397009719F079
:103A8000FD01DC01F7CF8D919C9111979D012E5F77
:103A90003F4F820F931F2091E4043091E5042817D3
:103AA000390769F4309729F41092E7041092E6047C
:103AB00002C013821282B093E504A093E404DF9164
:103AC000CF910895A0E0B0E0E8E6FDE10C947D21FF
:103AD000EC01009721F4CB010E94411CB4C0FC0111
:103AE000E60FF71F9C0122503109E217F30708F493
:103AF000A8C0D9010D911C91119706171707B0F0B6
:103B00000530110508F49BC0C80104978617970774
:103B100008F495C002501109061B170B019311936D
:103B20006D937C93CF010E94D91C89C05B01A01AC0
:103B3000B10A4C01800E911EA091E604B091E704F9
:103B4000612C712CE12CF12C109709F446C08D9159
:103B50009C911197A815B905B1F56C0142E0C40E0E
:103B6000D11CCA14DB0478F14C018A189B0864014B
:103B700042E0C40ED11C1296BC9012971396AC91E1
:103B8000B5E0CB16D10440F0B282A383918280824B
:103B9000D9016D937C9309C00E5F1F4F800F911F59
:103BA000F90191838083EB2DFA2FE114F10431F0B8
:103BB000D7011396FC93EE93129741C0F093E7045C
:103BC000E093E6043CC06816790608F43C017D01E8
:103BD00012960D90BC91A02DB7CF8091E4049091E6
:103BE000E50488169906E1F466167706C8F4809114
:103BF000000190910101009741F48DB79EB740916B
:103C0000040150910501841B950BE817F907C8F4CE
:103C1000F093E504E093E404F901718360830FC03D
:103C2000CB010E94411C7C01009759F0A801BE0104
:103C30000E94281ECE010E94D91CC70104C0CE01DB
:103C400002C080E090E0CDB7DEB7EEE00C949921A1
:103C5000FB01DC0102C001900D9241505040D8F7A9
:103C60000895DC0101C06D9341505040E0F7089584
:103C7000FB01DC018D91019080190110D9F3990BA2
:103C80000895FB01DC0101900D920020E1F70895F9
:103C9000FB01DC014150504048F001900D920020A2
:103CA000C9F701C01D9241505040E0F70895BB276D
:103CB0004A3031F4992322F4BDE2909581959F4FCB
:103CC0000C94631EBB27FB015527AA27880F991F59
:103CD000AA1FA41710F0A41B83955051B9F7A05D3B
:103CE000AA3308F0A95DA193009779F7B111B193B8
:103CF0001192CB010C949520AEE0B0E0E2E8FEE139
:103D00000C9487210D891E8986E08C831A83098390
:103D10008FEF9FE79E838D83AE01475E5F4F6F8974
:103D2000788DCE0101960E949E1EEF81F885E00FEE
:103D3000F11F10822E96E4E00C94A321ABE0B0E0DA
:103D4000E4EAFEE10C9479216C017B018A01FC011B
:103D500017821682838181FFCCC1CE0101963C017E
:103D6000F6019381F70193FD859193FF81917F0186
:103D7000882309F4BAC1853239F493FD859193FF04
:103D800081917F01853229F4B60190E00E94A5203F
:103D9000E7CF912C212C312CFFE1F315D8F08B3299
:103DA00079F038F4803279F08332A1F4232D206148
:103DB0001DC08D3261F0803369F4232D216016C05F
:103DC000832D8260382EE32DE4603E2E2AC0F32D31
:103DD000F8601DC037FC2DC020ED280F2A3040F0C0
:103DE0008E32B9F436FC81C1232D2064322E19C0E5
:103DF00036FE06C08AE0989E200D1124922E11C036
:103E0000EAE02E9E200D1124222EF32DF0623F2E8B
:103E100008C08C3621F4832D8068382E02C0883685
:103E200041F4F70193FD859193FF81917F01811109
:103E3000B3CF982F9F7D9554933028F40C5F1F4F7C
:103E40009FE399830DC0833631F0833771F083355A
:103E500009F059C021C0F801808189830E5F1F4F8E
:103E600088248394912C530113C02801F2E04F0E53
:103E7000511CF801A080B18036FE03C0692D70E0AE
:103E800002C06FEF7FEFC5010E948A204C018201C2
:103E9000F32DFF773F2E16C0280122E0420E511C61
:103EA000F801A080B18036FE03C0692D70E002C029
:103EB0006FEF7FEFC5010E947F204C01F32DF0686A
:103EC0003F2E820133FC1BC0822D90E0881699069C
:103ED000B0F4B60180E290E00E94A5202A94F4CFCD
:103EE000F50137FC859137FE81915F01B60190E0C5
:103EF0000E94A52021102A9421E0821A91088114A1
:103F0000910471F7E8C0843611F0893641F5F80163
:103F100037FE07C060817181828193810C5F1F4FE2
:103F200008C060817181072E000C880B990B0E5F11
:103F30001F4FF32DFF763F2E97FF09C09095809578
:103F4000709561957F4F8F4F9F4FF0683F2E2AE00D
:103F500030E0A3010E94E120882E861845C08537F5
:103F600031F4232D2F7EB22E2AE030E025C0932D90
:103F7000997FB92E8F36C1F018F4883579F0B5C025
:103F8000803719F0883721F0B0C0E92FE061BE2EEC
:103F9000B4FE0DC0FB2DF460BF2E09C034FE0AC074
:103FA000292F2660B22E06C028E030E005C020E1AF
:103FB00030E002C020E132E0F801B7FE07C06081C6
:103FC0007181828193810C5F1F4F06C06081718176
:103FD00080E090E00E5F1F4FA3010E94E120882E39
:103FE0008618FB2DFF773F2E36FE0DC0232D2E7F2A
:103FF000A22E891458F434FE0BC032FC09C0832D64
:104000008E7EA82E05C0B82CA32C03C0B82C01C0EE
:10401000B92CA4FE0FC0FE01E80DF11D8081803394
:1040200021F49A2D997EA92E09C0A2FE06C0B39450
:10403000B39404C08A2D867809F0B394A3FC11C010
:10404000A0FE06C0B21488F4280C922C9B180EC057
:10405000B21460F4B60180E290E00E94A520B3940F
:10406000F7CFB21418F42B1802C0982C212CA4FE00
:1040700010C0B60180E390E00E94A520A2FE17C008
:10408000A1FC03C088E790E002C088E590E0B6019B
:104090000CC08A2D867859F0A1FE02C08BE201C0C7
:1040A00080E2A7FC8DE2B60190E00E94A520891471
:1040B00038F4B60180E390E00E94A5209A94F7CFEF
:1040C0008A94F301E80DF11D8081B60190E00E9411
:1040D000A5208110F5CF222009F442CEB60180E25E
:1040E00090E00E94A5202A94F6CFF6018681978160
:1040F00002C08FEF9FEF2B96E2E10C949521FC011B
:104100000590615070400110D8F7809590958E0F02
:104110009F1F0895FC016150704001900110D8F775
:10412000809590958E0F9F1F0895DC01FC01672FED
:1041300071917723E1F7329704C07C916D9370837E
:104140006291AE17BF07C8F308950F931F93CF93E3
:10415000DF93FB01238121FD03C08FEF9FEF2CC074
:1041600022FF16C0468157812481358142175307AB
:1041700044F4A081B1819D012F5F3F4F31832083A3
:104180008C93268137812F5F3F4F3783268314C05E
:104190008B01EC01FB010084F185E02D0995892B51
:1041A000E1F6D80116968D919C9117970196179676
:1041B0009C938E931697CE01DF91CF911F910F9113
:1041C0000895FA01AA27283051F1203181F1E894AD
:1041D0006F936E7F6E5F7F4F8F4F9F4FAF4FB1E0FA
:1041E0003ED0B4E03CD0670F781F891F9A1FA11DF5
:1041F000680F791F8A1F911DA11D6A0F711D811DF6
:10420000911DA11D20D009F468943F912AE0269FBA
:1042100011243019305D3193DEF6CF010895462F19
:104220004770405D4193B3E00FD0C9F7F6CF462FFA
:104230004F70405D4A3318F0495D31FD4052419363
:1042400002D0A9F7EACFB4E0A69597958795779520
:104250006795BA95C9F700976105710508959B01A7
:10426000AC010A2E06945795479537952795BA9530
:10427000C9F7620F731F841F951FA01D0895DC01ED
:10428000CB01FC01F999FECF06C0F2BDE1BDF89A61
:10429000319600B40D9241505040B8F70895F99905
:1042A000FECF92BD81BDF89A992780B50895DC01B3
:1042B000A40FB51F4150504048F0CB01840F951F0B
:1042C0002E910E94682141505040D0F70895262F2A
:1042D000F999FECF92BD81BDF89A019700B40216FC
:1042E00039F01FBA20BD0FB6F894FA9AF99A0FBEAA
:1042F00008952F923F924F925F926F927F928F928A
:104300009F92AF92BF92CF92DF92EF92FF920F9364
:104310001F93CF93DF93CDB7DEB7CA1BDB0B0FB66E
:10432000F894DEBF0FBECDBF09942A88398848882B
:104330005F846E847D848C849B84AA84B984C884C1
:10434000DF80EE80FD800C811B81AA81B981CE0FB8
:10435000D11D0FB6F894DEBF0FBECDBFED0108959D
:04436000F894FFCFFF
:104364000000E80480000304FA030104AC17AC174E
:1043740053504920466C61736820496E6974204F1C
:104384004B210053504920466C61736820496E6983
:1043940074204641494C2100312E31004761746537
:1043A400436F6E74726F6C00496E697420646F6E33
:1043B4006500300000000000E4092405E104330A2C
:1043C400AF0AA7063209A604C10646073E06950AA7
:1043D400B804CE04464C583F4E4F4B3A4E4F464CD1
:1043E40041534800464C583F4F4B00464C583F45BC
:1043F4004F4600464C583F00464C583A25753A0003
:10440400464C58494D473A00464C583A25753A4F60
:104414004B00464C583F4E4F4B3A4845583E33317B
:104424006B0054696D656F75742F4572726F722CD1
:104434002065726173696E67207772697474656E42
:104444002064617461202E2E2E20005265616469FF
:104454006E67204E4F444520436F6E666967004384
:104464007573746F6D204E4F444520436F6E6669BB
:10447400670073616D706C65456E63727970744B1F
:10448400657900536176696E67204E4F4445204339
:104494006F6E666967002A20627574746F6E202AD5
:1044A4000053656E64696E67206E6574776F726B16
:1044B4002064617461004578697420696E636C7569
:1044C400646500536176696E6720726164696F2068
:1044D400636F6E66696700474F543A2055000000C9
:1044E40000004D15B0160E159A15E014FA14EC14CC
:1044F4000D0A006E616E00696E66006F76660000DC
:00000001FF
