:100000000C94BF000C9413160C943A160C94E70051
:100010000C94E7000C94E7000C94E7000C94E700C4
:100020000C94E7000C94E7000C94E7000C94E700B4
:100030000C94E7000C94E7000C94E7000C94E700A4
:100040000C9471160C94E7000C9467140C9499149A
:100050000C94E7000C94E7000C94E7000C94E70084
:100060000C94E7000C94E7002E005245424F4F5489
:10007000494E4700464C583F4F4B00494D47203EA4
:100080002033316B2C20746F6F2062696700464CFF
:10009000583F4F4B20726573656E64005D203E20B3
:1000A00000726164696F205B00554E536869667425
:1000B000696E67206368616E6E656C20746F2000E6
:1000C0005368696674696E67206368616E6E656CFB
:1000D00020746F2000464C583F4F4B202841434B23
:1000E0002073656E7429004641494C3A4E4F2046B4
:1000F0004C415348204D454D00444F4E4500464C21
:1001000041534820494D47205452414E534D495385
:1001100053494F4E2053554343455353210A000042
:1001200000000800020100000304070000000000B6
:1001300000000001020408102040800102040810A1
:10014000200102040810200404040404040404022E
:100150000202020202030303030303000000002360
:10016000002600290000000000250028002B0000C8
:10017000000000240027002A00008901C91411246E
:100180001FBECFEFD8E0DEBFCDBF12E0A0E0B1E0F0
:10019000E2E4FAE302C005900D92AA39B107D9F75B
:1001A00024E0AAE9B2E001C01D92A93AB207E1F742
:1001B00010E0CFEBD0E004C02197FE010E94DF19D0
:1001C000CD3BD107C9F70E9462160C941F1D0C94F9
:1001D000000026E040E052EC61E070E083E094E053
:1001E0000E94021488E693E00E940303882319F01A
:1001F00068E071E002C06BE171E083E094E00E948E
:10020000711521E041E061E08CED92E00E94DD0E8D
:1002100040E351E064E371E08CED92E00E94FC1158
:100220006EE371E083E094E00C947115CF92EF924D
:100230000F931F93CF93DF93CDB7DEB72B970FB6F6
:10024000F894DEBF0FBECDBF8DE593E00E94A703FB
:10025000882309F44DC081E591E09A8389838091D8
:100260005F038B83809160038C83809161038D8316
:10027000809162038E83809163038F8380916403F6
:100280008887809165038987809166038A8780913A
:1002900067038B8789E0C82EE12C009168031091D9
:1002A000690320916A0330916B0340916C03509174
:1002B0006D0360916E03CE0101960E94D50C6AE930
:1002C00072E08CED92E00E94920F8C018091790394
:1002D000882339F040E06DE872E08DE593E00E94FC
:1002E000F9080130110521F48AE090E00E94ED0D3B
:1002F0008CED92E00E94490E2B960FB6F894DEBF6B
:100300000FBECDBFDF91CF911F910F91EF90CF9096
:10031000089540E35FEE68E088E693E00E94B00154
:10032000EDE5F3E081E591E0918380838AE08283CB
:1003300082E08383148281E080937E0316828FE1C2
:100340008783108620E04EE0BF018CED92E00C9494
:10035000040E8EBD00000DB407FEFDCF8EB50895CE
:10036000FC0180E585831682608352834183089572
:10037000FC018CB583838DB5848345813681809162
:100380007103882399F02FB7F8948091710381301D
:1003900059F48DB380936F039DB380917003809562
:1003A00089238DBB2FBF02C020936F034CBD3DBD81
:1003B00060E080810C94C817CF93DF93EC0161E07B
:1003C00088810E94C81780917103882361F09FB7CC
:1003D000F8942091710380916F03213019F48DBB43
:1003E0009FBF01C08FBF8B818CBD8C818DBDDF9184
:1003F000CF9108950F931F93CF93DF938C010E94A9
:10040000B8018FE90E94A90180E00E94A901C82FCC
:10041000D0E0DC2FCC2780E00E94A901C82BC801C6
:100420000E94DC01CE01DF91CF911F910F910895C1
:100430001F93CF93DF93EC010E94B80185E00E94E7
:10044000A90180E00E94A901182FCE010E94DC01C1
:10045000812FDF91CF911F9108950E941802817022
:1004600008951F93CF93DF93EC01162F442339F0A7
:1004700040E066E00E943102CE010E94DC011B3A9E
:1004800049F4CE010E94B801812FDF91CF911F91D5
:100490000C94A901CE010E942D028111FBCFF1CF56
:1004A000EF92FF920F931F93CF93DF93EC01042FF2
:1004B000F52EE62E122F41E062E00E9431028E2DD1
:1004C0000E94A9018F2D0E94A901802F0E94A901DD
:1004D000812F0E94A901CE01DF91CF911F910F9131
:1004E000FF90EF900C94DC012F923F924F925F921D
:1004F0006F927F928F929F92AF92BF92CF92DF9234
:10050000EF92FF920F931F93CF93DF936C012A0119
:100510003B0119019A01332780E091E0821B930B84
:10052000812C912C0115110581F1E80180179107AB
:1005300008F4EC0141E062E0C6010E943102862D20
:100540000E94A901852D0E94A901842D0E94A90164
:100550005101A80CB91C7501F70181917F010E941E
:10056000A901C7018A199B098C179D07A8F3C60129
:100570000E94DC014C0E5D1E611C711C8C0E9D1EC8
:100580000C1B1D0B80E091E0CDCFDF91CF911F912F
:100590000F91FF90EF90DF90CF90BF90AF909F9022
:1005A0008F907F906F905F904F903F902F90089525
:1005B000FF920F931F93CF93DF93EC01142F052F1E
:1005C000F62E41E062E50E9431028F2D0E94A901C2
:1005D000802F0E94A901812F0E94A901CE01DF91E5
:1005E000CF911F910F91FF900C94DC01CF93DF937B
:1005F000EC010E94B8018BEA0E94A901CE01DF91B3
:10060000CF910C94DC01CF93DF93EC018CB58B83FD
:100610008DB58C8361E088810E948C170E9436031F
:1006200080E58D831E82CE010E94DC01CE010E94F6
:10063000F60289819A81892B51F0CE010E94FA013C
:1006400029813A818217930711F080E00CC041E0C4
:1006500061E0CE010E94310280E00E94A901CE013A
:100660000E94DC0181E0DF91CF910895CF93CFB755
:10067000F89480917203811127C0E1E5F1E0849143
:10068000EDE3F1E09491E82FF0E0EE0FFF1FE15968
:10069000FE4FA591B491EC91E92321F461E08AE049
:1006A0000E94C81761E08AE00E948C178CB58061B7
:1006B0008CBD8CB580648CBD61E08DE00E948C1790
:1006C00061E08BE00E948C17809172038F5F8093B2
:1006D0007203CFBFCF910895089581E08093750391
:1006E0008091730390917403DC01ED91FC9104847B
:1006F000F585E02D0995109275030895FC01F89495
:100700008CB581878DB582878CB5837F8CBD8CB588
:100710008F7D8CBD8CB58C7F8CBD8DB58E7F8DBD56
:1007200060E082810C94C817CF93DF93EC0161E005
:100730008A810E94C81789858CBD8A858DBD80916C
:100740007503811101C07894DF91CF910895F894D9
:1007500020917E03233021F420917A0321110FC0D0
:1007600020917E03233011F4789407C0DC01ED91D1
:10077000FC910288F389E02D099580E00895DC0161
:10078000ED91FC910488F589E02D61E0099581E007
:100790000895DC01ED91FC910488F589E02D60E07D
:1007A0000994CF93C62FDC01ED91FC910480F58173
:1007B000E02D0995882361F080917C03C81711F022
:1007C000CF3F29F49091780381E0911101C080E03E
:1007D000CF9108953F924F925F926F927F928F9246
:1007E0009F92AF92BF92CF92DF92EF92FF920F93C0
:1007F0001F93CF93DF93EC01162F5A01822E902E78
:10080000312CCE2CD12CE12CF12CE881F9810190F6
:10081000F081E02D01E0282DA501612FCE01099581
:100820000E94BB162B013C010E94BB16DC01CB01D0
:1008300084199509A609B7098C159D05AE05BF0554
:1008400038F4612FCE010E94D103882369F304C0DC
:1008500033949314D0F680E0DF91CF911F910F91E4
:10086000FF90EF90DF90CF90BF90AF909F908F90D0
:100870007F906F905F904F903F9008951F93CF931C
:10088000DF93EC01162FE881F981008CF18DE02DCA
:100890000995812F8F770E94A90180E00E94A9010C
:1008A000182FE881F981028CF38DE02DCE01099596
:1008B000812FDF91CF911F9108950F931F93CF93B5
:1008C000DF938C0167E00E943E04C82F68E0C801F6
:1008D0000E943E04D82F69E0C8010E943E044C2FBC
:1008E00050E060E070E0BA0155274427480F511DE1
:1008F000611D711D8D2F90E0982F88278A019B0123
:10090000080F191F211D311DC901B8010E94C2180D
:1009100020E034E244E752E40E9450190E94931808
:10092000DF91CF911F910F9108950F931F93CF9354
:10093000DF93EC01062F142FE881F981008CF18DF3
:10094000E02D0995802F80680E94A901812F0E94C7
:10095000A901E881F981028CF38DE02DCE01DF91B0
:10096000CF911F910F910994CF92DF92EF92FF9256
:100970001F93CF93DF93EC016A017B0110917E03FB
:10098000143039F4E881F9810488F589E02D63E0B9
:100990000995C701B6010E94C21820E034E244E77D
:1009A00052E40E9421180E9493186B017C01A70158
:1009B0006627772767E0CE010E94950477276F2D81
:1009C0005E2D4D2D68E0CE010E9495044C2D69E00E
:1009D000CE010E949504133041F4E881F981048826
:1009E000F589E02D62E0CE010995E881F98104885E
:1009F000F589E02D612FCE01DF91CF911F91FF90FE
:100A0000EF90DF90CF9009941F93CF93DF932091C5
:100A10007E03261709F45DC0162FEC016230E9F160
:100A200068F4662309F440C0613009F052C061E007
:100A30000E943E04837E482F44603BC06330B9F07F
:100A4000643009F046C061E00E943E04837E482F76
:100A50004C6061E0CE010E9495048885882369F18D
:100A6000E881F9810688F789E02D61E013C061E033
:100A70000E943E04837E482F406161E0CE010E94C7
:100A8000950488858823C9F0E881F9810688F7896B
:100A9000E02D60E0CE01099510C061E00E943E04A7
:100AA000837E482F486005C061E00E943E04482FC5
:100AB000437E61E0CE010E94950480917E03811106
:100AC00006C067E2CE010E943E0487FFF6CF109376
:100AD0007E03DF91CF911F910895CF93DF93EC01B7
:100AE000603208F06FE16F838885882311F0669586
:100AF0006F8361E1CE010E943E04807E9F81482F7A
:100B0000492B61E1CE01DF91CF910C949504CF92F6
:100B1000DF92EF92FF920F931F93CF93DF93EC013D
:100B2000F62ED42EC52E122FE881F9810488F5897E
:100B3000E02D61E0099567E2CE010E943E0487FF47
:100B4000FACF40E065E2CE010E9495041E3308F022
:100B50001DE3E11004C0002321F000E403C000E81D
:100B600001C000E0E881F981008CF18DE02DCE011B
:100B7000099580E80E94A90183E0810F0E94A901E4
:100B80008F2D0E94A9018D810E94A901802F0E94B2
:100B9000A9010D2DED2CFC2C8E2D801B811730F41E
:100BA000F70181917F010E94A901F6CFE881F981C7
:100BB000028CF38DE02DCE010995E881F98104883E
:100BC000F589E02D64E0CE0109950E94BB166B010A
:100BD0007C018B810E94F717892B81F0E881F981D4
:100BE0000488F589E02D61E0CE01DF91CF911F915E
:100BF0000F91FF90EF90DF90CF9009940E94BB1669
:100C0000DC01CB018C199D09AE09BF09883E9340D8
:100C1000A105B105F0F2E2CFCF93DF93EC01109282
:100C20007D0310927C0310927B0310927A03109242
:100C3000790310927803109277031092760368E29A
:100C40000E943E0482FF0AC06DE3CE010E943E0472
:100C5000482F44606DE3CE010E94950440E465E2B4
:100C6000CE010E949504E881F9810488F589E02D80
:100C700063E0CE01DF91CF910994CF92DF92EF92A2
:100C8000FF920F931F93CF93DF93EC018B01E881C9
:100C9000F9810488F589E02D61E0099501151105B8
:100CA000F1F0E881F981008CF18DE02DCE010995FC
:100CB0008EEB0E94A9017801680180E1C80ED11C69
:100CC000F70181917F010E94A901EC14FD04C1F795
:100CD000E881F981028CF38DE02DCE0109956DE359
:100CE000CE010E943E048E7F41E0012B09F440E0DA
:100CF000482B6DE3CE01DF91CF911F910F91FF90B3
:100D0000EF90DF90CF900C9495048F929F92AF92CA
:100D1000BF92CF92DF92EF92FF920F931F93CF93E8
:100D2000DF93CDB7DEB7AE970FB6F894DEBF0FBE38
:100D3000CDBF8C01E42E8EE2AE014F5F5F4F6A01A2
:100D4000DA01E82F1D92EA95E9F791E0998334E002
:100D50003A8342E04B8393E09D834E833F8340E49C
:100D6000488735E039879A8796E09B8793E39C878D
:100D700037E03D8798E09F8799E0998B99E19B8BBD
:100D800092E49C8B55E25D8B4E8B46E24F8B388F05
:100D900038E2398F30E13A8F39E23B8F3CED3C8FBE
:100DA0008D8F88E88E8F8FE28F8F8DE288A380E30E
:100DB00089A337E33BA330E93CA338E33DA39EA3DB
:100DC0009CE39FA39FE898A79DE399A792E19AA728
:100DD0009FE69BA78CA78FEF8DA76F3131F06B3209
:100DE00031F0663531F084EE05C08EE403C08CE648
:100DF00001C089ED8E876F3141F06B3221F066358D
:100E000021F480E003C080E401C080EC888B2AA339
:100E100061E0D80112968C910E94C81761E0F80138
:100E200082810E948C170E9436030E94BB164B01E0
:100E30005C014AEA6FE2C8010E9495046FE2C801B2
:100E40000E943E048A3A61F00E94BB16DC01CB018D
:100E500088199909AA09BB09C297A105B10548F3E8
:100E60000E94BB164B015C0145E56FE2C8010E9480
:100E700095046FE2C8010E943E04853561F00E942E
:100E8000BB16DC01CB0188199909AA09BB09C297D5
:100E9000A105B10548F3F12CF601EF0DF11DEF0DA1
:100EA000F11D60816F3F31F04181C8010E949504BE
:100EB000F394F2CF60E070E0C8010E943D06D801D3
:100EC000ED91FC9111970084F185E02D18966C91BD
:100ED000C8010995D801ED91FC910488F589E02DB0
:100EE00061E0C80109950E94BB164B015C0167E2F5
:100EF000C8010E943E0487FD0CC00E94BB16DC01A5
:100F0000CB0188199909AA09BB09C297A105B105A6
:100F100070F30E94BB16DC01CB0188199909AA095C
:100F2000BB09C297A105B10598F41092750343E07F
:100F300050E06DE673E0F80184810E94F315109390
:100F4000740300937303D8011596EC9281E001C0FD
:100F500080E0AE960FB6F894DEBF0FBECDBFDF9136
:100F6000CF911F910F91FF90EF90DF90CF90BF90A6
:100F7000AF909F908F900895CF93DF93EC01611114
:100F80000DC064E2CE010E943E0490E091958195EF
:100F9000910995958795DF91CF91089541E063E29E
:100FA0000E94950463E2CE010E943E0481FFFACFC5
:100FB000E8CFCF93DF9320917E032330A9F42091D3
:100FC0007A03211111C0EC0160E00E94BC07863A4F
:100FD0009F4F54F4E881F9810488F589E02D61E0A0
:100FE000CE01099581E001C080E0DF91CF910895A5
:100FF000EF92FF921F93CF93DF93EC0180917E03DA
:10100000833001F568E2CE010E943E0482FD28C0D3
:1010100019C080917D038D3330F4E0917D03F0E0C1
:10102000E158FC4F1082E881F981028CF38DE02DAC
:10103000CE010995E881F9810488F589E02D63E006
:10104000CE01099560E0CE010E94BC079093770322
:1010500080937603DF91CF911F91FF90EF900895D9
:10106000E881F9810488F589E02D61E0CE010995D8
:10107000E881F981008CF18DE02DCE01099580E0A9
:101080000E94A90180E00E94A90180937A038091C7
:101090007A038334D0F480917A0380937A0380E0DA
:1010A0000E94A90180937B038E81811109C08091E8
:1010B0007B039D81981721F080917B038F3F39F44A
:1010C00080917A03833018F017C082E4E6CF109243
:1010D0007A03E881F981028CF38DE02DCE01099528
:1010E000E881F9810288F389E02DCE01DF91CF916B
:1010F0001F91FF90EF90099480917A038350809321
:101100007D0380E00E94A90180937C0380E00E941F
:10111000A901982F907890937803982F90749093CA
:101120007903E881F9810684F785E02D682FCE01E7
:10113000099510E080917D03181708F06ACFE12E21
:10114000F12C80E00E94A901F701E158FC4F808357
:101150001F5FF0CF8F929F92AF92BF92CF92DF929C
:10116000EF92FF920F931F93CF93DF93EC01162F13
:101170006A01F22E6DE30E943E04482F44606DE345
:10118000CE010E9495040E94BB164B015C01CE016A
:101190000E94D907811115C00E94BB16DC01CB014A
:1011A00088199909AA09BB09883E9340A105B10590
:1011B00040F4E881F9810480F581E02DCE010995A4
:1011C000E6CFE881F9810088F189E02DE12C2F2D0F
:1011D000A601612FCE010995DF91CF911F910F914B
:1011E000FF90EF90DF90CF90BF90AF909F908F9047
:1011F00008954F925F926F927F92AF92BF92CF927B
:10120000DF92EF92FF920F931F93CF93DF93EC0146
:101210005B01F42E1092790310917C03C090760349
:10122000D09077036DE30E943E04482F44606DE345
:10123000CE010E9495040E94BB162B013C01CE01F9
:101240000E94D907811115C00E94BB16DC01CB0199
:1012500084199509A609B709883E9340A105B105EF
:1012600040F4E881F9810480F581E02DCE010995F3
:10127000E6CF10937C03E881F9810088F189E02DA5
:10128000EE24E39400E02F2DA501612FCE010995F6
:10129000D0927703C0927603DF91CF911F910F9187
:1012A000FF90EF90DF90CF90BF90AF907F906F90C6
:1012B0005F904F9008951F93CF93DF93EC01162F0B
:1012C000611102C045E501C04DE56AE5CE010E940D
:1012D0009504111102C040E701C04CE76CE5CE0156
:1012E000DF91CF911F910C949504CF93DF93EC0184
:1012F0006887611102C04AE101C04FE063E1CE019D
:101300000E9495048885882341F061E1CE010E9406
:101310003E048F71482F406602C04F81406861E1F2
:10132000CE01DF91CF910C949504FC01DB0181E5A6
:1013300091E09183808312968C9112978283139609
:101340008C911397838314968C91149784831596AC
:101350008C911597858316968C9116978683179690
:101360008C911797878318968C9118978087199678
:101370008C91199781871A968C9182870895CF92C4
:10138000DF92EF920F931F93CF93DF93CDB7DEB72A
:1013900027970FB6F894DEBF0FBECDBF6C0109834F
:1013A0001A832B833C834D835E836F83EE2099F0F9
:1013B000CE0101960E94030381110DC04FE06DE63E
:1013C00071E0C6010E94F90867EE70E083E094E0E6
:1013D0000E945F1506C046E06DE771E0C6010E94FD
:1013E000F90827960FB6F894DEBF0FBECDBFDF9188
:1013F000CF911F910F91EF90DF90CF9008950F93B1
:101400001F93CF93DF93CDB7DEB70DB71EB7262F4F
:1014100030E0220F331FA9014F5F5F4FEDB7FEB7DA
:10142000E41BF50B0FB6F894FEBF0FBEEDBF4DB732
:101430005EB74F5F5F4FFA01782FDC018A2F871B61
:10144000861788F48D91982F92959F7090639A33A8
:101450000CF0995D90838F7080638A330CF0895D06
:1014600081833296EBCFFA01E20FF31F1082BA01AB
:1014700083E094E00E9471150FB6F8941EBF0FBE72
:101480000DBFDF91CF911F910F9108952F923F9241
:101490004F925F926F927F928F929F92AF92BF9284
:1014A000CF92DF92EF92FF920F931F93CF93DF9330
:1014B000CDB7DEB7A5970FB6F894DEBF0FBECDBF90
:1014C0004C016DA3EC8EFD8E0E8F1F8F28A339A3C8
:1014D0004AA33C2CACA240E050E0BA01CE014C96AD
:1014E0000E94D80207E010E029E931E040E050E036
:1014F000BA01CE014C960E9474022AE349E050E002
:1015000060E070E0CE014C960E9450020E94BB1633
:101510002B013C019AE0C92ED12CA12CB12CC40185
:101520000E94A703882301F180917C032DA18213DF
:101530001BC060917D036BA3643020F080917F031A
:10154000863409F161E08CA10E948C1761E08CA1C6
:101550000E94C81761E070E080E090E00E94EC1605
:1015600060E08CA10E94C8170E94BB16DC01CB0171
:1015700084199509A609B709893B9B40A105B105C6
:1015800070F280E039C1809180038C34D9F680916B
:1015900081038835B9F6809182038A3309F0A5C0AA
:1015A0006BA1673008F4A1C084E090E000E010E097
:1015B000482FFF24FA94F80EFC01E158FC4F2081DB
:1015C000203308F411C120812A3308F00DC1508165
:1015D0006AE0609F9001619F300D112489010053E2
:1015E0001109050F111D01968830910509F7F42E98
:1015F0003320C1F061EA70E083E094E00E94351589
:101600004AE050E06BA183E094E00E94D9156CE9B8
:1016100070E083E094E00E9435156BA18FE793E0C2
:101620000E94FF09E1E0EF0DF0E0E158FC4F8081FE
:101630008A3309F0A6CF0E94BB162B013C01A016ED
:10164000B10639F0C50101978017910709F04DC027
:1016500027C082E0282E2F0C8FEFA81AB80A9BA172
:101660002916F0F4E22DF0E0E158FC4F20817601DC
:101670006FEFE61AF60AA60160E070E0CE014C9624
:101680000E945002C7019F77892B39F4A70160E0BF
:1016900070E0CE014C960E94D80223946701DFCF00
:1016A0001F930F9381EA91E09F938F9381E090E0E5
:1016B0008C0F9D1F9F938F930E94FB19182F0F90E3
:1016C0000F900F900F900F900F90332039F0BE01C4
:1016D0006F5F7F4F83E094E00E947115412FBE0140
:1016E0006F5F7F4FC4010E94F908809182038F339E
:1016F00009F028CF9BA19430E1F4B401CE014196CA
:101700000E949509EE24E3940C8D1D8D2E8D3F8D46
:1017100048A159A16AA1CE0141960E94BF09332078
:1017200009F410CF6EE870E083E094E00E945F154A
:1017300009CF2BA1273009F005CF80918303853491
:1017400009F000CF809184038F3409F0FBCE8091A3
:101750008503863409F0F6CE86010A50110901305E
:101760006CE7160778F0332031F06BE770E083E028
:1017700094E00E945F154FE06BEA71E0C4010E94A3
:10178000F908FFCEB401CE0141960E94950946E0CA
:101790006DE771E0CE0141960E94F908332031F0E7
:1017A00064E770E083E094E00E945F15212F47E03A
:1017B00050E060E070E0CE014C960E94500226EFAF
:1017C0002C0D48E050E060E070E0CE014C960E94A5
:1017D00050022AE349E050E060E070E0CE014C9610
:1017E0000E94500281E008C020812A3309F0FBCE1C
:1017F000443009F0FDCEC5CEA5960FB6F894DEBFF5
:101800000FBECDBFDF91CF911F910F91FF90EF9051
:10181000DF90CF90BF90AF909F908F907F906F9010
:101820005F904F903F902F9008958F929F92AF922C
:10183000BF92CF92DF92EF92FF920F931F93CF93BD
:10184000DF93CDB7DEB762970FB6F894DEBF0FBE59
:10185000CDBF4C01B62EEC86FD860E871F87288BE8
:10186000398B4A8BDC2CBC01CE0101960E94950974
:10187000EE24E3940C851D852E853F854889598982
:101880006A89CE0101960E94BF09CC20D9F065ED8E
:1018900070E083E094E00E945F1560EC70E083E00C
:1018A00094E00E943515C4010E945D04AB01BC01A7
:1018B000405C5D4B604F7F4F2AE030E083E094E076
:1018C0000E94E015C4010E945D04AB01BC01405CB4
:1018D0005D4B604F7F4FC4010E94B404B401CE0140
:1018E00001960E949509CD2CEC84FD840E851F8500
:1018F000288939894A896B2DCE0101960E94460AB2
:10190000182FDD20A9F069EA70E083E094E00E94DE
:101910003515C4010E945D04AB01BC014054524422
:101920006F4071092AE030E083E094E00E94E01506
:10193000C4010E945D04AB01BC01405452446F409D
:101940007109C4010E94B404812F62960FB6F89405
:10195000DEBF0FBECDBFDF91CF911F910F91FF90E2
:10196000EF90DF90CF90BF90AF909F908F900895B1
:10197000C82F882331F06AE670E083E094E00E948B
:10198000351598E088E10FB6F894A895809360002B
:101990000FBE90936000C11101C0FFCF68E670E0F8
:1019A00083E094E00E943515F6CFAF92BF92CF92BC
:1019B000DF92EF92FF920F931F93CF93DF93CDB7F8
:1019C000DEB762970FB6F894DEBF0FBECDBF0C87AF
:1019D0001D872E873F87488B598B6A8B20917D030B
:1019E000243008F45DC020917F03263409F058C0EC
:1019F000209180032C3409F053C0209181032835B5
:101A000009F04EC0209182032F3309F049C0AC2C5D
:101A1000DE2CB0907C0320917D032730A1F420912F
:101A20008303253481F4209184032F3461F42091C1
:101A30008503263441F400E026E04DE751E06B2DAC
:101A40000E94AA082DC0BC01CE0101960E949509F2
:101A5000CD2CEC84FD840E851F85288939894A891F
:101A60006B2DCE0101960E94150C882359F0DD20C4
:101A700031F06EEF70E083E094E00E9435158D2D1B
:101A80000E94B80CDD2061F06BEB71E083E094E024
:101A90000E94591569EF70E083E094E00E945F15A1
:101AA00062960FB6F894DEBF0FBECDBFDF91CF9127
:101AB0001F910F91FF90EF90DF90CF90BF90AF906C
:101AC0000895DC011B96ED91FC911C97309711F065
:101AD0008C91099480E00895DF92EF92FF920F932A
:101AE0001F93CF93DF938C01F62ED42EE22E0E940B
:101AF000440EEC01892B01F1D11001C0FA80C8011C
:101B0000EE2059F00E94610D882311F0C80105C034
:101B1000888199810E94C9030FC00E94D012F801E8
:101B200046856F2DCE01DF91CF911F910F91FF90D0
:101B3000EF90DF900C94291180E0DF91CF911F91FD
:101B40000F91FF90EF90DF900895CF93DF93FC010A
:101B500083819481A581B681892B8A2B8B2B71F18E
:101B600087819085A185B285481759076A077B0749
:101B700028F0178210861186128608C0841B950BE8
:101B8000A60BB70B87839087A187B2878781908543
:101B9000A185B285892B8A2B8B2BE1F4EF0121E003
:101BA00040E060E0CF010E946C0D8B819C81AD8193
:101BB000BE818F839887A987BA870CC085858823C3
:101BC00049F0158621E040E060E0CF01DF91CF9140
:101BD0000C946C0DDF91CF910895CF93DF93EC01BE
:101BE00061E089E00E948C1761E089E00E94C817DB
:101BF000BE01DD0F880B990B0E94EC1660E089E0B6
:101C0000DF91CF910C94C8170F931F93CF93DF935D
:101C1000EC01FC01E458FD4F88EE93E09183808352
:101C2000D093BD03C093BC03798368832A831A864B
:101C300019861B821C828E0102581D4FF8014083B9
:101C400040E250E06FEF70E0CE01875F9D4F0E9451
:101C5000E51940E250E064E370E0CE01845C9D4F02
:101C60000E94AE1C40E250E06FEF70E0CE01845A5B
:101C70009D4F0E94E51960E0F8018081DF91CF91CE
:101C80001F910F910C948C178091BC039091BD0310
:101C90000895CF92DF92EF92FF921F93CF93DF933D
:101CA000EC0110E0CC24CA94DC2C7601812F90E06A
:101CB00029853A858217930710F010E023C0880F1A
:101CC000991FFE01E80FF91F83859485FC01258586
:101CD000222331F021E040E060E00E946C0D10C052
:101CE000FC0187819085A185B2850097A105B1058A
:101CF00039F08C159D05AE05BF0510F46C017D0112
:101D00001F5FD4CF812F90E029853A8582179307F2
:101D100068F4880F991FFE01E80FF91FB701A601AB
:101D2000838594850E94A50D1F5FECCFC701B60186
:101D3000DF91CF911F91FF90EF90DF90CF900895AA
:101D4000FC01E75DFD4F875C9D4FDB012D91BD01DF
:101D50002193E817F907C9F70895CF93DF93EC01B2
:101D600063E1888199810E943E04682F80E090E0C1
:101D70000E94D61CFE01E55CFD4F608181E090E091
:101D80000E94D61CFE01E65CFD4F608182E090E07F
:101D90000E94D61CFE01E75CFD4F608183E190E06C
:101DA0000E94D61C40E150E063E070E0CE01875D08
:101DB0009D4FDF91CF910C94C61C6F927F928F92B2
:101DC0009F92AF92BF92CF92DF92EF92FF920F93CA
:101DD0001F93CF93DF93EC01662E042F722E80E0C9
:101DE00090E00E94BE1C182FCE01855C9D4F5C01C7
:101DF000DE01A65CBD4F7D01FE01E75CFD4F6F017A
:101E000042974C011F3011F01A3111F5002301F1F6
:101E100064EE71E083E094E00E94711581E090E04F
:101E20000E94BE1CD5018C9382E090E00E94BE1CF3
:101E3000F701808383E190E00E94BE1CD6018C9361
:101E400040E150E063E070E0C4010E94AE1C13C0AA
:101E500068EF71E083E094E00E94711584E6F5017B
:101E6000808386E5D7018C93F60160826BE072E097
:101E7000CE010E94A00ED5012C91F6014081D70120
:101E80006C91888199810E948506B401888199812D
:101E90000E943D061F3051F488819981DC01ED914B
:101EA000FC910084F185E02D61E00995772059F0DF
:101EB000011109C06CE172E083E094E00E947115A9
:101EC000CE010E94AD0E88819981DF91CF911F9143
:101ED0000F91FF90EF90DF90CF90BF90AF909F90C9
:101EE0008F907F906F900C94C903AC0182E0E82F33
:101EF000F0E093E0F595E7959A95E1F7E40FF51F8B
:101F0000E45CFD4F208130E020953095982F97704C
:101F100002C0359527959A95E2F720FF02C08F5FA2
:101F2000E6CF08954F925F926F927F928F929F9229
:101F3000AF92BF92CF92DF92EF92FF920F931F93D7
:101F4000CF93DF9300D000D0CDB7DEB76C01809087
:101F50007D03912C23E0821691040CF463C19091CF
:101F60008003953008F05EC110917C03E12EF12CC6
:101F70008091790321E0811101C020E05B01DB0148
:101F800013962C931397209176033091770316962E
:101F90003C932E93159780917F038F3FC9F5933023
:101FA000B9F520918103203199F50E94BB16698310
:101FB0007A838B839C83CE0101960E948912F6015D
:101FC000808191814091000150910101DC01ED91EE
:101FD000FC910190F081E02D00E027E0612F099550
:101FE00073E0F594E7947A95E1F7CE0CDF1CF601E7
:101FF000E75FFD4F177081E090E001C0880F1A95F0
:10200000EAF7809590818923808383E090E00CC17A
:10201000F6012381222309F47BC08F3F09F078C0A9
:10202000933009F075C020918103233009F070C00E
:102030006CE372E083E094E00E947115C6010E9497
:10204000E512D6018D919C91DC01ED91FC91028409
:10205000F385E02D60E00995F601A080B180D501FF
:10206000ED91FC91828093800E942312F82E0E94B1
:102070001E1268E2E62E02E02F2DAC01612FC50191
:10208000F4010995182FD6018D919C91DC01ED91F9
:10209000FC910284F385E02D6FE10995112309F489
:1020A000B8C0E0910201F09103018581E82FF0E0D2
:1020B00053E0F595E7955A95E1F7EC0DFD1DE45CCD
:1020C000FD4F282F277081E090E001C0880F2A95EE
:1020D000EAF7809590818923808340E250E064E3B1
:1020E00070E0C601845C9D4F0E94C61C61E572E0F1
:1020F00083E094E00E947115F601E75CFD4F21E05A
:1021000041E06081C6010E94DD0EF601138281C0AC
:10211000D5011C9311968C93119712969C9312974C
:102120008091810314968C9314971796EFE7F3E050
:10213000B401635071099F012F57334026173707A9
:1021400024F493819D933196F6CF813109F464C0D4
:10215000843009F464C0C70143E0959587954A959A
:10216000E1F71770F12E8601080F191F075F1D4F49
:10217000F801808190E0809590950F2C02C0959594
:1021800087950A94E2F780FF3DC0F401E258FC4FC6
:102190002081F401E358FC4F808190E0A0E0B0E0A2
:1021A000DC0199278827B22BF401E558FC4F2081E8
:1021B000822BF401E458FC4F2081922B89839A836F
:1021C000AB83BC830E94BB1649805A806B807C80A5
:1021D000DC01CB0184199509A609B709883B9B400E
:1021E000A105B105F8F4F501E80DF91D108281E0B3
:1021F00090E001C0880FFA94EAF7D8019C91892BEE
:102200008C9304C0F501E60FF71F178281E090E080
:102210000BC084E090E008C082E090E005C085E05B
:1022200090E002C080E090E00F900F900F900F9030
:10223000DF91CF911F910F91FF90EF90DF90CF90A2
:10224000BF90AF909F908F907F906F905F904F90D6
:1022500008954F925F926F927F928F929F92AF926A
:10226000BF92CF92DF92EF92FF920F931F93CF9383
:10227000DF93CDB7DEB7C254D1090FB6F894DEBFF5
:102280000FBECDBF6C01B62EE42E442381F110E0C9
:10229000FF24F39432E4A32ECE0101964C010E9458
:1022A0007612D6018D919C914091000150910101CF
:1022B000DC01ED91FC910190F081E02D00E023E044
:1022C0006B2D09950E94BB162B013C01FF2009F4E0
:1022D00068C00E94BB16DC01CB0184199509A609D0
:1022E000B709883E9340A105B105F0F15BC0D60166
:1022F0008D909C90D401ED91FC9162807380E110EF
:1023000002C005E001C003E00E942312182F0E94C2
:102310001E1228E2E22E212FAC016B2DC401F30125
:102320000995182F882391F080917D03882371F0FF
:1023300080917F03853551F481E0D60114968C930A
:1023400062E772E083E094E00E947115F601E75CB9
:10235000FD4F9081F6018281981721F08081918153
:102360000E94C903812F30C0D6018D919C91DC0160
:10237000ED91FC910480F581E02D0995882309F405
:10238000A8CFD401EA2D1D92EA95E9F7B401C60160
:102390000E94920F0297A1F4CE0108960E94491262
:1023A00013E0F12C1F5F133008F479CFFF2009F4FC
:1023B0009ECFF601808191810E94C90380E004C014
:1023C000D6018D919C91F8CFCE5BDF4F0FB6F8947C
:1023D000DEBF0FBECDBFDF91CF911F910F91FF9058
:1023E000EF90DF90CF90BF90AF909F908F907F90B5
:1023F0006F905F904F900895EF92FF921F93CF934D
:10240000DF93EC017A018BE090E00E945E1240E0E5
:102410006A81CE010E942911182FB7018CE090E04B
:102420000E945E1240E06A81CE010E942911812340
:10243000DF91CF911F91FF90EF900895809102015D
:102440009091030108958091BE0390E00895CF9389
:10245000BC01009761F0FC0101900020E9F7319781
:10246000E81BF90BE633F10520F4CE2F03C0C0E0E2
:1024700001C0C6E34C2F50E080910201909103010E
:1024800003960E94EC19E3E0EC0FE093BE03CF91BA
:102490000895BC019091BE03209102013091030187
:1024A00044E050E0F901E90FF11DCF010E94EC1961
:1024B0008091BE038C5F8093BE030895E09102017A
:1024C000F09103019FEF9083E0910201F0910301ED
:1024D00093E09183E0910201F09103018283611501
:1024E000710519F0CB010C9427120895E0910001B9
:1024F000F09101018FEF8083E0910001F0910101E3
:1025000083E08183E0910001F091010180E1828309
:102510000895FC01A0910001B09101018FEF8C930F
:10252000A0910001B091010183E011968C93A091DC
:102530000001B091010181E112968C931297808184
:1025400013968C9313974081518162817381452F3B
:10255000562F672F772740835183628373831496A6
:102560004C9314974081518162817381452F562F7E
:10257000672F7727408351836283738315964C932B
:1025800015974081518162817381452F562F672FA6
:102590007727408351836283738316964C93089503
:1025A000E0910201F0910301DC012C912083E09184
:1025B0000201F091030121E02183E0910201F091F9
:1025C000030111968C91828308950F931F93CF93EB
:1025D000DF93EC01E0910201F09103018FEF808322
:1025E000E0910201F091030183E0818300910201F7
:1025F0001091030184E0F8018283FE01E55CFD4F48
:102600008081F8018383FE01E65CFD4F8081F80143
:102610008483CE010E94750FF8018583C75DDD4F6D
:1026200086E090E02991E0910201F0910301E80F2A
:10263000F91F2083019686319105A1F786E18093E9
:10264000BE03DF91CF911F910F910895FC01918DF1
:10265000228D892F90E0805C9F4F821B91098F73A0
:1026600099270895FC01918D828D981731F0828D04
:10267000E80FF11D858D90E008958FEF9FEF08958D
:10268000FC01918D828D981761F0828DDF01A80F7A
:10269000B11D5D968C91928D9F5F9F73928F90E09C
:1026A00008958FEF9FEF0895FC01538D448D252FE2
:1026B00030E0842F90E0821B930B541710F0CF96DC
:1026C0000895019708958FEB94E1892B49F080E0FC
:1026D00090E0892B29F00E94BF1481110C94000016
:1026E0000895FC01848DDF01A80FB11DA35ABF4FCF
:1026F0002C91848D90E001968F739927848FA68901
:10270000B7892C93A089B1898C91837080648C9354
:10271000938D848D981306C00288F389E02D808103
:102720008F7D80830895EF92FF920F931F93CF9335
:10273000DF93EC0181E0888F9B8D8C8D981305C011
:10274000E889F989808185FD26C0F62E0B8D10E081
:102750000F5F1F4F0F731127E02E8C8DE8120CC0F6
:102760000FB607FCFACFE889F989808185FFF5CF9C
:10277000CE010E947113F1CF8B8DFE01E80FF11D88
:10278000E35AFF4FF0829FB7F8940B8FEA89FB89D9
:10279000808180620AC09FB7F894EE89FF896083C8
:1027A000E889F98980818370806480839FBF81E09C
:1027B00090E0DF91CF911F910F91FF90EF900895DE
:1027C000CF93DF93EC01888D8823C9F0EA89FB89D8
:1027D000808185FD05C0A889B9898C9186FD0FC0CF
:1027E0000FB607FCF5CF808185FFF2CFA889B989A4
:1027F0008C9185FFEDCFCE010E947113E7CFDF9161
:10280000CF910895CF92DF92EF92FF921F93CF93D3
:10281000DF93EC016A017B01122FE889F98982E0DC
:1028200080834115514E61057105B1F060E079E09A
:102830008DE390E0A70196010E94BD19DA01C9015C
:102840000197A109B109B695A795979587959C0120
:10285000211580E13807A8F0E889F989108260E83D
:1028600074E88EE190E0A70196010E94BD19DA019B
:10287000C9010197A109B109B695A79597958795C3
:102880009C01EC85FD853083EE85FF852083188EC5
:10289000EC89FD891083EA89FB89808180618083CE
:1028A000EA89FB89808188608083EA89FB8980814D
:1028B00080688083EA89FB8980818F7D8083DF91B6
:1028C000CF911F91FF90EF90DF90CF9008951F92CE
:1028D0000F920FB60F9211242F938F939F93EF9324
:1028E000FF93E0911304F09114048081E0911904A6
:1028F000F0911A0482FD12C0908180911C048F5FB8
:102900008F7320911D04821751F0E0911C04F0E0B8
:10291000ED5FFB4F958F80931C0401C08081FF9178
:10292000EF919F918F912F910F900FBE0F901F905D
:1029300018951F920F920FB60F9211242F933F9369
:102940004F935F936F937F938F939F93AF93BF93B7
:10295000EF93FF9383E094E00E947113FF91EF9156
:10296000BF91AF919F918F917F916F915F914F91A7
:102970003F912F910F900FBE0F901F90189583E0FD
:1029800094E00E94261321E0892B09F420E0822F95
:102990000895E3E0F4E01382128288EE93E0A0E071
:1029A000B0E084839583A683B7838DE792E091831B
:1029B000808385EC90E09587848784EC90E097870E
:1029C000868780EC90E0918B808B81EC90E0938BFC
:1029D000828B82EC90E0958B848B86EC90E0978BD9
:1029E000868B118E128E138E148E0895CF92DF92E5
:1029F000EF92FF920F931F93CF93DF936C017A01B5
:102A00008B01C0E0D0E0CE15DF0581F0D8016D91DB
:102A10008D01D601ED91FC910190F081E02DC60170
:102A20000995892B11F02196EECF7E01C701DF9128
:102A3000CF911F910F91FF90EF90DF90CF9008956D
:102A40006115710579F0FB0101900020E9F73197DC
:102A5000AF01461B570BDC01ED91FC910280F38125
:102A6000E02D099480E090E00895EF92FF920F939B
:102A70001F93CF93DF938C017B01C0E0D0E0F7017F
:102A8000EC0FFD1F6491662361F0D801ED91FC917C
:102A90000190F081E02DC8010995892B11F0219654
:102AA000EECFCE01DF91CF911F910F91FF90EF906C
:102AB00008950C9420156BE872E00C9420150F9388
:102AC0001F93CF93DF93EC010E9435158C01CE014B
:102AD0000E945B15800F911FDF91CF911F910F9185
:102AE00008950F931F93CF93DF93EC010E9420155D
:102AF0008C01CE010E945B15800F911FDF91CF9159
:102B00001F910F9108958F929F92AF92BF92EF9273
:102B1000FF920F931F93CF93DF93CDB7DEB7A197AB
:102B20000FB6F894DEBF0FBECDBF7C01FA01CB011A
:102B300019A2223008F42AE08E010F5D1F4F822E69
:102B4000912CA12CB12CBF01A50194010E94BD19AB
:102B5000F901CA01015011096A3014F4605D01C025
:102B6000695CD8016C93232B242B252B61F7B801CA
:102B7000C7010E942015A1960FB6F894DEBF0FBEC4
:102B8000CDBFDF91CF911F910F91FF90EF90BF903C
:102B9000AF909F908F9008952115310541F4DC018D
:102BA000ED91FC910190F081E02D642F09940C943B
:102BB00083159A01462F50E060E070E00C94CC152C
:102BC0000F931F93CF93DF93EC010E94CC158C01E0
:102BD000CE010E945B15800F911FDF91CF911F9155
:102BE0000F91089508958230E8F4E82FF0E0EE0F99
:102BF000FF1FEC5FFE4F71836083813041F0809155
:102C000069008C7F482B40936900E89A0895809171
:102C10006900837F440F551F440F551F482B409375
:102C20006900E99A08951F920F920FB60F9211242E
:102C30002F933F934F935F936F937F938F939F93C4
:102C4000AF93BF93EF93FF93E0910401F0910501DF
:102C50000995FF91EF91BF91AF919F918F917F91D6
:102C60006F915F914F913F912F910F900FBE0F90F9
:102C70001F9018951F920F920FB60F9211242F9349
:102C80003F934F935F936F937F938F939F93AF93F4
:102C9000BF93EF93FF93E0910601F091070109952F
:102CA000FF91EF91BF91AF919F918F917F916F9124
:102CB0005F914F913F912F910F900FBE0F901F90FA
:102CC000189508950E9428170E9461160E94E90035
:102CD000C3E6D3E10E9416012097E1F30E9463133B
:102CE000F9CF1F920F920FB60F9211242F933F939B
:102CF0008F939F93AF93BF938091A1049091A2046F
:102D0000A091A304B091A4043091A00423E0230F68
:102D10002D3720F40196A11DB11D05C026E8230F13
:102D20000296A11DB11D2093A0048093A10490934D
:102D3000A204A093A304B093A4048091A50490914D
:102D4000A604A091A704B091A8040196A11DB11DED
:102D50008093A5049093A604A093A704B093A8041D
:102D6000BF91AF919F918F913F912F910F900FBE87
:102D70000F901F9018952FB7F8946091A10470914F
:102D8000A2048091A3049091A4042FBF08953FB79B
:102D9000F8948091A5049091A604A091A704B09105
:102DA000A80426B5A89B05C02F3F19F00196A11DC8
:102DB000B11D3FBFBA2FA92F982F8827820F911DD1
:102DC000A11DB11DBC01CD0142E0660F771F881F18
:102DD000991F4A95D1F708958F929F92AF92BF9213
:102DE000CF92DF92EF92FF926B017C010E94C71697
:102DF0004B015C01C114D104E104F10401F10E9412
:102E000020180E94C716DC01CB0188199909AA096C
:102E1000BB09883E9340A105B10560F321E0C21AC9
:102E2000D108E108F10888EE880E83E0981EA11C05
:102E3000B11CC114D104E104F10419F7DBCFFF90F8
:102E4000EF90DF90CF90BF90AF909F908F900895BC
:102E5000789484B5826084BD84B5816084BD85B575
:102E6000826085BD85B5816085BDEEE6F0E080813C
:102E700081608083E1E8F0E010828081826080835D
:102E8000808181608083E0E8F0E0808181608083E0
:102E9000E1EBF0E0808184608083E0EBF0E0808112
:102EA00081608083EAE7F0E08081846080838081B4
:102EB000826080838081816080838081806880835C
:102EC0001092C1000895833081F028F4813099F088
:102ED0008230A1F008958730A9F08830B9F08430AD
:102EE000D1F4809180008F7D03C0809180008F7726
:102EF00080938000089584B58F7702C084B58F7D5C
:102F000084BD08958091B0008F7703C08091B00098
:102F10008F7D8093B0000895CF93DF9390E0FC0104
:102F2000ED5CFE4F2491FC01E95BFE4F8491882308
:102F300061F190E0880F991FFC01E159FE4FC591A6
:102F4000D491FC01EB59FE4FA591B491611109C0D8
:102F50009FB7F8948881209582238883EC912E2353
:102F60000BC0623061F49FB7F8948881322F30959E
:102F700083238883EC912E2B2C939FBF06C08FB7A1
:102F8000F894E8812E2B28838FBFDF91CF9108958D
:102F90001F93CF93DF93282F30E0F901E15EFE4FBE
:102FA0008491F901ED5CFE4FD491F901E95BFE4F8C
:102FB000C491CC23C1F0162F81110E946317EC2F0E
:102FC000F0E0EE0FFF1FEB59FE4FA591B4919FB7B4
:102FD000F894111104C08C91D095D82302C0EC91C3
:102FE000DE2BDC939FBFDF91CF911F910895CF938C
:102FF000DF93282F30E0F901E15EFE4F8491F90163
:10300000ED5CFE4FD491F901E95BFE4FC491CC23F6
:1030100091F081110E946317EC2FF0E0EE0FFF1F7B
:10302000E55AFE4FA591B491EC91ED2381E090E03B
:1030300021F480E002C080E090E0DF91CF9108951C
:1030400008950E9435180C9416190E940F1958F013
:103050000E94081940F029F45F3F29F00C94FF18F2
:1030600051110C944A190C9405190E94271968F300
:103070009923B1F3552391F3951B550BBB27AA2731
:1030800062177307840738F09F5F5F4F220F331F6B
:10309000441FAA1FA9F335D00E2E3AF0E0E832D033
:1030A00091505040E695001CCAF72BD0FE2F29D036
:1030B000660F771F881FBB1F261737074807AB0708
:1030C000B0E809F0BB0B802DBF01FF2793585F4F7D
:1030D0003AF09E3F510578F00C94FF180C944A1971
:1030E0005F3FE4F3983ED4F3869577956795B7955F
:1030F000F7959F5FC9F7880F911D9695879597F96A
:103100000895E1E0660F771F881FBB1F62177307E2
:103110008407BA0720F0621B730B840BBA0BEE1FF7
:1031200088F7E09508950E942F1988F09F5798F02E
:10313000B92F9927B751B0F0E1F0660F771F881FBC
:10314000991F1AF0BA95C9F714C0B13091F00E94D6
:103150004919B1E008950C944919672F782F8827F1
:10316000B85F39F0B93FCCF3869577956795B395FD
:10317000D9F73EF490958095709561957F4F8F4F6C
:103180009F4F0895E89409C097FB3EF49095809571
:10319000709561957F4F8F4F9F4F9923A9F0F92F1D
:1031A00096E9BB279395F695879577956795B7959B
:1031B000F111F8CFFAF4BB0F11F460FF1BC06F5F81
:1031C0007F4F8F4F9F4F16C0882311F096E911C093
:1031D000772321F09EE8872F762F05C0662371F0B4
:1031E00096E8862F70E060E02AF09A95660F771FC8
:1031F000881FDAF7880F9695879597F9089597F9BC
:103200009F6780E870E060E008959FEF80EC08958C
:1032100000240A94161617061806090608950024B5
:103220000A9412161306140605060895092E03942F
:10323000000C11F4882352F0BB0F40F4BF2B11F4A3
:1032400060FF04C06F5F7F4F8F4F9F4F089557FD02
:103250009058440F551F59F05F3F71F04795880F04
:1032600097FB991F61F09F3F79F08795089512169B
:1032700013061406551FF2CF4695F1DF08C0161647
:1032800017061806991FF1CF8695710561050894F8
:103290000895E894BB2766277727CB0197F908950F
:1032A0000E9463190C9416190E94081938F00E94A4
:1032B0000F1920F0952311F00C94FF180C940519A8
:1032C00011240C944A190E94271970F3959FC1F399
:1032D000950F50E0551F629FF001729FBB27F00DC4
:1032E000B11D639FAA27F00DB11DAA1F649F662719
:1032F000B00DA11D661F829F2227B00DA11D621F68
:10330000739FB00DA11D621F839FA00D611D221F21
:10331000749F3327A00D611D231F849F600D211D05
:10332000822F762F6A2F11249F5750409AF0F1F088
:1033300088234AF0EE0FFF1FBB1F661F771F881FF1
:1033400091505040A9F79E3F510580F00C94FF1812
:103350000C944A195F3FE4F3983ED4F38695779531
:103360006795B795F795E7959F5FC1F7FE2B880F97
:10337000911D9695879597F90895A1E21A2EAA1B9B
:10338000BB1BFD010DC0AA1FBB1FEE1FFF1FA21715
:10339000B307E407F50720F0A21BB30BE40BF50B12
:1033A000661F771F881F991F1A9469F7609570959B
:1033B000809590959B01AC01BD01CF010895EE0F62
:1033C000FF1F0590F491E02D0994DC0101C06D937D
:1033D00041505040E0F70895FB01DC01415050405E
:1033E00048F001900D920020C9F701C01D92415094
:1033F0005040E0F70895AEE0B0E0E1E0FAE10C946F
:10340000F61C0D891E8986E08C831A8309838FEF51
:103410009FE79E838D83AE01475E5F4F6F89788DF6
:10342000CE0101960E941D1AEF81F885E00FF11F71
:1034300010822E96E4E00C94121DABE0B0E0E3E2C3
:10344000FAE10C94E81C6C017B018A01FC011782F3
:103450001682838181FFCCC1CE0101963C01F60129
:103460009381F70193FD859193FF81917F018823DB
:1034700009F4BAC1853239F493FD859193FF8191A6
:103480007F01853229F4B60190E00E94141CE7CF39
:10349000912C212C312CFFE1F315D8F08B3279F0EF
:1034A00038F4803279F08332A1F4232D20611DC0DD
:1034B0008D3261F0803369F4232D216016C0832D95
:1034C0008260382EE32DE4603E2E2AC0F32DF86092
:1034D0001DC037FC2DC020ED280F2A3040F08E3261
:1034E000B9F436FC81C1232D2064322E19C036FE7A
:1034F00006C08AE0989E200D1124922E11C0EAE0A9
:103500002E9E200D1124222EF32DF0623F2E08C096
:103510008C3621F4832D8068382E02C0883641F421
:10352000F70193FD859193FF81917F018111B3CFC5
:10353000982F9F7D9554933028F40C5F1F4F9FE385
:1035400099830DC0833631F0833771F0833509F0EC
:1035500059C021C0F801808189830E5F1F4F8824E4
:103560008394912C530113C02801F2E04F0E511C9B
:10357000F801A080B18036FE03C0692D70E002C062
:103580006FEF7FEFC5010E94091C4C018201F32DF2
:10359000FF773F2E16C0280122E0420E511CF80191
:1035A000A080B18036FE03C0692D70E002C06FEFCD
:1035B0007FEFC5010E94FE1B4C01F32DF0683F2EEA
:1035C000820133FC1BC0822D90E088169906B0F46E
:1035D000B60180E290E00E94141C2A94F4CFF50119
:1035E00037FC859137FE81915F01B60190E00E9422
:1035F000141C21102A9421E0821A9108811491044C
:1036000071F7E8C0843611F0893641F5F80137FECC
:1036100007C060817181828193810C5F1F4F08C058
:1036200060817181072E000C880B990B0E5F1F4F74
:10363000F32DFF763F2E97FF09C0909580957095EA
:1036400061957F4F8F4F9F4FF0683F2E2AE030E00B
:10365000A3010E94501C882E861845C0853731F47E
:10366000232D2F7EB22E2AE030E025C0932D997FA6
:10367000B92E8F36C1F018F4883579F0B5C080378F
:1036800019F0883721F0B0C0E92FE061BE2EB4FEFA
:103690000DC0FB2DF460BF2E09C034FE0AC0292FD7
:1036A0002660B22E06C028E030E005C020E130E000
:1036B00002C020E132E0F801B7FE07C060817181ED
:1036C000828193810C5F1F4F06C06081718180E011
:1036D00090E00E5F1F4FA3010E94501C882E861899
:1036E000FB2DFF773F2E36FE0DC0232D2E7FA22E01
:1036F000891458F434FE0BC032FC09C0832D8E7E31
:10370000A82E05C0B82CA32C03C0B82C01C0B92C1E
:10371000A4FE0FC0FE01E80DF11D8081803321F46D
:103720009A2D997EA92E09C0A2FE06C0B394B39427
:1037300004C08A2D867809F0B394A3FC11C0A0FEC2
:1037400006C0B21488F4280C922C9B180EC0B21438
:1037500060F4B60180E290E00E94141CB394F7CFAD
:10376000B21418F42B1802C0982C212CA4FE10C0FF
:10377000B60180E390E00E94141CA2FE17C0A1FCD9
:1037800003C088E790E002C088E590E0B6010CC075
:103790008A2D867859F0A1FE02C08BE201C080E23A
:1037A000A7FC8DE2B60190E00E94141C891438F445
:1037B000B60180E390E00E94141C9A94F7CF8A949B
:1037C000F301E80DF11D8081B60190E00E94141C08
:1037D0008110F5CF222009F442CEB60180E290E0BC
:1037E0000E94141C2A94F6CFF6018681978102C0AC
:1037F0008FEF9FEF2B96E2E10C94041DFC010590E6
:10380000615070400110D8F7809590958E0F9F1FE2
:103810000895FC016150704001900110D8F7809527
:1038200090958E0F9F1F08950F931F93CF93DF9353
:10383000FB01238121FD03C08FEF9FEF2CC022FFEE
:1038400016C046815781248135814217530744F4BD
:10385000A081B1819D012F5F3F4F318320838C93E5
:10386000268137812F5F3F4F3783268314C08B011A
:10387000EC01FB010084F185E02D0995892BE1F62F
:10388000D80116968D919C911797019617969C9347
:103890008E931697CE01DF91CF911F910F910895CE
:1038A000FA01AA27283051F1203181F1E8946F9371
:1038B0006E7F6E5F7F4F8F4F9F4FAF4FB1E03ED017
:1038C000B4E03CD0670F781F891F9A1FA11D680FB5
:1038D000791F8A1F911DA11D6A0F711D811D911DE8
:1038E000A11D20D009F468943F912AE0269F11245D
:1038F0003019305D3193DEF6CF010895462F4770C1
:10390000405D4193B3E00FD0C9F7F6CF462F4F701B
:10391000405D4A3318F0495D31FD4052419302D079
:10392000A9F7EACFB4E0A69597958795779567951F
:10393000BA95C9F700976105710508959B01AC011F
:103940000A2E06945795479537952795BA95C9F746
:10395000620F731F841F951FA01D0895DC01CB010A
:10396000FC01F999FECF06C0F2BDE1BDF89A31968F
:1039700000B40D9241505040B8F70895F999FECF28
:1039800092BD81BDF89A992780B50895DC01A40FF6
:10399000B51F4150504048F0CB01840F951F2E9128
:1039A0000E94D71C41505040D0F70895262FF99916
:1039B000FECF92BD81BDF89A019700B4021639F08E
:1039C0001FBA20BD0FB6F894FA9AF99A0FBE08955F
:1039D0002F923F924F925F926F927F928F929F921F
:1039E000AF92BF92CF92DF92EF92FF920F931F930D
:1039F000CF93DF93CDB7DEB7CA1BDB0B0FB6F894BE
:103A0000DEBF0FBECDBF09942A88398848885F84FD
:103A10006E847D848C849B84AA84B984C884DF806E
:103A2000EE80FD800C811B81AA81B981CE0FD11D52
:103A30000FB6F894DEBF0FBECDBFED010895F89428
:023A4000FFCFB6
:103A4200BF03C603F215F21553504920466C617349
:103A52006820496E6974204F4B210053504920461B
:103A62006C61736820496E6974204641494C21009B
:103A7200312E3000456D7074794E6F6465004E4F83
:103A8200444520696E697420646F6E650000000011
:103A920000AA08EA03A703F90875096D05F8076C7F
:103AA2000387050C0604055B097E039403464C5804
:103AB2003F4E4F4B3A4E4F464C41534800464C58AE
:103AC2003F4F4B00464C583F454F4600464C583FEF
:103AD20000464C583A25753A00464C58494D473AEB
:103AE20000464C583A25753A4F4B00464C583F4ECB
:103AF2004F4B3A4845583E33316B0054696D656F00
:103B020075742F4572726F722C2065726173696EC3
:103B120067207772697474656E2064617461202E07
:103B22002E2E200052656164696E67204E4F444517
:103B320020436F6E66696700437573746F6D204E24
:103B42004F444520436F6E6669670073616D706C08
:103B520065456E63727970744B657900536176695D
:103B62006E67204E4F444520436F6E666967002A98
:103B720020627574746F6E202A00310053656E6482
:103B8200696E67206E6574776F726B206461746111
:103B9200004578697420696E636C756465005361D1
:103BA20076696E6720726164696F20636F6E666901
:103BB2006700474F543A205500000000009313F667
:103BC200145413E0132613401332130D0A006E61CE
:0A3BD2006E00696E66006F766600F3
:00000001FF
