:100000000C94BF000C94FB160C9422170C94E70080
:100010000C94E7000C94E7000C94E7000C94E700C4
:100020000C94E7000C94E7000C94E7000C94E700B4
:100030000C94E7000C94E7000C94E7000C94E700A4
:100040000C94FB170C94E7000C944F150C9481153D
:100050000C94E7000C94E7000C94E7000C94E70084
:100060000C94E7000C94E7002E005245424F4F5489
:10007000494E4700464C583F4F4B00494D47203EA4
:100080002033316B2C20746F6F2062696700464CFF
:10009000583F4F4B20726573656E64005D203E20B3
:1000A00000726164696F205B00554E536869667425
:1000B000696E67206368616E6E656C20746F2000E6
:1000C0005368696674696E67206368616E6E656CFB
:1000D00020746F2000464C583F4F4B202841434B23
:1000E0002073656E7429004641494C3A4E4F2046B4
:1000F0004C415348204D454D00444F4E4500464C21
:1001000041534820494D47205452414E534D495385
:1001100053494F4E2053554343455353210A000042
:1001200000000800020100000304070000000000B6
:1001300000000001020408102040800102040810A1
:10014000200102040810200404040404040404022E
:100150000202020202030303030303000000002360
:10016000002600290000000000250028002B0000C8
:10017000000000240027002A0000F301B11511241B
:100180001FBECFEFD8E0DEBFCDBF12E0A0E0B1E0F0
:10019000E6E5F1E402C005900D92AC39B107D9F75C
:1001A00024E0ACE9B2E001C01D92A23CB207E1F745
:1001B00010E0CFEBD0E004C02197FE010E94691B44
:1001C000CD3BD107C9F70E94EC170C94A9200C94E1
:1001D00000006091EE028FEE92E00E94501081E0EC
:1001E000089526E040E052EC61E070E088E194E0A0
:1001F0000E94EA148DE793E00E948603882319F099
:100200006EE071E002C061E271E088E194E00E947A
:10021000591621E041E061E08FEE92E00E949D0FCF
:1002200046E351E06AE371E08FEE92E00E94C31270
:1002300043E050E061E08FEE92E00E94E512109200
:10024000EC0221E040E060E08EED92E00E941A0EA8
:1002500061E086E00E9416196091EE0286E00E943D
:10026000521964E471E088E194E00C9459162091ED
:10027000EE022093ED0268E371E00E94CC1791E05A
:10028000811101C090E09093EE0221E040E060E037
:100290008EED92E00E941A0E882329F06091EE0202
:1002A00086E00C9452198091ED028093EE0208953D
:1002B000CF93DF9300D000D000D0CDB7DEB78091D0
:1002C0009E02813091F48091A002823071F463EA41
:1002D00072E0CE0101960E94B717CE0101960E94EE
:1002E0003701CE0101960E94491726960FB6F89461
:1002F000DEBF0FBECDBFDF91CF910895CF92EF92B9
:100300000F931F93CF93DF93CDB7DEB72B970FB625
:10031000F894DEBF0FBECDBF82E793E00E942A04AF
:10032000882309F44FC082E591E09A838983809104
:1003300074038B83809175038C83809176038D8306
:10034000809177038E83809178038F8380917903E6
:10035000888780917A03898780917B038A8780913F
:100360007C038B8789E0C82EE12C00917D031091DE
:100370007E0320917F03309180034091810350914F
:10038000820360918303CE0101960E94580D6CE9AF
:1003900072E08FEE92E00E9459108C0180918E03E2
:1003A000882339F040E06EE872E082E793E00E9433
:1003B0007C090130110531F48AE090E00E949B0E27
:1003C0000E9458018FEE92E00E94090F2B960FB603
:1003D000F894DEBF0FBECDBFDF91CF911F910F917B
:1003E000EF90CF900895EF92FF920F931F9340E309
:1003F0005FEE68E08DE793E00E943302E2E7F3E00E
:1004000082E591E0918380838AE0828382E0838326
:10041000148281E08093930316828FE18783108694
:1004200020E04EE0BF018FEE92E00E94B20E80917C
:10043000EE028093ED02E12CF12C870129EE30E0F1
:1004400042E050E061E08EED92E00E94E40D1F91E9
:100450000F91FF90EF9008958EBD00000DB407FE40
:10046000FDCF8EB50895FC0180E5858316826083FB
:10047000528341830895FC018CB583838DB58483B9
:100480004581368180918603882399F02FB7F894AF
:1004900080918603813059F48DB3809384039DB39A
:1004A00080918503809589238DBB2FBF02C0209347
:1004B00084034CBD3DBD60E080810C945219CF9304
:1004C000DF93EC0161E088810E94521980918603DC
:1004D000882361F09FB7F89420918603809184036C
:1004E000213019F48DBB9FBF01C08FBF8B818CBDA4
:1004F0008C818DBDDF91CF9108950F931F93CF9382
:10050000DF938C010E943B028FE90E942C0280E065
:100510000E942C02C82FD0E0DC2FCC2780E00E9464
:100520002C02C82BC8010E945F02CE01DF91CF913F
:100530001F910F9108951F93CF93DF93EC010E94B9
:100540003B0285E00E942C0280E00E942C02182FC2
:10055000CE010E945F02812FDF91CF911F910895FC
:100560000E949B02817008951F93CF93DF93EC014B
:10057000162F442339F040E066E00E94B402CE0119
:100580000E945F021B3A49F4CE010E943B02812F78
:10059000DF91CF911F910C942C02CE010E94B002EA
:1005A0008111FBCFF1CFEF92FF920F931F93CF9367
:1005B000DF93EC01042FF52EE62E122F41E062E0CE
:1005C0000E94B4028E2D0E942C028F2D0E942C02BC
:1005D000802F0E942C02812F0E942C02CE01DF91DD
:1005E000CF911F910F91FF90EF900C945F022F928B
:1005F0003F924F925F926F927F928F929F92AF92B3
:10060000BF92CF92DF92EF92FF920F931F93CF93FF
:10061000DF936C012A013B0119019A01332780E025
:1006200091E0821B930B812C912C0115110581F116
:10063000E8018017910708F4EC0141E062E0C6018F
:100640000E94B402862D0E942C02852D0E942C024D
:10065000842D0E942C025101A80CB91C7501F701D0
:1006600081917F010E942C02C7018A199B098C1776
:100670009D07A8F3C6010E945F024C0E5D1E611C1F
:10068000711C8C0E9D1E0C1B1D0B80E091E0CDCFCC
:10069000DF91CF911F910F91FF90EF90DF90CF905E
:1006A000BF90AF909F908F907F906F905F904F9092
:1006B0003F902F900895FF920F931F93CF93DF9356
:1006C000EC01142F052FF62E41E062E50E94B402E2
:1006D0008F2D0E942C02802F0E942C02812F0E94BD
:1006E0002C02CE01DF91CF911F910F91FF900C94BE
:1006F0005F02CF93DF93EC010E943B028BEA0E94E2
:100700002C02CE01DF91CF910C945F02CF93DF9347
:10071000EC018CB58B838DB58C8361E088810E9460
:1007200016190E94B90380E58D831E82CE010E94B6
:100730005F02CE010E94790389819A81892B51F051
:10074000CE010E947D0229813A818217930711F020
:1007500080E00CC041E061E0CE010E94B40280E084
:100760000E942C02CE010E945F0281E0DF91CF91B6
:100770000895CF93CFB7F89480918703811127C054
:10078000E1E5F1E08491EDE3F1E09491E82FF0E010
:10079000EE0FFF1FE159FE4FA591B491EC91E923B3
:1007A00021F461E08AE00E94521961E08AE00E942F
:1007B00016198CB580618CBD8CB580648CBD61E0F0
:1007C0008DE00E94161961E08BE00E94161980915D
:1007D00087038F5F80938703CFBFCF9108950895DC
:1007E00081E080938A038091880390918903DC01E2
:1007F000ED91FC910484F585E02D099510928A0312
:100800000895FC01F8948CB581878DB582878CB5ED
:10081000837F8CBD8CB58F7D8CBD8CB58C7F8CBD62
:100820008DB58E7F8DBD60E082810C945219CF937F
:10083000DF93EC0161E08A810E94521989858CBDA9
:100840008A858DBD80918A03811101C07894DF91E2
:10085000CF910895F89420919303233021F42091AF
:100860008F0321110FC020919303233011F478944A
:1008700007C0DC01ED91FC910288F389E02D099518
:1008800080E00895DC01ED91FC910488F589E02D6C
:1008900061E0099581E00895DC01ED91FC91048807
:1008A000F589E02D60E00994CF93C62FDC01ED912E
:1008B000FC910480F581E02D0995882361F08091F9
:1008C0009103C81711F0CF3F29F490918D0381E077
:1008D000911101C080E0CF9108953F924F925F92B5
:1008E0006F927F928F929F92AF92BF92CF92DF9240
:1008F000EF92FF920F931F93CF93DF93EC01162F8C
:100900005A01822E902E312CCE2CD12CE12CF12CA0
:10091000E881F9810190F081E02D01E0282DA50109
:10092000612FCE0109950E9445182B013C010E94C0
:100930004518DC01CB0184199509A609B7098C1566
:100940009D05AE05BF0538F4612FCE010E94540409
:10095000882369F304C033949314D0F680E0DF91C8
:10096000CF911F910F91FF90EF90DF90CF90BF90AC
:10097000AF909F908F907F906F905F904F903F903F
:1009800008951F93CF93DF93EC01162FE881F9812F
:10099000008CF18DE02D0995812F8F770E942C021C
:1009A00080E00E942C02182FE881F981028CF38DDF
:1009B000E02DCE010995812FDF91CF911F910895F0
:1009C0000F931F93CF93DF938C0167E00E94C104C4
:1009D000C82F68E0C8010E94C104D82F69E0C8018F
:1009E0000E94C1044C2F50E060E070E0BA0155272E
:1009F0004427480F511D611D711D8D2F90E0982FC8
:100A000088278A019B01080F191F211D311DC9016B
:100A1000B8010E944C1A20E034E244E752E40E94FC
:100A2000DA1A0E941D1ADF91CF911F910F9108953C
:100A30000F931F93CF93DF93EC01062F142FE881C0
:100A4000F981008CF18DE02D0995802F80680E943E
:100A50002C02812F0E942C02E881F981028CF38DF7
:100A6000E02DCE01DF91CF911F910F910994CF928C
:100A7000DF92EF92FF921F93CF93DF93EC016A0115
:100A80007B0110919303143039F4E881F9810488D3
:100A9000F589E02D63E00995C701B6010E944C1A63
:100AA00020E034E244E752E40E94AB190E941D1A90
:100AB0006B017C01A7016627772767E0CE010E94C2
:100AC000180577276F2D5E2D4D2D68E0CE010E9411
:100AD00018054C2D69E0CE010E941805133041F431
:100AE000E881F9810488F589E02D62E0CE0109955D
:100AF000E881F9810488F589E02D612FCE01DF912D
:100B0000CF911F91FF90EF90DF90CF9009941F93AA
:100B1000CF93DF9320919303261709F45DC0162F1E
:100B2000EC016230E9F168F4662309F440C06130F9
:100B300009F052C061E00E94C104837E482F4460E6
:100B40003BC06330B9F0643009F046C061E00E94F8
:100B5000C104837E482F4C6061E0CE010E941805DD
:100B60008885882369F1E881F9810688F789E02D75
:100B700061E013C061E00E94C104837E482F4061A0
:100B800061E0CE010E94180588858823C9F0E881BC
:100B9000F9810688F789E02D60E0CE01099510C043
:100BA00061E00E94C104837E482F486005C061E077
:100BB0000E94C104482F437E61E0CE010E941805C7
:100BC00080919303811106C067E2CE010E94C104A7
:100BD00087FFF6CF10939303DF91CF911F91089574
:100BE000CF93DF93EC01603208F06FE16F8388856B
:100BF000882311F066956F8361E1CE010E94C104E4
:100C0000807E9F81482F492B61E1CE01DF91CF91FA
:100C10000C941805CF92DF92EF92FF920F931F93DF
:100C2000CF93DF93EC01F62ED42EC52E122FE88140
:100C3000F9810488F589E02D61E0099567E2CE012C
:100C40000E94C10487FFFACF40E065E2CE010E9416
:100C500018051E3308F01DE3E11004C0002321F045
:100C600000E403C000E801C000E0E881F981008CE5
:100C7000F18DE02DCE01099580E80E942C0283E0E1
:100C8000810F0E942C028F2D0E942C028D810E94C8
:100C90002C02802F0E942C020D2DED2CFC2C8E2D71
:100CA000801B811730F4F70181917F010E942C0293
:100CB000F6CFE881F981028CF38DE02DCE01099504
:100CC000E881F9810488F589E02D64E0CE01099579
:100CD0000E9445186B017C018B810E948119892B30
:100CE00081F0E881F9810488F589E02D61E0CE0189
:100CF000DF91CF911F910F91FF90EF90DF90CF90F8
:100D000009940E944518DC01CB018C199D09AE099C
:100D1000BF09883E9340A105B105F0F2E2CFCF9321
:100D2000DF93EC01109292031092910310929003C2
:100D300010928F0310928E0310928D0310928C03E9
:100D400010928B0368E20E94C10482FF0AC06DE327
:100D5000CE010E94C104482F44606DE3CE010E9481
:100D6000180540E465E2CE010E941805E881F9818A
:100D70000488F589E02D63E0CE01DF91CF910994DD
:100D8000CF92DF92EF92FF920F931F93CF93DF9357
:100D9000EC018B01E881F9810488F589E02D61E09F
:100DA000099501151105F1F0E881F981008CF18DAB
:100DB000E02DCE0109958EEB0E942C02780168018E
:100DC00080E1C80ED11CF70181917F010E942C02A5
:100DD000EC14FD04C1F7E881F981028CF38DE02D5C
:100DE000CE0109956DE3CE010E94C1048E7F41E0E2
:100DF000012B09F440E0482B6DE3CE01DF91CF9148
:100E00001F910F91FF90EF90DF90CF900C941805F9
:100E10008F929F92AF92BF92CF92DF92EF92FF920A
:100E20000F931F93CF93DF93CDB7DEB7AE970FB677
:100E3000F894DEBF0FBECDBF8C01E42E8EE2AE0172
:100E40004F5F5F4F6A01DA01E82F1D92EA95E9F7DB
:100E500091E0998334E03A8342E04B8393E09D83B1
:100E60004E833F8340E4488735E039879A8796E090
:100E70009B8793E39C8737E03D8798E09F8799E0C5
:100E8000998B99E19B8B92E49C8B55E25D8B4E8B09
:100E900046E24F8B388F38E2398F30E13A8F39E2B2
:100EA0003B8F3CED3C8F8D8F88E88E8F8FE28F8F4C
:100EB0008DE288A380E389A337E33BA330E93CA319
:100EC00038E33DA39EA39CE39FA39FE898A79DE3DF
:100ED00099A792E19AA79FE69BA78CA78FEF8DA772
:100EE0006F3131F06B3231F0663531F084EE05C090
:100EF0008EE403C08CE601C089ED8E876F3141F02E
:100F00006B3221F0663521F480E003C080E401C03B
:100F100080EC888B2AA361E0D80112968C910E9404
:100F2000521961E0F80182810E9416190E94B903EA
:100F30000E9445184B015C014AEA6FE2C8010E9419
:100F400018056FE2C8010E94C1048A3A61F00E944C
:100F50004518DC01CB0188199909AA09BB09C29778
:100F6000A105B10548F30E9445184B015C0145E518
:100F70006FE2C8010E9418056FE2C8010E94C10417
:100F8000853561F00E944518DC01CB01881999096B
:100F9000AA09BB09C297A105B10548F3F12CF601D6
:100FA000EF0DF11DEF0DF11D60816F3F31F04181BB
:100FB000C8010E941805F394F2CF60E070E0C80108
:100FC0000E94C006D801ED91FC9111970084F18533
:100FD000E02D18966C91C8010995D801ED91FC910E
:100FE0000488F589E02D61E0C80109950E94451843
:100FF0004B015C0167E2C8010E94C10487FD0CC07F
:101000000E944518DC01CB0188199909AA09BB097E
:10101000C297A105B10570F30E944518DC01CB0110
:1010200088199909AA09BB09C297A105B10598F4C5
:1010300010928A0343E050E060EF73E0F80184818E
:101040000E94DB161093890300938803D80115963C
:10105000EC9281E001C080E0AE960FB6F894DEBF5E
:101060000FBECDBFDF91CF911F910F91FF90EF90F9
:10107000DF90CF90BF90AF909F908F900895CF93C7
:10108000DF93EC0161110DC064E2CE010E94C10446
:1010900090E091958195910995958795DF91CF91F4
:1010A000089541E063E20E94180563E2CE010E94C8
:1010B000C10481FFFACFE8CFCF93DF932091930350
:1010C0002330A9F420918F03211111C0EC0160E0BD
:1010D0000E943F08863A9F4F54F4E881F9810488C2
:1010E000F589E02D61E0CE01099581E001C080E045
:1010F000DF91CF910895EF92FF921F93CF93DF93EB
:10110000EC0180919303833001F568E2CE010E94E7
:10111000C10482FD28C019C0809192038D3330F440
:10112000E0919203F0E0EC56FC4F1082E881F981E7
:10113000028CF38DE02DCE010995E881F9810488B8
:10114000F589E02D63E0CE01099560E0CE010E94B3
:101150003F0890938C0380938B03DF91CF911F9175
:10116000FF90EF900895E881F9810488F589E02DDA
:1011700061E0CE010995E881F981008CF18DE02DC7
:10118000CE01099580E00E942C0280E00E942C0292
:1011900080938F0380918F038334D0F480918F03E9
:1011A00080938F0380E00E942C02809390038E81B5
:1011B000811109C0809190039D81981721F0809141
:1011C00090038F3F39F480918F03833018F017C05C
:1011D00082E4E6CF10928F03E881F981028CF38DCF
:1011E000E02DCE010995E881F9810288F389E02D8F
:1011F000CE01DF91CF911F91FF90EF9009948091E4
:101200008F0383508093920380E00E942C0280938E
:10121000910380E00E942C02982F907890938D0388
:10122000982F907490938E03E881F9810684F78556
:10123000E02D682FCE01099510E0809192031817D8
:1012400008F06ACFE12EF12C80E00E942C02F70119
:10125000EC56FC4F80831F5FF0CF8F929F92AF922E
:10126000BF92CF92DF92EF92FF920F931F93CF9393
:10127000DF93EC01162F6A01F22E6DE30E94C10488
:10128000482F44606DE3CE010E9418050E94451866
:101290004B015C01CE010E945C08811115C00E94C7
:1012A0004518DC01CB0188199909AA09BB09883EB8
:1012B0009340A105B10540F4E881F9810480F581EE
:1012C000E02DCE010995E6CFE881F9810088F1890A
:1012D000E02DE12C2F2DA601612FCE010995DF9184
:1012E000CF911F910F91FF90EF90DF90CF90BF9023
:1012F000AF909F908F9008954F925F926F927F92E0
:10130000AF92BF92CF92DF92EF92FF920F931F9313
:10131000CF93DF93EC015B01F42E10928E031091BA
:101320009103C0908B03D0908C036DE30E94C104A5
:10133000482F44606DE3CE010E9418050E944518B5
:101340002B013C01CE010E945C08811115C00E9456
:101350004518DC01CB0184199509A609B709883E17
:101360009340A105B10540F4E881F9810480F5813D
:10137000E02DCE010995E6CF10939103E881F98124
:101380000088F189E02DEE24E39400E02F2DA501E3
:10139000612FCE010995D0928C03C0928B03DF910F
:1013A000CF911F910F91FF90EF90DF90CF90BF9062
:1013B000AF907F906F905F904F9008951F93CF9361
:1013C000DF93EC01162F611102C045E501C04DE528
:1013D0006AE5CE010E941805111102C040E701C064
:1013E0004CE76CE5CE01DF91CF911F910C9418056D
:1013F000CF93DF93EC016887611102C04AE101C01D
:101400004FE063E1CE010E9418058885882341F0F2
:1014100061E1CE010E94C1048F71482F406602C075
:101420004F81406861E1CE01DF91CF910C941805A6
:10143000FC01DB0182E591E09183808312968C911F
:101440001297828313968C911397838314968C91B1
:101450001497848315968C911597858316968C9195
:101460001697868317968C911797878318968C9179
:101470001897808719968C91199781871A968C9165
:1014800082870895CF92DF92EF920F931F93CF93AD
:10149000DF93CDB7DEB727970FB6F894DEBF0FBE48
:1014A000CDBF6C0109831A832B833C834D835E83FC
:1014B0006F83EE2099F0CE0101960E948603811180
:1014C0000DC04FE06EE671E0C6010E947C0967EE38
:1014D00070E088E194E00E94471606C046E06EE79F
:1014E00071E0C6010E947C0927960FB6F894DEBF12
:1014F0000FBECDBFDF91CF911F910F91EF90DF9085
:10150000CF9008950F931F93CF93DF93CDB7DEB79E
:101510000DB71EB7262F30E0220F331FA9014F5FF2
:101520005F4FEDB7FEB7E41BF50B0FB6F894FEBFA7
:101530000FBEEDBF4DB75EB74F5F5F4FFA01782F1B
:10154000DC018A2F871B861788F48D91982F92953E
:101550009F7090639A330CF0995D90838F708063D5
:101560008A330CF0895D81833296EBCFFA01E20F6A
:10157000F31F1082BA0188E194E00E9459160FB659
:10158000F8941EBF0FBE0DBFDF91CF911F910F9139
:1015900008952F923F924F925F926F927F928F9217
:1015A0009F92AF92BF92CF92DF92EF92FF920F93F2
:1015B0001F93CF93DF93CDB7DEB7A5970FB6F894FF
:1015C000DEBF0FBECDBF4C016DA3EC8EFD8E0E8F26
:1015D0001F8F28A339A34AA33C2CACA240E050E0C3
:1015E000BA01CE014C960E945B0307E010E02AE9A5
:1015F00031E040E050E0BA01CE014C960E94F70283
:101600002AE349E050E060E070E0CE014C960E9491
:10161000D3020E9445182B013C019AE0C92ED12C1F
:10162000A12CB12CC4010E942A04882301F18091CD
:1016300091032DA182131BC0609192036BA36430B0
:1016400020F080919403863409F161E08CA10E941E
:10165000161961E08CA10E94521961E070E080E0EF
:1016600090E00E94761860E08CA10E9452190E94BE
:101670004518DC01CB0184199509A609B709893BF6
:101680009B40A105B10570F280E039C180919503BE
:101690008C34D9F6809196038835B9F680919703FA
:1016A0008A3309F0A5C06BA1673008F4A1C084E0BB
:1016B00090E000E010E0482FFF24FA94F80EFC01BF
:1016C000EC56FC4F2081203308F411C120812A33CD
:1016D00008F00DC150816AE0609F9001619F300D5C
:1016E0001124890100531109050F111D019688303D
:1016F000910509F7F42E3320C1F061EA70E088E12A
:1017000094E00E941D164AE050E06BA188E194E04D
:101710000E94C1166CE970E088E194E00E941D16F9
:101720006BA184E993E00E94820AE1E0EF0DF0E012
:10173000EC56FC4F80818A3309F0A6CF0E944518F1
:101740002B013C01A016B10639F0C50101978017A5
:10175000910709F04DC027C082E0282E2F0C8FEF93
:10176000A81AB80A9BA12916F0F4E22DF0E0EC5675
:10177000FC4F208176016FEFE61AF60AA60160E0C1
:1017800070E0CE014C960E94D302C7019F77892B4F
:1017900039F4A70160E070E0CE014C960E945B0333
:1017A00023946701DFCF1F930F9382EA91E09F9309
:1017B0008F9381E090E08C0F9D1F9F938F930E94E9
:1017C000851D182F0F900F900F900F900F900F9076
:1017D000332039F0BE016F5F7F4F88E194E00E94B3
:1017E0005916412FBE016F5F7F4FC4010E947C09D3
:1017F000809197038F3309F028CF9BA19430E1F4B7
:10180000B401CE0141960E94180AEE24E3940C8D97
:101810001D8D2E8D3F8D48A159A16AA1CE01419603
:101820000E94420A332009F410CF6EE870E088E18C
:1018300094E00E94471609CF2BA1273009F005CF6D
:1018400080919803853409F000CF809199038F34FB
:1018500009F0FBCE80919A03863409F0F6CE86011A
:101860000A50110901306CE7160778F0332031F087
:101870006BE770E088E194E00E9447164FE06CEA65
:1018800071E0C4010E947C09FFCEB401CE014196F3
:101890000E94180A46E06EE771E0CE0141960E9470
:1018A0007C09332031F064E770E088E194E00E9425
:1018B0004716212F47E050E060E070E0CE014C96E3
:1018C0000E94D30226EF2C0D48E050E060E070E06B
:1018D000CE014C960E94D3022AE349E050E060E03A
:1018E00070E0CE014C960E94D30281E008C02081B6
:1018F0002A3309F0FBCE443009F0FDCEC5CEA596C3
:101900000FB6F894DEBF0FBECDBFDF91CF911F9110
:101910000F91FF90EF90DF90CF90BF90AF909F908E
:101920008F907F906F905F904F903F902F90089591
:101930008F929F92AF92BF92CF92DF92EF92FF92DF
:101940000F931F93CF93DF93CDB7DEB762970FB698
:10195000F894DEBF0FBECDBF4C01B62EEC86FD86DF
:101960000E871F87288B398B4A8BDC2CBC01CE015C
:1019700001960E94180AEE24E3940C851D852E859D
:101980003F85488959896A89CE0101960E94420A99
:10199000CC20D9F065ED70E088E194E00E94471614
:1019A00060EC70E088E194E00E941D16C4010E9482
:1019B000E004AB01BC01405C5D4B604F7F4F2AE00F
:1019C00030E088E194E00E94C816C4010E94E0045F
:1019D000AB01BC01405C5D4B604F7F4FC4010E9476
:1019E0003705B401CE0101960E94180ACD2CEC8473
:1019F000FD840E851F85288939894A896B2DCE0182
:101A000001960E94C90A182FDD20A9F069EA70E04A
:101A100088E194E00E941D16C4010E94E004AB011D
:101A2000BC01405452446F4071092AE030E088E123
:101A300094E00E94C816C4010E94E004AB01BC01FE
:101A4000405452446F407109C4010E943705812FF0
:101A500062960FB6F894DEBF0FBECDBFDF91CF9177
:101A60001F910F91FF90EF90DF90CF90BF90AF90BC
:101A70009F908F900895C82F882331F06AE670E018
:101A800088E194E00E941D1698E088E10FB6F89472
:101A9000A895809360000FBE90936000C11101C0B3
:101AA000FFCF68E670E088E194E00E941D16F6CF53
:101AB000AF92BF92CF92DF92EF92FF920F931F935C
:101AC000CF93DF93CDB7DEB762970FB6F894DEBF42
:101AD0000FBECDBF0C871D872E873F87488B598B44
:101AE0006A8B20919203243008F45DC02091940306
:101AF000263409F058C0209195032C3409F053C0C6
:101B000020919603283509F04EC0209197032F337A
:101B100009F049C0AC2CDE2CB090910320919203C7
:101B20002730A1F420919803253481F42091990362
:101B30002F3461F420919A03263441F400E026E02A
:101B40004EE751E06B2D0E942D092DC0BC01CE0146
:101B500001960E94180ACD2CEC84FD840E851F8509
:101B6000288939894A896B2DCE0101960E94980CEB
:101B7000882359F0DD2031F06EEF70E088E194E0C9
:101B80000E941D168D2D0E943B0DDD2061F06CEB37
:101B900071E088E194E00E94411669EF70E088E10D
:101BA00094E00E94471662960FB6F894DEBF0FBE0F
:101BB000CDBFDF91CF911F910F91FF90EF90DF90FC
:101BC000CF90BF90AF900895EF92FF920F931F9325
:101BD000CF93DF93EC0168835A8349831D86EB82A0
:101BE000FC820D831E833C872B8781E08E87EF82EA
:101BF000F88609871A870E94040F009749F0BE01F2
:101C0000DF91CF911F910F91FF90EF900C94F20E06
:101C1000DF91CF911F910F91FF90EF900895DC011C
:101C20001B96ED91FC911C97309711F08C910994C3
:101C300080E00895DF92EF92FF920F931F93CF936E
:101C4000DF938C01F62ED42EE22E0E94040FEC01BD
:101C5000892B01F1D11001C0FA80C801EE2059F0A2
:101C60000E940F0E882311F0C80105C08881998158
:101C70000E944C040FC00E94B813F80146856F2DD6
:101C8000CE01DF91CF911F910F91FF90EF90DF90E8
:101C90000C94F01180E0DF91CF911F910F91FF9094
:101CA000EF90DF900895CF93DF93FC0183819481BF
:101CB000A581B681892B8A2B8B2B71F18781908529
:101CC000A185B285481759076A077B0728F0178254
:101CD00010861186128608C0841B950BA60BB70BC5
:101CE00087839087A187B28787819085A185B285F8
:101CF000892B8A2B8B2BE1F4EF0121E040E060E09F
:101D0000CF010E941A0E8B819C81AD81BE818F8391
:101D10009887A987BA870CC08585882349F01586DE
:101D200021E040E060E0CF01DF91CF910C941A0EEA
:101D3000DF91CF910895CF93DF93EC0161E089E0CB
:101D40000E94161961E089E00E945219BE01DD0F60
:101D5000880B990B0E94761860E089E0DF91CF91A3
:101D60000C9452190F931F93CF93DF93EC01FC0156
:101D7000E458FD4F88EE93E091838083D093D203A3
:101D8000C093D103798368832A831A8619861B82BC
:101D90001C828E0102581D4FF801408340E250E042
:101DA0006FEF70E0CE01875F9D4F0E945F1D40E2A4
:101DB00050E064E370E0CE01845C9D4F0E943820C7
:101DC00040E250E06FEF70E0CE01845A9D4F0E94D8
:101DD0005F1D60E0F8018081DF91CF911F910F912D
:101DE0000C941619FC01218532852F3F310509F02D
:101DF00050F4C901019692878187220F331FE20FA9
:101E0000F31F7487638708958091D1039091D20363
:101E10000895CF92DF92EF92FF921F93CF93DF93BB
:101E2000EC0110E0CC24CA94DC2C7601812F90E0E8
:101E300029853A858217930710F010E023C0880F98
:101E4000991FFE01E80FF91F83859485FC01258504
:101E5000222331F021E040E060E00E941A0E10C021
:101E6000FC0187819085A185B2850097A105B10508
:101E700039F08C159D05AE05BF0510F46C017D0190
:101E80001F5FD4CF812F90E029853A858217930771
:101E900068F4880F991FFE01E80FF91FB701A6012A
:101EA000838594850E94530E1F5FECCFC701B60156
:101EB000DF91CF911F91FF90EF90DF90CF90089529
:101EC000FC01E75DFD4F875C9D4FDB012D91BD015E
:101ED0002193E817F907C9F70895CF93DF93EC0131
:101EE00063E1888199810E94C104682F80E090E0BD
:101EF0000E946020FE01E55CFD4F608181E090E082
:101F00000E946020FE01E65CFD4F608182E090E06F
:101F10000E946020FE01E75CFD4F608183E190E05C
:101F20000E94602040E150E063E070E0CE01875DF8
:101F30009D4FDF91CF910C9450206F927F928F92A2
:101F40009F92AF92BF92CF92DF92EF92FF920F9348
:101F50001F93CF93DF93EC01762E642E022F80E047
:101F600090E00E944820182FCE01855C9D4F5C01B7
:101F7000DE01A65CBD4F7D01FE01E75CFD4F6F01F8
:101F800042974C011F3011F01A3111F5662001F112
:101F900065EE71E088E194E00E94591681E090E0DE
:101FA0000E944820D5018C9382E090E00E94482056
:101FB000F701808383E190E00E944820D6018C9352
:101FC00040E150E063E070E0C4010E94382013C09B
:101FD00069EF71E088E194E00E94591684E6F5010A
:101FE000808386E5D7018C93F60170826CE072E005
:101FF000CE010E94600FD5012C91F6014081D701DE
:102000006C91888199810E940807B4018881998127
:102010000E94C0061F3051F488819981DC01ED9146
:10202000FC910084F185E02D61E00995002349F0E1
:102030006DE172E088E194E00E945916CE010E94A1
:102040006D0F88819981DF91CF911F910F91FF9042
:10205000EF90DF90CF90BF90AF909F908F907F9048
:102060006F900C944C04AC0182E0E82FF0E093E018
:10207000F595E7959A95E1F7E40FF51FE45CFD4FC0
:10208000208130E020953095982F977002C03595CB
:1020900027959A95E2F720FF02C08F5FE6CF08955B
:1020A000611103C08BE392E002C088E391E00C94DD
:1020B000FC124F925F926F927F928F929F92AF929B
:1020C000BF92CF92DF92EF92FF920F931F93CF9325
:1020D000DF9300D000D0CDB7DEB76C0180909203C3
:1020E000912C23E0821691040CF463C19091950326
:1020F000953008F05EC110919103E12EF12C809192
:102100008E0321E0811101C020E05B01DB01139609
:102110002C93139720918B0330918C0316963C934C
:102120002E931597809194038F3FC9F59330B9F59D
:1021300020919603203199F50E94451869837A838E
:102140008B839C83CE0101960E945E13F6018081F1
:1021500091814091060150910701DC01ED91FC91C4
:102160000190F081E02D00E027E0612F099573E0F8
:10217000F594E7947A95E1F7CE0CDF1CF601E75F62
:10218000FD4F177081E090E001C0880F1A95EAF7C3
:10219000809590818923808383E090E00CC1F601D3
:1021A0002381222309F47BC08F3F09F078C093304C
:1021B00009F075C020919603233009F070C06DE3DB
:1021C00072E088E194E00E945916C6010E94CD1386
:1021D000D6018D919C91DC01ED91FC910284F385F7
:1021E000E02D60E00995F601A080B180D501ED9168
:1021F000FC91828093800E94F812F82E0E94F312C4
:1022000068E2E62E02E02F2DAC01612FC501F4013A
:102210000995182FD6018D919C91DC01ED91FC91CF
:102220000284F385E02D6FE10995112309F4B8C00C
:10223000E0910801F09109018581E82FF0E053E079
:10224000F595E7955A95E1F7EC0DFD1DE45CFD4F22
:10225000282F277081E090E001C0880F2A95EAF7C7
:10226000809590818923808340E250E064E370E0B0
:10227000C601845C9D4F0E94502062E572E088E1B7
:1022800094E00E945916F601E75CFD4F21E041E021
:102290006081C6010E949D0FF601138281C0D501A5
:1022A0001C9311968C93119712969C931297809180
:1022B000960314968C9314971796E4E9F3E0B4010F
:1022C000635071099F01245933402617370724F4BE
:1022D00093819D933196F6CF813109F464C08430A7
:1022E00009F464C0C70143E0959587954A95E1F7E5
:1022F0001770F12E8601080F191F075F1D4FF80197
:10230000808190E0809590950F2C02C095958795DF
:102310000A94E2F780FF3DC0F401ED56FC4F2081A6
:10232000F401EE56FC4F808190E0A0E0B0E0DC01CB
:1023300099278827B22BF401E057FC4F2081822B8C
:10234000F401EF56FC4F2081922B89839A83AB8353
:10235000BC830E94451849805A806B807C80DC01D8
:10236000CB0184199509A609B709883B9B40A105B3
:10237000B105F8F4F501E80DF91D108281E090E057
:1023800001C0880FFA94EAF7D8019C91892B8C93AD
:1023900004C0F501E60FF71F178281E090E00BC043
:1023A00084E090E008C082E090E005C085E090E025
:1023B00002C080E090E00F900F900F900F90DF919F
:1023C000CF911F910F91FF90EF90DF90CF90BF9032
:1023D000AF909F908F907F906F905F904F900895F7
:1023E0004F925F926F927F928F929F92AF92BF9225
:1023F000CF92DF92EF92FF920F931F93CF93DF93D1
:10240000CDB7DEB7C254D1090FB6F894DEBF0FBE08
:10241000CDBF6C01B62EE42E442381F110E0FF24E1
:10242000F39432E4A32ECE0101964C010E944B138B
:10243000D6018D919C914091060150910701DC01DC
:10244000ED91FC910190F081E02D00E023E06B2DF7
:1024500009950E9445182B013C01FF2009F468C032
:102460000E944518DC01CB0184199509A609B7091A
:10247000883E9340A105B105F0F15BC0D6018D9077
:102480009C90D401ED91FC9162807380E11002C0B8
:1024900005E001C003E00E94F812182F0E94F31219
:1024A00028E2E22E212FAC016B2DC401F301099526
:1024B000182F882391F080919203882371F08091E6
:1024C0009403853551F481E0D60114968C9363E72B
:1024D00072E088E194E00E945916F601E75CFD4F36
:1024E0009081F6018281981721F0808191810E946C
:1024F0004C04812F30C0D6018D919C91DC01ED916F
:10250000FC910480F581E02D0995882309F4A8CF7A
:10251000D401EA2D1D92EA95E9F7B401C6010E94A3
:1025200059100297A1F4CE0108960E941E1313E0E1
:10253000F12C1F5F133008F479CFFF2009F49ECFF0
:10254000F601808191810E944C0480E004C0D60194
:102550008D919C91F8CFCE5BDF4F0FB6F894DEBF24
:102560000FBECDBFDF91CF911F910F91FF90EF90E4
:10257000DF90CF90BF90AF909F908F907F906F90A3
:102580005F904F900895EF92FF921F93CF93DF9348
:10259000EC017A018BE090E00E94331340E06A8105
:1025A000CE010E94F011182FB7018CE090E00E943C
:1025B000331340E06A81CE010E94F0118123DF9144
:1025C000CF911F91FF90EF900895CF93DF93EC018F
:1025D000862FBA010E94A51340E06A81CE01DF91E7
:1025E000CF910C94F0118091080190910901089508
:1025F0008091D30390E00895CF93BC01009761F0E0
:10260000FC0101900020E9F73197E81BF90BE63354
:10261000F10520F4CE2F03C0C0E001C0C6E34C2F6B
:1026200050E0809108019091090103960E94761D67
:10263000E3E0EC0FE093D303CF910895BC019091B8
:10264000D303209108013091090144E050E0F901E1
:10265000E90FF11DCF010E94761D8091D3038C5F9D
:102660008093D3030895E0910801F09109019FEF51
:102670009083E0910801F091090193E09183E0914A
:102680000801F091090182836115710519F0CB01F0
:102690000C94FC120895E0910601F09107018FEF70
:1026A0008083E0910601F091070183E08183E0914E
:1026B0000601F091070180E182830895FC01A09159
:1026C0000601B09107018FEF8C93A0910601B091A4
:1026D000070183E011968C93A0910601B091070148
:1026E00081E112968C931297808113968C931397A5
:1026F0004081518162817381452F562F672F772743
:10270000408351836283738314964C931497408162
:10271000518162817381452F562F672F7727408320
:1027200051836283738315964C9315974081518131
:1027300062817381452F562F672F772740835183FE
:102740006283738316964C930895E0910801F0918B
:1027500009018083E0910801F09109011182E09163
:102760000801F0910901628383E08093D303089507
:10277000E0910801F0910901DC012C912083E091A6
:102780000801F091090121E02183E0910801F09115
:10279000090111968C91828308950F931F93CF9313
:1027A000DF93EC01E0910801F09109018FEF808344
:1027B000E0910801F091090183E081830091080113
:1027C0001091090184E0F8018283FE01E55CFD4F70
:1027D0008081F8018383FE01E65CFD4F8081F80172
:1027E0008483CE010E943310F8018583C75DDD4FDD
:1027F00086E090E02991E0910801F0910901E80F4D
:10280000F91F2083019686319105A1F786E1809317
:10281000D303DF91CF911F910F910895FC01918D0A
:10282000228D892F90E0805C9F4F821B91098F73CE
:1028300099270895FC01918D828D981731F0828D32
:10284000E80FF11D858D90E008958FEF9FEF0895BB
:10285000FC01918D828D981761F0828DDF01A80FA8
:10286000B11D5D968C91928D9F5F9F73928F90E0CA
:1028700008958FEF9FEF0895FC01538D448D252F10
:1028800030E0842F90E0821B930B541710F0CF960A
:1028900008950197089587EA95E1892B49F080E032
:1028A00090E0892B29F00E94A71581110C9400005B
:1028B0000895FC01848DDF01A80FB11DA35ABF4FFD
:1028C0002C91848D90E001968F739927848FA6892F
:1028D000B7892C93A089B1898C91837080648C9383
:1028E000938D848D981306C00288F389E02D808132
:1028F0008F7D80830895EF92FF920F931F93CF9364
:10290000DF93EC0181E0888F9B8D8C8D981305C03F
:10291000E889F989808185FD26C0F62E0B8D10E0AF
:102920000F5F1F4F0F731127E02E8C8DE8120CC024
:102930000FB607FCFACFE889F989808185FFF5CFCA
:10294000CE010E945914F1CF8B8DFE01E80FF11DCD
:10295000E35AFF4FF0829FB7F8940B8FEA89FB8907
:10296000808180620AC09FB7F894EE89FF896083F6
:10297000E889F98980818370806480839FBF81E0CA
:1029800090E0DF91CF911F910F91FF90EF9008950C
:10299000CF93DF93EC01888D8823C9F0EA89FB8906
:1029A000808185FD05C0A889B9898C9186FD0FC0FD
:1029B0000FB607FCF5CF808185FFF2CFA889B989D2
:1029C0008C9185FFEDCFCE010E945914E7CFDF91A6
:1029D000CF910895CF92DF92EF92FF921F93CF9302
:1029E000DF93EC016A017B01122FE889F98982E00B
:1029F00080834115514E61057105B1F060E079E0C9
:102A00008DE390E0A70196010E94471BDA01C901FE
:102A10000197A109B109B695A795979587959C014E
:102A2000211580E13807A8F0E889F989108260E86B
:102A300074E88EE190E0A70196010E94471BDA013D
:102A4000C9010197A109B109B695A79597958795F1
:102A50009C01EC85FD853083EE85FF852083188EF3
:102A6000EC89FD891083EA89FB89808180618083FC
:102A7000EA89FB89808188608083EA89FB8980817B
:102A800080688083EA89FB8980818F7D8083DF91E4
:102A9000CF911F91FF90EF90DF90CF9008951F92FC
:102AA0000F920FB60F9211242F938F939F93EF9352
:102AB000FF93E0912804F09129048081E0912E0495
:102AC000F0912F0482FD12C09081809131048F5FBC
:102AD0008F7320913204821751F0E0913104F0E0BD
:102AE000E85EFB4F958F8093310401C08081FF9198
:102AF000EF919F918F912F910F900FBE0F901F908C
:102B000018951F920F920FB60F9211242F933F9397
:102B10004F935F936F937F938F939F93AF93BF93E5
:102B2000EF93FF9388E194E00E945914FF91EF9195
:102B3000BF91AF919F918F917F916F915F914F91D5
:102B40003F912F910F900FBE0F901F90189588E125
:102B500094E00E940E1421E0892B09F420E0822FDA
:102B60000895E8E1F4E01382128288EE93E0A0E099
:102B7000B0E084839583A683B7838EE792E0918348
:102B8000808385EC90E09587848784EC90E097873C
:102B9000868780EC90E0918B808B81EC90E0938B2A
:102BA000828B82EC90E0958B848B86EC90E0978B07
:102BB000868B118E128E138E148E0895CF92DF9213
:102BC000EF92FF920F931F93CF93DF936C017A01E3
:102BD0008B01C0E0D0E0CE15DF0581F0D8016D910A
:102BE0008D01D601ED91FC910190F081E02DC6019F
:102BF0000995892B11F02196EECF7E01C701DF9157
:102C0000CF911F910F91FF90EF90DF90CF9008959B
:102C10006115710579F0FB0101900020E9F731970A
:102C2000AF01461B570BDC01ED91FC910280F38153
:102C3000E02D099480E090E00895EF92FF920F93C9
:102C40001F93CF93DF938C017B01C0E0D0E0F701AD
:102C5000EC0FFD1F6491662361F0D801ED91FC91AA
:102C60000190F081E02DC8010995892B11F0219682
:102C7000EECFCE01DF91CF911F910F91FF90EF909A
:102C800008950C9408166CE872E00C9408160F93E3
:102C90001F93CF93DF93EC010E941D168C01CE0190
:102CA0000E944316800F911FDF91CF911F910F91CA
:102CB00008950F931F93CF93DF93EC010E940816A2
:102CC0008C01CE010E944316800F911FDF91CF919E
:102CD0001F910F9108958F929F92AF92BF92EF92A2
:102CE000FF920F931F93CF93DF93CDB7DEB7A197DA
:102CF0000FB6F894DEBF0FBECDBF7C01FA01CB0149
:102D000019A2223008F42AE08E010F5D1F4F822E97
:102D1000912CA12CB12CBF01A50194010E94471B4D
:102D2000F901CA01015011096A3014F4605D01C053
:102D3000695CD8016C93232B242B252B61F7B801F8
:102D4000C7010E940816A1960FB6F894DEBF0FBE09
:102D5000CDBFDF91CF911F910F91FF90EF90BF906A
:102D6000AF909F908F9008952115310541F4DC01BB
:102D7000ED91FC910190F081E02D642F09940C9469
:102D80006B169A01462F50E060E070E00C94B41688
:102D90000F931F93CF93DF93EC010E94B4168C0125
:102DA000CE010E944316800F911FDF91CF911F919A
:102DB0000F91089508958230E8F4E82FF0E0EE0FC7
:102DC000FF1FE65FFE4F71836083813041F0809189
:102DD00069008C7F482B40936900E89A08958091A0
:102DE0006900837F440F551F440F551F482B4093A4
:102DF0006900E99A08951F920F920FB60F9211245D
:102E00002F933F934F935F936F937F938F939F93F2
:102E1000AF93BF93EF93FF93E0910A01F0910B0101
:102E20000995FF91EF91BF91AF919F918F917F9104
:102E30006F915F914F913F912F910F900FBE0F9027
:102E40001F9018951F920F920FB60F9211242F9377
:102E50003F934F935F936F937F938F939F93AF9322
:102E6000BF93EF93FF93E0910C01F0910D01099551
:102E7000FF91EF91BF91AF919F918F917F916F9152
:102E80005F914F913F912F910F900FBE0F901F9028
:102E90001895FC01808191810C94071CCF93DF93DE
:102EA000EC0188819981009711F00E94071C19821A
:102EB00018821D821C821B821A82DF91CF91089595
:102EC0000F931F93CF93DF93EC018B016F5F7F4FC5
:102ED000888199810E94901C009731F099838883A2
:102EE0001B830A8381E001C080E0DF91CF911F91B5
:102EF0000F910895CF93DF93EC0188819981892BFD
:102F000029F08A819B818617970760F4CE010E9481
:102F10006017882341F08C819D81892B19F4E88109
:102F2000F981108281E0DF91CF910895EF92FF92B5
:102F30000F931F93CF93DF93EC017B018A01BA01BA
:102F40000E947A17811104C0CE010E944E1707C05B
:102F50001D830C83B701888199810E946F1DCE016A
:102F6000DF91CF911F910F91FF90EF900895FC0199
:102F700011821082138212821582148261157105EA
:102F800051F0FB0101900020E9F73197AF01461B9A
:102F9000570B0C9496170895FC0124813581232B3F
:102FA00031F421E061157105A1F0FB0108C0FC01BD
:102FB000808191816115710531F421E0FC018081EE
:102FC000882339F005C00E94661D21E0892B09F095
:102FD00020E0822F089508950E94B2180E94EB17F6
:102FE0000E94F100CBE4D4E10E947E012097E1F33E
:102FF0000E944B14F9CF1F920F920FB60F9211241B
:103000002F933F938F939F93AF93BF938091B60479
:103010009091B704A091B804B091B9043091B5046F
:1030200023E0230F2D3720F40196A11DB11D05C00B
:1030300026E8230F0296A11DB11D2093B5048093AD
:10304000B6049093B704A093B804B093B9048091E8
:10305000BA049091BB04A091BC04B091BD04019648
:10306000A11DB11D8093BA049093BB04A093BC042E
:10307000B093BD04BF91AF919F918F913F912F91DC
:103080000F900FBE0F901F9018952FB7F894609176
:10309000B6047091B7048091B8049091B9042FBF21
:1030A00008953FB7F8948091BA049091BB04A09121
:1030B000BC04B091BD0426B5A89B05C02F3F19F0F4
:1030C0000196A11DB11D3FBFBA2FA92F982F8827A8
:1030D000820F911DA11DB11DBC01CD0142E0660F03
:1030E000771F881F991F4A95D1F708958F929F9255
:1030F000AF92BF92CF92DF92EF92FF926B017C0171
:103100000E9451184B015C01C114D104E104F10487
:1031100001F10E94AA190E945118DC01CB01881903
:103120009909AA09BB09883E9340A105B10560F33E
:1031300021E0C21AD108E108F10888EE880E83E088
:10314000981EA11CB11CC114D104E104F10419F7AB
:10315000DBCFFF90EF90DF90CF90BF90AF909F902C
:103160008F900895789484B5826084BD84B5816021
:1031700084BD85B5826085BD85B5816085BDEEE67F
:10318000F0E0808181608083E1E8F0E0108280815E
:1031900082608083808181608083E0E8F0E08081CC
:1031A00081608083E1EBF0E0808184608083E0EBEC
:1031B000F0E0808181608083EAE7F0E080818460D4
:1031C0008083808182608083808181608083808130
:1031D000806880831092C1000895833081F028F4C4
:1031E000813099F08230A1F008958730A9F08830BD
:1031F000B9F08430D1F4809180008F7D03C080913C
:1032000080008F7780938000089584B58F7702C007
:1032100084B58F7D84BD08958091B0008F7703C001
:103220008091B0008F7D8093B0000895CF93DF939D
:1032300090E0FC01ED5CFE4F2491FC01E95BFE4F48
:103240008491882361F190E0880F991FFC01E15976
:10325000FE4FC591D491FC01EB59FE4FA591B4915D
:10326000611109C09FB7F8948881209582238883D3
:10327000EC912E230BC0623061F49FB7F8948881E3
:10328000322F309583238883EC912E2B2C939FBF74
:1032900006C08FB7F894E8812E2B28838FBFDF916B
:1032A000CF9108951F93CF93DF93282F30E0F9013A
:1032B000E15EFE4F8491F901ED5CFE4FD491F9017E
:1032C000E95BFE4FC491CC23C1F0162F81110E94FF
:1032D000ED18EC2FF0E0EE0FFF1FEB59FE4FA5911C
:1032E000B4919FB7F894111104C08C91D095D82354
:1032F00002C0EC91DE2BDC939FBFDF91CF911F9139
:103300000895CF93DF93282F30E0F901E15EFE4F5F
:103310008491F901ED5CFE4FD491F901E95BFE4F18
:10332000C491CC2391F081110E94ED18EC2FF0E0B4
:10333000EE0FFF1FE55AFE4FA591B491EC91ED23DE
:1033400081E090E021F480E002C080E090E0DF9135
:10335000CF91089508950E94BF190C94A01A0E945D
:10336000991A58F00E94921A40F029F45F3F29F010
:103370000C94891A51110C94D41A0C948F1A0E942F
:10338000B11A68F39923B1F3552391F3951B550BAB
:10339000BB27AA2762177307840738F09F5F5F4F28
:1033A000220F331F441FAA1FA9F335D00E2E3AF067
:1033B000E0E832D091505040E695001CCAF72BD07F
:1033C000FE2F29D0660F771F881FBB1F26173707D0
:1033D0004807AB07B0E809F0BB0B802DBF01FF2702
:1033E00093585F4F3AF09E3F510578F00C94891A3C
:1033F0000C94D41A5F3FE4F3983ED4F38695779506
:103400006795B795F7959F5FC9F7880F911D9695BA
:10341000879597F90895E1E0660F771F881FBB1F16
:10342000621773078407BA0720F0621B730B840BC3
:10343000BA0BEE1F88F7E09508950E94B91A88F03C
:103440009F5798F0B92F9927B751B0F0E1F0660F68
:10345000771F881F991F1AF0BA95C9F714C0B130A9
:1034600091F00E94D31AB1E008950C94D31A672FFB
:10347000782F8827B85F39F0B93FCCF386957795D8
:103480006795B395D9F73EF49095809570956195C1
:103490007F4F8F4F9F4F0895E89409C097FB3EF4EC
:1034A00090958095709561957F4F8F4F9F4F992391
:1034B000A9F0F92F96E9BB279395F695879577950F
:1034C0006795B795F111F8CFFAF4BB0F11F460FFCF
:1034D0001BC06F5F7F4F8F4F9F4F16C0882311F027
:1034E00096E911C0772321F09EE8872F762F05C03B
:1034F000662371F096E8862F70E060E02AF09A95D6
:10350000660F771F881FDAF7880F9695879597F9CA
:10351000089597F99F6780E870E060E008959FEF55
:1035200080EC089500240A9416161706180609065A
:10353000089500240A941216130614060506089529
:10354000092E0394000C11F4882352F0BB0F40F4B1
:10355000BF2B11F460FF04C06F5F7F4F8F4F9F4FF1
:10356000089557FD9058440F551F59F05F3F71F073
:103570004795880F97FB991F61F09F3F79F08795DA
:103580000895121613061406551FF2CF4695F1DF63
:1035900008C0161617061806991FF1CF86957105F3
:1035A000610508940895E894BB2766277727CB0127
:1035B00097F908950E94ED1A0C94A01A0E94921A8D
:1035C00038F00E94991A20F0952311F00C94891A72
:1035D0000C948F1A11240C94D41A0E94B11A70F30F
:1035E000959FC1F3950F50E0551F629FF001729FA8
:1035F000BB27F00DB11D639FAA27F00DB11DAA1FB7
:10360000649F6627B00DA11D661F829F2227B00D03
:10361000A11D621F739FB00DA11D621F839FA00D8E
:10362000611D221F749F3327A00D611D231F849FDE
:10363000600D211D822F762F6A2F11249F57504035
:103640009AF0F1F088234AF0EE0FFF1FBB1F661FB0
:10365000771F881F91505040A9F79E3F510580F079
:103660000C94891A0C94D41A5F3FE4F3983ED4F377
:10367000869577956795B795F795E7959F5FC1F71D
:10368000FE2B880F911D9695879597F90895A1E2D5
:103690001A2EAA1BBB1BFD010DC0AA1FBB1FEE1FCC
:1036A000FF1FA217B307E407F50720F0A21BB30B17
:1036B000E40BF50B661F771F881F991F1A9469F793
:1036C00060957095809590959B01AC01BD01CF01EF
:1036D0000895EE0FFF1F0590F491E02D09940F93CC
:1036E0001F93CF93DF938230910510F482E090E036
:1036F000E091C004F091C10420E030E0A0E0B0E02F
:10370000309719F14081518102811381481759077F
:10371000C8F08417950769F4109731F012960C934E
:10372000129713961C9327C00093C0041093C104F2
:1037300022C02115310519F04217530718F49A01D8
:10374000BD01EF01DF01F801DBCF21153105F9F0F3
:10375000281B390B2430310580F48A819B81611547
:10376000710521F0FB019383828304C09093C1040F
:103770008093C004FE01329644C0FE01E20FF31FA5
:103780008193919322503109398328833AC0209143
:10379000BE043091BF04232B41F4209102013091EB
:1037A00003013093BF042093BE04209100013091A7
:1037B00001012115310541F42DB73EB740910401B7
:1037C00050910501241B350BE091BE04F091BF041C
:1037D000E217F307A0F42E1B3F0B2817390778F0E8
:1037E000AC014E5F5F4F2417350748F04E0F5F1F47
:1037F0005093BF044093BE048193919302C0E0E0D4
:10380000F0E0CF01DF91CF911F910F910895CF93F9
:10381000DF93009709F481C0FC0132971382128272
:10382000A091C004B091C104109781F4208131812E
:10383000820F931F2091BE043091BF0428173907CF
:1038400051F5F093BF04E093BE0467C0ED0120E0A2
:1038500030E0CE17DF0740F44A815B819E014115BD
:103860005105F1F0EA01F5CFD383C2834081518144
:10387000840F951FC817D90759F488819981840F3F
:10388000951F0296918380838A819B819383828393
:103890002115310529F4F093C104E093C0043DC023
:1038A000E901FB83EA8349915991C40FD51FEC17B5
:1038B000FD0761F480819181840F951F0296E901D3
:1038C00099838883828193819B838A83E0E0F0E0FF
:1038D00012968D919C911397009719F0FD01DC01D0
:1038E000F7CF8D919C9111979D012E5F3F4F820FD5
:1038F000931F2091BE043091BF042817390769F443
:10390000309729F41092C1041092C00402C01382AF
:103910001282B093BF04A093BE04DF91CF910895AB
:10392000A0E0B0E0E6E9FCE10C947620EC01009721
:1039300021F4CB010E946F1BB4C0FC01E60FF71FFE
:103940009C0122503109E217F30708F4A8C0D901FD
:103950000D911C91119706171707B0F0053011054E
:1039600008F49BC0C80104978617970708F495C010
:1039700002501109061B170B019311936D937C9351
:10398000CF010E94071C89C05B01A01AB10A4C013B
:10399000800E911EA091C004B091C104612C712CC5
:1039A000E12CF12C109709F446C08D919C91119750
:1039B000A815B905B1F56C0142E0C40ED11CCA14BA
:1039C000DB0478F14C018A189B08640142E0C40EC4
:1039D000D11C1296BC9012971396AC91B5E0CB1601
:1039E000D10440F0B282A38391828082D9016D9389
:1039F0007C9309C00E5F1F4F800F911FF9019183C7
:103A00008083EB2DFA2FE114F10431F0D7011396E6
:103A1000FC93EE93129741C0F093C104E093C0046D
:103A20003CC06816790608F43C017D0112960D90A1
:103A3000BC91A02DB7CF8091BE049091BF04881691
:103A40009906E1F466167706C8F48091000190911A
:103A50000101009741F48DB79EB740910401509148
:103A60000501841B950BE817F907C8F4F093BF0410
:103A7000E093BE04F901718360830FC0CB010E9403
:103A80006F1B7C01009759F0A801BE010E94561DD2
:103A9000CE010E94071CC70104C0CE0102C080E015
:103AA00090E0CDB7DEB7EEE00C949220FB01DC0194
:103AB00002C001900D9241505040D8F70895DC01AA
:103AC00001C06D9341505040E0F70895FB01DC01C7
:103AD0008D91019080190110D9F3990B0895FB0184
:103AE000DC0101900D920020E1F70895FB01DC015B
:103AF0004150504048F001900D920020C9F701C09C
:103B00001D9241505040E0F70895AEE0B0E0EBE880
:103B1000FDE10C9480200D891E8986E08C831A8338
:103B200009838FEF9FE79E838D83AE01475E5F4FD2
:103B30006F89788DCE0101960E94A71DEF81F885CF
:103B4000E00FF11F10822E96E4E00C949C20ABE075
:103B5000B0E0EDEAFDE10C9472206C017B018A017A
:103B6000FC0117821682838181FFCCC1CE010196B0
:103B70003C01F6019381F70193FD859193FF8191BB
:103B80007F01882309F4BAC1853239F493FD859108
:103B900093FF81917F01853229F4B60190E00E9464
:103BA0009E1FE7CF912C212C312CFFE1F315D8F08B
:103BB0008B3279F038F4803279F08332A1F4232DFE
:103BC00020611DC08D3261F0803369F4232D2160A6
:103BD00016C0832D8260382EE32DE4603E2E2AC06D
:103BE000F32DF8601DC037FC2DC020ED280F2A30C2
:103BF00040F08E32B9F436FC81C1232D2064322E80
:103C000019C036FE06C08AE0989E200D1124922E1F
:103C100011C0EAE02E9E200D1124222EF32DF06219
:103C20003F2E08C08C3621F4832D8068382E02C0C8
:103C3000883641F4F70193FD859193FF81917F01CF
:103C40008111B3CF982F9F7D9554933028F40C5F4A
:103C50001F4F9FE399830DC0833631F0833771F096
:103C6000833509F059C021C0F801808189830E5F36
:103C70001F4F88248394912C530113C02801F2E034
:103C80004F0E511CF801A080B18036FE03C0692D93
:103C900070E002C06FEF7FEFC5010E94931F4C01DF
:103CA0008201F32DFF773F2E16C0280122E0420E3D
:103CB000511CF801A080B18036FE03C0692D70E070
:103CC00002C06FEF7FEFC5010E94881F4C01F32DEA
:103CD000F0683F2E820133FC1BC0822D90E08816D5
:103CE0009906B0F4B60180E290E00E949E1F2A94EB
:103CF000F4CFF50137FC859137FE81915F01B60164
:103D000090E00E949E1F21102A9421E0821A9108BF
:103D10008114910471F7E8C0843611F0893641F5B9
:103D2000F80137FE07C060817181828193810C5F49
:103D30001F4F08C060817181072E000C880B990B02
:103D40000E5F1F4FF32DFF763F2E97FF09C0909512
:103D50008095709561957F4F8F4F9F4FF0683F2EF4
:103D60002AE030E0A3010E94DA1F882E861845C0A1
:103D7000853731F4232D2F7EB22E2AE030E025C086
:103D8000932D997FB92E8F36C1F018F4883579F0CC
:103D9000B5C0803719F0883721F0B0C0E92FE06155
:103DA000BE2EB4FE0DC0FB2DF460BF2E09C034FE44
:103DB0000AC0292F2660B22E06C028E030E005C0D8
:103DC00020E130E002C020E132E0F801B7FE07C098
:103DD00060817181828193810C5F1F4F06C0608179
:103DE000718180E090E00E5F1F4FA3010E94DA1FF7
:103DF000882E8618FB2DFF773F2E36FE0DC0232D13
:103E00002E7FA22E891458F434FE0BC032FC09C058
:103E1000832D8E7EA82E05C0B82CA32C03C0B82CF1
:103E200001C0B92CA4FE0FC0FE01E80DF11D808178
:103E3000803321F49A2D997EA92E09C0A2FE06C0D6
:103E4000B394B39404C08A2D867809F0B394A3FC8C
:103E500011C0A0FE06C0B21488F4280C922C9B1846
:103E60000EC0B21460F4B60180E290E00E949E1F82
:103E7000B394F7CFB21418F42B1802C0982C212C4D
:103E8000A4FE10C0B60180E390E00E949E1FA2FE37
:103E900017C0A1FC03C088E790E002C088E590E06D
:103EA000B6010CC08A2D867859F0A1FE02C08BE2C3
:103EB00001C080E2A7FC8DE2B60190E00E949E1F47
:103EC000891438F4B60180E390E00E949E1F9A9412
:103ED000F7CF8A94F301E80DF11D8081B60190E0DF
:103EE0000E949E1F8110F5CF222009F442CEB60118
:103EF00080E290E00E949E1F2A94F6CFF601868110
:103F0000978102C08FEF9FEF2B96E2E10C948E20F9
:103F1000FC010590615070400110D8F78095909594
:103F20008E0F9F1F0895FC01615070400190011099
:103F3000D8F7809590958E0F9F1F08950F931F932C
:103F4000CF93DF93FB01238121FD03C08FEF9FEF10
:103F50002CC022FF16C0468157812481358142172B
:103F6000530744F4A081B1819D012F5F3F4F3183FE
:103F700020838C93268137812F5F3F4F37832683A1
:103F800014C08B01EC01FB010084F185E02D099543
:103F9000892BE1F6D80116968D919C911797019681
:103FA00017969C938E931697CE01DF91CF911F9118
:103FB0000F910895FA01AA27283051F1203181F19B
:103FC000E8946F936E7F6E5F7F4F8F4F9F4FAF4F21
:103FD000B1E03ED0B4E03CD0670F781F891F9A1F34
:103FE000A11D680F791F8A1F911DA11D6A0F711DE8
:103FF000811D911DA11D20D009F468943F912AE0F4
:10400000269F11243019305D3193DEF6CF010895DB
:10401000462F4770405D4193B3E00FD0C9F7F6CF0C
:10402000462F4F70405D4A3318F0495D31FD4052D4
:10403000419302D0A9F7EACFB4E0A695979587956A
:1040400077956795BA95C9F7009761057105089549
:104050009B01AC010A2E06945795479537952795F5
:10406000BA95C9F7620F731F841F951FA01D08958D
:10407000DC01CB01FC01F999FECF06C0F2BDE1BD28
:10408000F89A319600B40D9241505040B8F7089517
:10409000F999FECF92BD81BDF89A992780B5089510
:1040A000DC01A40FB51F4150504048F0CB01840FF4
:1040B000951F2E910E94612041505040D0F70895E5
:1040C000262FF999FECF92BD81BDF89A019700B4D1
:1040D000021639F01FBA20BD0FB6F894FA9AF99A71
:1040E0000FBE08952F923F924F925F926F927F92F0
:1040F0008F929F92AF92BF92CF92DF92EF92FF92F8
:104100000F931F93CF93DF93CDB7DEB7CA1BDB0BA3
:104110000FB6F894DEBF0FBECDBF09942A88398848
:1041200048885F846E847D848C849B84AA84B9844F
:10413000C884DF80EE80FD800C811B81AA81B9815B
:10414000CE0FD11D0FB6F894DEBF0FBECDBFED016F
:064150000895F894FFCF72
:104156000000C2048000D403DB03DA16DA165350DB
:104166004920466C61736820496E6974204F4B2163
:104176000053504920466C61736820496E6974206B
:104186004641494C2100312E310052656C61794E11
:104196006F646500496E697420646F6E6500000087
:1041A60000002D096D042A047C09F809F0057B0836
:1041B600EF030A068F068705DE0901041704464C3D
:1041C600583F4E4F4B3A4E4F464C41534800464C93
:1041D600583F4F4B00464C583F454F4600464C58BB
:1041E6003F00464C583A25753A00464C58494D47CB
:1041F6003A00464C583A25753A4F4B00464C583FC4
:104206004E4F4B3A4845583E33316B0054696D6505
:104216006F75742F4572726F722C206572617369A7
:104226006E67207772697474656E206461746120AC
:104236002E2E2E200052656164696E67204E4F4413
:104246004520436F6E66696700437573746F6D2012
:104256004E4F444520436F6E6669670073616D700B
:104266006C65456E63727970744B6579005361763F
:10427600696E67204E4F444520436F6E666967003E
:104286002A20627574746F6E202A00300053656EA2
:1042960064696E67206E6574776F726B20646174F3
:1042A60061004578697420696E636C7564650053B6
:1042B6006176696E6720726164696F20636F6E66EE
:1042C600696700474F543A205500000000007B14F0
:1042D600DE153C14C8140E1428141A140D0A006EA8
:0C42E600616E00696E66006F7666000075
:00000001FF
