:100000000C94E1000C9438180C945F180C940901BE
:100010000C9409010C9409010C9409010C94090138
:100020000C9409010C9409010C9409010C94090128
:100030000C9409010C9409010C9409010C94090118
:100040000C943A190C9409010C94CB150C94FD15E1
:100050000C9409010C9409010C9409010C940901F8
:100060000C9409010C9409016364696E6F707375D7
:1000700078585B0054696D656F7574207761697499
:10008000696E6720666F72207061636B65742041D2
:10009000434B2C2061626F7274696E6720464C413D
:1000A0005348206F7065726174696F6E202E2E2E1A
:1000B00000203E2000524641434B203E2000524645
:1000C0005458203E200054696D656F757420676533
:1000D0007474696E6720464C41534820696D6167AE
:1000E000652066726F6D2053455249414C2C20614A
:1000F000626F7274696E672E2E00464C583A494EF4
:10010000560048616E647368616B65206661696C56
:1001100000464C583F4E4F4B00464C4153482049F7
:100120004D47205452414E534D495353494F4E2051
:100130004641494C00464C41534820494D472054C4
:1001400052414E534D495353494F4E20535543430B
:1001500045535300464C583F4F4B000A464C583FBE
:100160004F4B0000000008000201000003040700DC
:10017000000000000000000102040810204080017F
:1001800002040810200102040810200404040404DE
:100190000404040202020202020303030303030035
:1001A0000000002300260029000000000025002890
:1001B000002B0000000000240027002A00000E038E
:1001C0002D1611241FBECFEFD8E0DEBFCDBF12E049
:1001D000A0E0B1E0E0E5FBE402C005900D92A23A98
:1001E000B107D9F724E0A2EAB2E001C01D92AC3A0F
:1001F000B207E1F710E0C1EED0E004C02197FE01A4
:100200000E94A81CCF3DD107C9F70E942B190C945E
:10021000A6250C94000026E040E052EC61E070E07E
:1002200082E094E00E94661521E041E060E085EE06
:1002300092E00C940B10CF92DF92EF92FF920F930B
:100240001F93CF93DF93CDB7DEB7C755D1090FB654
:10025000F894DEBF0FBECDBF4AE050E060E070E032
:1002600082E094E00E94DC1720E430E0AE014F5FB2
:100270005F4F6AE082E094E00E94E217182FD82EC8
:10028000E1E0F0E0EC0FFD1FE80FF11D108240E00F
:1002900050E0BA0182E094E00E94DC17BE016F5F7B
:1002A0007F4FCE018E5A9F4F0E94F418112309F4FC
:1002B00031C185E090E00E94300F84E018135AC0ED
:1002C0008981863409F056C08A818C3409F052C085
:1002D0008B81883509F04EC08C818F3309F04AC07C
:1002E0002091A202211103C06FE071E07FC086E57A
:1002F00091E024969FAF8EAF249780916803259656
:100300008FAF25978091690326968FAF26978091AE
:100310006A0327968FAF279780916B0328968FAF3C
:10032000289780916C0329968FAF299780916D0350
:100330002A968FAF2A9780916E032B968FAF2B97BB
:1003400080916F032C968FAF2C97809170032D9620
:100350008FAF2D97CC24C39482E3E82EF12C08EBC9
:100360001BE0AE014E5B5F4F64E0CE0101960E9440
:10037000420E40C014501330E8F589818435D1F520
:100380008A818F34B9F58B818A33A1F5FE013496C9
:1003900093E010E0219180ED820F8A30F0F4110F8C
:1003A000812F880F880F180F1053120F9F5F9D1514
:1003B00088F3112391F01093A20263E171E082E0CF
:1003C00094E00E94BD164AE050E0612F82E094E084
:1003D0000E9444176CEA71E009C0BE016F5F7F4F55
:1003E00082E094E00E94BD1667E171E082E094E053
:1003F0000E94DC166CE171E0CE018E5B9F4F0E9483
:10040000F418BE016E5B7F4FCE018E5A9F4F0E9443
:100410002619182FCE018E5B9F4F0E948618898166
:100420008A3209F06DC08A818936B1F420E040E05B
:100430006091200385EE92E00E940B1081E0809392
:10044000E8020E9484196093EA027093EB028093A1
:10045000EC029093ED025EC0803739F5FE013396D1
:10046000DE01AE5BBF4FCE01439621912D938E17D7
:100470009F07D9F7BE016E5B7F4F85EE92E00E9429
:10048000870F85EE92E00E94DB0FBE016E5B7F4F0F
:1004900086E693E00E945F068EE191E09F938F9342
:1004A0000E94090F0F900F9035C0853749F584E3FE
:1004B00091E09F938F930E94090FFE0133960F9056
:1004C0000F9092E010E09D1570F4219180ED820F65
:1004D0008A3038F4110F812F880F880F180F1053AE
:1004E000120F9F5FF0CF4AE050E0612F82E094E06E
:1004F0000E944B17612F85EE92E00E94AC0F0AC05C
:10050000112341F041E0BE016F5F7F4F85EE92E025
:100510000E942A13CE018E5A9F4F0E948618C95AF4
:10052000DF4F0FB6F894DEBF0FBECDBFDF91CF9186
:100530001F910F91FF90EF90DF90CF9008950F9350
:100540001F93CF93DF93EC014AE050E0688182E093
:1005500094E00E9444176CE171E082E094E00E9414
:10056000BD164AE050E0698182E094E00E944417A1
:100570006CE171E082E094E00E94BD164AE050E038
:100580006A8182E094E00E9444176CE171E082E0AD
:1005900094E00E94BD164AE050E06B8182E094E056
:1005A0000E9444176CE171E082E094E00E94BD1665
:1005B0004AE050E06C8182E094E00E9444176CE1D4
:1005C00071E082E094E00E94BD168E01095F1F4F2A
:1005D000F80161918F0116162CF482E094E00E94DC
:1005E000BF16F6CF68E471E082E094E00E94BD1689
:1005F0006D817E814AE050E082E094E00E94A51780
:1006000060E571E082E094E00E94BD1682E094E033
:10061000DF91CF911F910F910C94C616E6E6F3E09F
:1006200086E591E0918380838AE0828382E0838300
:10063000148281E080937C0316828FE18783108689
:1006400020E04EE0BF0185EE92E00C94470FCF937F
:10065000DF9382E094E00E948A14892B11F00E94BB
:100660001B0186E693E00E94C203882309F44CC074
:1006700063EA72E085EE92E00E94C010EC01809186
:1006800077038823A9F160917A0385EE92E00E94B6
:10069000940F882331F141E06EE772E086E693E043
:1006A0000E941B0980917A038093A20263E171E0AA
:1006B00082E094E00E94BD164AE050E06091A20200
:1006C00082E094E00E9444176CEA71E082E094E0DA
:1006D0000E94DC166091A20285EE92E00E94C40F97
:1006E00007C040E064E972E086E693E00E941B09DF
:1006F000219751F485E090E00E94300F83EA92E068
:10070000DF91CF910C949F02DF91CF9108950895CE
:1007100081E0809373038091710390917203DC01F7
:10072000ED91FC910484F585E02D099510927303F9
:100730000895FC01F8948CB581878DB582878CB5BE
:10074000837F8CBD8CB58F7D8CBD8CB58C7F8CBD33
:100750008DB58E7F8DBD60E082810C94911ACF9310
:10076000DF93EC0161E08A810E94911A89858CBD3A
:100770008A858DBD80917303811101C07894DF91CA
:10078000CF910895F89420917C03233021F4209197
:10079000780321110FC020917C03233011F4789449
:1007A00007C0DC01ED91FC910288F389E02D0995E9
:1007B00080E00895DC01ED91FC910488F589E02D3D
:1007C00061E0099581E008958EBD00000DB407FE3B
:1007D000FDCF8EB50895DC01ED91FC910488F5897B
:1007E000E02D60E00994CF93C62FDC01ED91FC91E0
:1007F0000480F581E02D0995882361F080917A03CA
:10080000C81711F0CF3F29F49091760381E0911140
:1008100001C080E0CF9108953F924F925F926F9216
:100820007F928F929F92AF92BF92CF92DF92EF9280
:10083000FF920F931F93CF93DF93EC01162F5A0172
:10084000822E902E312CCE2CD12CE12CF12CE88153
:10085000F9810190F081E02D01E0282DA501612FA3
:10086000CE0109950E9484192B013C010E94841934
:10087000DC01CB0184199509A609B7098C159D05E2
:10088000AE05BF0538F4612FCE010E94F303882323
:1008900069F304C033949314D0F680E0DF91CF91D4
:1008A0001F910F91FF90EF90DF90CF90BF90AF908E
:1008B0009F908F907F906F905F904F903F900895A2
:1008C0001F93CF93DF93EC01162FE881F981008C01
:1008D000F18DE02D0995812F8F770E94E40380E050
:1008E0000E94E403182FE881F981028CF38DE02D3A
:1008F000CE010995812FDF91CF911F9108950F931C
:100900001F93CF93DF938C0167E00E946004C82F90
:1009100068E0C8010E946004D82F69E0C8010E9405
:1009200060044C2F50E060E070E0BA015527442786
:10093000480F511D611D711D8D2F90E0982F882744
:100940008A019B01080F191F211D311DC901B80122
:100950000E948B1B20E034E244E752E40E94191C01
:100960000E945C1BDF91CF911F910F9108950F930F
:100970001F93CF93DF93EC01062F142FE881F981A9
:10098000008CF18DE02D0995802F80680E94E40392
:10099000812F0E94E403E881F981028CF38DE02D20
:1009A000CE01DF91CF911F910F910994CF92DF92E9
:1009B000EF92FF921F93CF93DF93EC016A017B01CB
:1009C00010917C03143039F4E881F9810488F589A9
:1009D000E02D63E00995C701B6010E948B1B20E062
:1009E00034E244E752E40E94EA1A0E945C1B6B0165
:1009F0007C01A7016627772767E0CE010E94B70434
:100A000077276F2D5E2D4D2D68E0CE010E94B70433
:100A10004C2D69E0CE010E94B704133041F4E88107
:100A2000F9810488F589E02D62E0CE010995E8811D
:100A3000F9810488F589E02D612FCE01DF91CF91F6
:100A40001F91FF90EF90DF90CF9009941F93CF9369
:100A5000DF9320917C03261709F45DC0162FEC016B
:100A60006230E9F168F4662309F440C0613009F0AE
:100A700052C061E00E946004837E482F44603BC006
:100A80006330B9F0643009F046C061E00E94600450
:100A9000837E482F4C6061E0CE010E94B7048885B8
:100AA000882369F1E881F9810688F789E02D61E002
:100AB00013C061E00E946004837E482F406161E0C2
:100AC000CE010E94B70488858823C9F0E881F981A6
:100AD0000688F789E02D60E0CE01099510C061E03D
:100AE0000E946004837E482F486005C061E00E9438
:100AF0006004482F437E61E0CE010E94B7048091DC
:100B00007C03811106C067E2CE010E94600487FF6A
:100B1000F6CF10937C03DF91CF911F910895CF936F
:100B2000DF93EC01603208F06FE16F8388858823E2
:100B300011F066956F8361E1CE010E946004807EB2
:100B40009F81482F492B61E1CE01DF91CF910C9419
:100B5000B704CF92DF92EF92FF920F931F93CF9340
:100B6000DF93EC01F62ED42EC52E122FE881F981E9
:100B70000488F589E02D61E0099567E2CE010E94C5
:100B8000600487FFFACF40E065E2CE010E94B7041F
:100B90001E3308F01DE3E11004C0002321F000E43F
:100BA00003C000E801C000E0E881F981008CF18D0C
:100BB000E02DCE01099580E80E94E40383E0810FD7
:100BC0000E94E4038F2D0E94E4038D810E94E403C0
:100BD000802F0E94E4030D2DED2CFC2C8E2D801B0C
:100BE000811730F4F70181917F010E94E403F6CF71
:100BF000E881F981028CF38DE02DCE010995E88121
:100C0000F9810488F589E02D64E0CE0109950E9400
:100C100084196B017C018B810E94C01A892B81F0A1
:100C2000E881F9810488F589E02D61E0CE01DF914A
:100C3000CF911F910F91FF90EF90DF90CF9009948B
:100C40000E948419DC01CB018C199D09AE09BF09F2
:100C5000883E9340A105B105F0F2E2CFCF93DF9338
:100C6000EC0110927B0310927A0310927903109298
:100C70007803109277031092760310927503109206
:100C8000740368E20E94600482FF0AC06DE3CE0133
:100C90000E946004482F44606DE3CE010E94B704B7
:100CA00040E465E2CE010E94B704E881F98104883E
:100CB000F589E02D63E0CE01DF91CF910994CF92C9
:100CC000DF92EF92FF920F931F93CF93DF93EC018C
:100CD0008B01E881F9810488F589E02D61E00995AF
:100CE00001151105F1F0E881F981008CF18DE02DFD
:100CF000CE0109958EEB0E94E4037801680180E142
:100D0000C80ED11CF70181917F010E94E403EC140D
:100D1000FD04C1F7E881F981028CF38DE02DCE014D
:100D200009956DE3CE010E9460048E7F41E0012BA6
:100D300009F440E0482B6DE3CE01DF91CF911F9184
:100D40000F91FF90EF90DF90CF900C94B7048F92AB
:100D50009F92AF92BF92CF92DF92EF92FF920F934A
:100D60001F93CF93DF93CDB7DEB7AE970FB6F8944E
:100D7000DEBF0FBECDBF8C01E42E8EE2AE014F5F11
:100D80005F4F6A01DA01E82F1D92EA95E9F791E0D9
:100D9000998334E03A8342E04B8393E09D834E8312
:100DA0003F8340E4488735E039879A8796E09B8700
:100DB00093E39C8737E03D8798E09F8799E0998B84
:100DC00099E19B8B92E49C8B55E25D8B4E8B46E2C6
:100DD0004F8B388F38E2398F30E13A8F39E23B8FD1
:100DE0003CED3C8F8D8F88E88E8F8FE28F8F8DE268
:100DF00088A380E389A337E33BA330E93CA338E32E
:100E00003DA39EA39CE39FA39FE898A79DE399A77A
:100E100092E19AA79FE69BA78CA78FEF8DA76F31D2
:100E200031F06B3231F0663531F084EE05C08EE47E
:100E300003C08CE601C089ED8E876F3141F06B32C3
:100E400021F0663521F480E003C080E401C080EC2D
:100E5000888B2AA361E0D80112968C910E94911A86
:100E600061E0F80182810E94551A0E94D30E0E940F
:100E700084194B015C014AEA6FE2C8010E94B70481
:100E80006FE2C8010E9460048A3A61F00E948419EE
:100E9000DC01CB0188199909AA09BB09C297A105F0
:100EA000B10548F30E9484194B015C0145E56FE2EE
:100EB000C8010E94B7046FE2C8010E946004853532
:100EC00061F00E948419DC01CB0188199909AA09F3
:100ED000BB09C297A105B10548F3F12CF601EF0D4E
:100EE000F11DEF0DF11D60816F3F31F04181C801AF
:100EF0000E94B704F394F2CF60E070E0C8010E9452
:100F00005F06D801ED91FC9111970084F185E02DE9
:100F100018966C91C8010995D801ED91FC9104884F
:100F2000F589E02D61E0C80109950E9484194B0103
:100F30005C0167E2C8010E94600487FD0CC00E944A
:100F40008419DC01CB0188199909AA09BB09C29748
:100F5000A105B10570F30E948419DC01CB01881949
:100F60009909AA09BB09C297A105B10598F4109285
:100F7000730343E050E068E873E0F80184810E9465
:100F800018181093720300937103D8011596EC9210
:100F900081E001C080E0AE960FB6F894DEBF0FBED0
:100FA000CDBFDF91CF911F910F91FF90EF90DF9018
:100FB000CF90BF90AF909F908F900895CF93DF9385
:100FC000EC0161110DC064E2CE010E94600490E06A
:100FD00091958195910995958795DF91CF91089588
:100FE00041E063E20E94B70463E2CE010E94600424
:100FF00081FFFACFE8CFCF93DF9320917C0323309A
:10100000A9F420917803211111C0EC0160E00E9445
:10101000DE07863A9F4F54F4E881F9810488F58908
:10102000E02D61E0CE01099581E001C080E0DF9113
:10103000CF910895EF92FF921F93CF93DF93EC012E
:1010400080917C03833001F568E2CE010E94600448
:1010500082FD28C019C080917B038D3330F4E0916C
:101060007B03F0E0E358FC4F1082E881F981028CA9
:10107000F38DE02DCE010995E881F9810488F58989
:10108000E02D63E0CE01099560E0CE010E94DE070D
:101090009093750380937403DF91CF911F91FF901C
:1010A000EF900895E881F9810488F589E02D61E0E9
:1010B000CE010995E881F981008CF18DE02DCE01FA
:1010C000099580E00E94E40380E00E94E40380939D
:1010D0007803809178038334D0F4809178038093EF
:1010E000780380E00E94E403809379038E8181116C
:1010F00009C0809179039D81981721F0809179032F
:101100008F3F39F480917803833018F017C082E460
:10111000E6CF10927803E881F981028CF38DE02DFF
:10112000CE010995E881F9810288F389E02DCE018D
:10113000DF91CF911F91FF90EF90099480917803F8
:10114000835080937B0380E00E94E40380937A03C2
:1011500080E00E94E403982F907890937603982F74
:10116000907490937703E881F9810684F785E02DE8
:10117000682FCE01099510E080917B03181708F0C5
:101180006ACFE12EF12C80E00E94E403F701E358DE
:10119000FC4F80831F5FF0CF8F929F92AF92BF92E0
:1011A000CF92DF92EF92FF920F931F93CF93DF9333
:1011B000EC01162F6A01F22E6DE30E946004482FA5
:1011C00044606DE3CE010E94B7040E9484194B0174
:1011D0005C01CE010E94FB07811115C00E94841999
:1011E000DC01CB0188199909AA09BB09883E934003
:1011F000A105B10540F4E881F9810480F581E02D75
:10120000CE010995E6CFE881F9810088F189E02DCA
:10121000E12C2F2DA601612FCE010995DF91CF91F1
:101220001F910F91FF90EF90DF90CF90BF90AF9004
:101230009F908F9008954F925F926F927F92AF929E
:10124000BF92CF92DF92EF92FF920F931F93CF93B3
:10125000DF93EC015B01F42E1092770310917A0377
:10126000C0907403D09075036DE30E946004482F12
:1012700044606DE3CE010E94B7040E9484192B01E3
:101280003C01CE010E94FB07811115C00E94841908
:10129000DC01CB0184199509A609B709883E934062
:1012A000A105B10540F4E881F9810480F581E02DC4
:1012B000CE010995E6CF10937A03E881F981008881
:1012C000F189E02DEE24E39400E02F2DA501612F9C
:1012D000CE010995D0927503C0927403DF91CF912E
:1012E0001F910F91FF90EF90DF90CF90BF90AF9044
:1012F0007F906F905F904F9008951F93CF93DF93EF
:10130000EC01162F611102C045E501C04DE56AE50B
:10131000CE010E94B704111102C040E701C04CE7A2
:101320006CE5CE01DF91CF911F910C94B704CF9360
:10133000DF93EC016887611102C04AE101C04FE010
:1013400063E1CE010E94B7048885882341F061E102
:10135000CE010E9460048F71482F406602C04F8109
:10136000406861E1CE01DF91CF910C94B704FC019C
:10137000DB0186E591E09183808312968C91129730
:10138000828313968C911397838314968C91149770
:10139000848315968C911597858316968C91169754
:1013A000868317968C911797878318968C91189738
:1013B000808719968C91199781871A968C918287CC
:1013C00008950F931F93CF93DF93EC01062F142FF3
:1013D000A90160E070E082E094E00E94DC17212F18
:1013E00030E0AE01602F82E094E00E94E217182FF7
:1013F000C80FD11D188240E050E0BA0182E094E0AD
:101400000E94DC17812FDF91CF911F910F910895DA
:101410002F923F924F925F926F927F928F929F9204
:10142000AF92BF92CF92DF92EF92FF920F931F93F2
:10143000CF93DF936C01162FC42F4901F02E3E2C61
:101440000E9484192B013C01CC2329F0C9E8D1E08A
:1014500097E0292E04C0C1E9D1E084E0282EA12C18
:10146000B12C0E948419DC01CB0184199509A609CD
:10147000B70988159905AA05BB0500F5EF2C02E010
:10148000222DAE01612FC6010E940C04882349F36E
:1014900080917B03863028F380917D03863409F7A1
:1014A00080917E038C34E9F680917F038835C9F6FC
:1014B000809180038F33A9F681E009C0332031F099
:1014C00062E071E082E094E00E94CA1680E0DF9161
:1014D000CF911F910F91FF90EF90DF90CF90BF9031
:1014E000AF909F908F907F906F905F904F903F90C4
:1014F0002F900895282F082E000C330B813414F000
:10150000275331092295207F613414F089EC01C002
:1015100080ED860F820F08958F929F92AF92BF92B7
:10152000CF92DF92EF92FF920F931F93CF93DF93AF
:101530006C3008F44CC0262F2170F22E60FD47C09D
:10154000C62F8C014C01C12CD12CE12CA62EB12C24
:1015500082E0A81AB1088C2DF40161914F0190ED41
:10156000960F9A3020F09FEB960F963088F580FF0B
:1015700009C0CA14DB0434F4F401329780810E945C
:101580007A0AE80EFFEFCF1ADF0ACC1620F3D0E07C
:1015900098012C0F3D1FF9013197D90112976081F5
:1015A0008C910E947A0A9E2D9195981311C0F80192
:1015B000618180810E947A0A282F30E02B5F3F4FA3
:1015C000220F331FC217D30719F4F82E01C0F12CD4
:1015D0008F2DDF91CF911F910F91FF90EF90DF90B2
:1015E000CF90BF90AF909F908F9008955F926F9231
:1015F0007F928F929F92AF92BF92CF92DF92EF92A3
:10160000FF920F931F93CF93DF938C014B01542EC6
:101610003F932F9386E991E09F938F939F926F93CF
:101620000E942B1F6C01E801A52CB12C0F900F908C
:101630000F900F900F900F9000E010E03C01772486
:101640000A151B0579F07301E00EF11EE80CF91C78
:10165000698188810E947A0AF70180830F5F1F4F9A
:101660002296EECF852D8C0DDF91CF911F910F919A
:10167000FF90EF90DF90CF90BF90AF909F908F90B2
:101680007F906F905F9008950F931F93CF93DF9398
:10169000CDB7DEB70DB71EB7262F30E0220F331FB0
:1016A000A9014F5F5F4FEDB7FEB7E41BF50B0FB617
:1016B000F894FEBF0FBEEDBF4DB75EB74F5F5F4FF3
:1016C000FA01782FDC018A2F871B861788F48D9109
:1016D000982F92959F7090639A330CF0995D908348
:1016E0008F7080638A330CF0895D81833296EBCFF3
:1016F000FA01E20FF31F1082BA0182E094E00E9427
:10170000DC160FB6F8941EBF0FBE0DBFDF91CF9150
:101710001F910F9108952F923F924F925F926F9277
:101720007F928F929F92AF92BF92CF92DF92EF9271
:10173000FF920F931F93CF93DF93CDB7DEB7279719
:101740000FB6F894DEBF0FBECDBF3C01462E4A0156
:10175000522E1801CF821A2D0E9484196B837C832C
:101760008D839E835701C12CD12C112351F06EEB38
:1017700070E082E094E00E949916652DC4010E94F9
:10178000440BEF8002E0252DA401642DC3010E94CB
:101790000C04811118C00E948419DC01CB012B813B
:1017A0003C814D815E81821B930BA40BB50BA81667
:1017B000B906CA06DB06C8F664E770E082E094E08A
:1017C0000E94CA1665C000917B031123C1F065EB2E
:1017D00070E082E094E00E9499164AE050E0602FA9
:1017E00082E094E00E94441761EB70E082E094E0B4
:1017F0000E949916602F8DE793E00E94440B0830F9
:1018000050F28DE793E020917D03263421F620915C
:101810007E032C3409F0BFCF20917F03283509F0D7
:10182000BACF209180032A3309F0B5CF602F70E042
:10183000FB01E658FC4F20812A3309F0ACCFFB01B5
:10184000E558FC4F20812F3409F0A5CFFB01E45867
:10185000FC4F20812B3409F09ECF1A8219829E0101
:101860002F5F3F4F3F932F9326EA31E03F932F9313
:101870009F938F930E944D1F81E00F900F900F90C8
:101880000F900F900F9029813A812215330509F0AE
:1018900080E027960FB6F894DEBF0FBECDBFDF9174
:1018A000CF911F910F91FF90EF90DF90CF90BF905D
:1018B000AF909F908F907F906F905F904F903F90F0
:1018C0002F9008952F923F924F925F926F927F9246
:1018D0008F929F92AF92BF92CF92DF92EF92FF9240
:1018E0000F931F93CF93DF93CDB7DEB7C65CD109BB
:1018F0000FB6F894DEBF0FBECDBFC454DF4F99833F
:101900008883CC5BD040CE53DF4F6883C25CD0402D
:10191000C854DF4F59834883C85BD040C254DF4F5F
:1019200039832883CE5BD040B02E0E9484192B01CE
:101930003C0120917A03C054DF4F2883C05CD04023
:10194000812C912C1E0134E7230E311CC854DF4F2B
:10195000A881B981C85BD040CD01A0E0B0E0CD53F3
:10196000DF4F88839983AA83BB83C35CD04028EE72
:1019700033E043E76AE0CE0101960E94E109082FB7
:10198000282F30E0C654DF4F39832883CA5BD0400C
:101990002630310508F4F3C08981863409F0EFC0A0
:1019A0008A818C3409F0EBC08B81883509F0E7C05F
:1019B0008C818A3309F0AAC0FE01359614E0E12C2F
:1019C000F12C9FEF910F819120ED280F2A3078F4B0
:1019D0004AE04E9D90014F9D300D1124790150E356
:1019E000E51AF108E80EF11C87FDFA9407C08A3366
:1019F00029F4143009F4DFC0192F06C081E0810FEB
:101A0000883011F0182FDDCF81E0810FE1E0F0E0A8
:101A1000EC0FFD1FE80FF11D80818A3309F0CBC068
:101A20000E9484192B013C011E5FC12ED12C602F16
:101A3000611B81E090E08C0F9D1F8C0D9D1D0E940D
:101A40008C0A882309F45CC08E149F0409F05EC0E0
:101A500098E0C90ED11C9401482FB10181E090E0BB
:101A60008C0F9D1F8C0D9D1D0E94F60ACF53DF4FDA
:101A70008883C15CD040C454DF4F68817981CC5BDE
:101A8000D040CE0183559F4F0E94B709AB2CC25462
:101A9000DF4FC880D980CE5BD040C854DF4FE8808C
:101AA000F980C85BD0408401CF53DF4F2881C15CEF
:101AB000D040A101C054DF4F6881C05CD040CE014E
:101AC00083559F4F0E948B0B882309F474C09F920B
:101AD0008F92A6EAB1E0BF93AF933F922F920E94FC
:101AE0002B1FB10182E094E00E94DC163FEF831AC5
:101AF000930A0F900F900F900F900F900F9006C0C9
:101B00006AEF70E082E094E00E94CA16C654DF4F8C
:101B100048815981CA5BD0404730510581F58C819D
:101B20008F3369F58D81853451F58E818F3439F588
:101B30008F81863421F5C454DF4F68817981CC5B75
:101B4000D040CE0183559F4F0E94B709EB2CC25461
:101B5000DF4F08811981CE5BD040C854DF4F288108
:101B60003981C85BD04041E0CE53DF4F6881C25C11
:101B7000D040CE0183559F4F0E94080A1DC00E948D
:101B80008419DC01CB0184199509A609B709CD5345
:101B9000DF4F288139814A815B81C35CD04028179F
:101BA00039074A075B0708F0E2CE66EC70E082E096
:101BB00094E00E94991680E0CA53DF4F0FB6F89464
:101BC000DEBF0FBECDBFDF91CF911F910F91FF9070
:101BD000EF90DF90CF90BF90AF909F908F907F90CD
:101BE0006F905F904F903F902F900895AF92BF926B
:101BF000CF92DF92EF92FF920F931F93CF93DF93D9
:101C0000CDB7DEB72B970FB6F894DEBF0FBECDBFB2
:101C10007C01162F6A0159010E947F04AB01BC01AF
:101C2000405C5D4B604F7F4FC7010E94D604B701F7
:101C3000CE0101960E94B7099501A601612FCE0140
:101C400001960E94620CD82EC7010E947F04AB014E
:101C5000BC01405452446F407109C7010E94D60430
:101C60008D2D2B960FB6F894DEBF0FBECDBFDF9142
:101C7000CF911F910F91FF90EF90DF90CF90BF9089
:101C8000AF9008956F927F928F929F92AF92BF9282
:101C9000CF92EF92FF920F931F93CF93DF93CDB725
:101CA000DEB72B970FB6F894DEBF0FBECDBFFC0199
:101CB0006430B9F580818634A1F581818C3489F551
:101CC0008281883571F583818F3359F54701580139
:101CD000F22E3A01BA01CE0101960E94B709EC2C0E
:101CE0008401950140E06F2DCE0101960E94080A03
:101CF000182F882379F080917B038730A0F08091A2
:101D000081038E3481F46DE773E082E094E00E94F9
:101D1000DC1607C061E171E082E094E00E94CA161F
:101D20002DC010E02BC06BE571E082E094E00E94D2
:101D3000CA16B301CE0101960E94B7090C2D940179
:101D4000A5016F2DCE0101960E94F60D182F882354
:101D500079F064E571E082E094E00E94CA16CC203C
:101D600061F065E371E082E094E00E94CA1605C06C
:101D7000CC20B9F269E171E0CFCF11E0812F2B9631
:101D80000FB6F894DEBF0FBECDBFDF91CF911F918C
:101D90000F91FF90EF90CF90BF90AF909F908F905A
:101DA0007F906F900895CF93CFB7F8948091BA0346
:101DB000811127C0E5E9F1E08491E1E8F1E0949137
:101DC000E82FF0E0EE0FFF1FED54FE4FA591B49108
:101DD000EC91E92321F461E08AE00E94911A61E02C
:101DE0008AE00E94551A8CB580618CBD8CB58064E8
:101DF0008CBD61E08DE00E94551A61E08BE00E948D
:101E0000551A8091BA038F5F8093BA03CFBFCF91E9
:101E10000895CF93DF93CDB7DEB7A8970FB6F894A8
:101E2000DEBF0FBECDBF9E01235D3F4FF901419143
:101E300051919F0168E270E0CE0101960E94661FF9
:101E4000BE016F5F7F4F82E094E00E94BD16A896AE
:101E50000FB6F894DEBF0FBECDBFDF91CF910895CE
:101E6000CF93DF93EC0161E089E00E94551A61E0B5
:101E700089E00E94911ABE01DD0F880B990B0E9428
:101E8000B51960E089E0DF91CF910C94911A0F931E
:101E90001F93CF93DF93EC01FC01E458FD4F88EED4
:101EA00093E091838083D093BC03C093BB03798379
:101EB00068832A831A8619861B821C828E01025827
:101EC0001D4FF801408340E250E06FEF70E0CE011B
:101ED000875F9D4F0E94C51E40E250E064E370E0C2
:101EE000CE01845C9D4F0E94352540E250E06FEFAB
:101EF00070E0CE01845A9D4F0E94C51E60E0F8013B
:101F00008081DF91CF911F910F910C94551AFC01A4
:101F1000E75DFD4F875C9D4FDB012D91BD01219356
:101F2000E817F907C9F70895262F30E043E0359503
:101F300027954A95E1F7820F931FFC01E45AFD4F64
:101F4000808190E080959095677002C09595879507
:101F50006A95E2F781700895E62FF0E023E0F595A9
:101F6000E7952A95E1F78E0F9F1FFC01E45AFD4F7C
:101F7000677081E090E001C0880F6A95EAF780956C
:101F80009081892380830895E62FF0E023E0F59582
:101F9000E7952A95E1F78E0F9F1FFC01E45AFD4F4C
:101FA000677081E090E001C0880F6A95EAF7908140
:101FB000892B80830895CF93DF93EC0163E18881BF
:101FC00099810E946004682F80E090E00E945D2566
:101FD000FE01E55CFD4F608181E090E00E945D259F
:101FE000FE01E65CFD4F608182E090E00E945D258D
:101FF000FE01E75CFD4F608183E190E00E945D257A
:1020000040E150E063E070E0CE01875D9D4FDF91DD
:10201000CF910C944D256F927F928F929F92AF92A9
:10202000BF92CF92DF92EF92FF920F931F93CF93C5
:10203000DF93EC01662E042F722E80E090E00E9468
:102040004525182FCE01855C9D4F5C01DE01A65C05
:10205000BD4F7D01FE01E75CFD4F6F0142974C01D2
:102060001F3011F01A3111F5002301F169EE71E012
:1020700082E094E00E94DC1681E090E00E94452519
:10208000D5018C9382E090E00E944525F701808382
:1020900083E190E00E944525D6018C9340E150E019
:1020A00063E070E0C4010E94352513C06DEF71E05C
:1020B00082E094E00E94DC1684E6F501808386E5E8
:1020C000D7018C93F601608260E172E0CE010E943C
:1020D000870FD5012C91F6014081D7016C91888141
:1020E00099810E94A706B401888199810E945F06A8
:1020F0001F3051F488819981DC01ED91FC910084BD
:10210000F185E02D61E00995772059F0011109C0B2
:1021100061E272E082E094E00E94DC16CE010E944F
:10212000DB0F88819981DF91CF911F910F91FF90F3
:10213000EF90DF90CF90BF90AF909F908F907F9067
:102140006F900C94EB03AC0182E0E82FF0E093E099
:10215000F595E7959A95E1F7E40FF51FE45CFD4FDF
:10216000208130E020953095982F977002C03595EA
:1021700027959A95E2F720FF02C08F5FE6CF08957A
:102180004F925F926F927F928F929F92AF92BF9287
:10219000CF92DF92EF92FF920F931F93CF93DF9333
:1021A00000D000D0CDB7DEB76C0180907B03912CBE
:1021B00023E0821691040CF463C190917E03953064
:1021C00008F05EC110917A03E12EF12C8091770323
:1021D00021E0811101C020E05B01DB0113962C930B
:1021E0001397209174033091750316963C932E93A8
:1021F000159780917D038F3FC9F59330B9F52091F4
:102200007F03203199F50E94841969837A838B8337
:102210009C83CE0101960E946B13F601808191810F
:102220004091070150910801DC01ED91FC91019072
:10223000F081E02D00E027E0612F099573E0F5942F
:10224000E7947A95E1F7CE0CDF1CF601E75FFD4FCE
:10225000177081E090E001C0880F1A95EAF7809529
:1022600090818923808383E090E00CC1F601238173
:10227000222309F47BC08F3F09F078C0933009F026
:1022800075C020917F03233009F070C063E472E0D1
:1022900082E094E00E94DC16C6010E94B213D601CF
:1022A0008D919C91DC01ED91FC910284F385E02DF0
:1022B00060E00995F601A080B180D501ED91FC9117
:1022C000828093800E943F13F82E0E943A1368E2A6
:1022D000E62E02E02F2DAC01612FC501F401099516
:1022E000182FD6018D919C91DC01ED91FC91028417
:1022F000F385E02D6FE10995112309F4B8C0E09151
:102300000901F0910A018581E82FF0E053E0F5958D
:10231000E7955A95E1F7EC0DFD1DE45CFD4F282F84
:10232000277081E090E001C0880F2A95EAF7809538
:1023300090818923808340E250E064E370E0C6012D
:10234000845C9D4F0E944D2568E572E082E094E038
:102350000E94DC16F601E75CFD4F21E041E0608160
:10236000C6010E940B10F601138281C0D5011C9397
:1023700011968C93119712969C93129780917F03DC
:1023800014968C9314971796EDE7F3E0B40163501D
:1023900071099F012D5733402617370724F4938185
:1023A0009D933196F6CF813109F464C0843009F4ED
:1023B00064C0C70143E0959587954A95E1F717708A
:1023C000F12E8601080F191F075F1D4FF80180814C
:1023D00090E0809590950F2C02C0959587950A9472
:1023E000E2F780FF3DC0F401E458FC4F2081F40186
:1023F000E558FC4F808190E0A0E0B0E0DC01992737
:102400008827B22BF401E758FC4F2081822BF4017E
:10241000E658FC4F2081922B89839A83AB83BC833F
:102420000E94841949805A806B807C80DC01CB013A
:1024300084199509A609B709883B9B40A105B105F8
:10244000F8F4F501E80DF91D108281E090E001C07B
:10245000880FFA94EAF7D8019C91892B8C9304C0D9
:10246000F501E60FF71F178281E090E00BC084E0D2
:1024700090E008C082E090E005C085E090E002C0F6
:1024800080E090E00F900F900F900F90DF91CF9130
:102490001F910F91FF90EF90DF90CF90BF90AF9082
:1024A0009F908F907F906F905F904F9008954F9284
:1024B0005F926F927F928F929F92AF92BF92CF92D4
:1024C000DF92EF92FF920F931F93CF93DF93CDB7DD
:1024D000DEB7C254D1090FB6F894DEBF0FBECDBF30
:1024E0006C01B62EE42E442381F110E0FF24F39416
:1024F00032E4A32ECE0101964C010E945813D6015E
:102500008D919C914091070150910801DC01ED9162
:10251000FC910190F081E02D00E023E06B2D099506
:102520000E9484192B013C01FF2009F468C00E941D
:102530008419DC01CB0184199509A609B709883EE5
:102540009340A105B105F0F15BC0D6018D909C9040
:10255000D401ED91FC9162807380E11002C005E02E
:1025600001C003E00E943F13182F0E943A1328E293
:10257000E22E212FAC016B2DC401F3010995182F18
:10258000882391F080917B03882371F080917D03F3
:10259000853551F481E0D60114968C9369E772E099
:1025A00082E094E00E94DC16F601E75CFD4F90812A
:1025B000F6018281981721F0808191810E94EB03BE
:1025C000812F30C0D6018D919C91DC01ED91FC9161
:1025D0000480F581E02D0995882309F4A8CFD40162
:1025E000EA2D1D92EA95E9F7B401C6010E94C010D8
:1025F0000297A1F4CE0108960E94431313E0F12C38
:102600001F5F133008F479CFFF2009F49ECFF60145
:10261000808191810E94EB0380E004C0D6018D91FE
:102620009C91F8CFCE5BDF4F0FB6F894DEBF0FBEA4
:10263000CDBFDF91CF911F910F91FF90EF90DF9071
:10264000CF90BF90AF909F908F907F906F905F9052
:102650004F9008951F93CF93DF93EC01CB01142F7C
:102660000E94F313412F682FCE01DF91CF911F916C
:102670000C9457128091090190910A01089580915C
:10268000BD0390E00895BC019091BD032091090124
:1026900030910A0144E050E0F901E90FF11DCF014A
:1026A0000E94D31E8091BD038C5F8093BD0308956B
:1026B000E0910701F09108018FEF8083E09107011D
:1026C000F091080183E08183E0910701F091080116
:1026D00080E182830895FC01A0910701B091080177
:1026E0008FEF8C93A0910701B091080183E01196C0
:1026F0008C93A0910701B091080181E112968C930F
:102700001297808113968C93139740815181628137
:102710007381452F562F672F77274083518362831C
:10272000738314964C931497408151816281738115
:10273000452F562F672F77274083518362837383FA
:1027400015964C9315974081518162817381452F75
:10275000562F672F772740835183628373831696A2
:102760004C9308950F931F93CF93DF93EC01E09167
:102770000901F0910A018FEF8083E0910901F09146
:102780000A0183E081830091090110910A0184E02C
:10279000F8018283FE01E55CFD4F8081F8018383AF
:1027A000FE01E65CFD4F8081F8018483CE010E942A
:1027B000A310F8018583C75DDD4F86E090E0299185
:1027C000E0910901F0910A01E80FF91F20830196B9
:1027D00086319105A1F786E18093BD03DF91CF910A
:1027E0001F910F910895CF92DF92EF92FF920F9376
:1027F0001F93CF93DF9300D0CDB7DEB7AE014F5F0D
:102800005F4F6CE171E00E94FC1EF12C00E010E0D3
:10281000E12C009709F46EC00630110509F46AC076
:102820000330110521F13CF40130110571F0023043
:102830001105A1F006C00430110511F10530110594
:1028400041F10E94951EE82E49C0C0900901D09028
:102850000A010E94951EF601808340C0C0900901C4
:10286000D0900A010E94951EF601818337C00E9414
:10287000951E21E0892B09F420E0209306012EC04B
:10288000C0900901D0900A010E94951EF601828332
:1028900025C0FC0101900020E9F731979F01281B1A
:1028A000390BF22E782FDC0143E050E06A2F671BD2
:1028B0006F1558F46D91E0910901F0910A01E40F50
:1028C000F51F60834F5F5F4FF1CF2150FC01E20F96
:1028D000F11D80818A3011F41082F22E0F5F1F4F9C
:1028E000AE014F5F5F4F6CE171E080E090E00E94CD
:1028F000FC1E8FCF83E08F0D8093BD038E2D0F9034
:102900000F90DF91CF911F910F91FF90EF90DF908B
:10291000CF900895FC01918D228D892F90E0805CED
:102920009F4F821B91098F7399270895FC01918D08
:10293000828D981731F0828DE80FF11D858D90E022
:1029400008958FEF9FEF0895FC01918D828D981768
:1029500061F0828DDF01A80FB11D5D968C91928D83
:102960009F5F9F73928F90E008958FEF9FEF089580
:10297000FC01538D448D252F30E0842F90E0821B85
:10298000930B541710F0CF9608950197089583E2A2
:1029900096E1892B49F080E090E0892B29F00E9494
:1029A000231681110C9400000895FC01848DDF0131
:1029B000A80FB11DA35ABF4F2C91848D90E00196B2
:1029C0008F739927848FA689B7892C93A089B189A1
:1029D0008C91837080648C93938D848D981306C042
:1029E0000288F389E02D80818F7D80830895EF92A6
:1029F000FF920F931F93CF93DF93EC0181E0888FB9
:102A00009B8D8C8D981305C0E889F989808185FD9F
:102A100026C0F62E0B8D10E00F5F1F4F0F7311278E
:102A2000E02E8C8DE8120CC00FB607FCFACFE889B7
:102A3000F989808185FFF5CFCE010E94D514F1CFB1
:102A40008B8DFE01E80FF11DE35AFF4FF0829FB717
:102A5000F8940B8FEA89FB89808180620AC09FB756
:102A6000F894EE89FF896083E889F9898081837011
:102A7000806480839FBF81E090E0DF91CF911F91C0
:102A80000F91FF90EF900895CF93DF93EC01888D25
:102A90008823C9F0EA89FB89808185FD05C0A88962
:102AA000B9898C9186FD0FC00FB607FCF5CF8081E8
:102AB00085FFF2CFA889B9898C9185FFEDCFCE0132
:102AC0000E94D514E7CFDF91CF910895CF92DF9286
:102AD000EF92FF921F93CF93DF93EC016A017B018A
:102AE000122FE889F98982E080834115514E6105F2
:102AF0007105B1F060E079E08DE390E0A701960107
:102B00000E94861CDA01C9010197A109B109B69595
:102B1000A795979587959C01211580E13807A8F026
:102B2000E889F989108260E874E88EE190E0A701F5
:102B300096010E94861CDA01C9010197A109B10919
:102B4000B695A795979587959C01EC85FD85308373
:102B5000EE85FF852083188EEC89FD891083EA8934
:102B6000FB89808180618083EA89FB89808188601C
:102B70008083EA89FB89808180688083EA89FB8978
:102B800080818F7D8083DF91CF911F91FF90EF90A7
:102B9000DF90CF9008951F920F920FB60F921124DD
:102BA0002F938F939F93EF93FF93E0911204F091F3
:102BB00013048081E0911804F091190482FD12C081
:102BC000908180911B048F5F8F7320911C0482176A
:102BD00051F0E0911B04F0E0EE5FFB4F958F809386
:102BE0001B0401C08081FF91EF919F918F912F91E4
:102BF0000F900FBE0F901F9018951F920F920FB657
:102C00000F9211242F933F934F935F936F937F9372
:102C10008F939F93AF93BF93EF93FF9382E094E0E2
:102C20000E94D514FF91EF91BF91AF919F918F9129
:102C30007F916F915F914F913F912F910F900FBEB8
:102C40000F901F90189582E094E00E948A1421E072
:102C5000892B09F420E0822F0895E2E0F4E013824A
:102C6000128288EE93E0A0E0B0E084839583A6838F
:102C7000B78384E892E09183808385EC90E0958728
:102C8000848784EC90E09787868780EC90E0918B36
:102C9000808B81EC90E0938B828B82EC90E0958B23
:102CA000848B86EC90E0978B868B118E128E138E20
:102CB000148E0895CF92DF92EF92FF920F931F939D
:102CC000CF93DF936C017A018B01C0E0D0E0CE1589
:102CD000DF0581F0D8016D918D01D601ED91FC9158
:102CE0000190F081E02DC6010995892B11F0219604
:102CF000EECF7E01C701DF91CF911F910F91FF9021
:102D0000EF90DF90CF9008956115710579F0FB0188
:102D100001900020E9F73197AF01461B570BDC010A
:102D2000ED91FC910280F381E02D099480E090E028
:102D30000895EF92FF920F931F93CF93DF938C012F
:102D40007B01C0E0D0E0F701EC0FFD1F649166232A
:102D500061F0D801ED91FC910190F081E02DC80166
:102D60000995892B11F02196EECFCE01DF91CF91FD
:102D70001F910F91FF90EF9008950C948416DC0141
:102D8000ED91FC910190F081E02D099462E972E0EF
:102D90000C9484160F931F93CF93DF93EC010E9442
:102DA00099168C01CE010E94C616800F911FDF91EB
:102DB000CF911F910F9108950F931F93CF93DF939E
:102DC000EC010E9484168C01CE010E94C616800F71
:102DD000911FDF91CF911F910F9108958F929F9234
:102DE000AF92BF92EF92FF920F931F93CF93DF9317
:102DF000CDB7DEB7A1970FB6F894DEBF0FBECDBF3B
:102E00007C01FA01CB0119A2223008F42AE08E01DC
:102E10000F5D1F4F822E912CA12CB12CBF01A5015B
:102E200094010E94861CF901CA01015011096A30FF
:102E300014F4605D01C0695CD8016C93232B242BD2
:102E4000252B61F7B801C7010E948416A1960FB621
:102E5000F894DEBF0FBECDBFDF91CF911F910F91D0
:102E6000FF90EF90BF90AF909F908F9008952115A5
:102E7000310541F4DC01ED91FC910190F081E02DF0
:102E8000642F09940C94EE169A01462F50E060E0EE
:102E900070E00C9437170F931F93CF93DF93EC01DF
:102EA0000E9444178C01CE010E94C616800F911F0C
:102EB000DF91CF911F910F910895CF92DF92EF9202
:102EC000FF920F931F93CF93DF932115310581F468
:102ED000DC01ED91FC910190F081E02D642FDF91F8
:102EE000CF911F910F91FF90EF90DF90CF900994B9
:102EF0002A30310501F577FF1DC06A017B01EC0125
:102F00006DE20E94BF168C0144275527BA014C1967
:102F10005D096E097F092AE0CE010E94EE16800F3E
:102F2000911FDF91CF911F910F91FF90EF90DF9054
:102F3000CF9008952AE0DF91CF911F910F91FF90DC
:102F4000EF90DF90CF900C94EE169A01AB01770FC3
:102F5000660B770B0C945D170F931F93CF93DF9342
:102F6000EC010E948419688779878A879B87E881AA
:102F7000F9810284F385E02DCE01099597FF17C0F2
:102F80000E948419088519852A853B85DC01CB01BF
:102F9000801B910BA20BB30B0C811D812E813F81F5
:102FA00080179107A207B30710F38FEF9FEFDF9110
:102FB000CF911F910F910895FC014483558366833F
:102FC00077830895AF92BF92CF92DF92EF92FF92F4
:102FD0000F931F93CF93DF9321153105C9F089011A
:102FE0005C016A01C0E0D0E0E62E660FFF08C50173
:102FF0000E94AC1797FD0FC08E159F0561F0F6017A
:1030000081936F0121960C171D0789F7C80104C031
:1030100080E090E001C0CE01DF91CF911F910F9130
:10302000FF90EF90DF90CF90BF90AF9008950895FC
:103030008230E8F4E82FF0E0EE0FFF1FE55FFE4F6F
:1030400071836083813041F0809169008C7F482BCF
:1030500040936900E89A089580916900837F440F46
:10306000551F440F551F482B40936900E99A089556
:103070001F920F920FB60F9211242F933F934F93ED
:103080005F936F937F938F939F93AF93BF93EF93D0
:10309000FF93E0910B01F0910C010995FF91EF91E5
:1030A000BF91AF919F918F917F916F915F914F9160
:1030B0003F912F910F900FBE0F901F9018951F9268
:1030C0000F920FB60F9211242F933F934F935F935C
:1030D0006F937F938F939F93AF93BF93EF93FF93E0
:1030E000E0910D01F0910E010995FF91EF91BF91D3
:1030F000AF919F918F917F916F915F914F913F9190
:103100002F910F900FBE0F901F901895FC0180819A
:1031100091810C94461DCF93DF93EC0188819981B6
:10312000009711F00E94461D198218821D821C8290
:103130001B821A82DF91CF9108950F931F93CF9333
:10314000DF93EC018B016F5F7F4F888199810E9433
:10315000CF1D009731F0998388831B830A8381E018
:1031600001C080E0DF91CF911F910F910895CF931F
:10317000DF93EC0188819981892B29F08A819B81D9
:103180008617970760F4CE010E949D18882341F0AE
:103190008C819D81892B19F4E881F981108281E06D
:1031A000DF91CF910895EF92FF920F931F93CF93EA
:1031B000DF93EC017B018A01BA010E94B7188111EB
:1031C00004C0CE010E948B1807C01D830C83B70179
:1031D000888199810E94CC1ECE01DF91CF911F91F1
:1031E0000F91FF90EF900895FC01118210821382DD
:1031F0001282158214826115710551F0FB01019054
:103200000020E9F73197AF01461B570B0C94D318F8
:103210000895CF93DF93FC01248135814217530732
:1032200080F4FB01DC01CD91DC9160817181CE01E4
:10323000840F951F0E94E21E009719F08C1B9D0BB6
:1032400002C08FEF9FEFDF91CF91089540E050E0F3
:103250000C94091908950E94F1190E942A190E94DC
:103260000B01C7ECD4E10E9427032097E1F30E94F1
:10327000C714F9CF1F920F920FB60F9211242F93FC
:103280003F938F939F93AF93BF938091A0049091AE
:10329000A104A091A204B091A30430919F0423E063
:1032A000230F2D3720F40196A11DB11D05C026E87E
:1032B000230F0296A11DB11D20939F048093A004AB
:1032C0009093A104A093A204B093A3048091A404BA
:1032D0009091A504A091A604B091A7040196A11D08
:1032E000B11D8093A4049093A504A093A604B09369
:1032F000A704BF91AF919F918F913F912F910F9014
:103300000FBE0F901F9018952FB7F8946091A004EE
:103310007091A1048091A2049091A3042FBF0895FD
:103320003FB7F8948091A4049091A504A091A604BD
:10333000B091A70426B5A89B05C02F3F19F00196B0
:10334000A11DB11D3FBFBA2FA92F982F8827820F2B
:10335000911DA11DB11DBC01CD0142E0660F771F7B
:10336000881F991F4A95D1F708958F929F92AF9227
:10337000BF92CF92DF92EF92FF926B017C010E948D
:1033800090194B015C01C114D104E104F10401F175
:103390000E94E91A0E949019DC01CB018819990951
:1033A000AA09BB09883E9340A105B10560F321E05D
:1033B000C21AD108E108F10888EE880E83E0981E51
:1033C000A11CB11CC114D104E104F10419F7DBCF35
:1033D000FF90EF90DF90CF90BF90AF909F908F9035
:1033E0000895789484B5826084BD84B5816084BD7D
:1033F00085B5826085BD85B5816085BDEEE6F0E06E
:10340000808181608083E1E8F0E0108280818260C9
:103410008083808181608083E0E8F0E0808181604A
:103420008083E1EBF0E0808184608083E0EBF0E07A
:10343000808181608083EAE7F0E08081846080831E
:1034400080818260808380818160808380818068C8
:1034500080831092C1000895833081F028F4813078
:1034600099F08230A1F008958730A9F08830B9F042
:103470008430D1F4809180008F7D03C080918000E2
:103480008F7780938000089584B58F7702C084B5CC
:103490008F7D84BD08958091B0008F7703C08091A7
:1034A000B0008F7D8093B0000895CF93DF9390E0BC
:1034B000FC01E958FE4F2491FC01E557FE4F849131
:1034C000882361F190E0880F991FFC01ED54FE4FB5
:1034D000C591D491FC01E755FE4FA591B4916111BE
:1034E00009C09FB7F8948881209582238883EC9146
:1034F0002E230BC0623061F49FB7F8948881322F7D
:10350000309583238883EC912E2B2C939FBF06C08C
:103510008FB7F894E8812E2B28838FBFDF91CF914E
:1035200008951F93CF93DF93282F30E0F901ED59D1
:10353000FE4F8491F901E958FE4FD491F901E55706
:10354000FE4FC491CC23C1F0162F81110E942C1A7A
:10355000EC2FF0E0EE0FFF1FE755FE4FA591B49161
:103560009FB7F894111104C08C91D095D82302C054
:10357000EC91DE2BDC939FBFDF91CF911F910895DB
:10358000CF93DF93282F30E0F901ED59FE4F84915E
:10359000F901E958FE4FD491F901E557FE4FC49166
:1035A000CC2391F081110E942C1AEC2FF0E0EE0F49
:1035B000FF1FE156FE4FA591B491EC91ED2381E000
:1035C00090E021F480E002C080E090E0DF91CF91B4
:1035D000089508950E94FE1A0C94DF1B0E94D81BC8
:1035E00058F00E94D11B40F029F45F3F29F00C9461
:1035F000C81B51110C94131C0C94CE1B0E94F01B81
:1036000068F39923B1F3552391F3951B550BBB2711
:10361000AA2762177307840738F09F5F5F4F220F56
:10362000331F441FAA1FA9F335D00E2E3AF0E0E84D
:1036300032D091505040E695001CCAF72BD0FE2F97
:1036400029D0660F771F881FBB1F2617370748072B
:10365000AB07B0E809F0BB0B802DBF01FF279358E3
:103660005F4F3AF09E3F510578F00C94C81B0C94C4
:10367000131C5F3FE4F3983ED4F3869577956795E6
:10368000B795F7959F5FC9F7880F911D9695879518
:1036900097F90895E1E0660F771F881FBB1F621737
:1036A00073078407BA0720F0621B730B840BBA0BF5
:1036B000EE1F88F7E09508950E94F81B88F09F5749
:1036C00098F0B92F9927B751B0F0E1F0660F771F46
:1036D000881F991F1AF0BA95C9F714C0B13091F03C
:1036E0000E94121CB1E008950C94121C672F782FD1
:1036F0008827B85F39F0B93FCCF386957795679501
:10370000B395D9F73EF490958095709561957F4F6C
:103710008F4F9F4F0895E89409C097FB3EF4909512
:103720008095709561957F4F8F4F9F4F9923A9F09A
:10373000F92F96E9BB279395F69587957795679529
:10374000B795F111F8CFFAF4BB0F11F460FF1BC06D
:103750006F5F7F4F8F4F9F4F16C0882311F096E900
:1037600011C0772321F09EE8872F762F05C06623AE
:1037700071F096E8862F70E060E02AF09A95660F67
:10378000771F881FDAF7880F9695879597F9089520
:1037900097F99F6780E870E060E008959FEF80EC04
:1037A000089500240A9416161706180609060895A7
:1037B00000240A9412161306140605060895092E0D
:1037C0000394000C11F4882352F0BB0F40F4BF2B7C
:1037D00011F460FF04C06F5F7F4F8F4F9F4F0895BC
:1037E00057FD9058440F551F59F05F3F71F04795B2
:1037F000880F97FB991F61F09F3F79F08795089597
:10380000121613061406551FF2CF4695F1DF08C0B5
:10381000161617061806991FF1CF869571056105D2
:1038200008940895E894BB2766277727CB0197F97A
:1038300008950E942C1C0C94DF1B0E94D11B38F0B1
:103840000E94D81B20F0952311F00C94C81B0C94F7
:10385000CE1B11240C94131C0E94F01B70F3959F37
:10386000C1F3950F50E0551F629FF001729FBB2777
:10387000F00DB11D639FAA27F00DB11DAA1F649F13
:103880006627B00DA11D661F829F2227B00DA11DC6
:10389000621F739FB00DA11D621F839FA00D611D4C
:1038A000221F749F3327A00D611D231F849F600D6D
:1038B000211D822F762F6A2F11249F5750409AF096
:1038C000F1F088234AF0EE0FFF1FBB1F661F771F22
:1038D000881F91505040A9F79E3F510580F00C94ED
:1038E000C81B0C94131C5F3FE4F3983ED4F38695F9
:1038F00077956795B795F795E7959F5FC1F7FE2B8D
:10390000880F911D9695879597F90895A1E21A2E33
:10391000AA1BBB1BFD010DC0AA1FBB1FEE1FFF1F73
:10392000A217B307E407F50720F0A21BB30BE40BC3
:10393000F50B661F771F881F991F1A9469F760950A
:103940007095809590959B01AC01BD01CF010895C4
:10395000EE0FFF1F0590F491E02D09940F931F9334
:10396000CF93DF938230910510F482E090E0E091F4
:10397000AA04F091AB0420E030E0A0E0B0E0309782
:1039800019F1408151810281138148175907C8F00C
:103990008417950769F4109731F012960C931297DB
:1039A00013961C9327C00093AA041093AB0422C063
:1039B0002115310519F04217530718F49A01BD017A
:1039C000EF01DF01F801DBCF21153105F9F0281BEC
:1039D000390B2430310580F48A819B816115710592
:1039E00021F0FB019383828304C09093AB04809306
:1039F000AA04FE01329644C0FE01E20FF31F819338
:103A0000919322503109398328833AC02091A80428
:103A10003091A904232B41F420910201309103013C
:103A20003093A9042093A804209100013091010152
:103A30002115310541F42DB73EB740910401509155
:103A40000501241B350BE091A804F091A904E217AD
:103A5000F307A0F42E1B3F0B2817390778F0AC01B1
:103A60004E5F5F4F2417350748F04E0F5F1F50938E
:103A7000A9044093A8048193919302C0E0E0F0E090
:103A8000CF01DF91CF911F910F910895CF93DF93D5
:103A9000009709F481C0FC01329713821282A09131
:103AA000AA04B091AB04109781F420813181820F78
:103AB000931F2091A8043091A9042817390751F5C4
:103AC000F093A904E093A80467C0ED0120E030E082
:103AD000CE17DF0740F44A815B819E0141155105F5
:103AE000F1F0EA01F5CFD383C28340815181840F85
:103AF000951FC817D90759F488819981840F951F9C
:103B00000296918380838A819B819383828321158E
:103B1000310529F4F093AB04E093AA043DC0E90118
:103B2000FB83EA8349915991C40FD51FEC17FD0718
:103B300061F480819181840F951F0296E901998338
:103B40008883828193819B838A83E0E0F0E01296F0
:103B50008D919C911397009719F0FD01DC01F7CF2F
:103B60008D919C9111979D012E5F3F4F820F931F66
:103B70002091A8043091A9042817390769F43097D7
:103B800029F41092AB041092AA0402C0138212828C
:103B9000B093A904A093A804DF91CF910895A0E069
:103BA000B0E0E5EDFDE10C947325EC01009721F404
:103BB000CB010E94AE1CB4C0FC01E60FF71F9C01B4
:103BC00022503109E217F30708F4A8C0D9010D917A
:103BD0001C91119706171707B0F00530110508F46E
:103BE0009BC0C80104978617970708F495C0025038
:103BF0001109061B170B019311936D937C93CF0151
:103C00000E94461D89C05B01A01AB10A4C01800EBA
:103C1000911EA091AA04B091AB04612C712CE12CEF
:103C2000F12C109709F446C08D919C911197A8151D
:103C3000B905B1F56C0142E0C40ED11CCA14DB0415
:103C400078F14C018A189B08640142E0C40ED11C33
:103C50001296BC9012971396AC91B5E0CB16D10496
:103C600040F0B282A38391828082D9016D937C93CC
:103C700009C00E5F1F4F800F911FF9019183808350
:103C8000EB2DFA2FE114F10431F0D7011396FC93D8
:103C9000EE93129741C0F093AB04E093AA043CC0AA
:103CA0006816790608F43C017D0112960D90BC91CE
:103CB000A02DB7CF8091A8049091A90488169906E9
:103CC000E1F466167706C8F4809100019091010135
:103CD000009741F48DB79EB74091040150910501C2
:103CE000841B950BE817F907C8F4F093A904E09337
:103CF000A804F901718360830FC0CB010E94AE1C40
:103D00007C01009759F0A801BE010E94BC1ECE01A3
:103D10000E94461DC70104C0CE0102C080E090E0B1
:103D2000CDB7DEB7EEE00C948F25FC0188279927EC
:103D3000E89421912032E9F3293010F02E30C8F3B5
:103D40002B3241F02D3239F4689404C00E94231FB5
:103D5000820F911D219120532A30C0F31EF49095BB
:103D600081959F4F089591110C942024803219F071
:103D700089508550C8F70895FB01DC0102C001900D
:103D80000D9241505040D8F70895DC0101C06D9369
:103D900041505040E0F70895FB01DC0101900D9285
:103DA0000020E1F70895FB01DC014150504048F04C
:103DB00001900D920020C9F701C01D924150504062
:103DC000E0F70895FB0151915523A9F0BF01DC01F3
:103DD0004D9145174111E1F759F4CD0101900020B3
:103DE00049F04D9140154111C9F3FB014111EFCF4D
:103DF00081E090E001970895FA01A191B0810097C8
:103E000019F41097E1F0CD01DC01CD010D900020F7
:103E100011F4C00113C0FB012191222319F02015D8
:103E2000D9F7F3CFFB012191201519F41E921196B9
:103E300006C02223C1F70D900020A1F7D001FA019E
:103E4000A193B08308957AE0979F902D879F802D4E
:103E5000910D11240895AEE0B0E0E1E3FFE10C9490
:103E60007D250D891E8986E08C831A8309838FEF57
:103E70009FE79E838D83AE01475E5F4F6F89788D8C
:103E8000CE0101960E94921FEF81F885E00FF11F8D
:103E900010822E96E4E00C949925AEE0B0E0E3E5C4
:103EA000FFE10C947F2585E08C838B899C899A8324
:103EB0008983AE01495E5F4F6D897E89CE0101968F
:103EC0000E940F232E96E2E00C949B25AEE0B0E01A
:103ED000ECE6FFE10C947D258C01FA0186E08C83F1
:103EE0001A83098377FF02C060E070E8CB01019775
:103EF0009E838D83A901BF01CE0101960E94921F6E
:103F00004D815E8157FD0AC02F81388542175307C6
:103F10000CF49A01F801E20FF31F10822E96E4E0F0
:103F20000C949925ABE0B0E0E8E9FFE10C946F2533
:103F30006C017B018A01FC0117821682838181FF5B
:103F4000CCC1CE0101963C01F6019381F70193FDAE
:103F5000859193FF81917F01882309F4BAC185324D
:103F600039F493FD859193FF81917F01853229F486
:103F7000B60190E00E948224E7CF912C212C312CB5
:103F8000FFE1F315D8F08B3279F038F4803279F014
:103F90008332A1F4232D20611DC08D3261F0803366
:103FA00069F4232D216016C0832D8260382EE32D05
:103FB000E4603E2E2AC0F32DF8601DC037FC2DC0F2
:103FC00020ED280F2A3040F08E32B9F436FC81C142
:103FD000232D2064322E19C036FE06C08AE0989E3A
:103FE000200D1124922E11C0EAE02E9E200D1124E6
:103FF000222EF32DF0623F2E08C08C3621F4832D43
:104000008068382E02C0883641F4F70193FD85910F
:1040100093FF81917F018111B3CF982F9F7D95549C
:10402000933028F40C5F1F4F9FE399830DC08336B4
:1040300031F0833771F0833509F059C021C0F801A0
:10404000808189830E5F1F4F88248394912C5301B4
:1040500013C02801F2E04F0E511CF801A080B1807E
:1040600036FE03C0692D70E002C06FEF7FEFC5011F
:104070000E9439244C018201F32DFF773F2E16C098
:10408000280122E0420E511CF801A080B18036FECA
:1040900003C0692D70E002C06FEF7FEFC5010E9481
:1040A0002E244C01F32DF0683F2E820133FC1BC0FF
:1040B000822D90E088169906B0F4B60180E290E077
:1040C0000E9482242A94F4CFF50137FC859137FEB3
:1040D00081915F01B60190E00E94822421102A9410
:1040E00021E0821A91088114910471F7E8C08436A6
:1040F00011F0893641F5F80137FE07C06081718102
:10410000828193810C5F1F4F08C060817181072EEF
:10411000000C880B990B0E5F1F4FF32DFF763F2E7F
:1041200097FF09C090958095709561957F4F8F4F4F
:104130009F4FF0683F2E2AE030E0A3010E94D72471
:10414000882E861845C0853731F4232D2F7EB22E58
:104150002AE030E025C0932D997FB92E8F36C1F02B
:1041600018F4883579F0B5C0803719F0883721F018
:10417000B0C0E92FE061BE2EB4FE0DC0FB2DF4608F
:10418000BF2E09C034FE0AC0292F2660B22E06C0F9
:1041900028E030E005C020E130E002C020E132E05C
:1041A000F801B7FE07C060817181828193810C5F45
:1041B0001F4F06C06081718180E090E00E5F1F4F4D
:1041C000A3010E94D724882E8618FB2DFF773F2E4F
:1041D00036FE0DC0232D2E7FA22E891458F434FEF6
:1041E0000BC032FC09C0832D8E7EA82E05C0B82CD2
:1041F000A32C03C0B82C01C0B92CA4FE0FC0FE0133
:10420000E80DF11D8081803321F49A2D997EA92E2D
:1042100009C0A2FE06C0B394B39404C08A2D867868
:1042200009F0B394A3FC11C0A0FE06C0B21488F438
:10423000280C922C9B180EC0B21460F4B60180E2D8
:1042400090E00E948224B394F7CFB21418F42B1894
:1042500002C0982C212CA4FE10C0B60180E390E08F
:104260000E948224A2FE17C0A1FC03C088E790E050
:1042700002C088E590E0B6010CC08A2D867859F01E
:10428000A1FE02C08BE201C080E2A7FC8DE2B60174
:1042900090E00E948224891438F4B60180E390E013
:1042A0000E9482249A94F7CF8A94F301E80DF11DBD
:1042B0008081B60190E00E9482248110F5CF2220F7
:1042C00009F442CEB60180E290E00E9482242A9452
:1042D000F6CFF6018681978102C08FEF9FEF2B9674
:1042E000E2E10C948B2520FD09C0FC0123FD05C0F3
:1042F00022FF02C07383628351834083089544FD8B
:1043000017C046FD17C0AB01BC01DA01FB01AA0FC3
:10431000BB1FEE1FFF1F1094D1F74A0F5B1F6E1FCC
:104320007F1FCB01BA01660F771F881F991F09C035
:1043300033E001C034E0660F771F881F991F3150AA
:10434000D1F7620F711D811D911D08950F931F9369
:10435000CF93DF938C01C8010E944424EC0197FDA8
:1043600008C00E94B31E892BB1F7B801CE010E948C
:10437000BE24CE01DF91CF911F910F9108958F92AE
:104380009F92AF92BF92EF92FF920F931F93CF93A2
:10439000DF938C01D62F7A01B22E0E9444249C0117
:1043A00033272B32310531F02D32310561F48B2D5D
:1043B0008068B82ED15011F480E068C0C8010E9416
:1043C000442497FDF9CFCB2DCD7F2B2D207309F5FC
:1043D0008033F9F4AA24AA94AD0E09F443C0C801AD
:1043E0000E94442497FD3EC09C012F7D3327283531
:1043F000310549F4C264D250A9F1C8010E94442495
:1044000097FF07C02FC0B6FE02C0C26001C0C261E4
:10441000DA2D812C912C540120ED280F283080F0CA
:10442000C4FF04C0B8010E94BE2419C02A3040F065
:10443000C6FFF8CF2F7D3FEE320F363098F727506A
:104440004C2FC501B4010E947F214B015C01C26069
:10445000D15059F0C8010E94442497FFDDCFC1FD1F
:1044600004C0AACF812C912C5401C7FF08C0B0947E
:10447000A09490948094811C911CA11CB11C2C2FA1
:10448000B501A401C7010E94732181E0DF91CF91A2
:104490001F910F91FF90EF90BF90AF909F908F90E2
:1044A0000895A0E2B0E0E7E5F2E20C9472255C0129
:1044B000962E7A01F9018E010F5F1F4F680180E28D
:1044C000D8011D928A95E9F7D50113968C9080E06A
:1044D00090E0612C712C30E061E070E083FC25916C
:1044E00083FE21918F01522E211103C080E090E0C4
:1044F00092C02E3511F4009751F1432F50E0481728
:1045000059073CF42D3559F12D3219F4772009F172
:1045100003C0772009F46AC0452D46954695469517
:10452000D601A40FB11D452D47708B0102C0000FAD
:10453000111F4A95E2F7A8015C91452B4C93651435
:1045400059F0561410F45394E7CF5A94E5CF31E064
:1045500004C07724739401C0712C0196BFCF7720DB
:1045600019F08E8180628E83311103C08824839478
:1045700017C0F6019E012F5D3F4F8081809581938A
:104580002E173F07D1F7F2CFE114F10429F0D7013C
:104590008C93F70131967F019A94812C9920F9F040
:1045A000C5010E94442497FD18C0FC01FF2723E0A9
:1045B000F595E7952A95E1F7EC0DFD1D208130E09A
:1045C000AC014770552702C0359527954A95E2F70B
:1045D00020FDDACFB5010E94BE24811087CFE114FF
:1045E000F10411F0D7011C92C80115C0422F469565
:1045F00046954695D601A40FB11D422F47708B01F9
:1046000002C0000F111F4A95E2F7A8015C91452BEB
:104610004C93622EA2CFA096EFE00C948E25A0E0E2
:10462000B0E0E5E1F3E20C9472256C01EB015A0174
:10463000FC0117821682512CF601E380FE01E3FC97
:104640008591E3FE8191182FEF01882309F4EEC0D4
:1046500090E00E94B31E892B21F0C6010E94A62182
:10466000EBCF153241F4FE01E3FC1591E3FE11910D
:10467000EF01153281F4C6010E94442497FDD4C095
:10468000412F50E09C01332724173507A9F2B601CA
:104690000E94BE24CBC01A3239F4E3FC1591E3FE2C
:1046A0001191EF0101E001C000E0F12C20ED210F9C
:1046B0002A3080F402606F2D70E080E090E040E2EC
:1046C0000E947F21F62EFE01E3FC1591E3FE11917D
:1046D000EF01ECCF01FF03C0F11003C0A7C0FF241E
:1046E000FA94183619F01C3651F010C0FE01E3FCA4
:1046F0001591E3FE1191EF01183641F40860046052
:10470000FE01E3FC1591E3FE1191EF01112309F481
:104710008DC0612F70E088E690E00E942324892BF1
:1047200009F484C000FD07C0F50180809180C501B7
:1047300002965C0102C0812C912C1E3651F4F601C8
:104740004681578160E070E0202FC4010E947321F0
:1047500073CF1336A9F401FD02C0FF24F394C60100
:104760000E94442497FD60C08114910429F0F40153
:104770008083C40101964C01FA94F110F0CF50C02F
:104780001B3559F49E01A4016F2DC6010E945122D0
:10479000EC01892B09F044C03EC0C6010E94A6214D
:1047A00097FD42C01F3661F128F4143639F11936ED
:1047B00051F128C0133771F0153701F123C081146E
:1047C000910429F0F4016082C40101964C01FA942D
:1047D000FF2071F0C6010E9444243C0197FD08C0EF
:1047E0000E94B31E892B59F3B601C3010E94BE2457
:1047F00081149104A9F0F401108212C0006203C078
:10480000006101C00064202FA4016F2DC6010E9429
:10481000BF21811105C0F6018381807329F406C090
:1048200000FD0ACF539408CF552019F0852D90E054
:1048300002C08FEF9FEFCDB7DEB7EFE00C948E256F
:10484000992788270895FC010590061621F000207D
:10485000D9F7C00108953197CF010895FC01059063
:10486000615070400110D8F7809590958E0F9F1F72
:104870000895FC016150704001900110D8F78095B7
:1048800090958E0F9F1F0895CF93DF93EC012B819E
:1048900020FF33C026FF0AC02F7B2B838E819F8190
:1048A00001969F838E838A8190E029C022FF0FC0EA
:1048B000E881F9818081082E000C990B009719F48A
:1048C00020622B831AC03196F983E8830EC0EA85F3
:1048D000FB85099597FF09C02B81019611F080E2B5
:1048E00001C080E1822B8B8308C02E813F812F5F26
:1048F0003F4F3F832E83992702C08FEF9FEFDF91B9
:10490000CF9108950F931F93CF93DF93FB012381E2
:1049100021FD03C08FEF9FEF2CC022FF16C0468100
:104920005781248135814217530744F4A081B18116
:104930009D012F5F3F4F318320838C9326813781E8
:104940002F5F3F4F3783268314C08B01EC01FB019F
:104950000084F185E02D0995892BE1F6D8011696A2
:104960008D919C911797019617969C938E9316970D
:10497000CE01DF91CF911F910F910895FB0123810B
:1049800020FF12C026FD10C08F3F3FEF930761F05C
:1049900082832F7D20642383268137812150310932
:1049A00037832683992708958FEF9FEF0895FA01A3
:1049B000AA27283051F1203181F1E8946F936E7F5E
:1049C0006E5F7F4F8F4F9F4FAF4FB1E03ED0B4E04F
:1049D0003CD0670F781F891F9A1FA11D680F791F90
:1049E0008A1F911DA11D6A0F711D811D911DA11DA1
:1049F00020D009F468943F912AE0269F11243019B1
:104A0000305D3193DEF6CF010895462F4770405D4B
:104A10004193B3E00FD0C9F7F6CF462F4F70405DFA
:104A20004A3318F0495D31FD4052419302D0A9F755
:104A3000EACFB4E0A6959795879577956795BA954F
:104A4000C9F700976105710508959B01AC010A2E15
:104A500006945795479537952795BA95C9F7620FEC
:104A6000731F841F951FA01D0895DC01CB01FC015D
:104A7000F999FECF06C0F2BDE1BDF89A319600B4B7
:104A80000D9241505040B8F70895F999FECF92BD6C
:104A900081BDF89A992780B50895DC01A40FB51F50
:104AA0004150504048F0CB01840F951F2E910E9439
:104AB0005E2541505040D0F70895262FF999FECF3A
:104AC00092BD81BDF89A019700B4021639F01FBA61
:104AD00020BD0FB6F894FA9AF99A0FBE08952F9256
:104AE0003F924F925F926F927F928F929F92AF927E
:104AF000BF92CF92DF92EF92FF920F931F93CF93CB
:104B0000DF93CDB7DEB7CA1BDB0B0FB6F894DEBF61
:104B10000FBECDBF09942A88398848885F846E8487
:104B20007D848C849B84AA84B984C884DF80EE80D1
:104B3000FD800C811B81AA81B981CE0FD11D0FB6DA
:104B4000F894DEBF0FBECDBFED010895F894FFCFFE
:104B50000000AC04800001BE03C5031718171854E9
:104B60004F3F00544F3A003A494E56003B002A202E
:104B700070617373776F7264206368616E676564D8
:104B8000202A0A002A2075706461746520656E61B0
:104B9000626C6564202A0A00205B525353493A0034
:104BA0005D0000000000CC080C04C2031B0997093B
:104BB0008F051A088703A9052E0626057D09990386
:104BC000AF03464C583F4E4F4B3A4E4F464C415325
:104BD0004800464C583F4F4B00464C583F454F46C7
:104BE00000464C583F00464C583A25753A00464C12
:104BF00058494D473A00464C583A25753A4F4B00B4
:104C0000464C583F4E4F4B3A4845583E33316B0067
:104C100054696D656F75742F4572726F722C2065C3
:104C2000726173696E67207772697474656E20644F
:104C3000617461202E2E2E200052656164696E67BA
:104C4000204E4F444520436F6E666967004375737D
:104C5000746F6D204E4F444520436F6E6669670048
:104C600073616D706C65456E63727970744B6579B4
:104C700000536176696E67204E4F444520436F6E46
:104C8000666967002A20627574746F6E202A00318D
:104C900000300053656E64696E67206E6574776FCF
:104CA000726B2064617461004578697420696E6379
:104CB0006C75646500536176696E67207261646922
:104CC0006F20636F6E66696700474F543A20550046
:104CD00000000000F7145A16B81444158A14A414DE
:104CE00096140D0A006E616E00696E66006F76663E
:024CF0000000C2
:00000001FF
