:100000000C94E1000C9487170C94AE170C94090122
:100010000C9409010C9409010C9409010C94090138
:100020000C9409010C9409010C9409010C94090128
:100030000C9409010C9409010C9409010C94090118
:100040000C9489180C9409010C941A150C944C15F5
:100050000C9409010C9409010C9409010C940901F8
:100060000C9409010C9409016364696E6F707375D7
:1000700078585B0054696D656F7574207761697499
:10008000696E6720666F72207061636B65742041D2
:10009000434B2C2061626F7274696E6720464C413D
:1000A0005348206F7065726174696F6E202E2E2E1A
:1000B00000203E2000524641434B203E2000524645
:1000C0005458203E200054696D656F757420676533
:1000D0007474696E6720464C41534820696D6167AE
:1000E000652066726F6D2053455249414C2C20614A
:1000F000626F7274696E672E2E00464C583A494EF4
:10010000563A0048616E647368616B652066616988
:100110006C00464C583F4E4F4B00464C41534820D4
:10012000494D47205452414E534D495353494F4E28
:10013000204641494C00464C41534820494D4720F8
:100140005452414E534D495353494F4E20535543FA
:100150004345535300464C583F4F4B000A464C58BA
:100160003F4F4B000000000800020100000304079D
:100170000000000000000000010204081020408080
:1001800001020408102001020408102004040404E1
:100190000404040402020202020203030303030331
:1001A00000000000230026002900000000002500B8
:1001B00028002B0000000000240027002A00D502A0
:1001C0007C1511241FBECFEFD8E0DEBFCDBF12E0FB
:1001D000A0E0B1E0EEEEF9E402C005900D92AA397C
:1001E000B107D9F724E0AAE9B2E001C01D92A43A10
:1001F000B207E1F710E0C1EED0E004C02197FE01A4
:100200000E94F71BCF3DD107C9F70E947A180C94C2
:10021000F5240C94000026E040E052EC61E070E030
:100220008AEF93E00E94B51421E041E060E08DED9B
:1002300092E00C94600FCF92DF92EF92FF920F93B7
:100240001F93CF93DF93CDB7DEB7C755D1090FB654
:10025000F894DEBF0FBECDBF4AE050E060E070E032
:100260008AEF93E00E942B1720E430E0AE014F5F4D
:100270005F4F6AE08AEF93E00E943117182FD82E63
:10028000E1E0F0E0EC0FFD1FE80FF11D108240E00F
:1002900050E0BA018AEF93E00E942B17BE016F5F16
:1002A0007F4FCE018E5A9F4F0E944318112309F4AD
:1002B000F8C085E090E00E94850E84E0181321C00C
:1002C00089818634F1F48A818C34D9F48B81883524
:1002D000C1F48C818F33A9F420919A02211103C0BB
:1002E0006FE071E04AC0C12C82E3E82EF12C08EBEC
:1002F0001BE04EE553E064E0CE0101960E94B10D93
:1003000040C014501330E8F589818435D1F58A81D5
:100310008F34B9F58B818A33A1F5FE01349693E0D1
:1003200010E0219180ED820F8A30F0F4110F812FBF
:10033000880F880F180F1053120F9F5F9D1588F3B9
:10034000112391F010939A0263E171E08AEF93E038
:100350000E940C164AE050E0612F8AEF93E00E9461
:1003600093166CEA71E009C0BE016F5F7F4F8AEFA0
:1003700093E00E940C1667E171E08AEF93E00E941F
:100380002B166CE171E0CE018E5B9F4F0E944318EB
:10039000BE016E5B7F4FCE018E5A9F4F0E94751833
:1003A000182FCE018E5B9F4F0E94D51789818A320C
:1003B00009F06DC08A818936B1F420E040E0609197
:1003C00018038DED92E00E94600F81E08093E002BF
:1003D0000E94D3186093E2027093E3028093E402D8
:1003E0009093E5025EC0803739F5FE013396DE0159
:1003F000AE5BBF4FCE01439621912D938E179F0781
:10040000D9F7BE016E5B7F4F8DED92E00E94DC0E4E
:100410008DED92E00E94300FBE016E5B7F4F8EE546
:1004200093E00E94F6058EE191E09F938F930E94E6
:100430005E0E0F900F9035C0853749F584E391E04B
:100440009F938F930E945E0EFE0133960F900F9044
:1004500092E010E09D1570F4219180ED820F8A30BA
:1004600038F4110F812F880F880F180F1053120FB7
:100470009F5FF0CF4AE050E0612F8AEF93E00E9447
:100480009A16612F8DED92E00E94010F0AC0112390
:1004900041F041E0BE016F5F7F4F8DED92E00E9421
:1004A0007912CE018E5A9F4F0E94D517C95ADF4F3D
:1004B0000FB6F894DEBF0FBECDBFDF91CF911F9175
:1004C0000F91FF90EF90DF90CF9008950F931F93BF
:1004D000CF93DF93EC014AE050E068818AEF93E02C
:1004E0000E9493166CE171E08AEF93E00E940C1673
:1004F0004AE050E069818AEF93E00E9493166CE134
:1005000071E08AEF93E00E940C164AE050E06A81A5
:100510008AEF93E00E9493166CE171E08AEF93E01A
:100520000E940C164AE050E06B818AEF93E00E9433
:1005300093166CE171E08AEF93E00E940C164AE09A
:1005400050E06C818AEF93E00E9493166CE171E0B9
:100550008AEF93E00E940C168E01095F1F4FF8018D
:1005600061918F0116162CF48AEF93E00E940E160B
:10057000F6CF68E471E08AEF93E00E940C166D817B
:100580007E814AE050E08AEF93E00E94F41660E535
:1005900071E08AEF93E00E940C168AEF93E0DF91FE
:1005A000CF911F910F910C94151620E042E06AE064
:1005B0008EE593E00E94730320E04EE06EE573E069
:1005C0008DED92E00C949C0ECF93DF938AEF93E035
:1005D0000E94D913892B11F00E941B018EE593E034
:1005E0000E946F08882309F44CC06BE972E08DED1E
:1005F00092E00E941510EC0180916F038823A9F10D
:10060000609172038DED92E00E94E90E882331F132
:1006100041E062E571E08EE593E00E94EB08809195
:10062000720380939A0263E171E08AEF93E00E9483
:100630000C164AE050E060919A028AEF93E00E9423
:1006400093166CEA71E08AEF93E00E942B1660919A
:100650009A028DED92E00E94190F07C040E06DE80C
:1006600072E08EE593E00E94EB08219751F485E05B
:1006700090E00E94850E8BE992E0DF91CF910C947F
:100680006602DF91CF910895089581E080936B0316
:100690000895CF93DF93EC0161E08A810E94E01915
:1006A00089858CBD8A858DBDDF91CF910895FC0130
:1006B0008CB581878DB582878CB5837F8CBD8CB5D9
:1006C0008F7D8CBD8CB58C7F8CBD8DB58E7F8DBDA7
:1006D00060E082810C94E0198EBD00000DB407FE2D
:1006E000FDCF8EB50895FC0188E591E0918380836C
:1006F0006283438381E08093740316828FE1878352
:1007000020870895DC01ED91FC910288F389E02DAA
:1007100060E00994CF93C62FDC01ED91FC91048039
:10072000F581E02D0995882361F080917203C81747
:1007300011F0CF3F29F490916E0381E0911101C037
:1007400080E0CF9108953F924F925F926F927F9297
:100750008F929F92AF92BF92CF92DF92EF92FF92D1
:100760000F931F93CF93DF93EC01162F5A01822E24
:10077000902E312CCE2CD12CE12CF12CE881F9815A
:100780000190F081E02D01E0282DA501612FCE011F
:1007900009950E94D3182B013C010E94D318DC015B
:1007A000CB0184199509A609B7098C159D05AE05DD
:1007B000BF0538F4612FCE010E948A03882369F3B4
:1007C00004C033949314D0F680E0DF91CF911F9151
:1007D0000F91FF90EF90DF90CF90BF90AF909F90E0
:1007E0008F907F906F905F904F903F9008951F93F0
:1007F000CF93DF93EC01162FE881F9810688F78902
:10080000E02D0995812F8F770E946C0380E00E9474
:100810006C03182FE881F981008CF18DE02DCE0159
:100820000995812FDF91CF911F9108950F931F9309
:10083000CF93DF938C0167E00E94F703C82F68E035
:10084000C8010E94F703D82F69E0C8010E94F7038E
:100850004C2F50E060E070E0BA0155274427480F64
:10086000511D611D711D8D2F90E0982F88278A01E1
:100870009B01080F191F211D311DC901B8010E94DC
:10088000DA1A20E034E244E752E40E94681B0E9436
:10089000AB1ADF91CF911F910F9108950F931F9382
:1008A000CF93DF93EC01062F142FE881F98106889E
:1008B000F789E02D0995802F80680E946C03812FB5
:1008C0000E946C03E881F981008CF18DE02DCE014E
:1008D000DF91CF911F910F910994CF92DF92EF9208
:1008E000FF921F93CF93DF93EC016A017B0110917C
:1008F0007403143039F4E881F9810288F389E02D1A
:1009000063E00995C701B6010E94DA1A20E034E2DB
:1009100044E752E40E94391A0E94AB1A6B017C0131
:10092000A7016627772767E0CE010E944E0477274C
:100930006F2D5E2D4D2D68E0CE010E944E044C2D92
:1009400069E0CE010E944E04133041F4E881F98140
:100950000288F389E02D62E0CE010995E881F981F2
:100960000288F389E02D612FCE01DF91CF911F9195
:10097000FF90EF90DF90CF9009941F93CF93DF9378
:1009800020917403261709F45DC0162FEC01623024
:10099000E9F168F4662309F440C0613009F052C0FF
:1009A00061E00E94F703837E482F44603BC06330C0
:1009B000B9F0643009F046C061E00E94F703837E1D
:1009C000482F4C6061E0CE010E944E048885882348
:1009D00069F1E881F9810488F589E02D61E013C0AF
:1009E00061E00E94F703837E482F406161E0CE0101
:1009F0000E944E0488858823C9F0E881F981048823
:100A0000F589E02D60E0CE01099510C061E00E94FB
:100A1000F703837E482F486005C061E00E94F7031A
:100A2000482F437E61E0CE010E944E048091740302
:100A3000811106C067E2CE010E94F70387FFF6CF5F
:100A400010937403DF91CF911F910895CF93DF939B
:100A5000EC01603208F06FE16F838885882311F024
:100A600066956F8361E1CE010E94F703807E9F81CE
:100A7000482F492B61E1CE01DF91CF910C944E04B8
:100A8000CF92DF92EF92FF920F931F93CF93DF935A
:100A9000EC01F62ED42EC52E122FE881F9810288A2
:100AA000F389E02D61E0099567E2CE010E94F7032A
:100AB00087FFFACF40E065E2CE010E944E041E336C
:100AC00008F01DE3E11004C0002321F000E403C09E
:100AD00000E801C000E0E881F9810688F789E02D8F
:100AE000CE01099580E80E946C0383E0810F0E948B
:100AF0006C038F2D0E946C038D810E946C03802FEC
:100B00000E946C030D2DED2CFC2C8E2D801B81176B
:100B100030F4F70181917F010E946C03F6CFE881E8
:100B2000F981008CF18DE02DCE010995E881F981E4
:100B30000288F389E02D64E0CE0109950E94D31864
:100B40006B017C018B810E940F1A892B81F0E88157
:100B5000F9810288F389E02D61E0CE01DF91CF9128
:100B60001F910F91FF90EF90DF90CF9009940E941A
:100B7000D318DC01CB018C199D09AE09BF09883E51
:100B80009340A105B105F0F2E2CFCF93DF93EC01E2
:100B900010927303109272031092710310927003FB
:100BA00010926F0310926E0310926D0310926C03FB
:100BB00068E20E94F70382FF0AC06DE3CE010E9443
:100BC000F703482F44606DE3CE010E944E0440E4D9
:100BD00065E2CE010E944E04E881F9810288F38922
:100BE000E02D63E0CE01DF91CF910994CF92DF92A7
:100BF000EF92FF920F931F93CF93DF93EC018B0142
:100C0000E881F9810288F389E02D61E009950115F9
:100C10001105F1F0E881F9810688F789E02DCE0110
:100C200009958EEB0E946C037801680180E1C80E83
:100C3000D11CF70181917F010E946C03EC14FD042B
:100C4000C1F7E881F981008CF18DE02DCE01099585
:100C50006DE3CE010E94F7038E7F41E0012B09F482
:100C600040E0482B6DE3CE01DF91CF911F910F91B2
:100C7000FF90EF90DF90CF900C944E048F929F9254
:100C8000AF92BF92CF92DF92EF92FF920F931F939A
:100C9000CF93DF93CDB7DEB7AE970FB6F894DEBF34
:100CA0000FBECDBF8C01E42EDC0113968C918230F7
:100CB00021F0833021F08FEF03C080E001C081E09C
:100CC000F80184838EE2AE014F5F5F4F6A01DA0163
:100CD000E82F1D92EA95E9F791E0998334E03A8391
:100CE00042E04B8393E09D834E833F8340E44887FB
:100CF00035E039879A8796E09B8793E39C8737E0B6
:100D00003D8798E09F8799E0998B99E19B8B92E4CE
:100D10009C8B55E25D8B4E8B46E24F8B388F38E2D1
:100D2000398F30E13A8F39E23B8F3CED3C8F8D8F2C
:100D300088E88E8F8FE28F8F8DE288A380E389A36E
:100D400037E33BA330E93CA338E33DA39EA39CE3F8
:100D50009FA39FE898A79DE399A792E19AA79FE692
:100D60009BA78CA78FEF8DA76F3131F06B3231F0DD
:100D7000663531F084EE05C08EE403C08CE601C018
:100D800089ED8E876F3141F06B3221F0663521F4A9
:100D900080E003C080E401C080EC888B2AA361E07E
:100DA000D80112968C910E94E01961E0F8018281CD
:100DB0000E94A4190E94280E0E94D3184B015C01C6
:100DC0004AEA6FE2C8010E944E046FE2C8010E9425
:100DD000F7038A3A61F00E94D318DC01CB0188192D
:100DE0009909AA09BB09C297A105B10548F30E9458
:100DF000D3184B015C0145E56FE2C8010E944E0427
:100E00006FE2C8010E94F703853561F00E94D31894
:100E1000DC01CB0188199909AA09BB09C297A10570
:100E2000B10548F3F12CF601EF0DF11DEF0DF11DA9
:100E300060816F3F31F04181C8010E944E04F394FC
:100E4000F2CF60E070E0C8010E94F605D801ED9194
:100E5000FC9111970084F185E02D18966C91C801E2
:100E60000995D801ED91FC910288F389E02D61E0AC
:100E7000C80109950E94D3184B015C0167E2C801C3
:100E80000E94F70387FD0CC00E94D318DC01CB0140
:100E900088199909AA09BB09C297A105B10570F380
:100EA0000E94D318DC01CB0188199909AA09BB0952
:100EB000C297A105B10588F443E050E065E473E012
:100EC000F80184810E94671710936A0300936903F5
:100ED000D8011596EC9281E001C080E0AE960FB685
:100EE000F894DEBF0FBECDBFDF91CF911F910F9160
:100EF000FF90EF90DF90CF90BF90AF909F908F903A
:100F00000895CF93DF93EC0161110DC064E2CE012F
:100F10000E94F70390E091958195910995958795A9
:100F2000DF91CF91089541E063E20E944E0463E2B5
:100F3000CE010E94F70381FFFACFE8CFCF93DF9372
:100F4000209174032330A9F420917003211111C062
:100F5000EC0160E00E948107863A9F4F54F4E881DB
:100F6000F9810288F389E02D61E0CE01099581E0E5
:100F700001C080E0DF91CF910895EF92FF921F931F
:100F8000CF93DF93EC0180917403833001F568E225
:100F9000CE010E94F70382FD28C019C0809173031F
:100FA0008D3330F4E0917303F0E0EB58FC4F108286
:100FB000E881F981008CF18DE02DCE010995E88161
:100FC000F9810288F389E02D63E0CE01099560E0A4
:100FD000CE010E94810790936D0380936C03DF9193
:100FE000CF911F91FF90EF900895E881F9810288D9
:100FF000F389E02D61E0CE010995E881F981068849
:10100000F789E02DCE01099580E00E946C0380E015
:101010000E946C0380937003809170038334D0F43A
:10102000809170038093700380E00E946C03809332
:1010300071038E81811109C0809171039D81981780
:1010400021F0809171038F3F39F4809170038330D8
:1010500018F017C082E4E6CF10927003E881F9819E
:10106000008CF18DE02DCE010995E881F981008891
:10107000F189E02DCE01DF91CF911F91FF90EF908C
:1010800009948091700383508093730380E00E94E1
:101090006C038093720380E00E946C03982F907819
:1010A00090936E03982F907490936F03E881F98169
:1010B0000484F585E02D682FCE01099510E080911C
:1010C0007303181708F06ACFE12EF12C80E00E941C
:1010D0006C03F701EB58FC4F80831F5FF0CFCF9379
:1010E000DF93EC0180916B03882329F010926B034E
:1010F000CE010E94BD0780917403833071F480910A
:101100007003882351F0E881F9810288F389E02D8A
:1011100061E0CE01099581E00CC0809174038330B9
:1011200039F0E881F9810088F189E02DCE01099537
:1011300080E0DF91CF9108958F929F92AF92BF92FE
:10114000CF92DF92EF92FF920F931F93CF93DF9393
:10115000EC01162F6A01F22E6DE30E94F703482F6F
:1011600044606DE3CE010E944E040E94D3184B01EF
:101170005C01CE010E949E07811115C00E94D31808
:10118000DC01CB0188199909AA09BB09883E934063
:10119000A105B10540F4E881F9810480F581E02DD5
:1011A000CE010995E6CFE881F9810684F785E02D27
:1011B000E12C2F2DA601612FCE010995DF91CF9152
:1011C0001F910F91FF90EF90DF90CF90BF90AF9065
:1011D0009F908F9008954F925F926F927F92AF92FF
:1011E000BF92CF92DF92EF92FF920F931F93CF9314
:1011F000DF93EC015B01F42E10926F0310917203E8
:10120000C0906C03D0906D036DE30E94F703482FEC
:1012100044606DE3CE010E944E040E94D3182B015E
:101220003C01CE010E949E07811115C00E94D31877
:10123000DC01CB0184199509A609B709883E9340C2
:10124000A105B10540F4E881F9810480F581E02D24
:10125000CE010995E6CF10937203E881F9810684E7
:10126000F785E02DEE24E39400E02F2DA501612FFA
:10127000CE010995D0926D03C0926C03DF91CF919E
:101280001F910F91FF90EF90DF90CF90BF90AF90A4
:101290007F906F905F904F9008951F93CF93DF934F
:1012A000EC01162F611102C045E501C04DE56AE56C
:1012B000CE010E944E04111102C040E701C04CE76C
:1012C0006CE5CE01DF91CF911F910C944E04CF932A
:1012D000DF93EC016887611102C04AE101C04FE071
:1012E00063E1CE010E944E048885882341F061E1CC
:1012F000CE010E94F7038F71482F406602C04F81D4
:10130000406861E1CE01DF91CF910C944E040F93C0
:101310001F93CF93DF93EC01062F142FA90160E0F8
:1013200070E08AEF93E00E942B17212F30E0AE018E
:10133000602F8AEF93E00E943117182FC80FD11D3C
:10134000188240E050E0BA018AEF93E00E942B1728
:10135000812FDF91CF911F910F9108952F923F928E
:101360004F925F926F927F928F929F92AF92BF92B5
:10137000CF92DF92EF92FF920F931F93CF93DF9361
:10138000EC01162FD42E2901F02E3E2C0E94D318EA
:101390004B015C01DD2039F029E8C22E21E0D22E7C
:1013A00037E0232E06C081E9C82E81E0D82E94E0D4
:1013B000292E612C712C0E94D318DC01CB018819D5
:1013C0009909AA09BB0984159505A605B70520F555
:1013D000E881F9810280F381E02DEF2C02E0222DDB
:1013E000A601612FCE010995882329F3809173030B
:1013F000863008F3809175038634E9F68091760390
:101400008C34C9F6809177038835A9F680917803EA
:101410008F3389F681E009C0332031F063E071E059
:101420008AEF93E00E94191680E0DF91CF911F911F
:101430000F91FF90EF90DF90CF90BF90AF909F9073
:101440008F907F906F905F904F903F902F90089576
:10145000282F082E000C330B813414F02753310948
:101460002295207F613414F089EC01C080ED860F55
:10147000820F08958F929F92AF92BF92CF92DF9288
:10148000FF920F931F93CF93DF936C3008F448C003
:1014900060FD46C0C62F8C015C01C12CD12CF12C03
:1014A000862E912C82E0881A91088C2DF50161918D
:1014B0005F0190ED960F9A3020F09FEB960F9630DB
:1014C00088F580FF09C0C814D90434F4F5013297B7
:1014D00080810E94280AF80EFFEFCF1ADF0ACC168F
:1014E00020F3D0E0C8018C0F9D1FFC013197DC0177
:1014F000129760818C910E94280AF194F81214C00E
:10150000F801618180810E94280A282F30E02B5F3A
:101510003F4F220F331FC217D30739F08DEF05C09D
:1015200080E003C08FEF01C08EEFDF91CF911F915C
:101530000F91FF90DF90CF90BF90AF909F908F90D2
:1015400008955F926F927F928F929F92AF92BF9217
:10155000CF92DF92EF92FF920F931F93CF93DF937F
:101560008C014B01542E3F932F9386E991E09F937A
:101570008F939F926F930E947A1E6C01E801A52CB5
:10158000B12C0F900F900F900F900F900F9000E0E4
:1015900010E03C0177240A151B0579F07301E00E79
:1015A000F11EE80CF91C698188810E94280AF70164
:1015B00080830F5F1F4F2296EECF852D8C0DDF911C
:1015C000CF911F910F91FF90EF90DF90CF90BF9040
:1015D000AF909F908F907F906F905F900895EF9263
:1015E000FF920F931F93CF93DF938C01EC01C60FF3
:1015F000D11DC017D107D9F07801F801608162953B
:101600006F7060636A330CF0695F8AEF93E00E9449
:101610000E160F5F1F4FF70160816F7060636A33B2
:101620000CF0695F8AEF93E00E940E16E2CFDF9123
:10163000CF911F910F91FF90EF9008952F923F92BD
:101640004F925F926F927F928F929F92AF92BF92D2
:10165000CF92DF92EF92FF920F931F93CF93DF937E
:10166000CDB7DEB727970FB6F894DEBF0FBECDBF5C
:101670004C01462E3A01522E1801CF821A2D0E949B
:10168000D3186B837C838D839E835701C12CD12C0F
:10169000112351F06EEB70E08AEF93E00E94E815A1
:1016A000652DC3010E94EF0AD401ED91FC910280E7
:1016B000F381E02DEF8002E0252DA301642DC4010C
:1016C0000995811118C00E94D318DC01CB012B8130
:1016D0003C814D815E81821B930BA40BB50BA81638
:1016E000B906CA06DB06A0F664E770E08AEF93E06D
:1016F0000E94191665C0009173031123C1F065EBB8
:1017000070E08AEF93E00E94E8154AE050E0602F15
:101710008AEF93E00E94931661EB70E08AEF93E00A
:101720000E94E815602F85E793E00E94EF0A0830D9
:1017300050F285E793E020917503263421F620913D
:1017400076032C3409F0BFCF20917703283509F0B8
:10175000BACF209178032A3309F0B5CF602F70E01B
:10176000FB01EE58FC4F20812A3309F0ACCFFB017E
:10177000ED58FC4F20812F3409F0A5CFFB01EC5828
:10178000FC4F20812B3409F09ECF1A8219829E01D2
:101790002F5F3F4F3F932F9326EA31E03F932F93E4
:1017A0009F938F930E949C1E81E00F900F900F904B
:1017B0000F900F900F9029813A812215330509F07F
:1017C00080E027960FB6F894DEBF0FBECDBFDF9145
:1017D000CF911F910F91FF90EF90DF90CF90BF902E
:1017E000AF909F908F907F906F905F904F903F90C1
:1017F0002F9008952F923F924F925F926F927F9217
:101800008F929F92AF92BF92CF92DF92EF92FF9210
:101810000F931F93CF93DF93CDB7DEB7CA5BD10988
:101820000FB6F894DEBF0FBECDBFCF54DF4F998304
:101830008883C15BD040CA54DF4F6883C65BD04009
:10184000C355DF4F59834883CD5AD040CD54DF4F25
:1018500039832883C35BD040B02E0E94D3182B015C
:101860003C0120917203CB54DF4F2883C55BD040ED
:10187000812C912C1E0134E7230E311CC355DF4F00
:10188000A881B981CD5AD040CD01A0E0B0E0C954C3
:10189000DF4F88839983AA83BB83C75BD04028EE40
:1018A00033E043E76AE0CE0101960E948709082FE2
:1018B000E82FF0E0C155DF4FF983E883CF5AD040DD
:1018C000369708F4E3C08981863409F0DFC08A8145
:1018D0008C3409F0DBC08B81883509F0D7C08C814E
:1018E0008A3309F0A2C0FE01359614E0E12CF12CF8
:1018F0009FEF910F819120ED280F2A3078F44AE074
:101900004E9D90014F9D300D1124790150E3E51A51
:10191000F108E80EF11C87FDFA9407C08A3329F418
:10192000143009F4CFC0192F06C081E0810F883030
:1019300011F0182FDDCF81E0810FE1E0F0E0EC0F36
:10194000FD1FE80FF11D80818A3309F0BBC00E94A2
:10195000D3182B013C011E5FC12ED12C602F611BBF
:1019600081E090E08C0F9D1F8C0D9D1D0E943A0A16
:10197000182F8FEF810F8C3F08F04AC08E149F0400
:1019800009F053C0C60108969401412FB101A1E0AE
:10199000B0E0AC0FBD1F8A0F9B1F0E94A10AAB2CA9
:1019A000CD54DF4FC880D980C35BD040C355DF4FD3
:1019B000E880F980CD5AD0408401282FA101CB5472
:1019C000DF4F6881C55BD040CF54DF4F888199815C
:1019D000C15BD0400E941E0B882309F473C09F9204
:1019E0008F92E6EAF1E0FF93EF933F922F920E94ED
:1019F0007A1EB1018AEF93E00E942B163FEF831A03
:101A0000930A0F900F900F900F900F900F900DC0B2
:101A10006AEF70E08AEF93E00E94E8154AE050E038
:101A2000612F8AEF93E00E949A16C155DF4F4881DB
:101A30005981CF5AD0404730510541F58C818F33C1
:101A400029F58D81853411F58E818F34F9F48F81DC
:101A50008634E1F4EB2CCD54DF4F08811981C35B50
:101A6000D040C355DF4F28813981CD5AD04041E065
:101A7000CA54DF4F6881C65BD040CF54DF4F8881A6
:101A80009981C15BD0400E94AE091DC00E94D3184D
:101A9000DC01CB0184199509A609B709C954DF4FA8
:101AA000288139814A815B81C75BD040281739077B
:101AB0004A075B0708F0F3CE66EC70E08AEF93E02C
:101AC0000E94E81580E0C654DF4F0FB6F894DEBFE1
:101AD0000FBECDBFDF91CF911F910F91FF90EF907F
:101AE000DF90CF90BF90AF909F908F907F906F903E
:101AF0005F904F903F902F900895CF92DF92EF929A
:101B0000FF920F931F93CF93DF93EC01162F6A017F
:101B100079010E941604AB01BC01405C5D4B604F33
:101B20007F4FCE010E946D049701A601612FCE0167
:101B30000E94FA0BF82ECE010E941604AB01BC01E4
:101B4000405452446F407109CE010E946D048F2DA4
:101B5000DF91CF911F910F91FF90EF90DF90CF9089
:101B600008956F927F928F929F92AF92BF92CF9281
:101B7000EF92FF920F931F93CF93DF93FC0164309A
:101B800089F58081863471F581818C3459F58281A3
:101B9000883541F583818F3329F537014801D22FEC
:101BA0005A01EC2C8301940140E06D2FC5010E9485
:101BB000AE09C82F882379F0809173038730A0F095
:101BC000809179038E3481F465E773E08AEF93E0C6
:101BD0000E942B1607C062E171E08AEF93E00E9439
:101BE000191627C0C0E025C06CE571E08AEF93E0CC
:101BF0000E9419160C2D9301A4016D2FC5010E949E
:101C00007D0DC82F882379F065E571E08AEF93E0B8
:101C10000E941916CC2061F066E371E08AEF93E030
:101C20000E94191605C0CC20E9F26AE171E0D5CF17
:101C3000C1E08C2FDF91CF911F910F91FF90EF901A
:101C4000CF90BF90AF909F908F907F906F900895AE
:101C5000CF93CFB7F8948091B203811127C0E6E902
:101C6000F1E08491E2E8F1E09491E82FF0E0EE0FEA
:101C7000FF1FEC54FE4FA591B491EC91E92321F4A0
:101C800061E08AE00E94E01961E08AE00E94A41904
:101C90008CB580618CBD8CB580648CBD61E08DE0BD
:101CA0000E94A41961E08BE00E94A4198091B20304
:101CB0008F5F8093B203CFBFCF910895CF93DF930F
:101CC000CDB7DEB7A8970FB6F894DEBF0FBECDBF75
:101CD0009E01235D3F4FF901419151919F0168E2BF
:101CE00070E0CE0101960E94B51EBE016F5F7F4F6E
:101CF0008AEF93E00E940C16A8960FB6F894DEBF08
:101D00000FBECDBFDF91CF910895CF93DF93EC014C
:101D100061E089E00E94A41961E089E00E94E01975
:101D2000BE01DD0F880B990B0E94041960E089E069
:101D3000DF91CF910C94E0190F931F93CF93DF9312
:101D4000EC01FC01E458FD4F88EE93E09183808321
:101D5000D093B403C093B303798368832A831A862C
:101D600019861B821C828E0102581D4FF801408388
:101D700040E250E06FEF70E0CE01875F9D4F0E9420
:101D8000141E40E250E064E370E0CE01845C9D4F9D
:101D90000E94842440E250E06FEF70E0CE01845A4C
:101DA0009D4F0E94141E60E0F8018081DF91CF9169
:101DB0001F910F910C94A419FC01E75DFD4F875C06
:101DC0009D4FDB012D91BD012193E817F907C9F75C
:101DD0000895262F30E043E0359527954A95E1F7A1
:101DE000820F931FFC01E45AFD4F808190E08095A3
:101DF0009095677002C0959587956A95E2F7817016
:101E00000895E62FF0E023E0F595E7952A95E1F7B0
:101E10008E0F9F1FFC01E45AFD4F677081E090E038
:101E200001C0880F6A95EAF78095908189238083A5
:101E30000895E62FF0E023E0F595E7952A95E1F780
:101E40008E0F9F1FFC01E45AFD4F677081E090E008
:101E500001C0880F6A95EAF79081892B80830895E5
:101E6000CF93DF93EC0163E1888199810E94F703AE
:101E7000682F80E090E00E94AC24FE01E55CFD4FFD
:101E8000608181E090E00E94AC24FE01E65CFD4FA1
:101E9000608182E090E00E94AC24FE01E75CFD4F8F
:101EA000608183E190E00E94AC2440E150E063E077
:101EB00070E0CE01875D9D4FDF91CF910C949C2403
:101EC0006F927F928F929F92AF92BF92CF92DF924A
:101ED000EF92FF920F931F93CF93DF93EC01662E47
:101EE000042F722E80E090E00E949424182FCE01DF
:101EF000855C9D4F5C01DE01A65CBD4F7D01FE014E
:101F0000E75CFD4F6F0142974C011F3011F01A3111
:101F100011F5002301F169EE71E08AEF93E00E9470
:101F20002B1681E090E00E949424D5018C9382E0EE
:101F300090E00E949424F701808383E190E00E9466
:101F40009424D6018C9340E150E063E070E0C4013A
:101F50000E94842413C06DEF71E08AEF93E00E9429
:101F60002B1684E6F501808386E5D7018C93F60174
:101F7000608260E172E0CE010E94DC0ED5012C91FE
:101F8000F6014081D7016C91888199810E943E06BB
:101F9000B401888199810E94F6051F3051F488812F
:101FA0009981DC01ED91FC910084F185E02D61E0E7
:101FB0000995772059F0011109C061E272E08AEFBA
:101FC00093E00E942B16CE010E94300F88819981E8
:101FD000DF91CF911F910F91FF90EF90DF90CF9005
:101FE000BF90AF909F908F907F906F900C948203E2
:101FF000AC0182E0E82FF0E093E0F595E7959A9543
:10200000E1F7E40FF51FE45CFD4F208130E02095FF
:102010003095982F977002C0359527959A95E2F7DD
:1020200020FF02C08F5FE6CF08954F925F926F92BC
:102030007F928F929F92AF92BF92CF92DF92EF9258
:10204000FF920F931F93CF93DF9300D000D0CDB7B3
:10205000DEB76C0180907303912C23E0821691040B
:102060000CF463C190917603953008F05EC1109135
:102070007203E12EF12C80916F0321E0811101C0E8
:1020800020E05B01DB0113962C93139720916C03E6
:1020900030916D0316963C932E931597809175039E
:1020A0008F3FC9F59330B9F520917703203199F529
:1020B0000E94D31869837A838B839C83CE01019617
:1020C0000E94BA12F60180819181409107015091DE
:1020D0000801DC01ED91FC910190F081E02D00E020
:1020E00027E0612F099573E0F594E7947A95E1F77D
:1020F000CE0CDF1CF601E75FFD4F177081E090E02A
:1021000001C0880F1A95EAF7809590818923808312
:1021100083E090E00CC1F6012381222309F47BC007
:102120008F3F09F078C0933009F075C02091770394
:10213000233009F070C063E472E08AEF93E00E94FC
:102140002B16C6010E940113D6018D919C91DC01D2
:10215000ED91FC910284F385E02D60E00995F60194
:10216000A080B180D501ED91FC91828093800E9486
:102170008E12F82E0E94891268E2E62E02E02F2DC0
:10218000AC01612FC501F4010995182FD6018D917D
:102190009C91DC01ED91FC910284F385E02D6FE1CF
:1021A0000995112309F4B8C0E0910901F0910A01E1
:1021B0008581E82FF0E053E0F595E7955A95E1F732
:1021C000EC0DFD1DE45CFD4F282F277081E090E0B1
:1021D00001C0880F2A95EAF7809590818923808332
:1021E00040E250E064E370E0C601845C9D4F0E94D1
:1021F0009C2468E572E08AEF93E00E942B16F601BA
:10220000E75CFD4F21E041E06081C6010E94600F64
:10221000F601138281C0D5011C9311968C931197FE
:1022200012969C9312978091770314968C9314972F
:102230001796E5E7F3E0B401635071099F01255754
:1022400033402617370724F493819D933196F6CFB8
:10225000813109F464C0843009F464C0C70143E0EB
:10226000959587954A95E1F71770F12E8601080F2D
:10227000191F075F1D4FF801808190E080959095B0
:102280000F2C02C0959587950A94E2F780FF3DC018
:10229000F401EC58FC4F2081F401ED58FC4F808193
:1022A00090E0A0E0B0E0DC0199278827B22BF40190
:1022B000EF58FC4F2081822BF401EE58FC4F208117
:1022C000922B89839A83AB83BC830E94D318498065
:1022D0005A806B807C80DC01CB0184199509A609AA
:1022E000B709883B9B40A105B105F8F4F501E80D5D
:1022F000F91D108281E090E001C0880FFA94EAF79E
:10230000D8019C91892B8C9304C0F501E60FF71F2F
:10231000178281E090E00BC084E090E008C082E08A
:1023200090E005C085E090E002C080E090E00F9072
:102330000F900F900F90DF91CF911F910F91FF9011
:10234000EF90DF90CF90BF90AF909F908F907F9055
:102350006F905F904F9008954F925F926F927F922F
:102360008F929F92AF92BF92CF92DF92EF92FF92A5
:102370000F931F93CF93DF93CDB7DEB7C254D1092C
:102380000FB6F894DEBF0FBECDBF6C01B62EE42EA3
:10239000442381F110E0FF24F39432E4A32ECE0114
:1023A00001964C010E94A712D6018D919C914091FB
:1023B000070150910801DC01ED91FC910190F08141
:1023C000E02D00E023E06B2D09950E94D3182B012E
:1023D0003C01FF2009F462C00E94D318DC01CB014C
:1023E00084199509A609B709883E9340A105B1054E
:1023F000C0F155C0D6018D909C90D401ED91FC9117
:1024000062807380E11002C005E001C003E00E9419
:102410008E12182F0E94891228E2E22E212FAC0181
:102420006B2DC401F3010995182F882361F0809169
:102430007303882341F080917503853521F481E091
:10244000D60114968C93F601E75CFD4F9081F6015E
:102450008281981721F0808191810E948203812FCF
:1024600030C0D6018D919C91DC01ED91FC910480EE
:10247000F581E02D0995882309F4AECFD401EA2D2A
:102480001D92EA95E9F7B401C6010E941510029762
:10249000A1F4CE0108960E94921213E0F12C1F5F66
:1024A000133008F47FCFFF2009F4A4CFF601808118
:1024B00091810E94820380E004C0D6018D919C919D
:1024C000F8CFCE5BDF4F0FB6F894DEBF0FBECDBFA7
:1024D000DF91CF911F910F91FF90EF90DF90CF9000
:1024E000BF90AF909F908F907F906F905F904F9034
:1024F00008951F93CF93DF93EC01CB01142F0E941B
:102500004213412F682FCE01DF91CF911F910C9480
:10251000AC118091090190910A0108958091B50351
:1025200090E00895BC019091B5032091090130918C
:102530000A0144E050E0F901E90FF11DCF010E94CA
:10254000221E8091B5038C5F8093B5030895E091BE
:102550000701F09108018FEF8083E0910701F0916E
:10256000080183E08183E0910701F091080180E197
:1025700082830895FC01A0910701B09108018FEFBB
:102580008C93A0910701B091080183E011968C9380
:10259000A0910701B091080181E112968C931297E6
:1025A000808113968C93139740815181628173814E
:1025B000452F562F672F772740835183628373837C
:1025C00014964C9314974081518162817381452FF9
:1025D000562F672F77274083518362837383159625
:1025E0004C9315974081518162817381452F562FFD
:1025F000672F7727408351836283738316964C93AA
:1026000008950F931F93CF93DF93EC01E09109019D
:10261000F0910A018FEF8083E0910901F0910A01A6
:1026200083E081830091090110910A0184E0F8019F
:102630008283FE01E55CFD4F8081F8018383FE010A
:10264000E65CFD4F8081F8018483CE010E94F80F83
:10265000F8018583C75DDD4F86E090E02991E09128
:102660000901F0910A01E80FF91F208301968631D4
:102670009105A1F786E18093B503DF91CF911F917A
:102680000F910895CF92DF92EF92FF920F931F93D5
:10269000CF93DF9300D0CDB7DEB7AE014F5F5F4F72
:1026A0006CE171E00E944B1EF12C00E010E0E12C87
:1026B000009709F46EC00630110509F46AC00330B2
:1026C000110521F13CF40130110571F002301105C2
:1026D000A1F006C00430110511F10530110541F1DA
:1026E0000E94E41DE82E49C0C0900901D0900A0163
:1026F0000E94E41DF601808340C0C0900901D09083
:102700000A010E94E41DF601818337C00E94E41D86
:1027100021E0892B09F420E0209306012EC0C0900F
:102720000901D0900A010E94E41DF601828325C0B0
:10273000FC0101900020E9F731979F01281B390B1C
:10274000F22E782FDC0143E050E06A2F671B6F15F3
:1027500058F46D91E0910901F0910A01E40FF51F21
:1027600060834F5F5F4FF1CF2150FC01E20FF11DFD
:1027700080818A3011F41082F22E0F5F1F4FAE015C
:102780004F5F5F4F6CE171E080E090E00E944B1E74
:102790008FCF83E08F0D8093B5038E2D0F900F9018
:1027A000DF91CF911F910F91FF90EF90DF90CF902D
:1027B0000895FC01918D228D892F90E0805C9F4FC0
:1027C000821B91098F7399270895FC01918D828D49
:1027D000981731F0828DE80FF11D858D90E00895F6
:1027E0008FEF9FEF0895FC01918D828D981761F016
:1027F000828DDF01A80FB11D5D968C91928D9F5F38
:102800009F73928F90E008958FEF9FEF0895FC01E2
:10281000538D448D252F30E0842F90E0821B930B45
:10282000541710F0CF9608950197089582E795E127
:10283000892B49F080E090E0892B29F00E947215E5
:1028400081110C9400000895FC01848DDF01A80F14
:10285000B11DA35ABF4F2C91848D90E001968F73C8
:102860009927848FA689B7892C93A089B1898C91E7
:10287000837080648C93938D848D981306C0028836
:10288000F389E02D80818F7D80830895EF92FF9200
:102890000F931F93CF93DF93EC0181E0888F9B8D83
:1028A0008C8D981305C0E889F989808185FD26C043
:1028B000F62E0B8D10E00F5F1F4F0F731127E02EC8
:1028C0008C8DE8120CC00FB607FCFACFE889F989A5
:1028D000808185FFF5CFCE010E942414F1CF8B8D2E
:1028E000FE01E80FF11DE35AFF4FF0829FB7F89405
:1028F0000B8FEA89FB89808180620AC09FB7F894B8
:10290000EE89FF896083E889F9898081837080641A
:1029100080839FBF81E090E0DF91CF911F910F9165
:10292000FF90EF900895CF93DF93EC01888D88237B
:10293000C9F0EA89FB89808185FD05C0A889B9892C
:102940008C9186FD0FC00FB607FCF5CF808185FF07
:10295000F2CFA889B9898C9185FFEDCFCE010E9475
:102960002414E7CFDF91CF910895CF92DF92EF92B9
:10297000FF921F93CF93DF93EC016A017B01122F2B
:10298000E889F98982E080834115514E610571051E
:10299000B1F060E079E08DE390E0A70196010E943C
:1029A000D51BDA01C9010197A109B109B695A7950F
:1029B000979587959C01211580E13807A8F0E88953
:1029C000F989108260E874E88EE190E0A701960131
:1029D0000E94D51BDA01C9010197A109B109B69579
:1029E000A795979587959C01EC85FD853083EE85AD
:1029F000FF852083188EEC89FD891083EA89FB8985
:102A0000808180618083EA89FB89808188608083FE
:102A1000EA89FB89808180688083EA89FB898081DB
:102A20008F7D8083DF91CF911F91FF90EF90DF909A
:102A3000CF9008951F920F920FB60F9211242F93EB
:102A40008F939F93EF93FF93E0910A04F0910B040F
:102A50008081E0911004F091110482FD12C09081F8
:102A6000809113048F5F8F7320911404821751F0AB
:102A7000E0911304F0E0E650FC4F958F809313042F
:102A800001C08081FF91EF919F918F912F910F90C5
:102A90000FBE0F901F9018951F920F920FB60F92B6
:102AA00011242F933F934F935F936F937F938F9353
:102AB0009F93AF93BF93EF93FF938AEF93E00E94AE
:102AC0002414FF91EF91BF91AF919F918F917F91CE
:102AD0006F915F914F913F912F910F900FBE0F908B
:102AE0001F9018958AEF93E00E94D91321E0892B5B
:102AF00009F420E0822F0895EAEFF3E013821282B6
:102B000088EE93E0A0E0B0E084839583A683B7834A
:102B10008DE792E09183808385EC90E095878487B0
:102B200084EC90E09787868780EC90E0918B808B97
:102B300081EC90E0938B828B82EC90E0958B848B80
:102B400086EC90E0978B868B118E128E138E148EEE
:102B50000895CF92DF92EF92FF920F931F93CF933E
:102B6000DF936C017A018B01C0E0D0E0CE15DF0568
:102B700081F0D8016D918D01D601ED91FC9101900C
:102B8000F081E02DC6010995892B11F02196EECF39
:102B90007E01C701DF91CF911F910F91FF90EF90C0
:102BA000DF90CF9008956115710579F0FB010190D8
:102BB0000020E9F73197AF01461B570BDC01ED917F
:102BC000FC910280F381E02D099480E090E008956B
:102BD000EF92FF920F931F93CF93DF938C017B01B2
:102BE000C0E0D0E0F701EC0FFD1F6491662361F0B7
:102BF000D801ED91FC910190F081E02DC80109957B
:102C0000892B11F02196EECFCE01DF91CF911F914C
:102C10000F91FF90EF9008950C94D315DC01ED9186
:102C2000FC910190F081E02D09946BE872E00C9426
:102C3000D3150F931F93CF93DF93EC010E94E815F8
:102C40008C01CE010E941516800F911FDF91CF914C
:102C50001F910F9108950F931F93CF93DF93EC0172
:102C60000E94D3158C01CE010E941516800F911F72
:102C7000DF91CF911F910F9108958F929F92AF9204
:102C8000BF92EF92FF920F931F93CF93DF93CDB735
:102C9000DEB7A1970FB6F894DEBF0FBECDBF7C01A3
:102CA000FA01CB0119A2223008F42AE08E010F5D4F
:102CB0001F4F822E912CA12CB12CBF01A501940194
:102CC0000E94D51BF901CA01015011096A3014F4A0
:102CD000605D01C0695CD8016C93232B242B252BEC
:102CE00061F7B801C7010E94D315A1960FB6F894F9
:102CF000DEBF0FBECDBFDF91CF911F910F91FF902F
:102D0000EF90BF90AF909F908F900895211531055F
:102D100041F4DC01ED91FC910190F081E02D642FF4
:102D200009940C943D169A01462F50E060E070E043
:102D30000C9486160F931F93CF93DF93EC010E94A0
:102D400093168C01CE010E941516800F911FDF9102
:102D5000CF911F910F910895CF92DF92EF92FF9242
:102D60000F931F93CF93DF932115310581F4DC017D
:102D7000ED91FC910190F081E02D642FDF91CF91D6
:102D80001F910F91FF90EF90DF90CF9009942A3020
:102D9000310501F577FF1DC06A017B01EC016DE291
:102DA0000E940E168C0144275527BA014C195D0963
:102DB0006E097F092AE0CE010E943D16800F911F07
:102DC000DF91CF911F910F91FF90EF90DF90CF9007
:102DD00008952AE0DF91CF911F910F91FF90EF901E
:102DE000DF90CF900C943D169A01AB01770F660BE4
:102DF000770B0C94AC160F931F93CF93DF93EC01DA
:102E00000E94D318688779878A879B87E881F98130
:102E10000284F385E02DCE01099597FF17C00E942B
:102E2000D318088519852A853B85DC01CB01801BD9
:102E3000910BA20BB30B0C811D812E813F8180175A
:102E40009107A207B30710F38FEF9FEFDF91CF91A8
:102E50001F910F910895FC01448355836683778306
:102E60000895AF92BF92CF92DF92EF92FF920F93AD
:102E70001F93CF93DF9321153105C9F089015C01C0
:102E80006A01C0E0D0E0E62E660FFF08C5010E948F
:102E9000FB1697FD0FC08E159F0561F0F60181931B
:102EA0006F0121960C171D0789F7C80104C080E047
:102EB00090E001C0CE01DF91CF911F910F91FF9063
:102EC000EF90DF90CF90BF90AF900895089582303B
:102ED000E8F4E82FF0E0EE0FFF1FE55FFE4F71838F
:102EE0006083813041F0809169008C7F482B409352
:102EF0006900E89A089580916900837F440F551F07
:102F0000440F551F482B40936900E99A08951F927A
:102F10000F920FB60F9211242F933F934F935F930D
:102F20006F937F938F939F93AF93BF93EF93FF9391
:102F3000E0910B01F0910C010995FF91EF91BF9188
:102F4000AF919F918F917F916F915F914F913F9141
:102F50002F910F900FBE0F901F9018951F920F92F8
:102F60000FB60F9211242F933F934F935F936F935C
:102F70007F938F939F93AF93BF93EF93FF93E091D2
:102F80000D01F0910E010995FF91EF91BF91AF9165
:102F90009F918F917F916F915F914F913F912F9171
:102FA0000F900FBE0F901F901895FC0180819181AA
:102FB0000C94951CCF93DF93EC0188819981009745
:102FC00011F00E94951C198218821D821C821B829E
:102FD0001A82DF91CF9108950F931F93CF93DF93C0
:102FE000EC018B016F5F7F4F888199810E941E1DCC
:102FF000009731F0998388831B830A8381E001C0A5
:1030000080E0DF91CF911F910F910895CF93DF93CF
:10301000EC0188819981892B29F08A819B8186170F
:10302000970760F4CE010E94EC17882341F08C8151
:103030009D81892B19F4E881F981108281E0DF916B
:10304000CF910895EF92FF920F931F93CF93DF9349
:10305000EC017B018A01BA010E940618811104C0AB
:10306000CE010E94DA1707C01D830C83B701888147
:1030700099810E941B1ECE01DF91CF911F910F916C
:10308000FF90EF900895FC0111821082138212824A
:10309000158214826115710551F0FB010190002029
:1030A000E9F73197AF01461B570B0C94221808958E
:1030B000CF93DF93FC01248135814217530780F4BD
:1030C000FB01DC01CD91DC9160817181CE01840F27
:1030D000951F0E94311E009719F08C1B9D0B02C09A
:1030E0008FEF9FEFDF91CF91089540E050E00C9477
:1030F000581808950E9440190E9479180E940B01E7
:10310000C6E1D4E10E94E4022097E1F30E94161484
:10311000F9CF1F920F920FB60F9211242F933F9366
:103120008F939F93AF93BF9380919804909199044C
:10313000A0919A04B0919B043091970423E0230F4F
:103140002D3720F40196A11DB11D05C026E8230FDF
:103150000296A11DB11D209397048093980490932B
:103160009904A0939A04B0939B0480919C0490913D
:103170009D04A0919E04B0919F040196A11DB11DD4
:1031800080939C0490939D04A0939E04B0939F040D
:10319000BF91AF919F918F913F912F910F900FBE53
:1031A0000F901F9018952FB7F89460919804709124
:1031B000990480919A0490919B042FBF08953FB782
:1031C000F89480919C0490919D04A0919E04B091EC
:1031D0009F0426B5A89B05C02F3F19F00196A11D9D
:1031E000B11D3FBFBA2FA92F982F8827820F911D9D
:1031F000A11DB11DBC01CD0142E0660F771F881FE4
:10320000991F4A95D1F708958F929F92AF92BF92DE
:10321000CF92DF92EF92FF926B017C010E94DF1848
:103220004B015C01C114D104E104F10401F10E94DD
:10323000381A0E94DF18DC01CB0188199909AA0904
:10324000BB09883E9340A105B10560F321E0C21A95
:10325000D108E108F10888EE880E83E0981EA11CD1
:10326000B11CC114D104E104F10419F7DBCFFF90C4
:10327000EF90DF90CF90BF90AF909F908F90089588
:10328000789484B5826084BD84B5816084BD85B541
:10329000826085BD85B5816085BDEEE6F0E0808108
:1032A00081608083E1E8F0E0108280818260808329
:1032B000808181608083E0E8F0E0808181608083AC
:1032C000E1EBF0E0808184608083E0EBF0E08081DE
:1032D00081608083EAE7F0E0808184608083808180
:1032E0008260808380818160808380818068808328
:1032F0001092C1000895833081F028F4813099F054
:103300008230A1F008958730A9F08830B9F0843078
:10331000D1F4809180008F7D03C0809180008F77F1
:1033200080938000089584B58F7702C084B58F7D27
:1033300084BD08958091B0008F7703C08091B00064
:103340008F7D8093B0000895CF93DF9390E0FC01D0
:10335000E858FE4F2491FC01E457FE4F84918823E6
:1033600061F190E0880F991FFC01EC54FE4FC5916C
:10337000D491FC01E655FE4FA591B491611109C0AD
:103380009FB7F8948881209582238883EC912E231F
:103390000BC0623061F49FB7F8948881322F30956A
:1033A00083238883EC912E2B2C939FBF06C08FB76D
:1033B000F894E8812E2B28838FBFDF91CF91089559
:1033C0001F93CF93DF93282F30E0F901EC59FE4F84
:1033D0008491F901E858FE4FD491F901E457FE4F6A
:1033E000C491CC23C1F0162F81110E947B19EC2FC0
:1033F000F0E0EE0FFF1FE655FE4FA591B4919FB789
:10340000F894111104C08C91D095D82302C0EC918E
:10341000DE2BDC939FBFDF91CF911F910895CF9357
:10342000DF93282F30E0F901EC59FE4F8491F90128
:10343000E858FE4FD491F901E457FE4FC491CC23D4
:1034400091F081110E947B19EC2FF0E0EE0FFF1F2D
:10345000E056FE4FA591B491EC91ED2381E090E010
:1034600021F480E002C080E090E0DF91CF910895E8
:1034700008950E944D1A0C942E1B0E94271B58F091
:103480000E94201B40F029F45F3F29F00C94171B89
:1034900051110C94621B0C941D1B0E943F1B68F37E
:1034A0009923B1F3552391F3951B550BBB27AA27FD
:1034B00062177307840738F09F5F5F4F220F331F37
:1034C000441FAA1FA9F335D00E2E3AF0E0E832D0FF
:1034D00091505040E695001CCAF72BD0FE2F29D002
:1034E000660F771F881FBB1F261737074807AB07D4
:1034F000B0E809F0BB0B802DBF01FF2793585F4F49
:103500003AF09E3F510578F00C94171B0C94621B07
:103510005F3FE4F3983ED4F3869577956795B7952A
:10352000F7959F5FC9F7880F911D9695879597F935
:103530000895E1E0660F771F881FBB1F62177307AE
:103540008407BA0720F0621B730B840BBA0BEE1FC3
:1035500088F7E09508950E94471B88F09F5798F0E0
:10356000B92F9927B751B0F0E1F0660F771F881F88
:10357000991F1AF0BA95C9F714C0B13091F00E94A2
:10358000611BB1E008950C94611B672F782F882789
:10359000B85F39F0B93FCCF3869577956795B395C9
:1035A000D9F73EF490958095709561957F4F8F4F38
:1035B0009F4F0895E89409C097FB3EF4909580953D
:1035C000709561957F4F8F4F9F4F9923A9F0F92FE9
:1035D00096E9BB279395F695879577956795B79567
:1035E000F111F8CFFAF4BB0F11F460FF1BC06F5F4D
:1035F0007F4F8F4F9F4F16C0882311F096E911C05F
:10360000772321F09EE8872F762F05C0662371F07F
:1036100096E8862F70E060E02AF09A95660F771F93
:10362000881FDAF7880F9695879597F9089597F987
:103630009F6780E870E060E008959FEF80EC089558
:1036400000240A9416161706180609060895002481
:103650000A9412161306140605060895092E0394FB
:10366000000C11F4882352F0BB0F40F4BF2B11F46F
:1036700060FF04C06F5F7F4F8F4F9F4F089557FDCE
:103680009058440F551F59F05F3F71F04795880FD0
:1036900097FB991F61F09F3F79F087950895121667
:1036A00013061406551FF2CF4695F1DF08C0161613
:1036B00017061806991FF1CF8695710561050894C4
:1036C0000895E894BB2766277727CB0197F90895DB
:1036D0000E947B1B0C942E1B0E94201B38F00E9422
:1036E000271B20F0952311F00C94171B0C941D1B25
:1036F00011240C94621B0E943F1B70F3959FC1F331
:10370000950F50E0551F629FF001729FBB27F00D8F
:10371000B11D639FAA27F00DB11DAA1F649F6627E4
:10372000B00DA11D661F829F2227B00DA11D621F33
:10373000739FB00DA11D621F839FA00D611D221FED
:10374000749F3327A00D611D231F849F600D211DD1
:10375000822F762F6A2F11249F5750409AF0F1F054
:1037600088234AF0EE0FFF1FBB1F661F771F881FBD
:1037700091505040A9F79E3F510580F00C94171BC3
:103780000C94621B5F3FE4F3983ED4F386957795E3
:103790006795B795F795E7959F5FC1F7FE2B880F63
:1037A000911D9695879597F90895A1E21A2EAA1B67
:1037B000BB1BFD010DC0AA1FBB1FEE1FFF1FA217E1
:1037C000B307E407F50720F0A21BB30BE40BF50BDE
:1037D000661F771F881F991F1A9469F76095709567
:1037E000809590959B01AC01BD01CF010895EE0F2E
:1037F000FF1F0590F491E02D09940F931F93CF9331
:10380000DF938230910510F482E090E0E091A20411
:10381000F091A30420E030E0A0E0B0E0309719F18F
:10382000408151810281138148175907C8F08417DC
:10383000950769F4109731F012960C93129713962E
:103840001C9327C00093A2041093A30422C0211547
:10385000310519F04217530718F49A01BD01EF0121
:10386000DF01F801DBCF21153105F9F0281B390BF9
:103870002430310580F48A819B816115710521F026
:10388000FB019383828304C09093A3048093A204DA
:10389000FE01329644C0FE01E20FF31F8193919323
:1038A00022503109398328833AC02091A0043091F5
:1038B000A104232B41F420910201309103013093A4
:1038C000A1042093A0042091000130910101211551
:1038D000310541F42DB73EB74091040150910501E7
:1038E000241B350BE091A004F091A104E217F3072B
:1038F000A0F42E1B3F0B2817390778F0AC014E5F60
:103900005F4F2417350748F04E0F5F1F5093A104F7
:103910004093A0048193919302C0E0E0F0E0CF01D6
:10392000DF91CF911F910F910895CF93DF9300976F
:1039300009F481C0FC01329713821282A091A20483
:10394000B091A304109781F420813181820F931FDD
:103950002091A0043091A1042817390751F5F09364
:10396000A104E093A00467C0ED0120E030E0CE1791
:10397000DF0740F44A815B819E0141155105F1F05A
:10398000EA01F5CFD383C28340815181840F951F13
:10399000C817D90759F488819981840F951F029619
:1039A000918380838A819B81938382832115310552
:1039B00029F4F093A304E093A2043DC0E901FB8342
:1039C000EA8349915991C40FD51FEC17FD0761F4A3
:1039D00080819181840F951F0296E90199838883E4
:1039E000828193819B838A83E0E0F0E012968D913F
:1039F0009C911397009719F0FD01DC01F7CF8D9191
:103A00009C9111979D012E5F3F4F820F931F209134
:103A1000A0043091A1042817390769F4309729F4DC
:103A20001092A3041092A20402C013821282B093D7
:103A3000A104A093A004DF91CF910895A0E0B0E08D
:103A4000E4E2FDE10C94C224EC01009721F4CB01E7
:103A50000E94FD1BB4C0FC01E60FF71F9C01225021
:103A60003109E217F30708F4A8C0D9010D911C91A0
:103A7000119706171707B0F00530110508F49BC021
:103A8000C80104978617970708F495C002501109DA
:103A9000061B170B019311936D937C93CF010E942A
:103AA000951C89C05B01A01AB10A4C01800E911EC1
:103AB000A091A204B091A304612C712CE12CF12CF3
:103AC000109709F446C08D919C911197A815B905DE
:103AD000B1F56C0142E0C40ED11CCA14DB0478F1CC
:103AE0004C018A189B08640142E0C40ED11C129656
:103AF000BC9012971396AC91B5E0CB16D10440F070
:103B0000B282A38391828082D9016D937C9309C094
:103B10000E5F1F4F800F911FF90191838083EB2D62
:103B2000FA2FE114F10431F0D7011396FC93EE93D0
:103B3000129741C0F093A304E093A2043CC068161E
:103B4000790608F43C017D0112960D90BC91A02DE0
:103B5000B7CF8091A0049091A10488169906E1F452
:103B600066167706C8F480910001909101010097D4
:103B700041F48DB79EB74091040150910501841B1B
:103B8000950BE817F907C8F4F093A104E093A0049B
:103B9000F901718360830FC0CB010E94FD1B7C0182
:103BA000009759F0A801BE010E940B1ECE010E9491
:103BB000951CC70104C0CE0102C080E090E0CDB7E3
:103BC000DEB7EEE00C94DE24FC0188279927E89408
:103BD00021912032E9F3293010F02E30C8F32B3236
:103BE00041F02D3239F4689404C00E94721E820F95
:103BF000911D219120532A30C0F31EF49095819598
:103C00009F4F089591110C946F23803219F08950C1
:103C10008550C8F70895FB01DC0102C001900D92A8
:103C200041505040D8F70895DC0101C06D934150D8
:103C30005040E0F70895FB01DC0101900D92002057
:103C4000E1F70895FB01DC014150504048F001903C
:103C50000D920020C9F701C01D9241505040E0F77D
:103C60000895FB0151915523A9F0BF01DC014D914D
:103C700045174111E1F759F4CD010190002049F0B9
:103C80004D9140154111C9F3FB014111EFCF81E086
:103C900090E001970895FA01A191B081009719F47D
:103CA0001097E1F0CD01DC01CD010D90002011F461
:103CB000C00113C0FB012191222319F02015D9F76F
:103CC000F3CFFB012191201519F41E92119606C025
:103CD0002223C1F70D900020A1F7D001FA01A19392
:103CE000B08308957AE0979F902D879F802D910D46
:103CF00011240895AEE0B0E0E0E8FEE10C94CC249D
:103D00000D891E8986E08C831A8309838FEF9FE7D4
:103D10009E838D83AE01475E5F4F6F89788DCE01A4
:103D200001960E94E11EEF81F885E00FF11F1082DD
:103D30002E96E4E00C94E824AEE0B0E0E2EAFEE186
:103D40000C94CE2485E08C838B899C899A8389830B
:103D5000AE01495E5F4F6D897E89CE0101960E945A
:103D60005E222E96E2E00C94EA24AEE0B0E0EBEBAB
:103D7000FEE10C94CC248C01FA0186E08C831A833A
:103D8000098377FF02C060E070E8CB0101979E8352
:103D90008D83A901BF01CE0101960E94E11E4D81D4
:103DA0005E8157FD0AC02F813885421753070CF4F6
:103DB0009A01F801E20FF31F10822E96E4E00C94B2
:103DC000E824ABE0B0E0E7EEFEE10C94BE246C0129
:103DD0007B018A01FC0117821682838181FFCCC19D
:103DE000CE0101963C01F6019381F70193FD859187
:103DF00093FF81917F01882309F4BAC1853239F498
:103E000093FD859193FF81917F01853229F4B6015D
:103E100090E00E94D123E7CF912C212C312CFFE19F
:103E2000F315D8F08B3279F038F4803279F08332A0
:103E3000A1F4232D20611DC08D3261F0803369F41F
:103E4000232D216016C0832D8260382EE32DE4607F
:103E50003E2E2AC0F32DF8601DC037FC2DC020ED8A
:103E6000280F2A3040F08E32B9F436FC81C1232D60
:103E70002064322E19C036FE06C08AE0989E200DBE
:103E80001124922E11C0EAE02E9E200D1124222E24
:103E9000F32DF0623F2E08C08C3621F4832D80680C
:103EA000382E02C0883641F4F70193FD859193FFC7
:103EB00081917F018111B3CF982F9F7D95549330CD
:103EC00028F40C5F1F4F9FE399830DC0833631F0B8
:103ED000833771F0833509F059C021C0F801808122
:103EE00089830E5F1F4F88248394912C530113C044
:103EF0002801F2E04F0E511CF801A080B18036FE7F
:103F000003C0692D70E002C06FEF7FEFC5010E9412
:103F100088234C018201F32DFF773F2E16C0280124
:103F200022E0420E511CF801A080B18036FE03C091
:103F3000692D70E002C06FEF7FEFC5010E947D2305
:103F40004C01F32DF0683F2E820133FC1BC0822D03
:103F500090E088169906B0F4B60180E290E00E94E5
:103F6000D1232A94F4CFF50137FC859137FE819156
:103F70005F01B60190E00E94D12321102A9421E034
:103F8000821A91088114910471F7E8C0843611F007
:103F9000893641F5F80137FE07C060817181828161
:103FA00093810C5F1F4F08C060817181072E000C48
:103FB000880B990B0E5F1F4FF32DFF763F2E97FF57
:103FC00009C090958095709561957F4F8F4F9F4F59
:103FD000F0683F2E2AE030E0A3010E942624882EBC
:103FE000861845C0853731F4232D2F7EB22E2AE066
:103FF00030E025C0932D997FB92E8F36C1F018F48B
:10400000883579F0B5C0803719F0883721F0B0C015
:10401000E92FE061BE2EB4FE0DC0FB2DF460BF2E73
:1040200009C034FE0AC0292F2660B22E06C028E03F
:1040300030E005C020E130E002C020E132E0F801CC
:10404000B7FE07C060817181828193810C5F1F4F31
:1040500006C06081718180E090E00E5F1F4FA30178
:104060000E942624882E8618FB2DFF773F2E36FED1
:104070000DC0232D2E7FA22E891458F434FE0BC0C0
:1040800032FC09C0832D8E7EA82E05C0B82CA32C2F
:1040900003C0B82C01C0B92CA4FE0FC0FE01E80D6E
:1040A000F11D8081803321F49A2D997EA92E09C0BB
:1040B000A2FE06C0B394B39404C08A2D867809F09A
:1040C000B394A3FC11C0A0FE06C0B21488F4280C5F
:1040D000922C9B180EC0B21460F4B60180E290E0FE
:1040E0000E94D123B394F7CFB21418F42B1802C056
:1040F000982C212CA4FE10C0B60180E390E00E9411
:10410000D123A2FE17C0A1FC03C088E790E002C043
:1041100088E590E0B6010CC08A2D867859F0A1FEA2
:1041200002C08BE201C080E2A7FC8DE2B60190E004
:104130000E94D123891438F4B60180E390E00E94F4
:10414000D1239A94F7CF8A94F301E80DF11D808171
:10415000B60190E00E94D1238110F5CF222009F40E
:1041600042CEB60180E290E00E94D1232A94F6CF9D
:10417000F6018681978102C08FEF9FEF2B96E2E1D7
:104180000C94DA2420FD09C0FC0123FD05C022FFA8
:1041900002C07383628351834083089544FD17C036
:1041A00046FD17C0AB01BC01DA01FB01AA0FBB1F22
:1041B000EE1FFF1F1094D1F74A0F5B1F6E1F7F1F6A
:1041C000CB01BA01660F771F881F991F09C033E022
:1041D00001C034E0660F771F881F991F3150D1F757
:1041E000620F711D811D911D08950F931F93CF9331
:1041F000DF938C01C8010E949323EC0197FD08C056
:104200000E94021E892BB1F7B801CE010E940D2435
:10421000CE01DF91CF911F910F9108958F929F92C0
:10422000AF92BF92EF92FF920F931F93CF93DF93C2
:104230008C01D62F7A01B22E0E9493239C01332742
:104240002B32310531F02D32310561F48B2D806830
:10425000B82ED15011F480E068C0C8010E949323A9
:1042600097FDF9CFCB2DCD7F2B2D207309F5803312
:10427000F9F4AA24AA94AD0E09F443C0C8010E941F
:10428000932397FD3EC09C012F7D332728353105B0
:1042900049F4C264D250A9F1C8010E94932397FF48
:1042A00007C02FC0B6FE02C0C26001C0C261DA2DD5
:1042B000812C912C540120ED280F283080F0C4FF70
:1042C00004C0B8010E940D2419C02A3040F0C6FF76
:1042D000F8CF2F7D3FEE320F363098F727504C2F16
:1042E000C501B4010E94CE204B015C01C260D150D7
:1042F00059F0C8010E94932397FFDDCFC1FD04C090
:10430000AACF812C912C5401C7FF08C0B094A0946F
:1043100090948094811C911CA11CB11C2C2FB50180
:10432000A401C7010E94C22081E0DF91CF911F91BB
:104330000F91FF90EF90BF90AF909F908F90089556
:10434000A0E2B0E0E6EAF1E20C94C1245C01962E12
:104350007A01F9018E010F5F1F4F680180E2D801D9
:104360001D928A95E9F7D50113968C9080E090E034
:10437000612C712C30E061E070E083FC259183FEBC
:1043800021918F01522E211103C080E090E092C054
:104390002E3511F4009751F1432F50E0481759077B
:1043A0003CF42D3559F12D3219F4772009F103C071
:1043B000772009F46AC0452D469546954695D60165
:1043C000A40FB11D452D47708B0102C0000F111FB6
:1043D0004A95E2F7A8015C91452B4C93651459F07E
:1043E000561410F45394E7CF5A94E5CF31E004C04B
:1043F0007724739401C0712C0196BFCF772019F0F8
:104400008E8180628E83311103C08824839417C00B
:10441000F6019E012F5D3F4F8081809581932E177D
:104420003F07D1F7F2CFE114F10429F0D7018C93C3
:10443000F70131967F019A94812C9920F9F0C501FA
:104440000E94932397FD18C0FC01FF2723E0F595F8
:10445000E7952A95E1F7EC0DFD1D208130E0AC01D8
:104460004770552702C0359527954A95E2F720FDFC
:10447000DACFB5010E940D24811087CFE114F10439
:1044800011F0D7011C92C80115C0422F46954695E0
:104490004695D601A40FB11D422F47708B0102C073
:1044A000000F111F4A95E2F7A8015C91452B4C9330
:1044B000622EA2CFA096EFE00C94DD24A0E0B0E045
:1044C000E4E6F2E20C94C1246C01EB015A01FC0118
:1044D00017821682512CF601E380FE01E3FC8591E0
:1044E000E3FE8191182FEF01882309F4EEC090E0DC
:1044F0000E94021E892B21F0C6010E94F520EBCFFD
:10450000153241F4FE01E3FC1591E3FE1191EF0138
:10451000153281F4C6010E94932397FDD4C0412F28
:1045200050E09C01332724173507A9F2B6010E94F9
:104530000D24CBC01A3239F4E3FC1591E3FE11913E
:10454000EF0101E001C000E0F12C20ED210F2A3045
:1045500080F402606F2D70E080E090E040E20E9405
:10456000CE20F62EFE01E3FC1591E3FE1191EF0142
:10457000ECCF01FF03C0F11003C0A7C0FF24FA94E1
:10458000183619F01C3651F010C0FE01E3FC1591ED
:10459000E3FE1191EF01183641F408600460FE015A
:1045A000E3FC1591E3FE1191EF01112309F48DC095
:1045B000612F70E088E690E00E947223892B09F455
:1045C00084C000FD07C0F50180809180C50102967E
:1045D0005C0102C0812C912C1E3651F4F6014681FB
:1045E000578160E070E0202FC4010E94C22073CF89
:1045F0001336A9F401FD02C0FF24F394C6010E9402
:10460000932397FD60C08114910429F0F401808305
:10461000C40101964C01FA94F110F0CF50C01B3543
:1046200059F49E01A4016F2DC6010E94A021EC0146
:10463000892B09F044C03EC0C6010E94F52097FDB9
:1046400042C01F3661F128F4143639F1193651F1A0
:1046500028C0133771F0153701F123C0811491047C
:1046600029F0F4016082C40101964C01FA94FF2004
:1046700071F0C6010E9493233C0197FD08C00E947F
:10468000021E892B59F3B601C3010E940D24811427
:104690009104A9F0F401108212C0006203C000610D
:1046A00001C00064202FA4016F2DC6010E940E21BD
:1046B000811105C0F6018381807329F406C000FDD5
:1046C0000ACF539408CF552019F0852D90E002C0F1
:1046D0008FEF9FEFCDB7DEB7EFE00C94DD24992785
:1046E00088270895FC010590061621F00020D9F7CF
:1046F000C00108953197CF010895FC0105906150E4
:1047000070400110D8F7809590958E0F9F1F0895E7
:10471000FC016150704001900110D8F78095909590
:104720008E0F9F1F0895CF93DF93EC012B8120FF05
:1047300033C026FF0AC02F7B2B838E819F81019679
:104740009F838E838A8190E029C022FF0FC0E88179
:10475000F9818081082E000C990B009719F42062D2
:104760002B831AC03196F983E8830EC0EA85FB8556
:10477000099597FF09C02B81019611F080E201C0D5
:1047800080E1822B8B8308C02E813F812F5F3F4FBA
:104790003F832E83992702C08FEF9FEFDF91CF9148
:1047A00008950F931F93CF93DF93FB01238121FD86
:1047B00003C08FEF9FEF2CC022FF16C046815781A8
:1047C000248135814217530744F4A081B1819D01B2
:1047D0002F5F3F4F318320838C93268137812F5F5A
:1047E0003F4F3783268314C08B01EC01FB0100840B
:1047F000F185E02D0995892BE1F6D80116968D916A
:104800009C911797019617969C938E931697CE01BD
:10481000DF91CF911F910F910895FB01238120FF1C
:1048200012C026FD10C08F3F3FEF930761F08283D7
:104830002F7D2064238326813781215031093783DE
:104840002683992708958FEF9FEF0895FA01AA27ED
:10485000283051F1203181F1E8946F936E7F6E5FC3
:104860007F4F8F4F9F4FAF4FB1E03ED0B4E03CD071
:10487000670F781F891F9A1FA11D680F791F8A1F54
:10488000911DA11D6A0F711D811D911DA11D20D0BB
:1048900009F468943F912AE0269F11243019305D75
:1048A0003193DEF6CF010895462F4770405D419366
:1048B000B3E00FD0C9F7F6CF462F4F70405D4A33B3
:1048C00018F0495D31FD4052419302D0A9F7EACF7B
:1048D000B4E0A6959795879577956795BA95C9F7AA
:1048E00000976105710508959B01AC010A2E06949D
:1048F0005795479537952795BA95C9F7620F731F56
:10490000841F951FA01D0895DC01CB01FC01F999BE
:10491000FECF06C0F2BDE1BDF89A319600B40D920B
:1049200041505040B8F70895F999FECF92BD81BD2E
:10493000F89A992780B50895DC01A40FB51F41505E
:10494000504048F0CB01840F951F2E910E94AD245A
:1049500041505040D0F70895262FF999FECF92BDCF
:1049600081BDF89A019700B4021639F01FBA20BD34
:104970000FB6F894FA9AF99A0FBE08952F923F92C3
:104980004F925F926F927F928F929F92AF92BF925F
:10499000CF92DF92EF92FF920F931F93CF93DF930B
:1049A000CDB7DEB7CA1BDB0B0FB6F894DEBF0FBE68
:1049B000CDBF09942A88398848885F846E847D84B5
:1049C0008C849B84AA84B984C884DF80EE80FD80B7
:1049D0000C811B81AA81B981CE0FD11D0FB6F8942D
:0E49E000DEBF0FBECDBFED010895F894FFCFEE
:1049EE000000A404800001B603BD036617661754C9
:1049FE004F3F00544F3A003A494E56003B002A2092
:104A0E0070617373776F7264206368616E6765643B
:104A1E00202A0A002A2075706461746520656E6113
:104A2E00626C6564202A0A00205B525353493A0097
:104A3E005D005500000000009C08A3036F08EB0802
:104A4E006709260544034005C505BD044D095703F6
:104A5E004903464C583F4E4F4B3A4E4F464C4153EE
:104A6E004800464C583F4F4B00464C583F454F462A
:104A7E0000464C583F00464C583A25753A00464C75
:104A8E0058494D473A00464C583A25753A4F4B0017
:104A9E00464C583F4E4F4B3A4845583E33316B00CB
:104AAE0054696D656F75742F4572726F722C206527
:104ABE00726173696E67207772697474656E2064B3
:104ACE00617461202E2E2E200052656164696E671E
:104ADE00204E4F444520436F6E66696700437573E1
:104AEE00746F6D204E4F444520436F6E66696700AC
:104AFE0073616D706C65456E63727970744B657918
:104B0E0000536176696E67204E4F444520436F6EA9
:104B1E00666967002A20627574746F6E202A0031F0
:104B2E0000300053656E64696E67206E6574776F32
:104B3E00726B2064617461004578697420696E63DC
:104B4E006C75646500536176696E67207261646985
:104B5E006F20636F6E66696700000000004614A93F
:104B6E001507149314D913F313E5130D0A006E6190
:0A4B7E006E00696E66006F76660037
:00000001FF
